S0100000626C616E636865722E73726563D5
S11300009AC00000B8C00000B6C00000B4C0000030
S1130010B2C00000B0C00000AEC00000ACC0000020
S1130020AAC00000A8C00000A6C00000A4C0000030
S11300300C94570B0C943C169EC000009CC000000E
S11300409AC0000099C0000096C0000094C000004F
S113005092C0000090C000008EC000008CC0000060
S11300608AC00000F1C3000028C4000084C000005E
S113007082C0000085C300007EC000007CC0000078
S1130080E1C0000078C0000076C0000074C0000029
S1130090E1C4000018C500006EC000006CC0000080
S11300A06AC0000068C0000033C1000064C00000E2
S11300B062C0000060C000005EC000008FC100008C
S11300C05AC0000058C0000056C00000D2C500004D
S11300D009C6000050C00000D8C600000FC70000C9
S11300E04AC00000C4E5DAE00AE61AE08091530A47
S11300F08823D1F00FB6F8940F92ED81FE818681AA
S1130100978102960E94BF098091520A8150809380
S1130110520A8091530A81508093530A0F900FBE64
S11301208091530A8111E6CFF80180818230F0F288
S11301300E94940ADBCF11241FBECFEFD1E2DEBFB1
S1130140CDBF00E00CBF12E0A0E0B2E0EAE2FDE2C5
S113015000E00BBF02C007900D92A837B107D9F792
S11301602DE0A8E7B2E001C01D92AF31B207E1F77C
S1130170B9D20C94931644CF1F920F920FB60F92DC
S113018011240BB60F92CF92DF92EF92FF920F934E
S11301901F932F933F934F935F936F937F938F930B
S11301A09F93AF93BF93EF93FF930E9431168B01FC
S11301B09C016093230B7093240B8093250B9093E5
S11301C0260B4091030B5091040B6091050B709129
S11301D0060B68017901C41AD50AE60AF70AC701B1
S11301E0B601C0920B0BD0920C0BE0920D0BF09267
S11301F00E0B0093030B1093040B2093050B309309
S1130200060BE0911D0BF0911E0B0280F381E02D93
S11302101995FF91EF91BF91AF919F918F917F912C
S11302206F915F914F913F912F911F910F91FF908B
S1130230EF90DF90CF900F900BBE0F900FBE0F90FA
S11302401F9018951F920F920FB60F9211240BB6A0
S11302500F92CF92DF92EF92FF920F931F932F93FF
S11302603F934F935F936F937F938F939F93AF933A
S1130270BF93EF93FF930E9431168B019C0160930F
S1130280190B70931A0B80931B0B90931C0B4091CA
S1130290FD0A5091FE0A6091FF0A7091000B6801FB
S11302A07901C41AD50AE60AF70AC701B601C09251
S11302B00B0BD0920C0BE0920D0BF0920E0B0093F3
S11302C0FD0A1093FE0A2093FF0A3093000BE0917D
S11302D0010BF091020B0280F381E02D1995FF913F
S11302E0EF91BF91AF919F918F917F916F915F91AA
S11302F04F913F912F911F910F91FF90EF90DF90BD
S1130300CF900F900BBE0F900FBE0F901F901895BB
S11303101F920F920FB60F9211240BB60F92CF9229
S1130320DF92EF92FF920F931F932F933F934F937C
S11303305F936F937F938F939F93AF93BF93EF9349
S1130340FF930E9431168B019C0160930F0B7093F5
S1130350100B8093110B9093120B40911F0B509133
S1130360200B6091210B7091220B68017901C41A52
S1130370D50AE60AF70AC701B601C0920B0BD09260
S11303800C0BE0920D0BF0920E0B00931F0B1093CD
S1130390200B2093210B3093220BE091130BF0914F
S11303A0140B0280F381E02D1995FF91EF91BF9119
S11303B0AF919F918F917F916F915F914F913F91F9
S11303C02F911F910F91FF90EF90DF90CF900F909E
S11303D00BBE0F900FBE0F901F9018951F920F9297
S11303E00FB60F9211240BB60F922F933F934F9396
S11303F05F936F937F938F939F93AF93BF93EF9389
S1130400FF9381E6E4D21092240160910B0B70916A
S11304100C0B80910D0B90910E0BE091270BF0913A
S1130420280B0280F381E02D1995FF91EF91BF9184
S1130430AF919F918F917F916F915F914F913F9178
S11304402F910F900BBE0F900FBE0F901F90189519
S113045060E080E0DCC1089561E080E0D8C10895E7
S1130460E8E7F2E0208381834283538364837583C6
S11304708CE292E09783868388E292E0918780877A
S1130480BF0180E001C00895FB01811186C0808115
S11304908093A60241816281738184819581268142
S11304A037813093A1022093A002208531853093B7
S11304B09F0220939E021092A3021092A202109215
S11304C0A5021092A402413009F520918402211161
S11304D0C8C021E0209384022BD386E296E0909357
S11304E097028093960284E396E090939902809316
S11304F098028DEE95E090939B0280939A028DE092
S113050096E090939D0280939C020895423009F5F1
S1130510209183022111A5C021E02093830217D4E6
S113052082E397E0909397028093960280E497E0A9
S113053090939902809398028CEF96E090939B029B
S113054080939A0289E197E090939D0280939C02A4
S11305500895433009F085C020918202211181C0A1
S113056021E020938202FFD48EE398E090939702D7
S1130570809396028CE498E0909399028093980279
S113058088E098E090939B0280939A0285E298E039
S113059090939D0280939C020895813009F061C07C
S11305A080818093950241816281738184819581E8
S11305B0268137813093900220938F0220853185E4
S11305C030938E0220938D02109292021092910227
S11305D01092940210929302413009F52091840202
S11305E021113FC021E020938402A2D286E296E04A
S11305F0909388028093870284E396E09093860226
S1130600809385028DEE95E090938A02809389020F
S11306108DE096E090938C0280938B020895423093
S113062001F52091830221111CC021E02093830253
S11306308ED382E397E0909388028093870280E4CC
S113064097E090938602809385028CEF96E09093D6
S11306508A028093890289E197E090938C028093C7
S11306608B0208958091A7029091A802019690931D
S1130670A8028093A70280E092E0DED16091A702F5
S11306807091A80280E090E0BBD18AE0A0D120E084
S113069040E050E060E070E08091C8029091C902AF
S11306A00E947C0C85E192E0C7D18AEF90E00E9421
S11306B08311D8CF81E392E0BFD16FEF7FEF8091B8
S11306C0C8029091C9020E94CF0D88E492E0B4D18F
S11306D06091A7027091A80280E090E091D18AE035
S11306E076D1E8CF8FEF8DB960E875E280E090E0D5
S11306F019D10E9413160F2EF9E2CF2EFBE0DF2E44
S1130700F02D0F2EF4E8EF2EFBE0FF2EF02D02E08B
S113071020E030E048EC50E06FE572E08AE593E0D9
S11307200E94050F9093CD028093CC020F2EF1E529
S1130730CF2EFBE0DF2EF02D0F2EFCE4EF2EFCE09D
S1130740FF2EF02D20E030E048EC50E065E672E04A
S113075082E393E00E94050F9093CB028093CA0238
S113076003E029EA32E040E050E060E081E00E94EA
S1130770670C9093C9028093C8020E94FB0FFFCFBD
S11307801F920F920FB60F9211242F938F939F9362
S1130790809178002091790090E0922B9093D00280
S11307A08093CF0281E08093CE029F918F912F910D
S11307B00F900FBE0F901F90189550985198519814
S11307C053982098559854983C9A3F9A3D9A399A50
S11307D0399A579A389A3898569A3B9AE4E0F1E055
S11307E08081846080833F9A3F9A3F9AE1E0F1E000
S11307F080818E7F8083808182608083E2E0F1E06B
S11308008081816080835298539A5A9A08958823EC
S113081019F0813089F00895613031F4E5E0F1E0B8
S1130820808184608083089561110DC0E5E0F1E06A
S113083080818B7F80830895613011F4479A0895F5
S1130840611101C0479808951F920F920FB60F923D
S113085011240BB60F922F933F934F935F938F9373
S11308609F93EF93FF932091C0003091C6002871AD
S11308708091E60590E001968F7799274091E505F0
S113088050E08417950739F08093E605FC01E751A1
S1130890FA4F308301C022E02093E405FF91EF91E9
S11308A09F918F915F914F913F912F910F900BBE2C
S11308B00F900FBE0F901F9018951F920F920FB6B6
S11308C00F9211240BB60F928F939F93EF93FF9384
S11308D09091E8058091E705981789F08091E705E4
S11308E090E001968F7799278093E705FC01E759FB
S11308F0F94F80818093C6001092D40208C0E1ECC5
S1130900F0E080818F7D808381E08093D402FF9129
S1130910EF919F918F910F900BBE0F900FBE0F9090
S11309201F9018950F931F938B019C01F8941092BC
S1130930E8051092E7051092E6051092E505789413
S1130940DC01CB0180589B47A14EBF4F880F991FF4
S1130950AA1FBB1F880F991FAA1FBB1FBC01CD0173
S1130960660F771F881F991F000F111F221F331F47
S1130970000F111F221F331FA9019801220F331FDB
S1130980441F551F220F331F441F551F0E94611619
S1130990BA01A901415051096109710957FF06C003
S11309A082E08093C0005F7766277727BB27A72F55
S11309B0962F852F8093C5004093C40088E98093C7
S11309C0C10086E08093C2001F910F910895409169
S11309D0E80550E04F5F5F4F4F7755272091E705BB
S11309E030E042175307D1F3FA01E759F94F8083F6
S11309F04093E805E1ECF0E0808180628083089513
S1130A000F931F93CF93DF936A307105810591058E
S1130A1058F02AE030E040E050E00E946116062FD2
S1130A20CA01B901EDDF602F80E3860FD0DFDF91CB
S1130A30CF911F910F910895CF93DF93EC0188819B
S1130A40882329F02196C3DF89918111FCCFDF919E
S1130A50CF9108951F920F920FB60F9211240BB6E7
S1130A600F922F933F934F935F938F939F93EF93A3
S1130A70FF932091C8003091CE0028718091E10449
S1130A8090E001968F7799274091E00450E0841715
S1130A90950739F08093E104FC01EC51FB4F30835E
S1130AA001C022E02093DF04FF91EF919F918F9189
S1130AB05F914F913F912F910F900BBE0F900FBEFE
S1130AC00F901F9018951F920F920FB60F9211243A
S1130AD00BB60F928F939F93EF93FF939091E30440
S1130AE08091E204981789F08091E20490E00196E5
S1130AF08F7799278093E204FC01EC59FA4F8081A7
S1130B008093CE001092D30208C0E9ECF0E080811B
S1130B108F7D808381E08093D302FF91EF919F9139
S1130B208F910F900BBE0F900FBE0F901F901895D2
S1130B300F931F938B019C01F8941092E30410927D
S1130B40E2041092E1041092E0047894DC01CB01F9
S1130B5080589B47A14EBF4F880F991FAA1FBB1FE8
S1130B60880F991FAA1FBB1FBC01CD01660F771FF9
S1130B70881F991F000F111F221F331F000F111F01
S1130B80221F331FA9019801220F331F441F551F31
S1130B90220F331F441F551F0E946116BA01A90179
S1130BA0415051096109710957FF06C082E08093E1
S1130BB0C8005F7766277727BB27A72F962F852F37
S1130BC08093CD004093CC0088E98093C90086E0EF
S1130BD08093CA001F910F910895F8949091E104B5
S1130BE08091E004981304C0789480E091E0089523
S1130BF08091E00490E001968F7799278093E00438
S1130C007894FC01EC51FB4F20818091DF0490E04B
S1130C10982F8827820F911D08954091E30450E096
S1130C204F5F5F4F4F7755272091E20430E0421722
S1130C305307D1F3FA01EC59FA4F80834093E3044C
S1130C40E9ECF0E08081806280830895F8948091DB
S1130C50E1042091E004789490E080589F4F821B37
S1130C6091098F77992708958091D3028823E1F31E
S1130C7008951F920F920FB60F9211240BB60F9284
S1130C802F933F934F935F938F939F93EF93FF9390
S1130C902091D0003091D60028718091DC0390E03F
S1130CA001968F7799274091DB0350E084179507CD
S1130CB039F08093DC03FC01E152FC4F308301C026
S1130CC022E02093DA03FF91EF919F918F915F913E
S1130CD04F913F912F910F900BBE0F900FBE0F902D
S1130CE01F9018951F920F920FB60F9211240BB6F6
S1130CF00F928F939F93EF93FF939091DE038091D4
S1130D00DD03981789F08091DD0390E001968F77D9
S1130D1099278093DD03FC01E15AFB4F8081809386
S1130D20D6001092D20208C0E1EDF0E080818F7D00
S1130D30808381E08093D202FF91EF919F918F9104
S1130D400F900BBE0F900FBE0F901F9018950F932E
S1130D501F938B019C01F8941092DE031092DD0323
S1130D601092DC031092DB037894DC01CB018058F1
S1130D709B47A14EBF4F880F991FAA1FBB1F880F07
S1130D80991FAA1FBB1FBC01CD01660F771F881FC7
S1130D90991F000F111F221F331F000F111F221F45
S1130DA0331FA9019801220F331F441F551F220F1F
S1130DB0331F441F551F0E946116BA01A9014150F7
S1130DC051096109710957FF06C082E08093D00080
S1130DD05F7766277727BB27A72F962F852F8093CA
S1130DE0D5004093D40088E98093D10086E08093B5
S1130DF0D2001F910F9108959091DC038091DB0341
S1130E009817A1F08091DB0390E001968F779927E2
S1130E108093DB03FC01E152FC4F20818091DA03D3
S1130E2090E0982F8827820F911D089580E091E02B
S1130E3008954091DE0350E04F5F5F4F4F77552791
S1130E402091DD0330E042175307D1F3FA01E15A50
S1130E50FB4F80834093DE03E1EDF0E0808180620C
S1130E6080830895F8948091DC032091DB037894C7
S1130E7090E080589F4F821B91098F77992708959E
S1130E808091D2028823E1F308951F920F920FB646
S1130E900F9211240BB60F922F933F934F935F93AE
S1130EA08F939F93EF93FF932091300130913601FC
S1130EB028718091D70290E001968F77992740910D
S1130EC0D60250E08417950739F08093D702FC01CD
S1130ED0E652FD4F308301C022E02093D502FF91FA
S1130EE0EF919F918F915F914F913F912F910F902F
S1130EF00BBE0F900FBE0F901F9018951F920F926C
S1130F000FB60F9211240BB60F928F939F93EF930A
S1130F10FF939091D9028091D802981789F080911B
S1130F20D80290E001968F7799278093D802FC012C
S1130F30E65AFC4F8081809336011092D10208C09A
S1130F40E1E3F1E080818F7D808381E08093D102B1
S1130F50FF91EF919F918F910F900BBE0F900FBE59
S1130F600F901F9018950F931F938B019C01F89479
S1130F701092D9021092D8021092D7021092D6027F
S1130F807894DC01CB0180589B47A14EBF4F880F5A
S1130F90991FAA1FBB1F880F991FAA1FBB1FBC0143
S1130FA0CD01660F771F881F991F000F111F221F85
S1130FB0331F000F111F221F331FA9019801220F95
S1130FC0331F441F551F220F331F441F551F0E94F8
S1130FD06116BA01A901415051096109710957FF0C
S1130FE006C082E0809330015F7766277727BB27AE
S1130FF0A72F962F852F809335014093340188E9DC
S11310008093310186E0809332011F910F910895FE
S11310109091D7028091D6029817A1F08091D602C0
S113102090E001968F7799278093D602FC01E652CF
S1131030FD4F20818091D50290E0982F8827820F60
S1131040911D089580E091E008954091D90250E007
S11310504F5F5F4F4F7755272091D80230E04217FA
S11310605307D1F3FA01E65AFC4F80834093D90227
S1131070E1E3F1E08081806280830895F8948091B7
S1131080D7022091D602789490E080589F4F821B1B
S113109091098F77992708958091D1028823E1F3EC
S11310A0089508950F9303E02EE837E040E050E000
S11310B060E081E00CD49093AE078093AD072DE6F9
S11310C037E040E050E060E081E001D490938D0788
S11310D080938C072CE437E040E050E060E081E04E
S11310E0F6D390936C0780936B072BE237E040E0D4
S11310F050E060E081E0EBD390934B0780934A0784
S11311002AE037E040E050E060E081E0E0D39093F3
S11311102A078093290729EE36E040E050E060E09A
S113112081E0D5D390930907809308070F91089520
S11311300F9303E020ED37E040E050E060E081E011
S1131140C6D39093F0078093EF072FEA37E040E08F
S113115050E060E081E0BBD39093CF078093CE074B
S11311600F9108959EDF9EDF03D0E2DF31C0089522
S11311700F9303E024E538E040E050E060E081E0D4
S1131180A6D3909374088093730823E338E040E077
S113119050E060E081E09BD3909353088093520821
S11311A022E138E040E050E060E081E090D39093A9
S11311B032088093310821EF37E040E050E060E0EE
S11311C081E085D390931108809310080F910895BE
S11311D00F9303E02AE139E040E050E060E081E071
S11311E076D390933A098093390929EF38E040E0A7
S11311F050E060E081E06BD3909319098093180963
S113120028ED38E040E050E060E081E060D3909366
S1131210F8088093F70827EB38E040E050E060E0FE
S113122081E055D39093D7088093D60826E938E017
S113123040E050E060E081E04AD39093B6088093A8
S1131240B50825E738E040E050E060E081E03FD3B6
S113125090939508809394080F910895279A2F9A54
S11312602FEF87EA91E6215080409040E1F700C0DB
S113127000001F9AF5CF2DE03AE0FC013183208372
S113128088EB99E0FB019183808385E590E0FA0186
S113129091838083089520E939E0FC013183208320
S11312A08BE399E0FB019183808385E590E0FA016B
S11312B0918380830895FC010396928381832FEFA9
S11312C03FEF3483238396838583908787831082BB
S11312D00895FC01118610860895CF93DF939C0135
S11312E0FB01DC011196CD91DC911297D383C2836B
S11312F08C819D81958384838C819D81DC011396EF
S11313007C936E9312977D836C8331872087F901D8
S113131080818F5F8083DF91CF910895CF93DF9396
S1131320EB01488159814F3F2FEF520721F4FC0113
S1131330A781B0850DC0DC01139601C0DF011296B0
S1131340ED91FC9113972081318142175307B0F737
S11313501296ED91FC911397FB83EA83D583C483A2
S1131360BD83AC831396DC93CE93129799878887B9
S1131370FC0120812F5F2083DF91CF910895CF93CB
S1131380DF93FC01A085B185C281D38184819581DD
S11313909D838C83C481D581828193819B838A833D
S11313A011968D919C911297E817F90731F4848175
S11313B0958112969C938E931197118610868C9129
S11313C081508C938C91DF91CF91089531E1FC0190
S11313D03083319722E220833197A3E3A0833197AE
S11313E060833197708331971082319710823197DF
S11313F060E86083319710823197108231971082B0
S1131400319762E06083319763E06083319764E0F1
S11314106083319765E06083319766E0608331973C
S113142067E06083319768E06083319769E06083A7
S1131430319760E1608331973083319732E13083B3
S1131440319733E13083319734E13083319735E19B
S11314503083319736E13083319737E130833197E8
S113146038E13083319739E13083319730E230838A
S1131470319731E2308331972083319723E22083FF
S11314803197408331975083319726E220833197F7
S113149027E22083319728E22083319729E22083B1
S11314A0319720E32083319721E32083899708959E
S11314B0A89590EC88E10FB6F894A8958093600005
S11314C00FBE90936000A0918E0AB0918F0ACD91C7
S11314D0CDBFDD91DEBFFF91EF91DF91CF91BF9141
S11314E0AF919F918F917F916F915F914F913F91B8
S11314F02F911F910F91FF90EF90DF90CF90BF90AD
S1131500AF909F908F907F906F905F904F903F909F
S11315102F901F900F900CBE0F900BBE0F900FBE1C
S11315200F90089581E008950F920FB6F8940F92EA
S11315300BB60F920CB60F921F9211242F923F926A
S11315404F925F926F927F928F929F92AF92BF92CF
S1131550CF92DF92EF92FF920F931F932F933F93BB
S11315604F935F936F937F938F939F93AF93BF93A7
S1131570CF93DF93EF93FF93A0918E0AB0918F0ADC
S11315800DB60D920EB60D92CED6A0918E0AB091E4
S11315908F0ACD91CDBFDD91DEBFFF91EF91DF9139
S11315A0CF91BF91AF919F918F917F916F915F91F7
S11315B04F913F912F911F910F91FF90EF90DF90EA
S11315C0CF90BF90AF909F908F907F906F905F90DF
S11315D04F903F902F901F900F900CBE0F900BBE1A
S11315E00F900FBE0F9008950F920FB6F8940F92BC
S11315F00BB60F920CB60F921F9211242F923F92AA
S11316004F925F926F927F928F929F92AF92BF920E
S1131610CF92DF92EF92FF920F931F932F933F93FA
S11316204F935F936F937F938F939F93AF93BF93E6
S1131630CF93DF93EF93FF93A0918E0AB0918F0A1B
S11316400DB60D920EB60D9213BE2DD581116BD62B
S1131650A0918E0AB0918F0ACD91CDBFDD91DEBFEE
S1131660FF91EF91DF91CF91BF91AF919F918F91B6
S11316707F916F915F914F913F912F911F910F91A6
S1131680FF90EF90DF90CF90BF90AF909F908F909E
S11316907F906F905F904F903F902F901F900F908E
S11316A00CBE0F900BBE0F900FBE0F9008959CDFE1
S11316B018950FB6F8940F92FC01928D0F900FBEFF
S11316C081E0911180E008950F931F93CF93DF93EE
S11316D0EC01042F1A8D4C8D41110BC08881998126
S11316E0892B09F041C08C819D81C9D71D821C8240
S11316F042C0011117C050E08A819B810E94831669
S11317002C8D8A819B81820F911D9B838A832C81DE
S11317103D818217930750F1888199819B838A8345
S113172080E029C050E08E819F810E9483168C8DB9
S113173090E09195819591092E813F81280F391F61
S11317403F832E83488159812417350730F42C8137
S11317503D81820F931F9F838E83023049F41123AE
S113176049F0115080E007C080E005C080E003C06C
S113177080E001C080E01F5F1A8FDF91CF911F913D
S11317800F910895FC01448D4423A9F050E0268173
S11317903781240F351F3783268384819581281749
S11317A0390720F08081918197838683CB016681FC
S11317B077810C9483160895EF92FF920F931F93F1
S11317C0CF938C010FB6F8940F92FC01C68D1C16B2
S11317D09CF48189811106C00FC0F80181898111AF
S11317E005C00AC07801F1E1EF0EF11CC70145D62E
S11317F08111C1D6C15089F78FEFF801868F0F9000
S11318000FBE0FB6F8940F92C58D1C169CF48085FC
S1131810811106C00FC0F8018085811105C00AC07E
S11318207801F8E0EF0EF11CC70127D68111A3D689
S1131830C15089F78FEFF801858F0F900FBECF91BC
S11318401F910F91FF90EF900895CF93DF93EC01D8
S11318500FB6F8940F92E881F9818B8D2C8D90E06E
S113186030E0829FA001839F500D929F500D112460
S11318704E0F5F1F5D834C831A8EFB83EA830197AF
S1131880829FA001839F500D929F500D1124CF0180
S1131890840F951F9F838E838FEF8D8F8E8F6111A1
S11318A00AC08885882369F0CE010896E6D5882386
S11318B041F03ADE06C0CE010896FDDCCE01419629
S11318C0FADC0F900FBE81E0DF91CF910895CF93A2
S11318D0DF93E901209761F0611103C03983288304
S11318E002C0598348838B8F6C8F61E0CE01ADDFDA
S11318F0CE01DF91CF9108959F92AF92BF92CF9284
S1131900DF92EF92FF920F931F93CF93DF9300D058
S11319101F921F92CDB7DEB78C016B015D834C83A0
S1131920A22EB12C992493947C0188E0E80EF11C3A
S11319300FB6F8940F92F801928D838D981718F0D2
S1131940F2E0AF1215C04A2DB601C801BDDEF801A0
S11319509189992339F0C80141968FD5882321F0C4
S1131960E3DD02C08111E0DD0F900FBE81E045C0D0
S11319708C819D81892B21F40F900FBE80E03DC0A6
S1131980B11004C0CE010196C0D5B92C0F900FBE82
S11319907AD30FB6F8940F92F801858D8F3F09F42E
S11319A0158EF801868D8F3F09F4168E0F900FBEA9
S11319B0BE016C5F7F4FCE010196B2D5811119C073
S11319C00FB6F8940F92F801928D838D0F900FBE8D
S11319D098130BC06C817D81C70126D5C801ECDE4C
S11319E019D48111A5CFA0DDA3CFC801E5DE12D49F
S11319F09FCFC801E1DE0ED480E00F900F900F90CE
S1131A000F900F90DF91CF911F910F91FF90EF9066
S1131A10DF90CF90BF90AF909F900895EF92FF9288
S1131A200F931F93CF93DF938A01FC01528D338D63
S1131A30531710F02230E1F4422F7801EC011E8D8F
S1131A4043DE1F3F79F489898823A1F0CE014196B2
S1131A5014D5882389F0E114F10481F081E0F701C1
S1131A6080830DC0FF24F394F10EFE8E81E007C045
S1131A7080E005C081E003C081E001C081E0DF9126
S1131A80CF911F910F91FF90EF9008959F92AF9285
S1131A90BF92CF92DF92EF92FF920F931F93CF9357
S1131AA0DF9300D01F921F92CDB7DEB78C015B018C
S1131AB05D834C83E12C992493946C0181E1C80EDD
S1131AC0D11C0FB6F8940F92F801F28CFF2091F01C
S1131AD0B501C80157DEFA94F801F28E8085882397
S1131AE029F0C8010896C9D481111EDD0F900FBEDC
S1131AF081E044C08C819D81892B21F40F900FBE1D
S1131B0080E03CC0E11004C0CE010196FED4E92C73
S1131B100F900FBEB8D20FB6F8940F92F801858DCE
S1131B208F3F09F4158EF801868D8F3F09F4168EC8
S1131B300F900FBEBE016C5F7F4FCE010196F0D4B3
S1131B40811113C0C801B5DD882359F06C817D81F2
S1131B50C6016AD4C80130DE5DD38111B2CFE4DCA2
S1131B60B0CFC80129DE56D3ACCFC80125DE52D38D
S1131B70C8019FDD882309F4A4CF80E00F900F9063
S1131B800F900F900F90DF91CF911F910F91FF90C5
S1131B90EF90DF90CF90BF90AF909F900895BF9249
S1131BA0CF92DF92EF92FF920F931F93CF93DF9325
S1131BB000D01F921F92CDB7DEB78C017D836C835A
S1131BC0B12CD12CCC24C3947C0181E1E80EF11C0E
S1131BD00FB6F8940F92D8015A968C915A9788238D
S1131BE0D1F081505A968C935A978D919C91892B60
S1131BF021F4D5D5F80195838483D80118968C9166
S1131C00882329F0C801089638D481118DDC0F90FF
S1131C100FBE81E070C08C819D81892B21F40F90CF
S1131C200FBE80E068C0D11004C0CE0101966DD40F
S1131C30DC2C0F900FBE27D20FB6F8940F92F80148
S1131C40858D8F3F09F4158ED8015E968C915E9731
S1131C508F3F11F45E961C920F900FBEBE016C5F15
S1131C607F4FCE0101965CD4811121C0C80121DDD2
S1131C708823C9F0F80180819181892B49F40FB63A
S1131C80F8940F928481958188D4B82E0F900FBE5A
S1131C906C817D81C701C8D3C8018EDDBBD281119F
S1131CA097CF42DC95CFC80187DDB4D291CFC8016C
S1131CB083DDB0D2C801FDDC882309F489CFBB20C1
S1131CC0C9F00FB6F8940F92F8018189882339F08E
S1131CD00688F789E02D808164E0681B01C060E01C
S1131CE0D80114968D919C91159709D50F900FBE2C
S1131CF080E001C080E00F900F900F900F900F9044
S1131D00DF91CF911F910F91FF90EF90DF90CF90D3
S1131D10BF900895CF93DF93EC010FB6F8940F9220
S1131D208D8D8F3F09F41D8E8E8D8F3F09F41E8E8D
S1131D300F900FBE8A8D811103C0CE01419685D3C9
S1131D40CE013ADDDF91CF910895E091680AF091D8
S1131D50690A8081811107C08FEF9FEF9093490A30
S1131D608093480A0895E091680AF091690A058011
S1131D70F681E02D0680F781E02D82819381909396
S1131D80490A8093480A08950F931F93CF93DF93D2
S1131D90EC010091500A1091510A80918E0A9091A1
S1131DA08F0A0296ECDAC00FD11FE0918E0AF091EF
S1131DB08F0AD383C283C017D10760F460918E0A5F
S1131DC070918F0A8091660A9091670A6E5F7F4FC7
S1131DD0A5DA16C060918E0A70918F0A8091680A04
S1131DE09091690A6E5F7F4F99DA8091480A9091C9
S1131DF0490AC817D90720F4D093490AC093480A5E
S1131E00DF91CF911F910F9108956F927F928F92DE
S1131E109F92AF92BF92CF92DF92EF92FF920F9375
S1131E20CF93DF93C114D10409F4CCC0E114F104BD
S1131E3009F4CBC0E60159013A014B016C01F88E5B
S1131E40EF8A65EA70E0C70167D781E0681A710814
S1131E50EF88F88CE60CF71CD4018C91898F8C9157
S1131E608823A1F0AE01465E5F4FF4013196B8E0DD
S1131E708B0E911CCF012191DA012D93AD01DC0170
S1131E808C91882319F0E815F905A1F718A20430FC
S1131E9008F003E00E8B09A31AA24E01B2E08B0EE8
S1131EA0911CC40116DACE010C9613DAD987C887BF
S1131EB084E090E0801B91099D878C87DB8BCA8B23
S1131EC01BA21CA21DA21EA21FA2A501B601C7012E
S1131ED07DDA998388830FB6F8940F928091520A21
S1131EE08F5F8093520A80918E0A90918F0A892B7A
S1131EF069F5D0938F0AC0938E0A8091520A81307B
S1131F00A9F58AE69AE0D7D983E79AE0D4D98CE791
S1131F109AE0D1D985E89AE0CED98EE39AE0CBD97C
S1131F2085E39AE0C8D98DE59AE0C5D984E59AE0BD
S1131F30C2D98EE39AE09093690A8093680A85E394
S1131F409AE09093670A8093660A10C080914E0AC3
S1131F5081110CC0E0918E0AF0918F0A96898E89C6
S1131F60891720F0D0938F0AC0938E0A80914A0A71
S1131F708F5F80934A0A8E8990914F0A981710F4C4
S1131F8080934F0A90E09C01220F331F220F331FCE
S1131F90220F331F820F931FB4018659954F9DD989
S1131FA00F900FBE80914E0A882391F0E0918E0A23
S1131FB0F0918F0A96898E89981768F4B5DA8C2F78
S1131FC09D2F0BC080E090E008C080E090E005C049
S1131FD08C2F9D2F02C08C2F9D2FDF91CF910F91BD
S1131FE0FF90EF90DF90CF90BF90AF909F908F9035
S1131FF07F906F900895CF92DF92EF92FF920F93AC
S1132000CF93DF9300D000D0CDB7DEB71E821D8200
S11320101C821B82AE014F5F5F4FBE016D5F7F4F1D
S1132020CE01059628D9CD80DE80EB80FC804981E5
S11320305A8100E020E030E06BE672E082E790E055
S1132040E4DE892B91F01AD4813079F4F8948FEF7F
S11320509FEF9093490A8093480A81E080934E0A47
S11320601092510A1092500A23DA26960FB6F89469
S1132070DEBF0FBECDBFDF91CF910F91FF90EF90E8
S1132080DF90CF9008958091470A8F5F8093470A2D
S113209008950FB6F8940F928091500A9091510AC6
S11320A00F900FBE0895CF92DF92EF92FF920F939D
S11320B01F93CF93DF938091470A811195C0E090DD
S11320C0500AF090510A8FEFE81AF80AF092510A78
S11320D0E092500AE114F104B1F48091680A9091FD
S11320E0690A2091660A3091670A3093690A20933D
S11320F0680A9093670A8093660A80914B0A8F5FFF
S113210080934B0A22DE8091480A9091490AE8168E
S1132110F90610F4D12C50C0D12CCC24C394E091F6
S1132120680AF091690A8081811107C08FEF9FEFDF
S11321309093490A8093480A3FC0E091680AF0915D
S1132140690A0580F681E02DC681D7818A819B8149
S1132150E816F90628F49093490A8093480A2CC09B
S11321608E010E5F1F4FC8010AD98C899D89892B66
S113217019F0CE010C9603D98E8990914F0A9817C5
S113218010F480934F0A90E09C01220F331F220F1A
S1132190331F220F331F820F931FB8018659954FA7
S11321A09CD8E0918E0AF0918F0A9E8986899817AF
S11321B008F4B5CFDC2CB3CFE0918E0AF0918F0AEE
S11321C0868990E0FC01EE0FFF1FEE0FFF1FEE0F5C
S11321D0FF1F8E0F9F1FFC01E659F54F808182304F
S11321E048F0DD24D39406C080914D0A8F5F80931C
S11321F04D0AD12C80914C0A882311F0DD24D3940C
S11322008D2DDF91CF911F910F91FF90EF90DF9073
S1132210CF900895DF92EF92FF920F931F93CF9385
S1132220DF930FB6F8940F928091470A8150809300
S1132230470A8091470A811159C08091520A81113D
S113224030C057C0D7011596ED91FC911697C68101
S1132250D781CE010C9693D88E010E5F1F4FC80113
S11322608ED88E8990914F0A981710F480934F0A54
S113227090E09C01220F331F220F331F220F331FC4
S1132280820F931FB8018659954F27D8E0918E0A83
S1132290F0918F0A9E898689981768F0D0924C0A2B
S11322A00AC0C0E0D0E00F2EFDE5EF2EFAE0FF2ECD
S11322B0F02DDD24D394F70180818111C3CFCD2B80
S11322C009F043DDC0914D0ACC2349F0D1E0EBDEA7
S11322D08111D0934C0AC150D1F710924D0A8091CC
S11322E04C0A882329F020D981E003C080E001C092
S11322F080E00F900FBEDF91CF911F910F91FF905F
S1132300EF90DF900895CF93DF93EC01892B39F0A0
S1132310BADE60E0CE0138DD7DDF811101C004D971
S1132320DF91CF9108958091470A882321F081E0BD
S113233080934C0A089510924C0AA0918E0AB09191
S11323408F0AE0918E0AF0918F0A2D913C91878932
S1132350908D8217930760F060918E0A70918F0AB6
S113236080918E0A90918F0A675E7F4F0E942E099A
S113237020914F0A822F90E0FC01EE0FFF1FEE0F19
S1132380FF1FEE0FFF1FE80FF91FE659F54F3081CD
S1132390311111C02150822F90E0FC01EE0FFF1F7C
S11323A0EE0FFF1FEE0FFF1FE80FF91FE659F54F61
S11323B03081332379F3AC01440F551F440F551F6B
S11323C0440F551F480F591FDA01A659B54F1196EE
S11323D0ED91FC9112970280F381E02D1296FC930B
S11323E0EE9311974359554FE417F50729F44281A9
S11323F05381FD0152834183FC01EE0FFF1FEE0F59
S1132400FF1FEE0FFF1F8E0F9F1FFC01E659F54FB4
S11324100180F281E02D8681978190938F0A8093C9
S11324208E0A20934F0A0895CF93DF93EB016091B6
S11324308E0A70918F0A645F7F4F0E948E0961E05B
S1132440CE01A2DCDF91CF9108950F931F93CF9318
S11324508B01C42F60918E0A70918F0A645F7F4F45
S11324600E946D09CC2311F00FEF1FEF6C2FC801F0
S11324708BDCCF911F910F9108950F931F93CF93EE
S1132480DF93DC011596ED91FC911697C681D781F7
S11324908E01045F1F4FC8010E94BF098091470A43
S11324A081111CC00A501109C8010E94BF098E89FC
S11324B090914F0A981710F480934F0A90E09C0172
S11324C0220F331F220F331F220F331F820F931F3C
S11324D0B8018659954F0E946D0905C0B8018DE574
S11324E09AE00E946D09E0918E0AF0918F0A9E890C
S11324F08689891720F481E080934C0A01C080E02A
S1132500DF91CF911F910F91089520914B0AFC0107
S113251020832091500A3091510A328321830895F7
S11325200FB6F8940F922091500A3091510ADC01B1
S113253011964D915C911297E0914B0AFC91FE1714
S113254019F02417350798F4241B350BFB0140813F
S113255051812417350738F4421B530B51834083B0
S1132560D4DF80E005C01182108281E001C081E0E7
S11325700F900FBE089581E080934C0A08958091D6
S11325804E0A882331F08091470A882321F080E0A5
S1132590089581E0089582E008950F931F93CF93E7
S11325A0DF93FC01892B09F464C02689A0918E0A6B
S11325B0B0918F0A56968C91281708F04EC08485E6
S11325C09585992364F0A0918E0AB0918F0A56964E
S11325D03C9184E090E0831B91099587848730E0E7
S11325E0C901880F991F880F991F880F991F280FF9
S11325F0391F2659354F828593858217930721F514
S11326008F01EF012296CE010E94BF09E0918E0A4C
S1132610F0918F0A8689F801868B90914F0A98175A
S113262010F480934F0A90E09C01220F331F220F75
S1132630331F220F331F820F931FBE018659954FFC
S11326400E946D0981E016C0A0918E0AB0918F0A94
S113265056968C91868B81E00DC0A0918E0AB09124
S11326608F0A81E021A156969C91291718F080E0E9
S113267001C080E0DF91CF911F910F9108950F93D6
S11326801F93CF93DF93FC01892B79F182A18150B1
S113269082A3268991A1291751F181112AC0EF0142
S11326A08F010E5F1F4FC8010E94BF0989A18E8B45
S11326B024E030E0281B31093D872C8790914F0A94
S11326C0981710F480934F0A90E09C01220F331F57
S11326D0220F331F220F331F820F931FB801865915
S11326E0954F0E946D0981E005C080E003C080E041
S11326F001C080E0DF91CF911F910F9108950F9356
S11327001F93CF93DF93FC01892B09F443C091A15C
S1132710961708F4962F86898917E1F122A12130B2
S1132720C9F5968B24853585332334F024E030E0D5
S1132730291B31093587248790E09C01220F331F20
S1132740220F331F220F331F820F931F8659954F79
S11327502285338528173907E9F4EF018F010E5FCD
S11327601F4FC8010E94BF098E8990914F0A981784
S113277010F480934F0A90E09C01220F331F220F24
S1132780331F220F331F820F931FB8018659954FB1
S11327900E946D09DF91CF911F910F91089580914F
S11327A08E0A90918F0A892B39F0E0918E0AF0916C
S11327B08F0A82A18F5F82A380918E0A90918F0AE3
S11327C00895FC01738362839187808746175707B6
S11327D090F0421B530B8485958548175907E0F404
S11327E0BF016E5F7F4F8091F90A9091FA0A0E94AF
S11327F08E0980E008954217530718F4621773078F
S113280068F4BF016E5F7F4F8091FB0A9091FC0AD0
S11328100E948E0980E0089581E0089581E0089582
S11328200F930FB6F8940F928091F70A9091F80ADB
S1132830892B01F58AEE9AE00E945B0981EE9AE009
S11328400E945B098AEE9AE09093FC0A8093FB0A4B
S113285081EE9AE09093FA0A8093F90A00E020E965
S11328603AE04FEA5AE065E08AE031D89093F80AFA
S11328708093F70A0F900FBE0F910895CF92DF92C5
S1132880EF92FF920F93CF93DF9300D000D0CDB798
S1132890DEB7C6DF8091F70A9091F80A892B31F1EF
S11328A01E821D821C821B82AE014F5F5F4FBE01E0
S11328B06D5F7F4FCE0105960E944B09CD80DE806F
S11328C0EB80FC8049815A8103E020E030E060E73E
S11328D072E089E395E199DA9C019093F60A80937A
S11328E0F50A81E0232B19F480E001C080E02696EC
S11328F00FB6F894DEBF0FBECDBFDF91CF910F911D
S1132900FF90EF90DF90CF9008950F931F93CF9394
S1132910DF9300D01F921F92CDB7DEB7E091F70A84
S1132920F091F80A309761F1D90169835B834A8396
S11329309D838C836630E4F422DE823061F420E0EF
S1132940A801BE016F5F7F4F8091F70A9091F80A4A
S11329500E947C0C16C020E040E050E0BE016F5F96
S11329607F4F8091F70A9091F80A0E947C0C09C06D
S113297020E0AD01BE016F5F7F4FCF014FD801C092
S113298080E00F900F900F900F900F90DF91CF91F8
S11329901F910F910895AF92BF92CF92DF92EF9261
S11329A0FF920F931F93CF93DF936C0172DB7C0133
S11329B08091F30A9091F40AE816F90608F047C0EA
S11329C02FC00580F681E02DA080B180C681D7811B
S11329D08E010E5F1F4FC8010E94BF09E989FA8961
S11329E0CE0119958E858130D9F48C859D858A0D0B
S11329F09B1DA816B90660F49B838A83D987C88770
S1132A00B8018091FB0A9091FC0A0E948E0908C0CB
S1132A1000E010E020E030E0A50160E0CE0175DFC9
S1132A20E091FB0AF091FC0A80818111CACF809168
S1132A30F90A9091FA0A9093FC0A8093FB0AF093A6
S1132A40FA0AE093F90A81E0F601808302C0F601F4
S1132A501082F092F40AE092F30AC701DF91CF9159
S1132A601F910F91FF90EF90DF90CF90BF90AF90A8
S1132A700895CF93DF9300D000D0CDB7DEB7CE0159
S1132A8001964C0144244394E12CF12C512CC82E82
S1132A90D92CE091FB0AF091FC0A8081882309F487
S1132AA0B0C00580F681E02DA080B180ECDAC401CD
S1132AB072DF8C018981811142C00A151B0580F1E6
S1132AC0A9DBE091FB0AF091FC0A0580F681E02D78
S1132AD066807780C30102960E94BF09D3011E96C7
S1132AE08C911E978130A1F41C966D917C911D9759
S1132AF06A0D7B1D9501A801C30163DE882341F0A3
S1132B000E2D1F2D2E2D3F2DA501652DC301FDDE9C
S1132B10D3015196ED91FC915297C301199564C06C
S1132B20452DB501601B710B8091F70A9091F80A4D
S1132B30F1D870DB811158C00E94940A55C06ADB39
S1132B4053C0898188230CF44FC0AC80BD80F5014B
S1132B5082859385892B21F0C50102960E94BF09C5
S1132B60CE01069618DFAC019981943089F11CF4EA
S1132B709330D0F507C09630BCF198301CF09930F2
S1132B8039F132C02A813B81D5011C966D917C912B
S1132B901D97620F731FC50114DE882329F1D50127
S1132BA05196ED91FC915297C5011995F5018685D1
S1132BB08130D1F44A815B8184859585480F591F02
S1132BC00E2D1F2D2E2D3F2D652DC5019EDE0CC013
S1132BD06A817B81D5011D967C936E931C97640F4B
S1132BE0751F9A01C501EDDD4E2D5F2D6C2D7D2DD8
S1132BF08091F70A9091F80A0E94460D8111A1CFA5
S1132C0048CF41DAC401C7DE8C018981811197CF95
S1132C10E091F90AF091FA0A8081442D8111452D41
S1132C20AE2CBF2C7ECF0E94DD030CD021E040E00F
S1132C3052EC61E070E083E00E9430020E94B2082E
S1132C4080E0089582E08093B00084E08093B10036
S1132C508AEF8093B300E0E7F0E0808182608083B4
S1132C600895F89460911B0D70911C0D80911D0DB9
S1132C7090911E0D789408951F920F920FB60F92A3
S1132C8011248F939F93AF93BF9380911B0D9091C9
S1132C901C0DA0911D0DB0911E0D0196A11DB11D1D
S1132CA080931B0D90931C0DA0931D0DB0931E0DCE
S1132CB0BF91AF919F918F910F900FBE0F901F9076
S1132CC01895A1E21A2EAA1BBB1BFD010DC0AA1F59
S1132CD0BB1FEE1FFF1FA217B307E407F50720F081
S1132CE0A21BB30BE40BF50B661F771F881F991FFC
S1132CF01A9469F760957095809590959B01AC0145
S1132D00BD01CF010895FB01DC0102C001900D92C9
S1132D1041505040D8F70895DC0101C06D934150F3
S10D2D205040E0F70895F894FFCF47
S1132D2A567461736B322073656E647320646174C4
S1132D3A61203D2000567461736B322047697665C1
S1132D4A73207468652073656D6170686F72650AB3
S1132D5A00567461736B31207265636569766573B5
S1132D6A2064617461200A00567461736B312052C5
S1132D7A656C656173656420646174613D20005407
S1132D8A61736B31005461736B320049444C4500E2
S10B2D9A546D722053766300AE
S9030000FC
