:1000000071C0000090C000008EC000008CC00000D5
:100010008AC0000088C0000086C0000084C00000C4
:1000200082C0000080C000007EC000007CC00000D4
:100030000C9400130C941E1876C0000074C00000CD
:1000400072C000000C94EE0A6EC000006CC000008C
:100050006AC0000068C0000066C0000064C0000004
:1000600062C000000C94B00C0C94E90C5CC0000061
:100070005AC000000C941A0A56C0000054C0000078
:100080000C945E0B50C000004EC000004CC000003D
:100090000C949A0D0C94D30D46C0000044C000008F
:1000A00042C0000040C000000C94CE0B3CC00000D9
:1000B0003AC0000038C0000036C000000C943E0C6E
:1000C00032C0000030C000002EC000000C94A90E09
:1000D0000C94E20E28C000000C94B50F0C94EE0FA7
:1000E00022C0000011241FBECFEFD1E2DEBFCDBF82
:1000F00000E00CBF12E0A0E0B2E0EAE2F5E300E0CD
:100100000BBF02C007900D92AC3BB107D9F72CE0B2
:10011000ACEBB2E001C01D92A536B207E1F70E9438
:10012000D0090C94931A6CCF6093FA0B7093FB0B6D
:100130008093FC0B9093FD0B089540E150E065E047
:1001400084E990E001C00895EEEFFBE06483518301
:10015000408393838283CF010C94860A0895E091B3
:10016000030CF091040C19950895E091050CF091A1
:10017000060C19950895CF92DF92EF92FF920F939C
:100180001F93CF93DF936C017B01CCE0DCE000EFA9
:1001900010E01983088381E08C838FEA90E09B83D1
:1001A0008A83CE010E94860A1983088383E08C83A8
:1001B00085EB90E09B838A8387E09CE00E94860A1F
:1001C000D092040CC092030CF092060CE092050C45
:1001D0000E94370ADF91CF911F910F91FF90EF900E
:1001E000DF90CF90089561E081E00C94690A089552
:1001F00060E081E00C94690A0895ECEBF2E0818301
:100200004283538364837583208388EF90E09187D2
:10021000808783EF90E097838683BF0181E08BC75F
:1002200008956F927F928F929F92AF92BF92CF92DA
:10023000DF92EF92FF920F931F93CF93DF938C0186
:100240009093120C8093110CFC01C081D1818281AA
:100250009381C89FB001C99F700DD89F700D112464
:1002600080E090E00E9440196B017C01F80122853A
:100270003385A9E8B8E80E947B1A969587959295F0
:1002800082958F7089279F708927BC0180E090E05C
:100290000E9440194B015C01F8016085718580E086
:1002A00090E00E9440199B01AC01C501B4010E947D
:1002B00044184B015C01F8016481758180E090E095
:1002C0000E9440199B01AC01C501B4010E94F619BE
:1002D00020E030E040EB51E40E94F61920E030E0ED
:1002E00040EE50E40E94AC189B01AC01C701B6017E
:1002F0000E94AC18F62EE72ED82EC92EF8010681E2
:100300001781B80180E090E00E944019B62EA72E18
:10031000982E892E262F372F482F592F6F2D7E2D5F
:100320008D2D9C2D0E94F2191816E4F0B8017695D7
:10033000679580E090E00E944019162F072F782ED5
:10034000692E262F372F482F592F6F2D7E2D8D2D5B
:100350009C2D0E94A81888234CF4F12EE02ED72C57
:10036000C62C04C0FB2CEA2CD92CC82CBE0180E082
:1003700090E00E9440199B01AC016F2D7E2D8D2DC8
:100380009C2D0E94AC186093130C7093140C8093F6
:10039000150C9093160C20E030E44CE955E46F2DD9
:1003A0007E2D8D2D9C2D0E94F6192B2D3A2D492D39
:1003B000582D0E94AC180E941419AB016938734182
:1003C00038F4443C89E0580728F444EC59E002C072
:1003D00048E853E161E070E281E09FD7DF91CF917F
:1003E0001F910F91FF90EF90DF90CF90BF90AF9053
:1003F0009F908F907F906F900895811107C045E086
:1004000050E060E070E281E088C70895813029F40F
:1004100041E050E060E070E280C708958F929F92C3
:10042000AF92BF92DF92EF92FF920F931F93CF9301
:10043000DF93CDB7DEB7DA950FB6F894DEBF0FBE07
:10044000CDBFD62E8111F5C28091FE0489832FEF96
:10045000621306C08FE08A836894BB24B1F832C06F
:100460006A8381E06817B8F094E0961718F4A7E162
:100470006A1311C08091FC049091FD049B838C83CE
:100480008091FA049091FB049D838E830F2EF6E0F9
:10049000BF2EF02D03C06894BB24B1F8B0E1BD15A8
:1004A00040F0EFE0DE1670F48BEF8D0D823000F53A
:1004B00009C0F6E1DF16E0F027E12D1518F48FEF03
:1004C000D81216C09091780480917904E1E0F0E0B0
:1004D000EC0FFD1FEB0DF11D808381E08B0DE1E042
:1004E000F0E0EC0FFD1FE80FF11DB394B39490837F
:1004F00090E1D91609F4ADC09D1558F0A6E0DA16C2
:1005000061F1BFE0DB1609F441C0E5E0DE121AC17B
:100510000DC0F7E1DF1609F49CC02FEFD21609F4E5
:1005200098C086E1D81609F4DFC00CC1909176041A
:1005300080917704E1E0F0E0EC0FFD1FEB0DF11D81
:10054000808381E08B0DE1E0F0E0EC0FFD1FE80F10
:10055000F11DB394B3949083F5C0E6EFF3E080818E
:100560009181A1E0B0E0AC0FBD1FAB0DB11D9C931C
:100570002081318181E08B0DE1E0F0E0EC0FFD1F87
:10058000E80FF11DB394B3942083DCC0809176040E
:1005900090917704E1E0F0E0EC0FFD1FEB0DF11D11
:1005A000908332E03B0D21E02B0DE1E0F0E0EC0F19
:1005B000FD1FE20FF11D8083AC0147705527452BCD
:1005C00049F096958795969587959695879521E01C
:1005D000280F07C096958795969587959695879548
:1005E000282F93E0B90EFE01E30FF11D2183222392
:1005F00009F4A8C080E0982F917080FF03C091306B
:1006000099F023C0E82FE695F0E0EE0FFF1FEA50C7
:10061000FC4F40815181E1E0F0E0EC0FFD1FEB0D5C
:10062000F11D4083B39411C0E82FE695F0E0EE0F82
:10063000FF1FEA50FC4F40815181E1E0F0E0EC0FF8
:10064000FD1FEB0DF11D5083B3948F5F2813D3CFA3
:1006500079C06091760470917704E1E0F0E0EC0FEE
:10066000FD1FEB0DF11D708381E08B0DE1E0F0E0EB
:10067000EC0FFD1FE80FF11D608382E08B0DE1E0C0
:10068000F0E0EC0FFD1FE80FF11DA3E0BA0E862F7E
:10069000880F80837727161617060CF053C080E06A
:1006A00090E020E0880F991FFC01EA50FC4F808108
:1006B0009181A1E0B0E0AC0FBD1FAB0DB11D9C93CB
:1006C0004081518181E08B0DE1E0F0E0EC0FFD1FF6
:1006D000E80FF11DB394B39440832F5F822F90E015
:1006E00086179707FCF22EC0E6EFF3E08081918138
:1006F000A1E0B0E0AC0FBD1FAB0DB11D9C9380819C
:10070000918191E09B0DA1E0B0E0AC0FBD1FA90F5E
:10071000B11D8C938281938182E08B0DA1E0B0E0CA
:10072000AC0FBD1FA80FB11D9C932281338183E0C4
:100730008B0DE1E0F0E0EC0FFD1FE80FF11DB4E0E0
:10074000BB0E2083BB20B9F08E010F5F1F4FEE243C
:10075000EA94EB0CF12CEFEFEE1AFE0AE00EF11E1C
:100760008FEF9FEFD8016D918D010E94F2170E154A
:100770001F05C1F702C08FEF9FEFEE24E394EB0C4F
:10078000E1E0F0E0EC0FFD1FEB0DF11D8083B39471
:10079000B394E1E0F0E0EC0FFD1FEE0DF11D90834E
:1007A000E1E0F0E0EC0FFD1FEB0DF11D1082E09198
:1007B000E903F091EA03199581159140C1F7E091A1
:1007C000EF03F091F003309709F01995BB20A1F0E9
:1007D0008E010F5F1F4FF12CEFEFEE1AFE0AE00EB5
:1007E000F11EE091EB03F091EC03D8018D918D01A6
:1007F00019950E151F05A9F7E091E703F091E8039D
:100800001995EFE8F1E03197F1F700C00000E091B1
:10081000ED03F091EE03309709F019950E9413183B
:100820004B015C0108E010E0ED2CF12CE091E503B8
:10083000F091E6031995892B91F0DD24D394D10E24
:10084000E091E903F091EA031995E1E0F0E0EC0FA3
:10085000FD1FE10FF11D808301501D2D07C0E091A8
:10086000F103F091F203309709F01995153051F525
:1008700099818091FE04981340C48A81282F2F7794
:1008800030E02E153F0509F03AC4882324F48B810B
:100890008823E1F1C9C0813158F48F3008F0BFC31B
:1008A000813080F0853068F0873008F4B8C30AC022
:1008B000873139F08F3F09F4B2C3863119F405E06E
:1008C000AFC30B810E941318DC01CB018819990971
:1008D000AA09BB09893C9105A105B10508F405C425
:1008E00080E092E00E948C0D01110BC482EE811118
:1008F0009BC0153008F4B4C3A12EB12C7501F2E0F1
:10090000EF1AF1081E141F045CF099C30F2EF3E0D8
:10091000EF2EF12CF02D0F2EF5E0AF2EB12CF02D97
:1009200020E030E08FEF9FEF10E0E1E0F0E0EC0F2F
:10093000FD1FE20FF31F60810E94F2171F5F212F3E
:1009400030E02E153F058CF37CC3892F9927FE01DB
:10095000EA0DFB1D208130E08217930709F07EC36A
:100960007FC39B819695E9F580E05EC07B81972FE0
:10097000969509F483C3FE01319640E050E080E093
:10098000803470F4248130E0322F22276381262BBB
:10099000DA01AA0FBB1FA658BB4F11963C932E93AA
:1009A0008F5F4F5F5F4F32968913EACF8FEF890FCA
:1009B0008093F30370FF35C0903470F4292F30E03A
:1009C000220F331FFE01E20FF31F448150E0F901B3
:1009D000E658FB4F518340839F5F9093F30380E081
:1009E00023C0FE01319640E050E080E0803470F496
:1009F000238130E0322F22276481262BDA01AA0FCF
:100A0000BB1FA658BB4F11963C932E938F5F4F5F31
:100A10005F4F32968913EACF91509093F30380E0B1
:100A200003C080E001C080E01092F5031092F4034F
:100A300070C3813009F0F1C28091E40389832FEF04
:100A4000621306C08FE08A836894BB24B1F832C079
:100A50006A8381E06817B8F094E0961718F4A7E16C
:100A60006A1311C08091E2039091E3039B838C830E
:100A70008091E0039091E1039D838E830F2EF6E039
:100A8000BF2EF02D03C06894BB24B1F8B0E1BD15B2
:100A900040F0EFE0DE1670F48BEF8D0D823000F544
:100AA00009C0F6E1DF16E0F027E12D1518F48FEF0D
:100AB000D81216C090915E0380915F03E1E0F0E0F0
:100AC000EC0FFD1FEB0DF11D808381E08B0DE1E04C
:100AD000F0E0EC0FFD1FE80FF11DB394B394908389
:100AE00090E1D91609F4ADC09D1558F0A6E0DA16CC
:100AF00061F1BFE0DB1609F441C0E5E0DE121BC185
:100B00000DC0F7E1DF1609F49CC02FEFD21609F4EF
:100B100098C086E1D81609F4E0C00DC190915C033D
:100B200080915D03E1E0F0E0EC0FFD1FEB0DF11DA6
:100B3000808381E08B0DE1E0F0E0EC0FFD1FE80F1A
:100B4000F11DB394B3949083F6C0ECEDF2E0808194
:100B50009181A1E0B0E0AC0FBD1FAB0DB11D9C9326
:100B60002081318181E08B0DE1E0F0E0EC0FFD1F91
:100B7000E80FF11DB394B3942083DDC080915C0332
:100B800090915D03E1E0F0E0EC0FFD1FEB0DF11D36
:100B9000908322E02B0D31E03B0DE1E0F0E0EC0F23
:100BA000FD1FE30FF11D8083AC0147705527452BD6
:100BB00049F096958795969587959695879591E0B6
:100BC000980F07C0969587959695879596958795E2
:100BD000982FA3E0BA0EFE01E20FF11D9183992335
:100BE00009F4A9C080E0282F217080FF03C02130C4
:100BF00099F023C0E82FE695F0E0EE0FFF1FE452D6
:100C0000FD4F20813181E1E0F0E0EC0FFD1FEB0DA5
:100C1000F11D2083B39411C0E82FE695F0E0EE0FAC
:100C2000FF1FE452FD4F20813181E1E0F0E0EC0F45
:100C3000FD1FEB0DF11D3083B3948F5F9813D3CF5D
:100C40007AC080915C0390915D03E1E0F0E0EC0FED
:100C5000FD1FEB0DF11D908321E02B0DE1E0F0E095
:100C6000EC0FFD1FE20FF11D808322E02B0DE1E070
:100C7000F0E0EC0FFD1FE20FF11DB3E0BB0E282FDB
:100C8000220F2083AC015527141615060CF053C013
:100C900080E090E020E0880F991FFC01E452FD4FB6
:100CA00080819181A1E0B0E0AC0FBD1FAB0DB11D03
:100CB0009C936081718181E08B0DE1E0F0E0EC0FAD
:100CC000FD1FE80FF11DB394B39460832F5F822F53
:100CD00090E084179507FCF22EC0ECEDF2E08081E5
:100CE0009181A1E0B0E0AC0FBD1FAB0DB11D9C9395
:100CF0008081918191E09B0DA1E0B0E0AC0FBD1F20
:100D0000A90FB11D8C938281938182E08B0DA1E0AC
:100D1000B0E0AC0FBD1FA80FB11D9C9322813381A1
:100D200083E08B0DE1E0F0E0EC0FFD1FE80FF11D1B
:100D300084E0B80E2083BB20B9F08E010F5F1F4FF7
:100D4000EE24EA94EB0CF12C9FEFE91AF90AE00E7D
:100D5000F11E8FEF9FEFD8016D918D010E94F21768
:100D60000E151F05C1F702C08FEF9FEFEE24E3942D
:100D7000EB0CE1E0F0E0EC0FFD1FEB0DF11D8083CB
:100D8000B394B394E1E0F0E0EC0FFD1FEE0DF11D24
:100D90009083E1E0F0E0EC0FFD1FEB0DF11D108200
:100DA000E091CF02F091D002199581159140C1F7E1
:100DB000E091D502F091D602309709F01995BB2049
:100DC000A1F08E010F5F1F4FF12CEFEFEE1AFE0A1C
:100DD000E00EF11EE091D102F091D202D8018D9186
:100DE0008D011995E016F106A9F7E091CB02F0917B
:100DF000CC021995E7E0F7E03197F1F700C0000069
:100E0000E091D302F091D402309709F019950E9435
:100E100013184B015C0108E010E0ED2CF12CE0917F
:100E2000CD02F091CE021995892B91F0DD24D39457
:100E3000D10EE091CF02F091D0021995E1E0F0E0FF
:100E4000EC0FFD1FE10FF11D808301501D2D07C028
:100E5000E091D702F091D802309709F0199515303A
:100E600051F599818091E40398134DC18A81282F0F
:100E70002F7730E02E153F0509F047C1882324F471
:100E80008B818823D9F1C4C0813158F48F3008F0A8
:100E9000F9C0813080F0853068F0873008F4F2C006
:100EA0000AC0873139F08F3F09F4ECC0863119F45C
:100EB00005E0E9C00B810E941318DC01CB01881901
:100EC0009909AA09BB09893C9105A105B10508F456
:100ED00010C180E092E020D6011119C182EE81118B
:100EE00097C0153008F4EFC0012F10E07801F2E050
:100EF000EF1AF1081E141F0444F0D4C00F2EF3E0C3
:100F0000EF2EF12CF02D05E010E020E030E08FEF27
:100F10009FEFD12CE1E0F0E0EC0FFD1FE20FF31F9B
:100F200060810E94F217D3942D2D30E02E153F05DD
:100F30008CF3BAC0892F9927FE01E00FF11F2081A1
:100F400030E08217930709F0BCC0BDC08B81869545
:100F5000E1F55EC06B81862F869509F4C2C0FE0163
:100F6000319640E050E090E0903470F4248130E01D
:100F7000322F22277381272BDA01AA0FBB1FA05A19
:100F8000BC4F11963C932E939F5F4F5F5F4F3296FD
:100F90009813EACF9FEF980F9093D90260FF35C066
:100FA000803470F4282F30E0220F331FFE01E20F4F
:100FB000F31F448150E0F901E05AFC4F5183408314
:100FC0008F5F8093D90280E023C0FE01319640E01C
:100FD00050E090E0903470F4238130E0322F2227EB
:100FE0006481262BDA01AA0FBB1FA05ABC4F1196B1
:100FF0003C932E939F5F4F5F5F4F32969813EACFDB
:1010000081508093D90280E003C080E001C080E07D
:101010001092DB021092DA027CC084EE7AC003E008
:101020000E941318DC01CB0188199909AA09BB0990
:10103000893C9105A105B10508F4F8CB51CC8FEF9F
:101040009FEFFE01EE0DFF1D218130E0AC01552721
:101050004217530709F479CC83EEE6CC83EEE4CC57
:101060008A81853038F4833008F07BCC813008F0F9
:101070007DCCD9CC873109F474CCD5CC70FD9ECC15
:1010800080E0D2CC03E00E941318DC01CB01881968
:101090009909AA09BB09893C9105A105B10508F484
:1010A000BECE17CF8FEF9FEFFE01EE0DFF1D21810A
:1010B00030E0AC0155274217530709F43BCF83EECC
:1010C000A7CF83EEA5CF8A81853038F4833008F02E
:1010D0003DCF813008F03ECF9ACF873109F436CF2B
:1010E00096CF60FD5FCF80E093CF01119FCB80E072
:1010F000FECB011194CE80E0F2CE80EE95CC81EE55
:1011000093CC82EE91CC80EE83CF81EE81CF82EEC4
:101110007FCFD3950FB6F894DEBF0FBECDBFDF9162
:10112000CF911F910F91FF90EF90DF90BF90AF9004
:101130009F908F900895FB01811188C080818093DA
:10114000FE0441816281738184819581268137818A
:101150003093F0032093EF03208531853093EE0325
:101160002093ED03228533853093F2032093F1031E
:101170001092F4031092F303413009F52091CA0252
:101180002111CAC021E02093CA0242D586E99EE01F
:101190009093E6038093E50384EA9EE09093E8034E
:1011A0008093E7038DE59EE09093EA038093E90343
:1011B0008DE79EE09093EC038093EB03089542301B
:1011C00009F52091C9022111A7C021E02093C9028D
:1011D0002ED682EA9FE09093E6038093E50380EBAE
:1011E0009FE09093E8038093E7038CE69FE0909361
:1011F000EA038093E90389E89FE09093EC038093EE
:10120000EB030895433009F087C02091C8022111F3
:1012100083C021E02093C80216D78EEA90E1909314
:10122000E6038093E5038CEB90E19093E8038093D1
:10123000E70388E790E19093EA038093E90385E967
:1012400090E19093EC038093EB030895813009F0D3
:1012500063C080818093E4034181628173818481D2
:101260009581268137813093D6022093D50220853F
:1012700031853093D4022093D30222853385309375
:10128000D8022093D7021092DA021092D90241308C
:1012900009F52091CA0221113FC021E02093CA0222
:1012A000B7D486E99EE09093CE028093CD0284EA83
:1012B0009EE09093CC028093CB028DE59EE09093CC
:1012C000D0028093CF028DE79EE09093D20280936C
:1012D000D1020895423001F52091C90221111CC0AC
:1012E00021E02093C902A3D582EA9FE09093CE0229
:1012F0008093CD0280EB9FE09093CC028093CB0251
:101300008CE69FE09093D0028093CF0289E89FE023
:101310009093D2028093D102089581110FC07093EF
:1013200079046093780410927704109276045093B5
:10133000F7034093F60366E071C80895813079F4AD
:1013400070935F0360935E0310925D0310925C03E1
:101350005093DD024093DC0266E060C8089584EE9D
:10136000089584E192E0D8C308958CE292E0D4C35A
:1013700008958AE492E0D0C308958BE792E0CCC34D
:10138000089569EB79E08DEB99E00E94751785EB84
:1013900099E00E947E1781EB99E00C94E417089580
:1013A000CF93DF93CDB7DEB72C970FB6F894DEBF9F
:1013B0000FBECDBF8FEF8DB960E875E280E090E0A1
:1013C0003DD30E94E9178BEA92E0A6D323E040E0E8
:1013D00056E960E070E081E00E94FD0086E090E068
:1013E0009E838D8380E590E09A83898382ED90E0EF
:1013F0009C838B8384E893E098878F8381E090E0DF
:101400009A87898783E090E09C878B8783EB92E0C3
:1014100083D3CE0101960E94110181E00E94FD015B
:101420002FEF8BE792E9215080409040E1F700C018
:101430000000ECCF1F920F920FB60F9211242F9342
:101440008F939F93809178002091790090E0922B68
:10145000909301058093000581E08093FF049F91A4
:101460008F912F910F900FBE0F901F901895EAE06B
:10147000F1E080818F7E808380818F7D8083808179
:101480008F7B8083539820983A9854983C9A3F9A3F
:101490003D9A399A399A579A389A3898569A3B9A77
:1014A000E4E0F1E0808184608083549A3F9A3F9A1F
:1014B000E1E0F1E080818E7F8083808182608083A3
:1014C000E2E0F1E08081816080835298539A5A9AD9
:1014D0000895882319F0813089F00895613031F43E
:1014E000E5E0F1E0808184608083089561110DC0A2
:1014F000E5E0F1E080818B7F80830895613011F415
:101500005C9A0895611101C05C980895FC01948172
:101510009130B1F4109280008EE080938100808140
:10152000918101979093890080938800AFE6B0E0A5
:101530008C9182608C93F0931C0CE0931B0C49C03F
:101540009330B1F4109290008EE0809391008081EE
:10155000918101979093990080939800A1E7B0E062
:101560008C9182608C93F093180CE093170C31C02F
:101570009430B1F41092A0008EE08093A10080819D
:10158000918101979093A9008093A800A3E7B0E010
:101590008C9182608C93F0931A0CE093190C19C013
:1015A0009530D1F4109220018EE08093210180814A
:1015B000918101979093290180932801A3E7B0E0DE
:1015C0008C9182608C93F0931E0CE0931D0C109212
:1015D0002401789481E008958FEF08951F920F926F
:1015E0000FB60F9211240BB60F922F933F934F9388
:1015F0005F936F937F938F939F93AF93BF93EF937B
:10160000FF93CF93DF9300D01F92CDB7DEB70E9438
:10161000131860931E0570931F0580932005909307
:10162000210580911E0590911F05A0912005B09184
:10163000210540911A0550911B0560911C05709180
:101640001D05841B950BA60BB70B89839A83AB836F
:10165000BC8380911E0590911F05A0912005B0913B
:10166000210580931A0590931B05A0931C05B09348
:101670001D0569817A818B819C81E0911B0CF09121
:101680001C0C0280F381E02D19950F900F900F90A4
:101690000F90DF91CF91FF91EF91BF91AF919F910B
:1016A0008F917F916F915F914F913F912F910F900B
:1016B0000BBE0F900FBE0F901F9018951F920F92A8
:1016C0000FB60F9211240BB60F922F933F934F93A7
:1016D0005F936F937F938F939F93AF93BF93EF939A
:1016E000FF93CF93DF9300D01F92CDB7DEB70E9458
:1016F000131860931605709317058093180590933F
:1017000019058091160590911705A0911805B091C3
:1017100019054091120550911305609114057091BF
:101720001505841B950BA60BB70B89839A83AB8396
:10173000BC838091160590911705A0911805B09172
:1017400019058093120590931305A0931405B09387
:10175000150569817A818B819C81E091170CF0914C
:10176000180C0280F381E02D19950F900F900F90C7
:101770000F90DF91CF91FF91EF91BF91AF919F912A
:101780008F917F916F915F914F913F912F910F902A
:101790000BBE0F900FBE0F901F9018951F920F92C7
:1017A0000FB60F9211240BB60F922F933F934F93C6
:1017B0005F936F937F938F939F93AF93BF93EF93B9
:1017C000FF93CF93DF9300D01F92CDB7DEB70E9477
:1017D000131860930E0570930F0580931005909376
:1017E000110580910E0590910F05A0911005B09103
:1017F000110540910A0550910B0560910C057091FF
:101800000D05841B950BA60BB70B89839A83AB83BD
:10181000BC8380910E0590910F05A0911005B091A9
:10182000110580930A0590930B05A0930C05B093C6
:101830000D0569817A818B819C81E091190CF09171
:101840001A0C0280F381E02D19950F900F900F90E4
:101850000F90DF91CF91FF91EF91BF91AF919F9149
:101860008F917F916F915F914F913F912F910F9049
:101870000BBE0F900FBE0F901F9018951F920F92E6
:101880000FB60F9211240BB60F922F933F934F93E5
:101890005F936F937F938F939F93AF93BF93EF93D8
:1018A000FF93CF93DF9300D01F92CDB7DEB70E9496
:1018B00013186093060570930705809308059093AD
:1018C00009058091060590910705A0910805B09142
:1018D000090540910205509103056091040570913E
:1018E0000505841B950BA60BB70B89839A83AB83E5
:1018F000BC838091060590910705A0910805B091E1
:1019000009058093020590930305A0930405B09305
:1019100005051092240169817A818B819C81E09177
:101920001D0CF0911E0C0280F381E02D19950F9093
:101930000F900F900F90DF91CF91FF91EF91BF919A
:10194000AF919F918F917F916F915F914F913F9157
:101950002F910F900BBE0F900FBE0F901F901895F8
:101960001F920F920FB60F9211240BB60F922F9366
:101970003F934F935F938F939F93EF93FF932091A8
:10198000C0003091C60028718091370890E0019620
:101990008F7799274091360850E08417950739F0E2
:1019A00080933708FC01E65CF74F308301C022E0EA
:1019B00020933508FF91EF919F918F915F914F9107
:1019C0003F912F910F900BBE0F900FBE0F901F9065
:1019D00018951F920F920FB60F9211240BB60F920B
:1019E0008F939F93EF93FF939091390880913808DC
:1019F000981789F08091380890E001968F779927A1
:101A000080933808FC01E654F74F80818093C6002C
:101A10001092250508C0E1ECF0E080818F7D808385
:101A200081E080932505FF91EF919F918F910F9019
:101A30000BBE0F900FBE0F901F9018950F931F9322
:101A40008B019C01F894109239081092380810927A
:101A50003708109236087894DC01CB0180589B47F8
:101A6000A14EBF4F880F991FAA1FBB1F880F991F38
:101A7000AA1FBB1FBC01CD01660F771F881F991FCE
:101A8000000F111F221F331F000F111F221F331FB2
:101A9000A9019801220F331F441F551F220F331F26
:101AA000441F551F0E94591ABA01A90141505109FA
:101AB0006109710957FF06C082E08093C0005F771B
:101AC00066277727BB27A72F962F852F8093C500E2
:101AD0004093C40088E98093C10086E08093C200EF
:101AE0001F910F9108954091390850E04F5F5F4F6B
:101AF0004F7755272091380830E042175307D1F32C
:101B0000FA01E654F74F808340933908E1ECF0E0A6
:101B10008081806280830895CF93DF93EC01888178
:101B2000882329F02196DFDF89918111FCCFDF9195
:101B3000CF9108951F920F920FB60F9211240BB6FA
:101B40000F922F933F934F935F938F939F93EF93B6
:101B5000FF932091C8003091CE0028718091320708
:101B600090E001968F7799274091310750E08417D4
:101B7000950739F080933207FC01EB5CF84F308316
:101B800001C022E020933007FF91EF919F918F9148
:101B90005F914F913F912F910F900BBE0F900FBE11
:101BA0000F901F9018951F920F920FB60F9211244D
:101BB0000BB60F928F939F93EF93FF9390913407FF
:101BC00080913307981789F08091330790E0019650
:101BD0008F77992780933307FC01EB54F84F80816E
:101BE0008093CE001092240508C0E9ECF0E08081DB
:101BF0008F7D808381E080932405FF91EF919F91F9
:101C00008F910F900BBE0F900FBE0F901F901895E5
:101C10000F931F938B019C01F8941092340710923C
:101C2000330710923207109231077894DC01CB0110
:101C300080589B47A14EBF4F880F991FAA1FBB1FFB
:101C4000880F991FAA1FBB1FBC01CD01660F771F0C
:101C5000881F991F000F111F221F331F000F111F14
:101C6000221F331FA9019801220F331F441F551F44
:101C7000220F331F441F551F0E94591ABA01A90190
:101C8000415051096109710957FF06C082E08093F4
:101C9000C8005F7766277727BB27A72F962F852F4A
:101CA0008093CD004093CC0088E98093C90086E002
:101CB0008093CA001F910F910895F8949091320774
:101CC00080913107981304C0789480E091E00895E2
:101CD0008091310790E001968F77992780933107A3
:101CE0007894FC01EB5CF84F20818091300790E004
:101CF000982F8827820F911D08954091340750E056
:101D00004F5F5F4F4F7755272091330730E04217E1
:101D10005307D1F3FA01EB54F84F80834093340713
:101D2000E9ECF0E08081806280830895F8948091EE
:101D3000320720913107789490E080589F4F821BA2
:101D400091098F7799270895809124058823E1F3DD
:101D500008951F920F920FB60F9211240BB60F9297
:101D60002F933F934F935F938F939F93EF93FF93A3
:101D70002091D0003091D600287180912D0690E0FE
:101D800001968F77992740912C0650E0841795078C
:101D900039F080932D06FC01E05DF94F308301C0DE
:101DA00022E020932B06FF91EF919F918F915F91FD
:101DB0004F913F912F910F900BBE0F900FBE0F9040
:101DC0001F9018951F920F920FB60F9211240BB609
:101DD0000F928F939F93EF93FF9390912F06809193
:101DE0002E06981789F080912E0690E001968F7745
:101DF000992780932E06FC01E055F94F808180934E
:101E0000D6001092230508C0E1EDF0E080818F7DBF
:101E1000808381E080932305FF91EF919F918F91C3
:101E20000F900BBE0F900FBE0F901F9018950F9341
:101E30001F938B019C01F89410922F0610922E068E
:101E400010922D0610922C067894DC01CB0180585C
:101E50009B47A14EBF4F880F991FAA1FBB1F880F1A
:101E6000991FAA1FBB1FBC01CD01660F771F881FDA
:101E7000991F000F111F221F331F000F111F221F58
:101E8000331FA9019801220F331F441F551F220F32
:101E9000331F441F551F0E94591ABA01A90141500E
:101EA00051096109710957FF06C082E08093D00093
:101EB0005F7766277727BB27A72F962F852F8093DD
:101EC000D5004093D40088E98093D10086E08093C8
:101ED000D2001F910F91089590912D0680912C06AC
:101EE0009817A1F080912C0690E001968F779927A2
:101EF00080932C06FC01E05DF94F208180912B0638
:101F000090E0982F8827820F911D089580E091E03E
:101F1000089540912F0650E04F5F5F4F4F77552750
:101F200020912E0630E042175307D1F3FA01E05515
:101F3000F94F808340932F06E1EDF0E080818062CD
:101F400080830895F89480912D0620912C06789432
:101F500090E080589F4F821B91098F7799270895B1
:101F6000809123058823E1F308951F920F920FB605
:101F70000F9211240BB60F922F933F934F935F93C1
:101F80008F939F93EF93FF9320913001309136010F
:101F900028718091280590E001968F7799274091CC
:101FA000270550E08417950739F080932805FC0138
:101FB000E55DFA4F308301C022E020932605FF91B2
:101FC000EF919F918F915F914F913F912F910F9042
:101FD0000BBE0F900FBE0F901F9018951F920F927F
:101FE0000FB60F9211240BB60F928F939F93EF931E
:101FF000FF9390912A0580912905981789F0809187
:10200000290590E001968F77992780932905FC0197
:10201000E555FA4F8081809336011092220508C061
:10202000E1E3F1E080818F7D808381E08093220570
:10203000FF91EF919F918F910F900BBE0F900FBE6C
:102040000F901F9018950F931F938B019C01F8948C
:1020500010922A0510922905109228051092270542
:102060007894DC01CB0180589B47A14EBF4F880F6D
:10207000991FAA1FBB1F880F991FAA1FBB1FBC0156
:10208000CD01660F771F881F991F000F111F221F98
:10209000331F000F111F221F331FA9019801220FA8
:1020A000331F441F551F220F331F441F551F0E940B
:1020B000591ABA01A901415051096109710957FF23
:1020C00006C082E0809330015F7766277727BB27C1
:1020D000A72F962F852F809335014093340188E9EF
:1020E0008093310186E0809332011F910F91089512
:1020F00090912805809127059817A1F080912705D8
:1021000090E001968F77992780932705FC01E55D84
:10211000FA4F20818091260590E0982F8827820F22
:10212000911D089580E091E0089540912A0550E0C6
:102130004F5F5F4F4F7755272091290530E04217B9
:102140005307D1F3FA01E555FA4F808340932A05EE
:10215000E1E3F1E08081806280830895F8948091CA
:10216000280520912705789490E080589F4F821B86
:1021700091098F7799270895809122058823E1F3AB
:10218000089508950F9303E02FED39E040E050E00B
:1021900060E081E01ED39093FF098093FE092EEB4F
:1021A00039E040E050E060E081E013D39093DE0935
:1021B0008093DD092DE939E040E050E060E081E006
:1021C00008D39093BD098093BC092CE739E040E027
:1021D00050E060E081E0FDD290939C0980939B09E0
:1021E0002BE539E040E050E060E081E0F2D29093EE
:1021F0007B0980937A092AE339E040E050E060E00F
:1022000081E0E7D290935A09809359090F9108957C
:102210000F9303E021E23AE040E050E060E081E02B
:10222000D8D29093410A8093400A20E03AE040E0FF
:1022300050E060E081E0CDD29093200A80931F0AA5
:102240000F9108959EDF9EDF03D0E2DF31C0089535
:102250000F9303E025EA3AE040E050E060E081E0DF
:10226000B8D29093C50A8093C40A24E83AE040E0CB
:1022700050E060E081E0ADD29093A40A8093A30A7D
:1022800023E63AE040E050E060E081E0A2D29093A3
:10229000830A8093820A22E43AE040E050E060E062
:1022A00081E097D29093620A8093610A0F9108951A
:1022B0000F9303E02CE83BE040E050E060E081E079
:1022C00088D29093AC0B8093AB0B2BE63BE040E0C5
:1022D00050E060E081E07DD290938B0B80938A0B7D
:1022E0002AE43BE040E050E060E081E072D290936D
:1022F0006A0B8093690B29E23BE040E050E060E02C
:1023000081E067D29093490B8093480B28E03BE033
:1023100040E050E060E081E05CD29093280B809335
:10232000270B27EE3AE040E050E060E081E051D238
:102330009093070B8093060B26EC3AE040E050E0C8
:1023400060E081E046D29093E60A8093E50A0F911F
:102350000895279A2F9A2FEF87EA91E6215080401F
:102360009040E1F700C000001F9AF5CFFC010396F2
:10237000928381832FEF3FEF34832383968385837A
:102380009087878310820895CF93DF939C01FB0190
:10239000DC011196CD91DC911297D383C2838C819D
:1023A0009D81958384838C819D81DC0113967C9330
:1023B0006E9312977D836C8331872087F90180812A
:1023C0008F5F8083DF91CF910895CF93DF93EB01EF
:1023D000488159814F3F2FEF520721F4FC01A7811B
:1023E000B0850DC0DC01139601C0DF011296ED919E
:1023F000FC9113972081318142175307B0F7129651
:10240000ED91FC911397FB83EA83D583C483BD834D
:10241000AC831396DC93CE93129799878887FC013F
:1024200020812F5F2083DF91CF910895CF93DF9399
:10243000FC01A085B185C281D381848195819D8372
:102440008C83C481D581828193819B838A831196F9
:102450008D919C911297E817F90731F48481958149
:1024600012969C938E931197118610868C918150B1
:102470008C938C91DF91CF9108950F920FB6F894C1
:102480000F920BB60F920CB60F921F9211242F923F
:102490003F924F925F926F927F928F929F92AF92F4
:1024A000BF92CF92DF92EF92FF920F931F932F93E1
:1024B0003F934F935F936F937F938F939F93AF93CC
:1024C000BF93CF93DF93EF93FF93A091E80BB0916D
:1024D000E90B0DB60D920EB60D92B8D3A091E80B94
:1024E000B091E90BCD91CDBFDD91DEBFFF91EF91B2
:1024F000DF91CF91BF91AF919F918F917F916F911C
:102500005F914F913F912F911F910F91FF90EF900D
:10251000DF90CF90BF90AF909F908F907F906F9003
:102520005F904F903F902F901F900F900CBE0F9098
:102530000BBE0F900FBE0F9008950F920FB6F89438
:102540000F920BB60F920CB60F921F9211242F927E
:102550003F924F925F926F927F928F929F92AF9233
:10256000BF92CF92DF92EF92FF920F931F932F9320
:102570003F934F935F936F937F938F939F93AF930B
:10258000BF93CF93DF93EF93FF93A091E80BB091AC
:10259000E90B0DB60D920EB60D9213BE27D2811126
:1025A00055D3A091E80BB091E90BCD91CDBFDD9152
:1025B000DEBFFF91EF91DF91CF91BF91AF919F91DE
:1025C0008F917F916F915F914F913F912F911F91CB
:1025D0000F91FF90EF90DF90CF90BF90AF909F90C2
:1025E0008F907F906F905F904F903F902F901F90B3
:1025F0000F900CBE0F900BBE0F900FBE0F90089562
:102600009CDF18950F931F93CF93DF93EC01042F5A
:102610001A8D4C8D41110BC088819981892B09F04D
:102620003FC08C819D8120D41D821C8240C001113D
:1026300016C050E08A819B816DD72C8D8A819B8149
:10264000820F911D9B838A832C813D818217930782
:1026500048F1888199819B838A8380E028C050E07B
:102660008E819F8157D78C8D90E0919581959109AE
:102670002E813F81280F391F3F832E834881598146
:102680002417350730F42C813D81820F931F9F83DF
:102690008E83023049F4112349F0115080E007C0C5
:1026A00080E005C080E003C080E001C080E01F5FE3
:1026B0001A8FDF91CF911F910F910895EF92FF92A2
:1026C0000F931F93CF938C010FB6F8940F92FC01D8
:1026D000C68D1C169CF48189811106C00FC0F801BB
:1026E0008189811105C00AC07801F1E1EF0EF11C6A
:1026F000C7013CD38111B4D3C15089F78FEFF801E2
:10270000868F0F900FBE0FB6F8940F92C58D1C16D2
:102710009CF48085811106C00FC0F801808581116D
:1027200005C00AC07801F8E0EF0EF11CC7011ED306
:10273000811196D3C15089F78FEFF801858F0F90E3
:102740000FBECF911F910F91FF90EF900895CF93FF
:10275000DF93EC010FB6F8940F92E881F9818B8D2D
:102760002C8D90E030E0829FA001839F500D929FBE
:10277000500D11244E0F5F1F5D834C831A8EFB8317
:10278000EA830197829FA001839F500D929F500D75
:102790001124CF01840F951F9F838E838FEF8D8F20
:1027A0008E8F61110AC08885882369F0CE01089652
:1027B000DDD2882341F061DE06C0CE010896D6DD69
:1027C000CE014196D3DD0F900FBE81E0DF91CF9116
:1027D0000895CF93DF93E901209761F0611103C061
:1027E0003983288302C0598348838B8F6C8F61E0C3
:1027F000CE01ADDFCE01DF91CF9108959F92AF92D0
:10280000BF92CF92DF92EF92FF920F931F93CF93DD
:10281000DF9300D01F921F92CDB7DEB78C016B0102
:102820005D834C83A22EB12C992493947C0188E083
:10283000E80EF11C0FB6F8940F92F801928D838D7B
:10284000981718F0F2E0AF1215C04A2DB601C80172
:10285000D9DEF8019189992339F0C801419686D2D1
:10286000882321F00ADE02C0811107DE0F900FBE1F
:1028700081E045C08C819D81892B21F40F900FBE92
:1028800080E03DC0B11004C0CE010196B3D2B92C96
:102890000F900FBEA5D00FB6F8940F92F801858D5A
:1028A0008F3F09F4158EF801868D8F3F09F4168E3F
:1028B0000F900FBEBE016C5F7F4FCE010196A5D277
:1028C000811119C00FB6F8940F92F801928D838D83
:1028D0000F900FBE98130BC06C817D81C70136D25B
:1028E000C801ECDE3AD18111A5CFC7DDA3CFC80165
:1028F000E5DE33D19FCFC801E1DE2FD180E00F901C
:102900000F900F900F900F90DF91CF911F910F912B
:10291000FF90EF90DF90CF90BF90AF909F90089581
:10292000E091C20BF091C30B8081811107C08FEF42
:102930009FEF9093AF0B8093AE0B0895E091C20B85
:10294000F091C30B0580F681E02D0680F781E02D24
:10295000828193819093AF0B8093AE0B08950F9378
:102960001F93CF93DF93EC010091B40B1091B50B43
:102970008091E80B9091E90B029658DDC00FD11FB2
:10298000E091E80BF091E90BD383C283C017D10724
:1029900060F46091E80B7091E90B8091C00B90910D
:1029A000C10B6E5F7F4F11DD16C06091E80B709117
:1029B000E90B8091C20B9091C30B6E5F7F4F05DDD9
:1029C0008091AE0B9091AF0BC817D90720F4D0932C
:1029D000AF0BC093AE0BDF91CF911F910F91089574
:1029E0008091AD0B8F5F8093AD0B0895CF92DF92F6
:1029F000EF92FF920F931F93CF93DF938091AD0BD4
:102A0000811195C0E090B40BF090B50B8FEFE81AF0
:102A1000F80AF092B50BE092B40BE114F104B1F4B2
:102A20008091C20B9091C30B2091C00B3091C10BD0
:102A30003093C30B2093C20B9093C10B8093C00BB8
:102A40008091B00B8F5F8093B00B6ADF8091AE0BEB
:102A50009091AF0BE816F90610F4D12C50C0D12C90
:102A6000CC24C394E091C20BF091C30B80818111FF
:102A700007C08FEF9FEF9093AF0B8093AE0B3FC0DB
:102A8000E091C20BF091C30B0580F681E02DC68169
:102A9000D7818A819B81E816F90628F49093AF0BC1
:102AA0008093AE0B2CC08E010E5F1F4FC801BEDCA1
:102AB0008C899D89892B19F0CE010C96B7DC8E8903
:102AC0009091B30B981710F48093B30B90E09C0196
:102AD000220F331F220F331F220F331F820F931F2A
:102AE000B8018C53944F50DCE091E80BF091E90B66
:102AF0009E898689981708F4B5CFDC2CB3CFE09176
:102B0000E80BF091E90B868990E0FC01EE0FFF1FC6
:102B1000EE0FFF1FEE0FFF1F8E0F9F1FFC01EC53E8
:102B2000F44F8081823048F0DD24D39406C0809138
:102B3000B20B8F5F8093B20BD12C8091B10B8823A5
:102B400011F0DD24D3948D2DDF91CF911F910F9142
:102B5000FF90EF90DF90CF900895DF92EF92FF9279
:102B60000F931F93CF93DF930FB6F8940F9280913A
:102B7000AD0B81508093AD0B8091AD0B811159C08D
:102B80008091B60B811130C057C0D7011596ED91D9
:102B9000FC911697C681D781CE010C9647DC8E0139
:102BA0000E5F1F4FC80142DC8E899091B30B9817BE
:102BB00010F48093B30B90E09C01220F331F220F7F
:102BC000331F220F331F820F931FB8018C53944F72
:102BD000DBDBE091E80BF091E90B9E898689981781
:102BE00068F0D092B10B0AC0C0E0D0E00F2EF7EB36
:102BF000EF2EFBE0FF2EF02DDD24D394F701808132
:102C00008111C3CFCD2B09F08BDEC091B20BCC2349
:102C100049F0D1E0EBDE8111D093B10BC150D1F777
:102C20001092B20B8091B10B882329F026DC81E051
:102C300003C080E001C080E00F900FBEDF91CF9114
:102C40001F910F91FF90EF90DF9008958091AD0B51
:102C5000882321F081E08093B10B08951092B10B8D
:102C6000A091E80BB091E90BE091E80BF091E90B32
:102C70002D913C918789908D8217930758F0609130
:102C8000E80B7091E90B8091E80B9091E90B675E7E
:102C90007F4F5FDB2091B30B822F90E0FC01EE0FA2
:102CA000FF1FEE0FFF1FEE0FFF1FE80FF91FEC5382
:102CB000F44F3081311111C02150822F90E0FC017E
:102CC000EE0FFF1FEE0FFF1FEE0FFF1FE80FF91FA4
:102CD000EC53F44F3081332379F3AC01440F551F8B
:102CE000440F551F440F551F480F591FDA01AC53AD
:102CF000B44F1196ED91FC9112970280F381E02D73
:102D00001296FC93EE9311974953544FE417F5072D
:102D100029F442815381FD0152834183FC01EE0F6E
:102D2000FF1FEE0FFF1FEE0FFF1F8E0F9F1FFC01F7
:102D3000EC53F44F0180F281E02D868197819093CE
:102D4000E90B8093E80B2093B30B0895CF93DF93A7
:102D5000EB016091E80B7091E90B645F7F4F35DB0D
:102D600061E0CE01FCDDDF91CF9108950F931F93B9
:102D7000CF93DF93DC011596ED91FC911697C681F8
:102D8000D7818E01045F1F4FC80150DB8091AD0BCE
:102D900081111AC00A501109C80148DB8E8990912F
:102DA000B30B981710F48093B30B90E09C01220FA3
:102DB000331F220F331F220F331F820F931FB801BF
:102DC0008C53944FE1DA04C0B80187EB9BE0DCDA66
:102DD000E091E80BF091E90B9E898689891720F430
:102DE00081E08093B10B01C080E0DF91CF911F9112
:102DF0000F9108952091B00BFC0120832091B40B1A
:102E00003091B50B3283218308950FB6F8940F9259
:102E10002091B40B3091B50BDC0111964D915C9172
:102E20001297E091B00BFC91FE1719F024173507AB
:102E300098F4241B350BFB01408151812417350781
:102E400038F4421B530B51834083D4DF80E005C02C
:102E50001182108281E001C081E00F900FBE0895C1
:102E600081E08093B10B08950F931F93CF93DF936D
:102E7000FC01892B69F182A1815082A3268991A14D
:102E8000291741F1811128C0EF018F010E5F1F4FFB
:102E9000C801CCDA89A18E8B24E030E0281B3109EF
:102EA0003D872C879091B30B981710F48093B30B48
:102EB00090E09C01220F331F220F331F220F331F7C
:102EC000820F931FB8018C53944F5EDA81E005C0E6
:102ED00080E003C080E001C080E0DF91CF911F91CE
:102EE0000F9108950C949D0008959093ED0B80939D
:102EF000EC0B7093EB0B6093EA0B08959093EF0B40
:102F00008093EE0B0895EEDF3FC008958091F40B9F
:102F10009091F50B01969093F50B8093F40B209113
:102F2000F40B3091F50B8091F00B9091F10B281779
:102F3000390750F020E040E050E060E070E0809120
:102F40001F0C9091200C5ACC08958091F60B909113
:102F5000F70B01969093F70B8093F60B2091F60BED
:102F60003091F70B8091F20B9091F30B28173907F2
:102F700050F020E040E050E060E070E080915F0CB5
:102F80009091600C3BCC08950F9366E877E185EA59
:102F900097E10E94BB0003E020E43CE040E050E009
:102FA00060E081E016DC9093600C80935F0C21E27E
:102FB0003CE040E050E060E081E00BDC9093200CCE
:102FC00080931F0C0F9108959093F90B8093F80B49
:102FD00008950E94370A18D00E94C10994DF32D99F
:102FE00080E00895862728E030E080FF07C09695AE
:102FF000879541E0842740EA942702C096958795FB
:103000002150310991F7089582E08093B00084E067
:103010008093B1008AEF8093B300E0E7F0E0808115
:10302000826080830895F8946091610C7091620CC5
:103030008091630C9091640C789408951F920F9284
:103040000FB60F9211248F939F93AF93BF938091EC
:10305000610C9091620CA091630CB091640C01968C
:10306000A11DB11D8093610C9093620CA093630C21
:10307000B093640CBF91AF919F918F910F900FBE51
:103080000F901F9018955058BB27AA270ED070C1DB
:1030900061D130F066D120F031F49F3F11F41EF47D
:1030A00056C10EF4E095E7FB4CC1E92F72D180F3D5
:1030B000BA17620773078407950718F071F49EF535
:1030C0008AC10EF4E0950B2EBA2FA02D0B01B90189
:1030D00090010C01CA01A0011124FF27591B99F08E
:1030E000593F50F4503E68F11A16F040A22F232F9A
:1030F000342F4427585FF3CF469537952795A795EA
:10310000F0405395C9F77EF41F16BA0B620B730B90
:10311000840BBAF09150A1F0FF0FBB1F661F771F01
:10312000881FC2F70EC0BA0F621F731F841F48F4B6
:10313000879577956795B795F7959E3F08F0B3CF3C
:103140009395880F08F09927EE0F97958795089526
:10315000D4D008F481E008950CD00AC102D140F027
:10316000F9D030F021F45F3F19F0EBC0511134C1B8
:10317000EEC00FD198F39923C9F35523B1F3951BF2
:10318000550BBB27AA2762177307840738F09F5F88
:103190005F4F220F331F441FAA1FA9F333D00E2EF7
:1031A0003AF0E0E830D091505040E695001CCAF764
:1031B00029D0FE2F27D0660F771F881FBB1F261729
:1031C00037074807AB07B0E809F0BB0B802DBF01FC
:1031D000FF2793585F4F2AF09E3F510568F0B1C01A
:1031E000FBC05F3FECF3983EDCF3869577956795DF
:1031F000B795F7959F5FC9F7880F911D96958795AD
:1032000097F90895E1E0660F771F881FBB1F6217CB
:1032100073078407BA0720F0621B730B840BBA0B89
:10322000EE1F88F7E0950895BCD088F09F5790F086
:10323000B92F9927B751A0F0D1F0660F771F881FDB
:10324000991F1AF0BA95C9F712C0B13081F0C3D0F6
:10325000B1E00895C0C0672F782F8827B85F39F094
:10326000B93FCCF3869577956795B395D9F73EF43A
:1032700090958095709561957F4F8F4F9F4F0895E2
:10328000E89409C097FB3EF4909580957095619500
:103290007F4F8F4F9F4F9923A9F0F92F96E9BB27B6
:1032A0009395F695879577956795B795F111F8CF32
:1032B000FAF4BB0F11F460FF1BC06F5F7F4F8F4F9D
:1032C0009F4F16C0882311F096E911C0772321F093
:1032D0009EE8872F762F05C0662371F096E8862F2B
:1032E00070E060E02AF09A95660F771F881FDAF782
:1032F000880F9695879597F90895990F0008550FAF
:10330000AA0BE0E8FEEF16161706E807F907C0F06B
:1033100012161306E407F50798F0621B730B840B73
:10332000950B39F40A2661F0232B242B252B21F44D
:1033300008950A2609F4A140A6958FEF811D811DED
:10334000089597F99F6780E870E060E008959FEF27
:1033500080EC089500240A9416161706180609062C
:10336000089500240A9412161306140605060895FB
:10337000092E0394000C11F4882352F0BB0F40F483
:10338000BF2B11F460FF04C06F5F7F4F8F4F9F4FC3
:10339000089557FD9058440F551F59F05F3F71F045
:1033A0004795880F97FB991F61F09F3F79F08795AC
:1033B0000895121613061406551FF2CF4695F1DF35
:1033C00008C0161617061806991FF1CF86957105C5
:1033D000610508940895E894BB2766277727CB01F9
:1033E00097F908958ADF08F48FEF08950BD0C0CFC6
:1033F000B1DF28F0B6DF18F0952309F0A2CFA7CFF0
:103400001124EACFC6DFA0F3959FD1F3950F50E0CA
:10341000551F629FF001729FBB27F00DB11D639F86
:10342000AA27F00DB11DAA1F649F6627B00DA11D2C
:10343000661F829F2227B00DA11D621F739FB00DD2
:10344000A11D621F839FA00D611D221F749F332742
:10345000A00D611D231F849F600D211D822F762FDB
:103460006A2F11249F5750408AF0E1F088234AF0D8
:10347000EE0FFF1FBB1F661F771F881F9150504024
:10348000A9F79E3F510570F05CCFA6CF5F3FECF3EC
:10349000983EDCF3869577956795B795F795E79510
:1034A0009F5FC1F7FE2B880F911D9695879597F921
:1034B0000895A1E21A2EAA1BBB1BFD010DC0AA1F75
:1034C000BB1FEE1FFF1FA217B307E407F50720F08D
:1034D000A21BB30BE40BF50B661F771F881F991F08
:1034E0001A9469F760957095809590959B01AC0151
:1034F000BD01CF010895A29FB001B39FC001A39F5A
:10350000700D811D1124911DB29F700D811D11241C
:10351000911D0895FB01DC0102C001900D92415004
:0A3520005040D8F70895F894FFCF4B
:10352A00524553504F4E43455F54494D45445F4FB2
:10353A0055540A0054656D70657261747572655FE1
:10354A006F7665725F74656D70200A004C657665EA
:10355A006C5F73656E736F725F6572726F725F63B1
:10356A00616C6C6261636B200A004C43445F575282
:10357A004954455F54494D454F5554202B2B2B2B0D
:10358A002B2B2B2B2B2B2B2B2B2B2B2B2B2B2B2B81
:10359A002B2B2B2B2B2B2B2B200A004C43445F521B
:1035AA004541445F54494D454F5554202D2D2D2DED
:1035BA002D2D2D2D2D2D2D2D2D2D2D2D2D2D2D2D31
:1035CA002D2D2D2D2D2D2D2D200A0048454C4C4FEB
:0C35DA00200A0048656C6C6F200A00009D
:00000001FF
