:10000000DBC00000FAC00000F8C00000F6C000002D
:10001000F4C00000F2C00000F0C00000EEC000001C
:10002000ECC00000EAC00000E8C00000E6C000002C
:100030000C9426180C94D722E0C00000DEC000000B
:10004000DCC000000C94460DD8C00000D6C00000F3
:10005000D4C00000D2C00000D0C00000CEC000005C
:10006000CCC000000C94080F0C94410FC6C00000D7
:10007000C4C000000C944D0CC0C00000BEC0000005
:100080000C94B60DBAC00000B8C00000B6C00000A5
:100090000C940E100C944710B0C00000AEC00000CD
:1000A000ACC00000AAC000000C94260EA6C0000040
:1000B000A4C00000A2C00000A0C000000C94960ED6
:1000C0009CC000009AC0000098C000000C94591118
:1000D0000C94921192C000000C94A1120C94DA12AC
:1000E0008CC0000007634236B79BD8A71A39685600
:1000F00018AEBAAB558C1D3CB7CC5763BD6DEDFD4A
:10010000753EF6177231BF000000803F0800000006
:10011000BE922449123EABAAAA2ABECDCCCC4C3EFC
:1001200000000080BEABAAAAAA3E00000000BF00EB
:100130000000803F0000000000084178D3BB4387E7
:10014000D1133D190E3CC3BD4282AD2B3E68EC82FB
:1001500076BED98FE1A93E4C80EFFFBE01C4FF7F80
:100160003F0000000000C2ECDDE008ED1DE08091E2
:10017000C10D8823D1F00FB6F8940F92ED81FE8166
:100180008681978102960E948E168091C00D8150C3
:100190008093C00D8091C10D81508093C10D0F904F
:1001A0000FBE8091C10D8111E6CFF80180818230B0
:1001B000F0F20E946317DBCF11241FBECFEFD1E214
:1001C000DEBFCDBF00E00CBF13E0A0E0B2E0E4E78B
:1001D000FDE400E00BBF02C007900D92AA35B10705
:1001E000D9F727E1AAE5B3E001C01D92A039B20713
:1001F000E1F70E94990B0C94B82602CF60937D0E14
:1002000070937E0E80937F0E9093800E089540E150
:1002100050E065E08EEF90E001C00895E1E8FEE077
:1002200064835183408393838283CF010C94DE0CDB
:100230000895E091860EF091870E19950895E0914A
:10024000880EF091890E19950895CF92DF92EF9262
:10025000FF920F931F93CF93DF936A017901CFE849
:10026000DEE000EF10E01983088381E08C8389E1F0
:1002700091E09B838A83CE010E94DE0C1983088360
:1002800083E08C838FE191E09B838A838AE89EE000
:100290000E94DE0CD092870EC092860EF092890EDC
:1002A000E092880E0E946A0CDF91CF911F910F910E
:1002B000FF90EF90DF90CF90089561E081E00C9483
:1002C000C10C089560E081E00C94C10C0895EAE54A
:1002D000F3E081834283538364837583208382E6C2
:1002E00091E0918780878DE591E097838683BF01B8
:1002F00081E058C7089580E090E00C94A11D089516
:1003000060E080E00C94C10C089561E080E00C9402
:10031000C10C0895E6E6F3E0208381834283538392
:100320006483758385E891E09783868380E891E014
:10033000918780878BE791E093878287BF0180E078
:1003400031C70895FF920F931F93CF93DF93F62E3B
:10035000C72FD42F50E0BC0180E00E94820A811197
:1003600013C0DD2381F00F2D1C2FC0E06C2F80E027
:100370000E943E0AF801819391938F01CF5FCD13C4
:10038000F5CF80E001C080E0DF91CF911F910F9108
:10039000FF900895EF92FF920F931F93CF93DF93F7
:1003A0007C01D42F442371F0062F172FC0E0F801F1
:1003B000419151918F016C2F80E00E94610ACF5FC3
:1003C000CD13F5CF4D2F50E0B70180E00E94A00A79
:1003D000DF91CF911F910F91FF90EF900895CF93F0
:1003E000DF9381E00E949C0CC82F82E00E949C0C4D
:1003F000D82F83E00E949C0CDD0F24E0829FC00177
:1004000011248D2B8C2B823051F09CEF980F933060
:1004100040F0833041F0873039F483E005C085E552
:1004200003C085E501C082E0DF91CF9108950C946F
:10043000BC0C08957F928F929F92AF92BF92CF9201
:10044000DF92EF92FF920F931F93CF93DF93CDB77D
:10045000DEB7DA950FB6F894DEBF0FBECDBFD62E4D
:10046000811114C38091C20589832FEF621306C0E6
:100470008FE08A836894CC24C1F832C06A8381E01B
:100480006817B8F094E0961718F4A7E16A1311C042
:100490008091BB059091BC059B838C838091B905AD
:1004A0009091BA059D838E830F2EF6E0CF2EF02D0E
:1004B00003C06894CC24C1F8B0E1BD1540F0EFE072
:1004C000DE1670F48BEF8D0D823000F509C0F6E179
:1004D000DF16E0F027E12D1518F48FEFD81216C0C3
:1004E0009091370580913805E1E0F0E0EC0FFD1FB9
:1004F000EC0DF11D808381E08C0DE1E0F0E0EC0F6C
:10050000FD1FE80FF11DC394C394908390E1D916A9
:1005100009F4ADC09D1558F0A6E0DA1661F1BFE010
:10052000DB1609F441C0E5E0DE121EC10DC0F7E1A3
:10053000DF1609F49CC02FEFD21609F498C086E1AB
:10054000D81609F4E1C010C19091350580913605A7
:10055000E1E0F0E0EC0FFD1FEC0DF11D808381E088
:100560008C0DE1E0F0E0EC0FFD1FE80FF11DC394EE
:10057000C3949083F9C0E5EBF4E080819181A1E020
:10058000B0E0AC0FBD1FAC0DB11D9C93208131813B
:1005900081E08C0DE1E0F0E0EC0FFD1FE80FF11DB4
:1005A000C394C3942083E0C08091350590913605B3
:1005B000E1E0F0E0EC0FFD1FEC0DF11D908332E067
:1005C0003C0D21E02C0DE1E0F0E0EC0FFD1FE20F0F
:1005D000F11D8083AC0147705527452B49F0969556
:1005E0008795969587959695879521E0280F07C062
:1005F000969587959695879596958795282F93E05C
:10060000C90EFE01E30FF11D2183222309F4ACC0C2
:1006100080E0982F917080FF03C0913099F023C043
:10062000E82FE695F0E0EE0FFF1FEB54FB4F408103
:100630005181E1E0F0E0EC0FFD1FEC0DF11D408376
:10064000C39411C0E82FE695F0E0EE0FFF1FEB54C6
:10065000FB4F40815181E1E0F0E0EC0FFD1FEC0D1C
:10066000F11D5083C3948F5F8213D3CF7DC06091FF
:10067000350580913605E1E0F0E0EC0FFD1FEC0D53
:10068000F11D808381E08C0DE1E0F0E0EC0FFD1FB7
:10069000E80FF11D608373E07C0D82E08C0DE1E0DA
:1006A000F0E0EC0FFD1FE80FF11D862F880F80830F
:1006B000662309F458C0862F880F8D5FC80E872FD8
:1006C00020E030E091E0980FF901EE0FFF1FEB54AE
:1006D000FB4F40815181A1E0B0E0AC0FBD1FA80FDE
:1006E000B11D5C938E5F40815181E1E0F0E0EC0F41
:1006F000FD1FE90FF11D40832F5F3F4F8C11E2CFAB
:10070000660FC62EC70E30C0E5EBF4E08081918104
:10071000A1E0B0E0AC0FBD1FAC0DB11D9C9380817A
:10072000918191E09C0DA1E0B0E0AC0FBD1FA90F3D
:10073000B11D8C938281938182E08C0DA1E0B0E0A9
:10074000AC0FBD1FA80FB11D9C932281338183E0A4
:100750008C0DE1E0F0E0EC0FFD1FE80FF11DA4E0CF
:10076000CA0E208301C0C72ECC20B9F08E010F5FC6
:100770001F4FEE24EA94EC0CF12CBFEFEB1AFB0AAE
:10078000E00EF11E8FEF9FEFF80161918F010E9443
:10079000AB220E151F05C1F702C08FEF9FEFEE24AD
:1007A000E394EC0CE1E0F0E0EC0FFD1FEC0DF11D2B
:1007B0008083C394C394E1E0F0E0EC0FFD1FEE0DE5
:1007C000F11D9083E1E0F0E0EC0FFD1FEC0DF11D59
:1007D0001082E091A604F091A7041995811591402B
:1007E000C1F7E091AC04F091AD04309709F0199590
:1007F000CC20A1F08E010F5F1F4FF12C2FEFE21ADA
:10080000F20AE00EF11EE091A804F091A904D801CB
:100810008D918D0119950E151F05A9F7E091A4047E
:10082000F091A5041995EFE8F1E03197F1F700C0D8
:100830000000E091AA04F091AB04309709F01995FB
:100840000E94CC224B015C0108E010E0ED2CF12C61
:100850000F2EF3E0CF2EF02D0F2EF5E0DF2EF02D32
:10086000E091A004F091A1041995892B91F07724CF
:100870007394710EE091A604F091A7041995E1E03C
:10088000F0E0EC0FFD1FE10FF11D80830150172DEB
:1008900007C0E091AE04F091AF04309709F01995CC
:1008A000153059F599818091C205981318C48A8131
:1008B000282F2F7730E02E153F0509F012C488232A
:1008C0002CF48B81882309F43DC0D7C0813158F4C2
:1008D0008F3008F0F4C3813080F0853068F08730C5
:1008E00008F4EDC30AC0873139F08F3F09F4E7C33C
:1008F000863119F40D2DE4C30B810E94CC22DC015A
:10090000CB0188199909AA09BB09893C9105A10560
:10091000B10508F427C480E092E00E9400100111A4
:10092000E2C3912F82EE22EE2111A7C0953078F11B
:10093000C12ED12C7601F2E0EF1AF1081E141F042B
:100940005CF0D6C30F2EF3E0EF2EF12CF02D0F2E1E
:10095000F5E0CF2ED12CF02D20E030E08FEF9FEF8F
:1009600000E0E1E0F0E0EC0FFD1FE20FF31F60811B
:100970000E94AB220F5F202F30E02E153F058CF335
:10098000B9C3FE01EC0DFD1D80818913BCC38A81B2
:10099000853028F4833030F4813050F46BC08731D7
:1009A00009F068C03B81369509F040C080E065C021
:1009B0007B81672F669509F4A8C3FE01359640E058
:1009C00050E090E001C0982F903470F4DF0111974F
:1009D0002C91808130E0382BDA01AA0FBB1FA75C75
:1009E000BA4F11963C932E9381E0890F4F5F5F4F72
:1009F0003296861740F39093B00470FF3DC0803468
:100A000080F401C080E0282F30E0220F331FFE0168
:100A1000E20FF31F448150E0F901E75CFA4F518384
:100A200040838F5F8093B00480E027C0FE0135963D
:100A300040E050E020E001C0282F203480F4DF01A6
:100A400011978C9190E0982F88276081862BDA018E
:100A5000AA0FBB1FA75CBA4F11969C938E9381E09F
:100A6000820F4F5F5F4F3296831730F32093B004AD
:100A700080E003C080E001C080E01092B4041092D6
:100A8000B3041092B2041092B10478C3813009F01B
:100A900014C380919B0489832FEF621306C08FE0FB
:100AA0008A836894CC24C1F832C06A8381E06817D5
:100AB000B8F094E0961718F4A7E16A1311C080917A
:100AC0009404909195049B838C83809192049091DF
:100AD00093049D838E830F2EF6E0CF2EF02D03C05E
:100AE0006894CC24C1F8B0E1BD1540F0EFE0DE160B
:100AF00070F48BEF8D0D823000F509C0F6E1DF1642
:100B0000E0F027E12D1518F48FEFD81216C0909160
:100B1000100480911104E1E0F0E0EC0FFD1FEC0DFA
:100B2000F11D808381E08C0DE1E0F0E0EC0FFD1F12
:100B3000E80FF11DC394C394908390E1D91609F492
:100B4000ADC09D1558F0A6E0DA1661F1BFE0DB16E6
:100B500009F441C0E5E0DE121EC10DC0F7E1DF1669
:100B600009F49CC02FEFD21609F498C086E1D8167C
:100B700009F4E1C010C190910E0480910F04E1E0EE
:100B8000F0E0EC0FFD1FEC0DF11D808381E08C0D7A
:100B9000E1E0F0E0EC0FFD1FE80FF11DC394C394FA
:100BA0009083F9C0EEE8F3E080819181A1E0B0E0AC
:100BB000AC0FBD1FAC0DB11D9C932081318181E034
:100BC0008C0DE1E0F0E0EC0FFD1FE80FF11DC39488
:100BD000C3942083E0C080910E0490910F04E1E063
:100BE000F0E0EC0FFD1FEC0DF11D908322E02C0DC9
:100BF00031E03C0DE1E0F0E0EC0FFD1FE30FF11DF3
:100C00008083AC0147705527452B49F09695879511
:100C1000969587959695879591E0980F07C096953C
:100C200087959695879596958795982FA3E0CA0EF8
:100C3000FE01E20FF11D9183992309F4ACC080E01D
:100C4000282F217080FF03C0213099F023C0E82FA6
:100C5000E695F0E0EE0FFF1FE257FC4F2081318157
:100C6000E1E0F0E0EC0FFD1FEC0DF11D2083C394DB
:100C700011C0E82FE695F0E0EE0FFF1FE257FC4FA2
:100C800020813181E1E0F0E0EC0FFD1FEC0DF11D62
:100C90003083C3948F5F8913D3CF7DC060910E04DE
:100CA00080910F04E1E0F0E0EC0FFD1FEC0DF11D71
:100CB000808381E08C0DE1E0F0E0EC0FFD1FE80F98
:100CC000F11D608373E07C0D82E08C0DE1E0F0E0CB
:100CD000EC0FFD1FE80FF11D862F880F8083662320
:100CE00009F458C0862F880F8D5FC80E872F20E02B
:100CF00030E091E0980FF901EE0FFF1FE257FC4F33
:100D000040815181A1E0B0E0AC0FBD1FA80FB11D23
:100D10005C938E5F40815181E1E0F0E0EC0FFD1FBC
:100D2000E90FF11D40832F5F3F4F8C11E2CF660F1B
:100D3000C62EC70E30C0EEE8F3E080819181A1E0BD
:100D4000B0E0AC0FBD1FAC0DB11D9C9380819181B3
:100D500091E09C0DA1E0B0E0AC0FBD1FA90FB11D4B
:100D60008C938281938182E08C0DA1E0B0E0AC0F86
:100D7000BD1FA80FB11D9C932281338183E08C0D90
:100D8000E1E0F0E0EC0FFD1FE80FF11DB4E0CB0E49
:100D9000208301C0C72ECC20B9F08E010F5F1F4FFA
:100DA000EE24EA94EC0CF12CEFEFEE1AFE0AE00EC2
:100DB000F11E8FEF9FEFD8016D918D010E94AB2244
:100DC0000E151F05C1F702C08FEF9FEFEE24E394CD
:100DD000EC0CE1E0F0E0EC0FFD1FEC0DF11D808369
:100DE000C394C394E1E0F0E0EC0FFD1FEE0DF11DA4
:100DF0009083E1E0F0E0EC0FFD1FEC0DF11D10829F
:100E0000E0917F03F0918003199581159140C1F71E
:100E1000E0918503F0918603309709F01995CC2075
:100E2000A1F08E010F5F1F4FF12CEFEFEE1AFE0ABB
:100E3000E00EF11EE0918103F0918203D8018D91C3
:100E40008D0119950E151F05A9F7E0917503F09115
:100E500076031995E7E0F7E03197F1F700C000005D
:100E6000E0918303F0918403309709F019950E9473
:100E7000CC224B015C0108E010E0ED2CF12C0F2E90
:100E8000F3E0CF2EF02D0F2EF5E0DF2EF02DE091C8
:100E90007703F09178031995892B91F07724739457
:100EA000710EE0917F03F09180031995E1E0F0E08D
:100EB000EC0FFD1FE10FF11D80830150172D07C0BE
:100EC000E0918703F0918803309709F01995153068
:100ED00059F5998180919B0498132BC18A81282F01
:100EE0002F7730E02E153F0509F025C188232CF41B
:100EF0008B81882309F43DC0D7C0813158F48F30ED
:100F000008F007C1813080F0853068F0873008F440
:100F100000C10AC0873139F08F3F09F4FAC0863129
:100F200019F40D2DF7C00B810E94CC22DC01CB01FE
:100F300088199909AA09BB09893C9105A105B10540
:100F400008F416C180E092E00E9400100111F5C083
:100F5000212F82EE92EE9111A7C0253078F1C12E9B
:100F6000D12C7601F2E0EF1AF1081E141F045CF098
:100F7000E8C00F2EF3E0EF2EF12CF02D0F2EF5E050
:100F8000CF2ED12CF02D20E030E08FEF9FEF00E04E
:100F9000E1E0F0E0EC0FFD1FE20FF31F60810E9423
:100FA000AB220F5F202F30E02E153F058CF3CBC016
:100FB000FE01EC0DFD1D80818913CEC08A81853034
:100FC00028F4833030F4813050F46BC0873109F05D
:100FD00068C09B81969509F040C080E065C06B8138
:100FE000762F769509F4BAC0FE01359620E030E000
:100FF00090E001C0982F903470F4DF0111974C916C
:10100000808150E0582BD901AA0FBB1FAE5EBB4FA9
:1010100011965C934E9381E0890F2F5F3F4F32967C
:10102000871740F39093890360FF3DC0803480F4BC
:1010300001C080E0282F30E0220F331FFE01E20FB5
:10104000F31F448150E0F901EE5EFB4F5183408372
:101050008F5F8093890380E027C0FE01359640E0D2
:1010600050E080E001C0822F803480F4DF011197CE
:101070002C9130E0322F22276081262BDA01AA0F33
:10108000BB1FAE5EBB4F11963C932E9321E0280F01
:101090004F5F5F4F3296291730F38093890380E0CA
:1010A00003C080E001C080E010928D0310928C0399
:1010B00010928B0310928A0361C084EE5FC00C2DE6
:1010C0000E94CC22DC01CB0188199909AA09BB092D
:1010D000893C9105A105B10508F4C2CB1CCC80EE7A
:1010E00003C081EE01C082EE882309F450CCC5CC48
:1010F0008FEF9FEFFE01EE0DFF1D2181281709F4F0
:1011000040CC83EEBACC83EEB8CC70FD7BCC80E0D3
:10111000B4CC0C2D0E94CC22DC01CB01881999099A
:10112000AA09BB09893C9105A105B10508F4AFCE18
:1011300009CF80EE03C081EE01C082EE8111B4CFF1
:101140003DCF8FEF9FEFFE01EE0DFF1D2181281790
:1011500009F42ECF83EEA8CF83EEA6CF60FD69CF32
:1011600080E0A2CF01117CCB912F80E020E0DCCB8E
:1011700001118DCE212F80E090E0EDCED3950FB6FA
:10118000F894DEBF0FBECDBFDF91CF911F910F91BD
:10119000FF90EF90DF90CF90BF90AF909F908F9097
:1011A0007F900895FB018111D0C080818093C2059A
:1011B00081818093C105428153816481758140930F
:1011C000BD055093BE056093BF057093C005268191
:1011D00037813093AD042093AC0420853185309362
:1011E000AB042093AA04228533853093AF04209367
:1011F000AE041092B1041092B0048130A9F5809130
:10120000740381113AC181E080937403CB01BA0168
:1012100073D786E491E19093A1048093A00481EFB9
:1012200090E19093A3048093A20484E591E19093CC
:10123000A5048093A40487E291E190939F04809396
:101240009E0481ED90E19093A7048093A6048EE024
:1012500091E19093A9048093A80485E391E1909390
:101260009D0480939C0408958230B1F580917303AE
:10127000811103C181E080937303CB01BA010E9405
:10128000C7118EE892E19093A1048093A00489E3B2
:1012900092E19093A3048093A2048CE992E190934D
:1012A000A5048093A4048FE692E190939F04809319
:1012B0009E048CE192E19093A7048093A60486E5B6
:1012C00092E19093A9048093A8048DE792E1909312
:1012D0009D0480939C040895833009F0CEC08091D2
:1012E00072038111CAC081E080937203CB01BA01FD
:1012F0000E940F1386ED93E19093A1048093A004C4
:1013000081E893E19093A3048093A20484EE93E197
:101310009093A5048093A40487EB93E190939F049A
:1013200080939E0484E693E19093A7048093A6049F
:101330008EE993E19093A9048093A80485EC93E14E
:1013400090939D0480939C040895813009F095C08A
:10135000808180939B04818180939A044281538190
:101360006481758140939604509397046093980428
:1013700070939904268137813093860320938503E7
:101380002085318530938403209383032285338520
:10139000309388032093870310928A031092890365
:1013A0008130A9F580917403811167C081E0809339
:1013B0007403CB01BA01A0D686E491E1909378033F
:1013C0008093770381EF90E190937E0380937D0378
:1013D00084E591E1909376038093750387E291E130
:1013E00090937C0380937B0381ED90E19093800345
:1013F00080937F038EE091E1909382038093810339
:1014000085E391E190937A03809379030895823084
:10141000A1F580917303811130C081E08093730343
:10142000CB01BA01B4D78EE892E190937803809310
:10143000770389E392E190937E0380937D038CE9A7
:1014400092E190937603809375038FE692E19093F7
:101450007C0380937B038CE192E1909380038093E3
:101460007F0386E592E190938203809381038DE769
:1014700092E190937A0380937903089581110BC0D0
:101480006034B0F4E62FF0E0EE0FFF1FE75CFA4F98
:10149000808191810895813071F4603478F4E62F71
:1014A000F0E0EE0FFF1FEE5EFB4F8081918108950B
:1014B0008FEF9FEF08958FEF9FEF08958FEF9FEFCE
:1014C000089581110BC06034B8F4E62FF0E0EE0F00
:1014D000FF1FEB54FB4F518340830895813071F41B
:1014E000603470F4E62FF0E0EE0FFF1FE257FC4F80
:1014F0005183408380E0089582E0089582E008955A
:1015000082E0089581110CC07093BC056093BB0507
:101510005093BA054093B90563E00C941A020895FC
:10152000813061F470939504609394045093930414
:101530004093920463E00C941A02089584EE089597
:1015400081110CC0709338056093370550933605B0
:101550004093350560E10C941A020895813061F4DE
:10156000709311046093100450930F0440930E0481
:1015700060E10C941A02089584EE08955CC1089508
:10158000CF92DF92EF92FF92CF93CFE0C12CD12C7C
:10159000760173D1BC0180E090E00E94F5239B01AD
:1015A000AC01C701B6010E94FD226B017C0180E005
:1015B00090E00E94A11DC15061F720E030E040E7BB
:1015C00051E4C701B6010E9461232BED39EF4EE1D2
:1015D00050E40E94832420E030E040E85AE30E9477
:1015E000832420E030E04AE754E40E94832423E08F
:1015F00039E042EF50E40E94612320E030E048EC03
:1016000052E40E9461239B01AC0160E070E080E83D
:101610009FE30E94FC2223E233EE4AE156EB0E9454
:1016200083249B01AC0166E672E280E897E30E94A6
:10163000FC2220E030E040E05FE30E94E62422E369
:1016400031E140E85BE30E94FC2223E233EE4AE909
:1016500055EB0E9461230E9432250E94C923CB01D1
:10166000CF91FF90EF90DF90CF90089584E192E0CA
:10167000C7C408958CE292E0C3C408958AE492E05E
:10168000BFC408958BE792E0BBC408956EE37BE08E
:1016900082E49BE00E945D218AE39BE00E94F921A5
:1016A00086E39BE00C947B2208958BEA92E0A8D419
:1016B00088EB92E0A5D42FEF83ED90E3215080409A
:1016C0009040E1F700C000008FE190E00E94A11D72
:1016D000EFCFCF93DF931F92CDB7DEB7198286ECA1
:1016E00092E08ED4CE0101960E9480220F90DF916D
:1016F000CF910895CF93DF931F92CDB7DEB71982B4
:10170000CE0101960E9466210F90DF91CF9108953E
:10171000CF93DF931F92CDB7DEB7198284ED92E0AD
:101720006FD4CE0101960E94FE210F90DF91CF91E0
:1017300008958FEF8DB960E875E280E090E0D6D330
:101740000E94A1220E94722282EE92E059D423E0EC
:1017500040E056E960E070E081E00E9467010F2EF2
:10176000FEEBCF2EFEE0DF2EF02D0F2EF1E1EF2E5F
:10177000F1E1FF2EF02D02E020E030E044EF51E0F7
:101780006AEE72E088E89BE00E941B1B9093CA05FA
:101790008093C9050F2EF8EECF2EFEE0DF2EF02D40
:1017A0000F2EFFE2EF2EF3E1FF2EF02D20E030E0D0
:1017B00044EF51E060EF72E08AE79BE00E941B1B60
:1017C0009093C8058093C7050F2EF5E0CF2EF3E167
:1017D000DF2EF02D0F2EFAE2EF2EF5E1FF2EF02D89
:1017E00020E030E044EF51E066EF72E089E69BE0F4
:1017F0000E941B1B9093C6058093C5050F2EF4E92C
:10180000CF2EFEE0DF2EF02D0F2EFDE1EF2EFFE0BC
:10181000FF2EF02D20E030E044EF51E06CEF72E05D
:1018200085E59BE00E941B1B9093C4058093C30534
:101830000E94151CFFCF90B321E030E0082E02C0BB
:10184000220F331F0A94E2F72095292320BBECE7EF
:10185000F0E090819F7090839081907F90838F7053
:10186000982B90838FE880937A0078940895EAE724
:10187000F0E08081806480830895F9DF1092CD05C7
:1018800080EC92E10197F1F78091CE059091CF0520
:101890009093CC058093CB0508951F920F920FB6BD
:1018A0000F9211242F938F939F9380917800209112
:1018B000790090E0922B9093CF058093CE0581E044
:1018C0008093CD059F918F912F910F900FBE0F9018
:1018D0001F901895EAE0F1E080818F7E80838081FF
:1018E0008F7D808380818F7B8083539820983A9866
:1018F00054983C9A3F9A3D9A399A399A579A389A0D
:101900003898569A3B9AE4E0F1E0808184608083C5
:10191000549A3F9A3F9AE1E0F1E080818E7F808384
:10192000808182608083E2E0F1E080818160808359
:101930005298539A5A9A0895813041F4809109013E
:1019400084FB992790F981E089270895823041F43A
:101950008091090185FB992790F981E089270895F5
:10196000833041F48091090186FB992790F981E049
:10197000892708958FEF089589B183FB882780F91F
:101980000895882319F0813089F00895613031F489
:10199000E5E0F1E0808184608083089561110DC0ED
:1019A000E5E0F1E080818B7F80830895613011F460
:1019B0005C9A0895611101C05C980895FC019481BE
:1019C0009130B1F4109280008EE08093810080818C
:1019D000918101979093890080938800AFE6B0E0F1
:1019E0008C9182608C93F0932317E093221749C067
:1019F0009330B1F4109290008EE08093910080813A
:101A0000918101979093990080939800A1E7B0E0AD
:101A10008C9182608C93F0931F17E0931E1731C056
:101A20009430B1F41092A0008EE08093A1008081E8
:101A3000918101979093A9008093A800A3E7B0E05B
:101A40008C9182608C93F0932117E093201719C03A
:101A50009530D1F4109220018EE080932101808195
:101A6000918101979093290180932801A3E7B0E029
:101A70008C9182608C93F0932517E0932417109239
:101A80002401789481E008958FEF08951F920F92BA
:101A90000FB60F9211240BB60F922F933F934F93D3
:101AA0005F936F937F938F939F93AF93BF93EF93C6
:101AB000FF93CF93DF9300D01F92CDB7DEB70E9484
:101AC000CC226093EC057093ED058093EE05909326
:101AD000EF058091EC059091ED05A091EE05B09198
:101AE000EF054091E8055091E9056091EA05709194
:101AF000EB05841B950BA60BB70B89839A83AB83ED
:101B0000BC838091EC059091ED05A091EE05B0911C
:101B1000EF058093E8059093E905A093EA05B0935B
:101B2000EB0569817A818B819C81E0912217F0918C
:101B300023170280F381E02D19950F900F900F90DD
:101B40000F90DF91CF91FF91EF91BF91AF919F9156
:101B50008F917F916F915F914F913F912F910F9056
:101B60000BBE0F900FBE0F901F9018951F920F92F3
:101B70000FB60F9211240BB60F922F933F934F93F2
:101B80005F936F937F938F939F93AF93BF93EF93E5
:101B9000FF93CF93DF9300D01F92CDB7DEB70E94A3
:101BA000CC226093E4057093E5058093E60590935D
:101BB000E7058091E4059091E505A091E605B091D7
:101BC000E7054091E0055091E1056091E2057091D3
:101BD000E305841B950BA60BB70B89839A83AB8314
:101BE000BC838091E4059091E505A091E605B09154
:101BF000E7058093E0059093E105A093E205B0939B
:101C0000E30569817A818B819C81E0911E17F091B7
:101C10001F170280F381E02D19950F900F900F9000
:101C20000F90DF91CF91FF91EF91BF91AF919F9175
:101C30008F917F916F915F914F913F912F910F9075
:101C40000BBE0F900FBE0F901F9018951F920F9212
:101C50000FB60F9211240BB60F922F933F934F9311
:101C60005F936F937F938F939F93AF93BF93EF9304
:101C7000FF93CF93DF9300D01F92CDB7DEB70E94C2
:101C8000CC226093DC057093DD058093DE05909394
:101C9000DF058091DC059091DD05A091DE05B09116
:101CA000DF054091D8055091D9056091DA05709112
:101CB000DB05841B950BA60BB70B89839A83AB833B
:101CC000BC838091DC059091DD05A091DE05B0918B
:101CD000DF058093D8059093D905A093DA05B093DA
:101CE000DB0569817A818B819C81E0912017F091DD
:101CF00021170280F381E02D19950F900F900F901E
:101D00000F90DF91CF91FF91EF91BF91AF919F9194
:101D10008F917F916F915F914F913F912F910F9094
:101D20000BBE0F900FBE0F901F9018951F920F9231
:101D30000FB60F9211240BB60F922F933F934F9330
:101D40005F936F937F938F939F93AF93BF93EF9323
:101D5000FF93CF93DF9300D01F92CDB7DEB70E94E1
:101D6000CC226093D4057093D5058093D6059093CB
:101D7000D7058091D4059091D505A091D605B09155
:101D8000D7054091D0055091D1056091D205709151
:101D9000D305841B950BA60BB70B89839A83AB8362
:101DA000BC838091D4059091D505A091D605B091C2
:101DB000D7058093D0059093D105A093D205B09319
:101DC000D3051092240169817A818B819C81E091F5
:101DD0002417F09125170280F381E02D19950F90BB
:101DE0000F900F900F90DF91CF91FF91EF91BF91E6
:101DF000AF919F918F917F916F915F914F913F91A3
:101E00002F910F900BBE0F900FBE0F901F90189543
:101E10001F920F920FB60F9211240BB60F922F93B1
:101E20003F934F935F938F939F93EF93FF932091F3
:101E3000C0003091C60028718091050990E001969C
:101E40008F7799274091040950E04817590739F0D6
:101E500080930509FC01E85FF64F308301C022E062
:101E600020930309FF91EF919F918F915F914F9183
:101E70003F912F910F900BBE0F900FBE0F901F90B0
:101E800018951F920F920FB60F9211240BB60F9256
:101E90008F939F93EF93FF93909107098091060989
:101EA000981789F08091060990E001968F7799271D
:101EB00080930609FC01E857F64F80818093C600A5
:101EC0001092F30508C0E1ECF0E080818F7D808303
:101ED00081E08093F305FF91EF919F918F910F9097
:101EE0000BBE0F900FBE0F901F9018950F931F936E
:101EF0008B019C01F8941092070910920609109228
:101F00000509109204097894DC01CB0180589B47A5
:101F1000A14EBF4F880F991FAA1FBB1F880F991F83
:101F2000AA1FBB1FBC01CD01660F771F881F991F19
:101F3000000F111F221F331F000F111F221F331FFD
:101F4000A9019801220F331F441F551F220F331F71
:101F5000441F551F0E948626BA01A901415051090C
:101F60006109710957FF06C082E08093C0005F7766
:101F700066277727BB27A72F962F852F8093C5002D
:101F80004093C40088E98093C10086E08093C2003A
:101F90001F910F9108954091070950E04F5F5F4FE7
:101FA0004F7755272091060930E024173507D1F3E4
:101FB000FA01E857F64F808340930709E1ECF0E01F
:101FC00080818062808308950F931F93CF93DF9366
:101FD0006A3071058105910558F02AE030E040E053
:101FE00050E00E948626062FCA01B901EDDF602F5E
:101FF00080E3860FD0DFDF91CF911F910F9108957D
:10200000CF93DF93EC018881882329F02196C3DFE9
:1020100089918111FCCFDF91CF9108951F920F928A
:102020000FB60F9211240BB60F922F933F934F933D
:102030005F938F939F93EF93FF932091C80030910C
:10204000CE0028718091000890E001968F77992743
:102050004091FF0750E04817590739F08093000876
:10206000FC01ED5FF74F308301C022E02093FE07B3
:10207000FF91EF919F918F915F914F913F912F91A0
:102080000F900BBE0F900FBE0F901F9018951F92D0
:102090000F920FB60F9211240BB60F928F939F934E
:1020A000EF93FF939091020880910108981789F0AF
:1020B0008091010890E001968F779927809301081D
:1020C000FC01ED57F74F80818093CE001092F2050E
:1020D00008C0E9ECF0E080818F7D808381E080930F
:1020E000F205FF91EF919F918F910F900BBE0F9092
:1020F0000FBE0F901F9018950F931F938B019C019B
:10210000F8941092020810920108109200081092A0
:10211000FF077894DC01CB0180589B47A14EBF4F4D
:10212000880F991FAA1FBB1F880F991FAA1FBB1FCB
:10213000BC01CD01660F771F881F991F000F111F6B
:10214000221F331F000F111F221F331FA9019801E7
:10215000220F331F441F551F220F331F441F551FCB
:102160000E948626BA01A9014150510961097109ED
:1021700057FF06C082E08093C8005F776627772705
:10218000BB27A72F962F852F8093CD004093CC009F
:1021900088E98093C90086E08093CA001F910F915F
:1021A0000895F894909100088091FF07981304C057
:1021B000789480E091E008958091FF0790E0019687
:1021C0008F7799278093FF077894FC01ED5FF74F95
:1021D00020818091FE0790E0982F8827820F911D23
:1021E0000895F894909100088091FF07981304C017
:1021F000789480E091E008957894E091FF07F0E012
:102200003196EF77FF27ED5FF74F20818091FE0732
:1022100090E0982F8827820F911D08954091020821
:1022200050E04F5F5F4F4F7755272091010830E016
:1022300024173507D1F3FA01ED57F74F8083409308
:102240000208E9ECF0E08081806280830895CF93FA
:10225000DF93EC018881882329F02196DFDF8991C3
:102260008111FCCFDF91CF910895CF93DF93EC01E3
:102270002196FC018491882331F0D0DFFE01849106
:1022800021968111FACFDF91CF910895F894809132
:1022900000082091FF07789490E080589F4F821BA0
:1022A00091098F77992708958091F2058823E1F3AA
:1022B00008951F920F920FB60F9211240BB60F9232
:1022C0002F933F934F935F938F939F93EF93FF933E
:1022D0002091D0003091D60028718091FB0690E0CB
:1022E00001968F7799274091FA0650E048175907D1
:1022F00039F08093FB06FC01E250F94F308301C0B6
:1023000022E02093F906FF91EF919F918F915F91C9
:102310004F913F912F910F900BBE0F900FBE0F90DA
:102320001F9018951F920F920FB60F9211240BB6A3
:102330000F928F939F93EF93FF939091FD0680915F
:10234000FC06981789F08091FC0690E001968F7743
:1023500099278093FC06FC01E258F84F8081809316
:10236000D6001092F10508C0E1EDF0E080818F7D8C
:10237000808381E08093F105FF91EF919F918F9190
:102380000F900BBE0F900FBE0F901F9018950F93DC
:102390001F938B019C01F8941092FD061092FC068D
:1023A0001092FB061092FA067894DC01CB0180585B
:1023B0009B47A14EBF4F880F991FAA1FBB1F880FB5
:1023C000991FAA1FBB1FBC01CD01660F771F881F75
:1023D000991F000F111F221F331F000F111F221FF3
:1023E000331FA9019801220F331F441F551F220FCD
:1023F000331F441F551F0E948626BA01A901415070
:1024000051096109710957FF06C082E08093D0002D
:102410005F7766277727BB27A72F962F852F809377
:10242000D5004093D40088E98093D10086E0809362
:10243000D2001F910F9108959091FB068091FA06AA
:102440009817A1F08091FA0690E001968F7799276E
:102450008093FA06FC01E250F94F20818091F90641
:1024600090E0982F8827820F911D089580E091E0D9
:102470000895F8949091FB068091FA06981304C091
:10248000789480E091E008957894E091FA06F0E085
:102490003196EF77FF27E250F94F20818091F906BE
:1024A00090E0982F8827820F911D08954091FD0696
:1024B00050E04F5F5F4F4F7755272091FC0630E08B
:1024C00024173507D1F3FA01E258F84F808340937F
:1024D000FD06E1EDF0E08081806280830895CF9376
:1024E000DF93EC018881882329F02196DFDF899131
:1024F0008111FCCFDF91CF910895CF93DF93EC0151
:102500002196FC018491882331F0D0DFFE01849173
:1025100021968111FACFDF91CF910895F89480919F
:10252000FB062091FA06789490E080589F4F821B1A
:1025300091098F77992708958091F1058823E1F318
:1025400008951F920F920FB60F9211240BB60F929F
:102550002F933F934F935F938F939F93EF93FF93AB
:10256000209130013091360128718091F60590E07C
:1025700001968F7799274091F50550E04817590744
:1025800039F08093F605FC01E750FA4F308301C023
:1025900022E02093F405FF91EF919F918F915F913D
:1025A0004F913F912F910F900BBE0F900FBE0F9048
:1025B0001F9018951F920F920FB60F9211240BB611
:1025C0000F928F939F93EF93FF939091F8058091D3
:1025D000F705981789F08091F70590E001968F77BD
:1025E00099278093F705FC01E758F94F8081809384
:1025F00036011092F00508C0E1E3F1E080818F7DA3
:10260000808381E08093F005FF91EF919F918F91FE
:102610000F900BBE0F900FBE0F901F9018950F9349
:102620001F938B019C01F8941092F8051092F70506
:102630001092F6051092F5057894DC01CB018058D4
:102640009B47A14EBF4F880F991FAA1FBB1F880F22
:10265000991FAA1FBB1FBC01CD01660F771F881FE2
:10266000991F000F111F221F331F000F111F221F60
:10267000331FA9019801220F331F441F551F220F3A
:10268000331F441F551F0E948626BA01A9014150DD
:1026900051096109710957FF06C082E0809330013A
:1026A0005F7766277727BB27A72F962F852F8093E5
:1026B00035014093340188E98093310186E08093AD
:1026C00032011F910F9108959091F6058091F505C3
:1026D0009817A1F08091F50590E001968F779927E2
:1026E0008093F505FC01E750FA4F20818091F405B5
:1026F00090E0982F8827820F911D089580E091E047
:102700000895F8949091F6058091F505981304C00A
:10271000789480E091E008957894E091F505F0E0F8
:102720003196EF77FF27E750FA4F20818091F4052B
:1027300090E0982F8827820F911D08954091F80509
:1027400050E04F5F5F4F4F7755272091F70530E0FE
:1027500024173507D1F3FA01E758F94F80834093E6
:10276000F805E1E3F1E08081806280830895CF93F2
:10277000DF93EC018881882329F02196DFDF89919E
:102780008111FCCFDF91CF910895CF93DF93EC01BE
:102790002196FC018491882331F0D0DFFE018491E1
:1027A00021968111FACFDF91CF910895F89480910D
:1027B000F6052091F505789490E080589F4F821B94
:1027C00091098F77992708958091F0058823E1F387
:1027D000089508958091080A9091090A08950F9329
:1027E00003E02BEB3AE040E050E060E081E040D5D0
:1027F0009093DB0A8093DA0A28E93AE040E050E05F
:1028000060E081E035D59093B80A8093B70A25E758
:102810003AE040E050E060E081E02AD59093950AEC
:102820008093940A22E53AE040E050E060E081E0E5
:102830001FD59093720A8093710A2FE23AE040E02C
:1028400050E060E081E014D590934F0A80934E0AE7
:102850002CE03AE040E050E060E081E009D5909360
:102860002C0A80932B0A0F9108959093BA0A8093B3
:10287000B90A20E040E050E060E070E08091DA0AC0
:102880009091DB0A0AC508959093970A8093960A5F
:1028900020E040E050E060E070E08091B70A909165
:1028A000B80AFBC408959093740A8093730A20E0D9
:1028B00040E050E060E070E08091940A9091950AC9
:1028C000ECC408959093510A8093500A20E040E0B0
:1028D00050E060E070E08091710A9091720ADDC46E
:1028E000089590932E0A80932D0A20E040E050E056
:1028F00060E070E080914E0A90914F0ACEC4089536
:1029000090930B0A80930A0A20E040E050E060E0D8
:1029100070E080912B0A90912C0ABFC408950F9308
:1029200003E02FEF3AE040E050E060E081E0A0D427
:1029300090931F0B80931E0B2CED3AE040E050E08B
:1029400060E081E095D49093FC0A8093FB0A0F919C
:1029500008959093FE0A8093FD0A20E040E050E045
:1029600060E070E080911E0B90911F0B96C408955B
:102970009093FE0A8093FD0A20E040E050E060E082
:1029800070E08091FB0A9091FC0A87C4089521DFD2
:1029900026DF03D0C4DF6DC008950F9303E02BE85A
:1029A0003BE040E050E060E081E062D49093AB0B0C
:1029B0008093AA0B28E63BE040E050E060E081E035
:1029C00057D49093880B8093870B25E43BE040E03D
:1029D00050E060E081E04CD49093650B8093640BF1
:1029E00022E23BE040E050E060E081E041D490939F
:1029F000420B8093410B0F91089590938A0B809323
:102A0000890B20E040E050E060E070E08091AA0B8C
:102A10009091AB0B42C408959093670B8093660B23
:102A200020E040E050E060E070E08091870B909102
:102A3000880B33C408959093440B8093430B20E09C
:102A400040E050E060E070E08091640B9091650B95
:102A500024C408959093210B8093200B20E040E044
:102A600050E060E070E08091410B9091420B15C402
:102A700008950F9303E022E83CE040E050E060E07E
:102A800081E0F6D39093A20C8093A10C2FE53CE05B
:102A900040E050E060E081E0EBD390937F0C8093C6
:102AA0007E0C2CE33CE040E050E060E081E0E0D3CD
:102AB00090935C0C80935B0C29E13CE040E050E09B
:102AC00060E081E0D5D39093390C8093380C26EFE9
:102AD0003BE040E050E060E081E0CAD39093160C08
:102AE0008093150C23ED3BE040E050E060E081E096
:102AF000BFD39093F30B8093F20B20EB3BE040E0CD
:102B000050E060E081E0B4D39093D00B8093CF0B82
:102B10000F9108959093810C8093800C20E040E009
:102B200050E060E070E08091A10C9091A20CB5C3E0
:102B3000089590935E0C80935D0C20E040E050E09F
:102B400060E070E080917E0C90917F0CA6C30895A8
:102B500090933B0C80933A0C20E040E050E060E022
:102B600070E080915B0C90915C0C97C308959093FA
:102B7000180C8093170C20E040E050E060E070E01B
:102B80008091380C9091390C88C308959093F50B7F
:102B90008093F40B20E040E050E060E070E0809132
:102BA000150C9091160C79C308959093D20B8093D5
:102BB000D10B20E040E050E060E070E08091F20B4B
:102BC0009091F30B6AC308959093AD0B8093AC0B77
:102BD00008958091AC0B9091AD0B08959093AF0B3D
:102BE0008093AE0B20E040E050E060E070E0809128
:102BF000CF0B9091D00B51C30895279A2F9A2FEFA6
:102C000087EA91E6215080409040E1F700C0000043
:102C10001F9AF5CF27E73DE0FC013183208382E254
:102C20009DE0FB019183808385E590E0FA0191832B
:102C30008083089528EF3CE0FC013183208383EA00
:102C40009CE0FB019183808385E590E0FA0191830C
:102C500080830895FC010396928381832FEF3FEFD9
:102C60003483238396838583908787831082089596
:102C7000FC01118610860895CF93DF939C01FB0120
:102C8000DC011196CD91DC911297D383C2838C81A4
:102C90009D81958384838C819D81DC0113967C9337
:102CA0006E9312977D836C8331872087F901808131
:102CB0008F5F8083DF91CF910895CF93DF93EB01F6
:102CC000488159814F3F2FEF520721F4FC01A78122
:102CD000B0850DC0DC01139601C0DF011296ED91A5
:102CE000FC9113972081318142175307B0F7129658
:102CF000ED91FC911397FB83EA83D583C483BD8355
:102D0000AC831396DC93CE93129799878887FC0146
:102D100020812F5F2083DF91CF910895CF93DF93A0
:102D2000FC01A085B185C281D381848195819D8379
:102D30008C83C481D581828193819B838A83119600
:102D4000CD91DC911297CE17DF0731F48C819D81F4
:102D500012969C938E931197118610868C918150B8
:102D60008C938C91DF91CF91089531E1FC013083F8
:102D7000319722E220833197A3E3A08331976083C8
:102D8000319770833197108231971082319760E8C4
:102D9000608331971082319710823197108231977A
:102DA00062E06083319763E06083319764E0608321
:102DB000319765E06083319766E06083319767E023
:102DC0006083319768E06083319769E06083319771
:102DD00060E1608331973083319732E130833197FE
:102DE00033E13083319734E13083319735E13083FB
:102DF000319736E13083319737E13083319738E1CD
:102E00003083319739E13083319730E23083319725
:102E100031E2308331972083319723E22083319749
:102E2000408331975083319726E22083319727E200
:102E30002083319728E22083319729E2208331973C
:102E400020E32083319721E3208389970895A89573
:102E500090EC88E10FB6F894A895809360000FBEBF
:102E600090936000A091FC0DB091FD0DCD91CDBF70
:102E7000DD91DEBFFF91EF91DF91CF91BF91AF91D7
:102E80009F918F917F916F915F914F913F912F9182
:102E90001F910F91FF90EF90DF90CF90BF90AF9078
:102EA0009F908F907F906F905F904F903F902F906A
:102EB0001F900F900CBE0F900BBE0F900FBE0F9087
:102EC000089581E008950F920FB6F8940F920BB613
:102ED0000F920CB60F921F9211242F923F924F9295
:102EE0005F926F927F928F929F92AF92BF92CF929A
:102EF000DF92EF92FF920F931F932F933F934F9385
:102F00005F936F937F938F939F93AF93BF93CF9371
:102F1000DF93EF93FF93A091FC0DB091FD0D0DB6E3
:102F20000D920EB60D921DD6A091FC0DB091FD0D27
:102F3000CD91CDBFDD91DEBFFF91EF91DF91CF91BC
:102F4000BF91AF919F918F917F916F915F914F91C1
:102F50003F912F911F910F91FF90EF90DF90CF90B5
:102F6000BF90AF909F908F907F906F905F904F90A9
:102F70003F902F901F900F900CBE0F900BBE0F90A4
:102F80000FBE0F9008950F920FB6F8940F920BB6E4
:102F90000F920CB60F921F9211242F923F924F92D4
:102FA0005F926F927F928F929F92AF92BF92CF92D9
:102FB000DF92EF92FF920F931F932F933F934F93C4
:102FC0005F936F937F938F939F93AF93BF93CF93B1
:102FD000DF93EF93FF93A091FC0DB091FD0D0DB623
:102FE0000D920EB60D9213BE7CD48111BAD5A0916C
:102FF000FC0DB091FD0DCD91CDBFDD91DEBFFF91F8
:10300000EF91DF91CF91BF91AF919F918F917F9180
:103010006F915F914F913F912F911F910F91FF9071
:10302000EF90DF90CF90BF90AF909F908F907F9068
:103030006F905F904F903F902F901F900F900CBE1D
:103040000F900BBE0F900FBE0F9008959CDF189548
:103050000FB6F8940F92FC01928D0F900FBE81E095
:10306000911180E008950F931F93CF93DF93EC01AC
:10307000042F1A8D8C8D81110BC088819981892B29
:1030800009F043C08C819D81A4D61D821C8244C05E
:10309000411118C0482F50E08A819B810E94A826C8
:1030A0002C8D8A819B81820F911D9B838A832C8129
:1030B0003D818217930758F1888199819B838A8388
:1030C00080E02AC0482F50E08E819F810E94A82670
:1030D0008C8D90E09195819591092E813F81280FEB
:1030E000391F3F832E83488159812417350730F4D7
:1030F0002C813D81820F931F9F838E83023049F480
:10310000112349F0115080E007C080E005C080E045
:1031100003C080E001C080E01F5F1A8FDF91CF9174
:103120001F910F910895FC01448D4423A9F050E0B4
:1031300026813781240F351F37832683848195812B
:103140002817390720F08081918197838683CB01EE
:10315000668177810C94A8260895EF92FF920F93D1
:103160001F93CF938C010FB6F8940F92FC01C68D7C
:103170001C169CF48189811106C00FC0F801918949
:10318000911105C00AC07801F1E1EF0EF11CC701F1
:1031900092D581110CD6C15089F78FEFF801868F37
:1031A0000F900FBE0FB6F8940F92C58D1C169CF4AD
:1031B0008085811106C00FC0F8019085911105C06E
:1031C0000AC07801F8E0EF0EF11CC70174D5811137
:1031D000EED5C15089F78FEFF801858F0F900FBEA4
:1031E000CF911F910F91FF90EF900895CF93DF93B0
:1031F000EC010FB6F8940F92E881F9818B8D2C8D3C
:1032000090E030E0829FA001839F500D929F500D6F
:1032100011244E0F5F1F5D834C831A8EFB83EA835C
:103220000197829FA001839F500D929F500D112402
:10323000CF01840F951F9F838E838FEF8D8F8E8F8D
:1032400061110AC08885882369F0CE01089633D5BC
:10325000882341F038DE06C0CE010896FBDCCE01A3
:103260004196F8DC0F900FBE81E0DF91CF91089579
:10327000CF93DF93E901209761F0611103C0398397
:10328000288302C0598348838B8F6C8F61E0CE0105
:10329000ADDFCE01DF91CF9108959F92AF92BF92A3
:1032A000CF92DF92EF92FF920F931F93CF93DF9312
:1032B00000D01F921F92CDB7DEB78C016B015D83EA
:1032C0004C83A22EB12C992493947C0188E0E80EC3
:1032D000F11C0FB6F8940F92F801328D938D3917C7
:1032E00018F0F2E0AF1215C04A2DB601C801BBDEDE
:1032F000F8019189992339F0C8014196DCD48823DB
:1033000021F0E1DD02C08111DEDD0F900FBE81E012
:1033100045C0EC81FD81EF2B21F40F900FBE80E0C2
:103320003DC0B11004C0CE0101960BD5B92C0F9051
:103330000FBEC7D20FB6F8940F92F801858D8F3F5C
:1033400009F4158EF801868D8F3F09F4168E0F90C3
:103350000FBEBE016C5F7F4FCE010196FDD481117F
:1033600019C00FB6F8940F92F801928D838D0F90CB
:103370000FBE98130BC06C817D81C70172D4C80148
:10338000ECDE66D38111A5CF9EDDA3CFC801E5DEBB
:103390005FD39FCFC801E1DE5BD380E00F900F9039
:1033A0000F900F900F90DF91CF911F910F91FF9091
:1033B000EF90DF90CF90BF90AF909F900895EF92E5
:1033C000FF920F931F93CF93DF938A01FC01528DDD
:1033D000338D531710F02230E1F4422F7801EC01C5
:1033E0001E8D41DE1F3F79F489898823A1F0CE012B
:1033F000419661D4882389F0E114F10481F081E0E1
:10340000F70180830DC0FF24F394F10EFE8E81E05E
:1034100007C080E005C081E003C081E001C081E019
:10342000DF91CF911F910F91FF90EF9008959F92A0
:10343000AF92BF92CF92DF92EF92FF920F931F93C2
:10344000CF93DF9300D01F921F92CDB7DEB78C01D0
:103450005B015D834C83E12C992493946C0181E1A1
:10346000C80ED11C0FB6F8940F92F801F28CFF2011
:1034700091F0B501C80157DEFA94F801F28E80850B
:10348000882329F0C801089616D481111CDD0F90FD
:103490000FBE81E044C02C813D81232B21F40F908D
:1034A0000FBE80E03CC0E11004C0CE01019649D4BB
:1034B000E92C0F900FBE05D20FB6F8940F92F801C9
:1034C000858D8F3F09F4158EF801968D9F3F09F485
:1034D000168E0F900FBEBE016C5F7F4FCE0101961E
:1034E0003BD4811113C0C801B3DD882359F06C812E
:1034F0007D81C601B6D3C80130DEAAD28111B2CF18
:10350000E2DCB0CFC80129DEA3D2ACCFC80125DEF2
:103510009FD2C8019DDD882309F4A4CF80E00F90DD
:103520000F900F900F900F90DF91CF911F910F91FF
:10353000FF90EF90DF90CF90BF90AF909F90089555
:10354000CF93DF93EC010FB6F8940F928D8D8F3FE0
:1035500009F41D8E8E8D8F3F09F41E8E0F900FBEC5
:103560008A8D811103C0CE0141968CD3CE01F5DD49
:10357000DF91CF910895E091D60DF091D70D808124
:10358000811107C08FEF9FEF9093B70D8093B60D19
:103590000895E091D60DF091D70D0580F681E02DCC
:1035A0000680F781E02D828193819093B70D8093FF
:1035B000B60D08950F931F93CF93DF93EC01009105
:1035C000BE0D1091BF0D8091FC0D9091FD0D0296E6
:1035D000A5DBC00FD11FE091FC0DF091FD0DD38351
:1035E000C283C017D10760F46091FC0D7091FD0D8E
:1035F0008091D40D9091D50D6E5F7F4F5EDB16C02C
:103600006091FC0D7091FD0D8091D60D9091D70DBC
:103610006E5F7F4F52DB8091B60D9091B70DC8174A
:10362000D90720F4D093B70DC093B60DDF91CF9199
:103630001F910F9108956F927F928F929F92AF92F8
:10364000BF92CF92DF92EF92FF920F93CF93DF93CF
:103650004C01EB015A013901C114D10409F4CCC069
:10366000E114F10409F4CBC0F601F08EE78A65EAB3
:1036700070E0C7010E94B126F1E0AF1AB108F6016F
:103680008789908DA80EB91E8881818F88818823B3
:1036900089F0D6015A96FE013196AE01485F5F4F20
:1036A000CF0121912D93EC018881882319F0E41733
:1036B000F507B1F7F60110A2043008F003E0E601C7
:1036C0000E8B09A31AA22296CE01D2DAC6010C965D
:1036D000CFDAF601D186C08684E090E0801B9109A4
:1036E00095878487D38AC28A14A213A215A216A230
:1036F00017A210A611A6A301B401C50136DBF6017D
:10370000918380830FB6F8940F928091C00D8F5FE4
:103710008093C00D8091FC0D9091FD0D892B69F572
:10372000D092FD0DC092FC0D8091C00D8130B1F59D
:1037300088ED9DE08FDA81EE9DE08CDA8AEE9DE0E7
:1037400089DA83EF9DE086DA8AEA9DE083DA81EA0E
:103750009DE080DA8BEC9DE07DDA82EC9DE07ADA08
:103760008AEA9DE09093D70D8093D60D81EA9DE083
:103770009093D50D8093D40D11C08091BC0D811113
:103780000DC0E091FC0DF091FD0D9689F601868942
:10379000891720F0D092FD0DC092FC0D8091B80DDC
:1037A0008F5F8093B80DF60186899091BD0D9817B3
:1037B00010F48093BD0D90E09C01220F331F220F67
:1037C000331F220F331F820F931FBE018852924F67
:1037D00053DA0F900FBE8091BC0D882399F0E091D1
:1037E000FC0DF091FD0D9689E6018E89981768F41D
:1037F0006ADB8C2D9D2D0BC080E090E008C080E03E
:1038000090E005C08C2D9D2D02C08C2D9D2DDF914B
:10381000CF910F91FF90EF90DF90CF90BF90AF903E
:103820009F908F907F906F900895CF92DF92EF924C
:10383000FF920F93CF93DF9300D000D0CDB7DEB7C8
:103840001E821D821C821B82AE014F5F5F4FBE0134
:103850006D5F7F4FCE010596DDD9CD80DE80EB8098
:10386000FC8049815A8100E020E030E062E073E0B2
:1038700083EB90E0E0DE9093B50D8093B40D892B3F
:1038800091F044D3813079F4F8948FEF9FEF9093C7
:10389000B70D8093B60D81E08093BC0D1092BF0DE3
:1038A0001092BE0DD4DA26960FB6F894DEBF0FBE86
:1038B000CDBFDF91CF910F91FF90EF90DF90CF9030
:1038C00008958091B30D8F5F8093B30D08950FB667
:1038D000F8940F928091BE0D9091BF0D0F900FBE86
:1038E0000895CF92DF92EF92FF920F931F93CF93A1
:1038F000DF938091B30D811195C0E090BE0DF090E3
:10390000BF0D8FEFE81AF80AF092BF0DE092BE0DDE
:10391000E114F104B1F48091D60D9091D70D20916E
:10392000D40D3091D50D3093D70D2093D60D9093B3
:10393000D50D8093D40D8091B90D8F5F8093B90D13
:103940001ADE8091B60D9091B70DE816F90610F4C5
:10395000D12C50C0D12CCC24C394E091D60DF09141
:10396000D70D9081911107C08FEF9FEF9093B70D06
:103970008093B60D3FC0E091D60DF091D70D058034
:10398000F681E02DC681D7812A813B81E216F306BC
:1039900028F43093B70D2093B60D2CC08E010E5F26
:1039A0001F4FC801BBD98C899D89892B19F0CE0185
:1039B0000C96B4D92E898091BD0D821710F42093F6
:1039C000BD0D30E0C901880F991F880F991F880F1E
:1039D000991F820F931FB8018852924F4DD9E091E1
:1039E000FC0DF091FD0D9E898689981708F4B5CFDE
:1039F000DC2CB3CFE091FC0DF091FD0D868990E0B9
:103A0000FC01EE0FFF1FEE0FFF1FEE0FFF1F8E0FCB
:103A10009F1FFC01E852F24F8081823048F0DD2484
:103A2000D39406C08091BB0D8F5F8093BB0DD12CCA
:103A30008091BA0D882311F0DD24D3948D2DDF9170
:103A4000CF911F910F91FF90EF90DF90CF9008954D
:103A5000DF92EF92FF920F931F93CF93DF930FB6F6
:103A6000F8940F928091B30D81508093B30D8091A3
:103A7000B30D811159C08091C00D811130C057C064
:103A8000D7011596ED91FC911697C681D781CE018D
:103A90000C9644D98E010E5F1F4FC8013FD92E8965
:103AA0008091BD0D821710F42093BD0D30E0C90147
:103AB000880F991F880F991F880F991F820F931FD6
:103AC000B8018852924FD8D8E091FC0DF091FD0DCD
:103AD0009E898689981768F0D092BA0D0AC0C0E016
:103AE000D0E00F2EFBECEF2EFDE0FF2EF02DDD24BD
:103AF000D394F70180818111C3CFCD2B09F03BDD39
:103B0000C091BB0DCC2349F0D1E0EBDE8111D09305
:103B1000BA0DC150D1F71092BB0D8091BA0D882318
:103B200029F0D1D981E003C080E001C080E00F908E
:103B30000FBEDF91CF911F910F91FF90EF90DF901B
:103B40000895CF93DF93EC01892B39F0BADE60E062
:103B5000CE0130DD7DDF811101C0B5D9DF91CF917C
:103B600008958091B30D882321F081E08093BA0DF0
:103B700008951092BA0DA091FC0DB091FD0DE09149
:103B8000FC0DF091FD0D2D913C918789908D821750
:103B9000930758F06091FC0D7091FD0D8091FC0D24
:103BA0009091FD0D675E7F4F28D82091BD0D822F2B
:103BB00090E0FC01EE0FFF1FEE0FFF1FEE0FFF1F47
:103BC000E80FF91FE852F24F3081311111C0215036
:103BD000822F90E0FC01EE0FFF1FEE0FFF1FEE0F94
:103BE000FF1FE80FF91FE852F24F3081332379F3BA
:103BF000AC01440F551F440F551F440F551F480F6C
:103C0000591FDA01A852B24F1196ED91FC9112970B
:103C10000280F381E02D1296FC93EE9311974552AA
:103C2000524FE417F50729F442815381FD01528375
:103C30004183FC01EE0FFF1FEE0FFF1FEE0FFF1F72
:103C40008E0F9F1FFC01E852F24F0180F281E02DA0
:103C5000868197819093FD0D8093FC0D2093BD0D7F
:103C60000895CF93DF93EB012091FC0D3091FD0D72
:103C7000B901645F7F4F21D861E0CE019BDCDF9109
:103C8000CF9108950F931F93CF938B01C42F209151
:103C9000FC0D3091FD0DB901645F7F4F0E943C1611
:103CA000CC2311F00FEF1FEF6C2FC80183DCCF91F5
:103CB0001F910F9108950F931F93CF93DF93DC0112
:103CC0001596ED91FC911697C681D7818E01045F00
:103CD0001F4FC80123D88091B30D81111BC00A501A
:103CE0001109C8011BD82E898091BD0D821710F4CF
:103CF0002093BD0D30E0C901880F991F880F991FCF
:103D0000880F991F820F931FB8018852924F0E940B
:103D10003C1605C0B8018BEC9DE00E943C16E0917A
:103D2000FC0DF091FD0D9E898689891720F481E0B4
:103D30008093BA0D01C080E0DF91CF911F910F9168
:103D400008952091B90DFC0120832091BE0D309182
:103D5000BF0D3283218308950FB6F8940F922091FE
:103D6000BE0D3091BF0DDC0111964D915C91129703
:103D7000E091B90DFC91FE1719F02417350798F45E
:103D8000241B350BFB01408151812417350738F482
:103D9000421B530B51834083D4DF80E005C0118266
:103DA000108281E001C081E00F900FBE089581E094
:103DB0008093BA0D08958091BC0D882331F08091D5
:103DC000B30D882321F080E0089581E0089582E01A
:103DD00008950F931F93CF93DF93FC01892B79F103
:103DE00082A1815082A3268991A1291751F18111C5
:103DF0002AC0EF018F010E5F1F4FC8010E948E166F
:103E000029A12E8B44E050E0421B51095D874C876D
:103E10008091BD0D821710F42093BD0D30E0C901D3
:103E2000880F991F880F991F880F991F820F931F62
:103E3000B8018852924F0E943C1681E005C080E094
:103E400003C080E001C080E0DF91CF911F910F910E
:103E50000895FC0173836283918780874617570713
:103E600090F0421B530B8485958548175907E0F461
:103E7000BF016E5F7F4F8091670E9091680E0E9428
:103E80005D1680E008954217530718F46217730710
:103E900068F4BF016E5F7F4F8091690E90916A0E4A
:103EA0000E945D1680E0089581E0089581E0089504
:103EB0000F930FB6F8940F928091650E9091660E55
:103EC000892B01F588E59EE00E942A168FE49EE08A
:103ED0000E942A1688E59EE090936A0E8093690EF0
:103EE0008FE49EE09093680E8093670E00E02EEFC3
:103EF0003DE04DE15EE065E08AE0BAD99093660E60
:103F00008093650E0F900FBE0F910895CF92DF92B0
:103F1000EF92FF920F93CF93DF9300D000D0CDB7F5
:103F2000DEB7C6DF8091650E9091660E892B31F168
:103F30001E821D821C821B82AE014F5F5F4FBE013D
:103F40006D5F7F4FCE0105960E941A16CD80DE80F0
:103F5000EB80FC8049815A8103E020E030E067E09B
:103F600073E08FE790E267DB9C019093640E80938F
:103F7000630E81E0232B19F480E001C080E02696D7
:103F80000FB6F894DEBF0FBECDBFDF91CF910F917A
:103F9000FF90EF90DF90CF9008950F931F93CF93F2
:103FA000DF9300D01F921F92CDB7DEB7E091650E70
:103FB000F091660E309751F1D90169835B834A8392
:103FC0009D838C836630D4F4F6DE823059F420E091
:103FD000A801BE016F5F7F4F8091650E9091660EC4
:103FE0005CD915C020E040E050E0BE016F5F7F4F1C
:103FF0008091650E9091660E50D909C020E0AD0108
:10400000BE016F5F7F4FCF01DAD901C080E00F9012
:104010000F900F900F900F90DF91CF911F910F9104
:104020000895AF92BF92CF92DF92EF92FF920F93DB
:104030001F93CF93DF936C014ADC7C018091610E6A
:104040009091620EE816F90608F047C02FC005806F
:10405000F681E02DA080B180C681D7818E010E5FF0
:104060001F4FC8010E948E16E989FA89CE01199561
:104070008E858130D9F48C859D858A0D9B1DA8166F
:10408000B90660F49B838A83D987C887B801809179
:10409000690E90916A0E0E945D1608C000E010E063
:1040A00020E030E0A50160E0CE0177DFE091690E0D
:1040B000F0916A0E90819111CACF8091670E909114
:1040C000680E90936A0E8093690EF093680EE093E9
:1040D000670E81E0F601808302C0F6011082F09243
:1040E000620EE092610EC701DF91CF911F910F9197
:1040F000FF90EF90DF90CF90BF90AF900895CF9357
:10410000DF9300D000D0CDB7DEB7CE0101964C01D1
:1041100055245394E12CF12C412CC82ED92CE0913C
:10412000690EF0916A0E8081882369F00580F6811E
:10413000E02DA080B180C5DBC40173DF8C018981D3
:10414000882349F056C0BDDBC4016BDF8C01898137
:104150008823A9F14EC00A151B0508F43BC078DC82
:10416000E091690EF0916A0E0580F681E02D66807F
:104170007780C30102960E948E16D3011E968C9101
:104180001E978130A1F41C966D917C911D976A0D4C
:104190007B1D9501A801C3015CDE882341F00E2D33
:1041A0001F2D2E2D3F2DA501642DC301F6DED30159
:1041B0005196ED91FC915297C30119956FC0E09112
:1041C000670EF091680E8081452D8111442DAE2C33
:1041D000BF2C01C0442DB501601B710B8091650E91
:1041E0009091660EADD934DC811158C00E946317DE
:1041F00055C02EDC53C0898188230CF44FC0AC809D
:10420000BD80F50182859385892B21F0C501029639
:104210000E948E16CE01069604DFAC01998194307F
:1042200089F11CF49330D0F507C09630BCF198307A
:104230001CF0993039F132C02A813B81D5011C969E
:104240006D917C911D97620F731FC50102DE88235B
:1042500029F1D5015196ED91FC915297C50119951F
:10426000F50186858130D1F4448555858A819B810D
:10427000480F591F0E2D1F2D2E2D3F2D642DC501CA
:104280008CDE0CC06A817B81D5011D967C936E9378
:104290001C97640F751F9A01C501DBDD4E2D5F2D44
:1042A0006C2D7D2D8091650E9091660EC0D8811188
:1042B000A2CF35CF0C94070108959093700E809390
:1042C0006F0E70936E0E60936D0E089521E040E0C6
:1042D00052EC61E070E083E00E948A0106E217E19F
:1042E0008FE093E00E94001041E16AE277E181E013
:1042F00090E00E94A201823E89F480916C0E8F5F53
:1043000080936C0E853009F04DC0E0916F0EF091F6
:10431000700E309709F446C0199544C0CAE2D7E13F
:104320008A859B850E949915888599850E948A15A2
:104330008C859D850E94A8158E859F850E94B71546
:104340008A899B890E94D515888999890E94C615FA
:10435000888199810E94FD148C819D810E941B158A
:104360008E819F810E942A158C899D890E94351417
:104370008E899F890E945314888D998D0E946214A2
:104380008C8D9D8D0E9471148E8D9F8D0E94801446
:104390008A8D9B8D0E9444148A819B810E940C15FA
:1043A00010926C0E0E94EA13F801938382830E949C
:1043B000E915F8019183808342E0B80180E09FE035
:1043C0000E94CA01823E79F480916B0E8F5F8093C8
:1043D0006B0E853051F4E0916D0EF0916E0E3097BA
:1043E00021F0199502C010926B0E8CE090E0A9DBD1
:1043F00077CF9093720E8093710E089580E293E0D0
:104400000E9400100E94EF01C82F0E941702D82FAF
:10441000C53561F4E091710EF091720E309709F09C
:1044200019958AEF9FEA0E94A91415C08C2F90E07D
:104430000E94A91483E393E00E9400106C2F70E0A7
:1044400080E090E00E94E40F8AE00E94CB0F8D2F65
:1044500090E00E94B81483E090E073DBCFCF2ADFB6
:1044600041C008958091770E9091780E01969093B7
:10447000780E8093770E2091770E3091780E809190
:10448000730E9091740E2817390758F020E040E021
:1044900050E060E070E080914A1790914B170C94C7
:1044A0004D1908958091790E90917A0E019690930E
:1044B0007A0E8093790E2091790E30917A0E809148
:1044C000750E9091760E2817390758F020E040E0DD
:1044D00050E060E070E080918A1790918B170C9407
:1044E0004D19089522E332E242E552E263E081E0B1
:1044F0000C942501089590937C0E80937B0E089573
:1045000080E00E94BE0A10E089E493E00E9400105F
:104510000E94C00AEC01CD9750F01F5F163038F0B2
:10452000E0917B0EF0917C0E309709F01995CE0149
:104530000E94E415CE010E94EE1583E090E001DBBD
:10454000E3CF0E946A0C19D00E94460B88DF0E94BC
:10455000C71480E00895862728E030E080FF07C078
:104560009695879541E0842740EA942702C0969566
:1045700087952150310991F7089582E08093B0002A
:1045800084E08093B1008AEF8093B300E0E7F0E02D
:104590008081826080830895F89460918C17709177
:1045A0008D1780918E1790918F17789408951F9290
:1045B0000F920FB60F9211248F939F93AF93BF93D7
:1045C00080918C1790918D17A0918E17B0918F17B5
:1045D0000196A11DB11D80938C1790938D17A09308
:1045E0008E17B0938F17BF91AF919F918F910F90BE
:1045F0000FBE0F901F9018955058BB27AA270ED0BA
:1046000048C139D130F03ED120F031F49F3F11F450
:104610001EF42EC10EF4E095E7FB24C1E92F4AD128
:1046200080F3BA17620773078407950718F071F4CF
:104630009EF562C10EF4E0950B2EBA2FA02D0B0152
:10464000B90190010C01CA01A0011124FF27591BD7
:1046500099F0593F50F4503E68F11A16F040A22FDD
:10466000232F342F4427585FF3CF4695379527954E
:10467000A795F0405395C9F77EF41F16BA0B620B4D
:10468000730B840BBAF09150A1F0FF0FBB1F661F94
:10469000771F881FC2F70EC0BA0F621F731F841FD7
:1046A00048F4879577956795B795F7959E3F08F0FD
:1046B000B3CF9395880F08F09927EE0F97958795BC
:1046C00008950CD0E6C0DED040F0D5D030F021F413
:1046D0005F3F19F0C7C0511110C1CAC0EBD098F3A9
:1046E0009923C9F35523B1F3951B550BBB27AA2773
:1046F00062177307840738F09F5F5F4F220F331FE5
:10470000441FAA1FA9F333D00E2E3AF0E0E830D0B0
:1047100091505040E695001CCAF729D0FE2F27D0B3
:10472000660F771F881FBB1F261737074807AB0781
:10473000B0E809F0BB0B802DBF01FF2793585F4FF6
:104740002AF09E3F510568F08DC0D7C05F3FECF363
:10475000983EDCF3869577956795B795F7959F5FBB
:10476000C9F7880F911D9695879597F90895E1E00F
:10477000660F771F881FBB1F621773078407BA076E
:1047800020F0621B730B840BBA0BEE1F88F7E095C9
:10479000089598D088F09F5790F0B92F9927B75176
:1047A000A0F0D1F0660F771F881F991F1AF0BA95F5
:1047B000C9F712C0B13081F09FD0B1E008959CC01C
:1047C000672F782F8827B85F39F0B93FCCF38695EB
:1047D00077956795B395D9F73EF490958095709548
:1047E00061957F4F8F4F9F4F0895E89409C097FBC5
:1047F0003EF490958095709561957F4F8F4F9F4FB8
:104800009923A9F0F92F96E9BB279395F6958795FB
:1048100077956795B795F111F8CFFAF4BB0F11F4BE
:1048200060FF1BC06F5F7F4F8F4F9F4F16C0882365
:1048300011F096E911C0772321F09EE8872F762F9B
:1048400005C0662371F096E8862F70E060E02AF0DC
:104850009A95660F771F881FDAF7880F96958795C8
:1048600097F9089597F99F6780E870E060E00895F0
:104870009FEF80EC089500240A9416161706180678
:104880000906089500240A94121613061406050654
:104890000895092E0394000C11F4882352F0BB0FE5
:1048A00040F4BF2B11F460FF04C06F5F7F4F8F4F48
:1048B0009F4F089557FD9058440F551F59F05F3F83
:1048C00071F04795880F97FB991F61F09F3F79F032
:1048D00087950895121613061406551FF2CF4695B4
:1048E000F1DF08C0161617061806991FF1CF869536
:1048F0007105610508940895E894BB27662777271A
:10490000CB0197F908950BD0C4CFB5DF28F0BADFFB
:1049100018F0952309F0A6CFABCF1124EECFCADF54
:10492000A0F3959FD1F3950F50E0551F629FF001C2
:10493000729FBB27F00DB11D639FAA27F00DB11D1B
:10494000AA1F649F6627B00DA11D661F829F2227A4
:10495000B00DA11D621F739FB00DA11D621F839F2B
:10496000A00D611D221F749F3327A00D611D231F01
:10497000849F600D211D822F762F6A2F11249F574F
:1049800050408AF0E1F088234AF0EE0FFF1FBB1F72
:10499000661F771F881F91505040A9F79E3F510511
:1049A00070F060CFAACF5F3FECF3983EDCF38695C2
:1049B00077956795B795F795E7959F5FC1F7FE2BBC
:1049C000880F911D9695879597F90895FA01EE0F36
:1049D000FF1F30962105310599F16115710561F4CC
:1049E0008038BFE39B0749F168949038810561F0F6
:1049F0008038BFEF9B0741F0992342F5FF3FE10567
:104A00003105210511F1E8940894E795D901AA230D
:104A100029F4AB2FBE2FF85FD0F310C0FF5F70F406
:104A2000A695E0F7F73950F019F0FF3A38F49F7780
:104A30009F930CD00F9007FC905808953EF018CF2C
:104A400060E070E080E89FE308954FE79F775F9311
:104A50004F933F932F93E7D02F913F914F915F91C9
:104A600052DF25C02FDFE0F09E37D8F09639B8F43A
:104A70009E3848F4672F782F8827985FF9CF86955E
:104A80007795679593959539D0F3B62FB1706B0FE5
:104A9000711D811D20F4879577956795939533C097
:104AA0004DC02BCF19F40EF0DDCE26CFE1CE0ADFBC
:104AB000C8F39638C0F707F80F92E8942BE33AEA68
:104AC00048EB5FE72EDF0F920F920F924DB75EB764
:104AD0000F92E9D0E4EEF0E03FD04F915F91EF917B
:104AE000FF91E595EE1FFF1F49F0FE57E068442750
:104AF000EE0F441FFA95E1F74195550B5BD00F90EF
:104B000007FE4FC00895882371F4772321F0985051
:104B1000872B762F07C0662311F499270DC090517B
:104B2000862B70E060E02AF09A95660F771F881F49
:104B3000DAF7880F9695879597F908959F3F31F09A
:104B4000915020F4879577956795B795880F911DBB
:104B50009695879597F90895DF93CF931F930F93B9
:104B6000FF92EF92DF927B018C01689405C0DA2EF0
:104B7000EF01D5DEFE01E894A5912591359145918F
:104B80005591AEF3EF014ADDFE019701A801DA94D9
:104B900079F7DF90EF90FF900F911F91CF91DF9108
:104BA00008959B01AC0160E070E080E89FE389CD4F
:104BB00059CEC4CF87DEE8F39923D9F3940F511D62
:104BC000BBF39150504094F059F0882332F0660FB7
:104BD000771F881F91505040C1F79E3F510544F701
:104BE000880F911D9695879597F908955F3FACF0D2
:104BF000983E9CF0BB27869577956795B79508F406
:104C0000B1609395C1F7BB0F58F711F460FFE8CF7F
:104C10006F5F7F4F8F4F9F4FE3CF6FCE0EF08ECFE2
:104C200027CE68941FCE4EDEC8F39923D1F3C6F386
:104C3000DF93CF931F930F93FF92C92FDD27882314
:104C40002AF02197660F771F881FDAF720E030E0FF
:104C500040E85FEB9FE3883920F0803E30F02196FA
:104C60008F77CBDCECE0F1E003C0C7DCE9E3F1E0F7
:104C700073DF8B01BE01EC01FB2E6F577109759537
:104C8000771F880B990BB3DD28E132E741E35FE33F
:104C900046DEAF2D9801AE01FF900F911F91CF918D
:104CA000DF91BCDCF6CDFA01DC01AA0FBB1F9B0132
:104CB000AC01BF5728F422273327442750781FC060
:104CC000B75188F4AB2F0024469537952795011CE2
:104CD000A395D2F3002069F0220F331F441FB39530
:104CE000DAF30DD089CC61307105A0E88A07B946A6
:104CF00030F49B01AC01662777278827907830969F
:104D000021F020833183428353830895A1E21A2E38
:104D1000AA1BBB1BFD010DC0AA1FBB1FEE1FFF1F5F
:104D2000A217B307E407F50720F0A21BB30BE40BAF
:104D3000F50B661F771F881F991F1A9469F76095F6
:104D40007095809590959B01AC01BD01CF010895B0
:104D5000FB01DC0102C001900D9241505040D8F798
:104D60000895DC0101C06D9341505040E0F7089573
:044D7000F894FFCFE5
:104D7400524553504F4E43455F54494D45445F4F50
:104D840055540A0054656D70657261747572655F7F
:104D94006F7665725F74656D70200A004C65766588
:104DA4006C5F73656E736F725F6572726F725F634F
:104DB400616C6C6261636B200A004C43445F575220
:104DC4004954455F54494D454F5554202B2B2B2BAB
:104DD4002B2B2B2B2B2B2B2B2B2B2B2B2B2B2B2B1F
:104DE4002B2B2B2B2B2B2B2B200A004C43445F52B9
:104DF4004541445F54494D454F5554202D2D2D2D8B
:104E04002D2D2D2D2D2D2D2D2D2D2D2D2D2D2D2DCE
:104E14002D2D2D2D2D2D2D2D200A00456E746572FE
:104E2400205461736B340A00765461736B342045EB
:104E3400786973740A004C4556454C205461736B71
:104E440033200A004C6576656C205461736B312005
:104E54000A0048454C4C4F200A005461736B3100E2
:104E64005461736B32005461736B33005461736B20
:104E7400340049444C4500546D7220537663004C11
:104E8400434420616C697665207461736B200A0069
:104E94004C6576656C207461736B20616C69766512
:104EA400200A0054414E4B206C6576656C203D20F1
:104EB40020202020202020200054656D7020746163
:0A4EC400736B20616C6976650A00CB
:00000001FF
