S0100000626C616E636865722E73726563D5
S113000071C000008FC000008DC000008BC00000D4
S113001089C0000087C0000085C0000083C00000C4
S113002081C000007FC000007DC000007BC00000D4
S11300300C945D0C0C94C61175C0000073C00000D4
S113004071C000000CC400006DC000006BC0000053
S113005069C0000067C0000065C0000063C0000004
S113006061C00000BEC50000F5C500005BC0000013
S113007059C0000093C2000055C0000053C00000E6
S11300805EC400004FC000004DC000004BC0000023
S1130090AEC60000E5C6000045C0000043C0000035
S11300A041C000003FC00000BAC400003BC00000D3
S11300B039C0000037C0000035C0000020C5000072
S11300C031C000002FC000002DC000009FC70000F9
S11300D0D6C7000027C000000C9412090C944B09E9
S11300E021C0000011241FBECFEFD1E2DEBFCDBF7F
S11300F000E00CBF14E0A0E0B2E0E0E3F4E200E0D2
S11301000BBF02C007900D92A434B107D9F72CE0BD
S1130110A4E4B4E001C01D92A630B207E1F7C1D156
S11301200C9416126DCF90939E0B80939D0B20E040
S113013040E050E060E070E0809144049091450418
S11301400C945B0D089560939F0B7093A00B8093A8
S1130150A10B9093A20B089540E150E065E083EA7F
S113016090E001C00895E3EAFBE064835183408397
S113017093838283CF01F3C20895E091A80BF09199
S1130180A90B19950895E091AA0BF091AB0B199561
S11301900895EF92FF920F931F93CF93DF937C0107
S11301A08B01E1EBFBE0C5E0D0E0D183C08384E0C8
S11301B084838DEB90E093838283CF01D0D2ECEAE9
S11301C0FBE0D183C08383E0848383EC90E093835A
S11301D08283CF01C4D2F092A90BE092A80B1093B2
S11301E0AB0B0093AA0BDF91CF911F910F91FF905E
S11301F0EF90089561E081E085C2089560E081E0B8
S113020081C20895E6E4F4E08183428353836483E6
S1130210758320838EEF90E0918780878AEF90E04A
S113022097838683BF0181E026C0089580E090E033
S11302300C94830F089560E080E064C2089561E047
S113024080E060C20895E2E5F4E020838183428384
S11302505383648375838FE191E0978386838BE175
S113026091E09187808786E191E093878287BF013F
S113027080E001C00895FB01811188C080818093D2
S113028082044181628173818481958126813781D1
S113029030937D0420937C042085318530937B0446
S11302A020937A042285338530937F0420937E043F
S11302B01092810410928004413009F52091600469
S11302C02111CAC021E020936004FFD583EF97E099
S11302D0909373048093720481E098E09093750482
S11302E0809374048AEB97E0909377048093760468
S11302F08AED97E0909379048093780408954230CE
S113030009F520915F042111A7C021E020935F0427
S1130310EBD68FEF98E090937304809372048DE092
S113032099E0909375048093740489EC98E0909319
S113033077048093760486EE98E090937904809312
S113034078040895433009F087C020915E04211198
S113035083C021E020935E04D3D78BE09AE090938E
S113036073048093720489E19AE0909375048093F6
S1130370740485ED99E0909377048093760482EF7A
S113038099E090937904809378040895813009F07A
S113039063C080818093710441816281738184810F
S11303A095812681378130936C0420936B042085DA
S11303B0318530936A042093690422853385309310
S11303C06E0420936D041092700410926F044130F7
S11303D009F52091600421113FC021E020936004BD
S11303E074D583EF97E0909364048093630481E071
S11303F098E090936204809361048AEB97E0909371
S11304006604809365048AED97E090936804809372
S113041067040895423001F520915F0421111CC046
S113042021E020935F0460D68FEF98E090936404FA
S1130430809363048DE099E0909362048093610457
S113044089EC98E0909366048093650486EE98E0C6
S11304509093680480936704089584C0089580E0AD
S113046092E0B7C408958EE192E0B3C408958FE496
S113047092E0AFC408958FE792E0ABD485E190E0B9
S113048052CE089563E372E087E392E00E94F7108E
S11304908FE292E00E9400118BE392E00C948911A8
S11304A0089560E875E280E090E009D40E948E111E
S11304B087E992E08ED481E042D181E013D181E0DA
S11304C001D18FE992E085D481E0C8D0682F70E033
S11304D080E090E062D48AE047D480EB92E079D463
S11304E082E0BCD0682F70E080E090E056D48AE0CF
S11304F03BD481EC92E06DD483E0B0D0682F70E0FF
S113050080E090E04AD48AE02FD482ED92E061D476
S1130510C4D0682F70E080E090E03FD48AE024D417
S113052086EE92E056D4C1D0682F70E080E090E06F
S113053034D48AE019D485EF92E04BD4BCD0682F30
S113054070E080E090E029D48AE00ED42FEF89E6B1
S113055098E1215080409040E1F700C0000080E025
S1130560EED0A9CF90B321E030E0082E02C0220FD4
S1130570331F0A94E2F72095292320BBECE7F0E02F
S113058090819F7090839081907F90838F70982B3F
S113059090838FE880937A00789408951F920F9245
S11305A00FB60F9211242F938F939F93809178000D
S11305B02091790090E0922B909385048093840499
S11305C081E0809383049F918F912F910F900FBEB0
S11305D00F901F901895EAE0F1E080818F7E808370
S11305E080818F7D808380818F7B808380818F77E2
S11305F080833C983D983A988081877F8083099ACC
S11306000A9AE7E0F1E08081806480830E9A0E9A72
S11306108081806280838081806880833898089A92
S11306200B9AE4E0F1E0808184608083549A0E9A0E
S11306303F9A8081806480830F9AE1E0F1E08081B9
S11306408E7F8083808182608083E2E0F1E080811C
S1130650816080835298539A5A9A0895813039F46C
S1130660809109018295817091E0892708958230F3
S113067041F48091090185FB992790F981E089274C
S11306800895833041F48091090186FB992790F9FC
S113069081E0892708958FEF089590910901892FAA
S11306A08095881F8827881F089586B18295817058
S11306B091E08927089586B185FB882780F991E028
S11306C089270895813031F4E8E0F1E08081806287
S11306D080830895811105C0E8E0F1E080818F7D79
S11306E080830895813031F4E8E0F1E0808180680E
S11306F080830895811105C0E8E0F1E080818F775F
S113070080830895882319F0813089F00895613039
S113071031F4E5E0F1E08081846080830895611123
S11307200DC0E5E0F1E080818B7F80830895613026
S113073011F45C9A0895611101C05C9808958130A8
S113074031F4E5E0F1E080818064808308958111D3
S113075005C0E5E0F1E080818F7B80830895FC0192
S113076094819130C1F456985E9A109280008EE084
S11307708093810080819181019790938900809377
S11307808800AFE6B0E08C9182608C93F093BB0B51
S1130790E093BA0B5FC09330C1F46E98769A1092CE
S11307A090008EE0809391008081918101979093D5
S11307B0990080939800A1E7B0E08C9182608C93BB
S11307C0F093B70BE093B60B45C0943001F5A1E06C
S11307D0B1E08C918F778C93A2E0B1E08C9180682A
S11307E08C931092A0008EE08093A100808191816F
S11307F001979093A9008093A800A2E7B0E08C91A0
S113080082608C93F093B90BE093B80B23C09530BE
S113081021F5AAE0B1E08C918B7F8C93ABE0B1E041
S11308208C9184608C93109220018EE0809321013E
S11308308081918101979093290180932801A3E7F6
S1130840B0E08C9182608C93F093BD0BE093BC0B71
S113085010922401789481E008958FEF08951F92F7
S11308600F920FB60F9211240BB60F922F933F9352
S11308704F935F936F937F938F939F93AF93BF93A4
S1130880EF93FF93CF93DF9300D01F92CDB7DEB7E2
S11308900E94BB116093A2047093A3048093A404E8
S11308A09093A5048091A2049091A304A091A40420
S11308B0B091A50440919E0450919F046091A004BE
S11308C07091A104841B950BA60BB70B89839A83A3
S11308D0AB83BC838091A2049091A304A091A4044F
S11308E0B091A50480939E0490939F04A093A004C8
S11308F0B093A10469817A818B819C81E091BA0BC8
S1130900F091BB0B0280F381E02D19950F900F90AD
S11309100F900F90DF91CF91FF91EF91BF91AF9125
S11309209F918F917F916F915F914F913F912F9103
S11309300F900BBE0F900FBE0F901F9018951F9233
S11309400F920FB60F9211240BB60F922F933F9371
S11309504F935F936F937F938F939F93AF93BF93C3
S1130960EF93FF93CF93DF9300D01F92CDB7DEB701
S11309700E94BB1160939A0470939B0480939C041F
S113098090939D0480919A0490919B04A0919C045F
S1130990B0919D04409196045091970460919804FD
S11309A070919904841B950BA60BB70B89839A83CA
S11309B0AB83BC8380919A0490919B04A0919C0486
S11309C0B0919D048093960490939704A093980407
S11309D0B093990469817A818B819C81E091B60BF3
S11309E0F091B70B0280F381E02D19950F900F90D1
S11309F00F900F90DF91CF91FF91EF91BF91AF9145
S1130A009F918F917F916F915F914F913F912F9122
S1130A100F900BBE0F900FBE0F901F9018951F9252
S1130A200F920FB60F9211240BB60F922F933F9390
S1130A304F935F936F937F938F939F93AF93BF93E2
S1130A40EF93FF93CF93DF9300D01F92CDB7DEB720
S1130A500E94BB1160939204709393048093940456
S1130A60909395048091920490919304A09194049E
S1130A70B091950440918E0450918F04609190043C
S1130A8070919104841B950BA60BB70B89839A83F1
S1130A90AB83BC838091920490919304A0919404BD
S1130AA0B091950480938E0490938F04A093900446
S1130AB0B093910469817A818B819C81E091B80B18
S1130AC0F091B90B0280F381E02D19950F900F90EE
S1130AD00F900F90DF91CF91FF91EF91BF91AF9164
S1130AE09F918F917F916F915F914F913F912F9142
S1130AF00F900BBE0F900FBE0F901F9018951F9272
S1130B000F920FB60F9211240BB60F922F933F93AF
S1130B104F935F936F937F938F939F93AF93BF9301
S1130B20EF93FF93CF93DF9300D01F92CDB7DEB73F
S1130B300E94BB1160938A0470938B0480938C048D
S1130B4090938D0480918A0490918B04A0918C04DD
S1130B50B0918D044091860450918704609188047B
S1130B6070918904841B950BA60BB70B89839A8318
S1130B70AB83BC8380918A0490918B04A0918C04F4
S1130B80B0918D048093860490938704A093880485
S1130B90B09389041092240169817A818B819C81AC
S1130BA0E091BC0BF091BD0B0280F381E02D19950F
S1130BB00F900F900F900F90DF91CF91FF91EF91D5
S1130BC0BF91AF919F918F917F916F915F914F9161
S1130BD03F912F910F900BBE0F900FBE0F901F905F
S1130BE018951F920F920FB60F9211240BB60F9205
S1130BF02F933F934F935F938F939F93EF93FF9321
S1130C002091C0003091C60028718091BB0790E00C
S1130C1001968F7799274091BA0750E0841795077A
S1130C2039F08093BB07FC01E254F84F308301C0D4
S1130C3022E02093B907FF91EF919F918F915F91EB
S1130C404F913F912F910F900BBE0F900FBE0F90BD
S1130C501F9018951F920F920FB60F9211240BB686
S1130C600F928F939F93EF93FF939091BD07809181
S1130C70BC07981789F08091BC0790E001968F77A4
S1130C8099278093BC07FC01E25CF74F8081809335
S1130C90C6001092A90408C0E1ECF0E080818F7DC9
S1130CA0808381E08093A904FF91EF919F918F91BC
S1130CB00F900BBE0F900FBE0F901F9018950F93BF
S1130CC01F938B019C01F8941092BD071092BC07EE
S1130CD01092BB071092BA077894DC01CB018058BC
S1130CE09B47A14EBF4F880F991FAA1FBB1F880F98
S1130CF0991FAA1FBB1FBC01CD01660F771F881F58
S1130D00991F000F111F221F331F000F111F221FD5
S1130D10331FA9019801220F331F441F551F220FAF
S1130D20331F441F551F0E94EB11BA01A901415002
S1130D3051096109710957FF06C082E08093C00020
S1130D405F7766277727BB27A72F962F852F80935A
S1130D50C5004093C40088E98093C10086E0809375
S1130D60C2001F910F9108954091BD0750E04F5F5D
S1130D705F4F4F7755272091BC0730E04217530748
S1130D80D1F3FA01E25CF74F80834093BD07E1ECB5
S1130D90F0E080818062808308950F931F93CF9346
S1130DA0DF936A3071058105910558F02AE030E03F
S1130DB040E050E00E94EB11062FCA01B901EDDFBB
S1130DC0602F80E3860FD0DFDF91CF911F910F91C9
S1130DD00895CF93DF93EC018881882329F021962D
S1130DE0C3DF89918111FCCFDF91CF9108951F92C8
S1130DF00F920FB60F9211240BB60F922F933F93BD
S1130E004F935F938F939F93EF93FF932091C80029
S1130E103091CE0028718091B60690E001968F77CC
S1130E2099274091B50650E08417950739F08093CF
S1130E30B606FC01E754F94F308301C022E0209349
S1130E40B406FF91EF919F918F915F914F913F91E4
S1130E502F910F900BBE0F900FBE0F901F901895FF
S1130E601F920F920FB60F9211240BB60F928F930D
S1130E709F93EF93FF939091B8068091B7069817CC
S1130E8089F08091B70690E001968F779927809337
S1130E90B706FC01E75CF84F80818093CE00109286
S1130EA0A80408C0E9ECF0E080818F7D808381E0B4
S1130EB08093A804FF91EF919F918F910F900BBEA7
S1130EC00F900FBE0F901F9018950F931F938B01D7
S1130ED09C01F8941092B8061092B7061092B606C8
S1130EE01092B5067894DC01CB0180589B47A14E43
S1130EF0BF4F880F991FAA1FBB1F880F991FAA1FD6
S1130F00BB1FBC01CD01660F771F881F991F000FFF
S1130F10111F221F331F000F111F221F331FA9018E
S1130F209801220F331F441F551F220F331F441FE4
S1130F30551F0E94EB11BA01A901415051096109E1
S1130F40710957FF06C082E08093C8005F77662767
S1130F507727BB27A72F962F852F8093CD0040930B
S1130F60CC0088E98093C90086E08093CA001F9171
S1130F700F910895F8949091B6068091B506981350
S1130F8004C0789480E091E008958091B50690E0E3
S1130F9001968F7799278093B5067894FC01E754DE
S1130FA0F94F20818091B40690E0982F8827820F12
S1130FB0911D08954091B80650E04F5F5F4F4F7701
S1130FC055272091B70630E042175307D1F3FA01B1
S1130FD0E75CF84F80834093B806E9ECF0E0808149
S1130FE0806280830895F8948091B6062091B506B6
S1130FF0789490E080589F4F821B91098F779927AE
S113100008958091A8048823E1F308951F920F9214
S11310100FB60F9211240BB60F922F933F934F9359
S11310205F938F939F93EF93FF932091D000309120
S1131030D60028718091B10590E001968F779927A9
S11310404091B00550E08417950739F08093B105BD
S1131050FC01EC54FA4F308301C022E02093AF0529
S1131060FF91EF919F918F915F914F913F912F91BC
S11310700F900BBE0F900FBE0F901F9018951F92EC
S11310800F920FB60F9211240BB60F928F939F936A
S1131090EF93FF939091B3058091B205981789F06F
S11310A08091B20590E001968F7799278093B205DD
S11310B0FC01EC5CF94F80818093D6001092A70468
S11310C008C0E1EDF0E080818F7D808381E0809332
S11310D0A704FF91EF919F918F910F900BBE0F90FA
S11310E00FBE0F901F9018950F931F938B019C01B7
S11310F0F8941092B3051092B2051092B1051092B3
S1131100B0057894DC01CB0180589B47A14EBF4FBA
S1131110880F991FAA1FBB1F880F991FAA1FBB1FE7
S1131120BC01CD01660F771F881F991F000F111F87
S1131130221F331F000F111F221F331FA901980103
S1131140220F331F441F551F220F331F441F551FE7
S11311500E94EB11BA01A9014150510961097109B9
S113116057FF06C082E08093D0005F776627772719
S1131170BB27A72F962F852F8093D5004093D400AB
S113118088E98093D10086E08093D2001F910F916B
S113119008959091B1058091B0059817A1F08091C0
S11311A0B00590E001968F7799278093B005FC01F4
S11311B0EC54FA4F20818091AF0590E0982F882756
S11311C0820F911D089580E091E008954091B30548
S11311D050E04F5F5F4F4F7755272091B20530E0C5
S11311E042175307D1F3FA01EC5CF94F8083409323
S11311F0B305E1EDF0E08081806280830895F89486
S11312008091B1052091B005789490E080589F4F6B
S1131210821B91098F77992708958091A7048823C9
S1131220E1F308951F920F920FB60F9211240BB69B
S11312300F922F933F934F935F938F939F93EF93CB
S1131240FF93209130013091360128718091AC04D4
S113125090E001968F7799274091AB0450E0841772
S1131260950739F08093AC04FC01E155FB4F3083C2
S113127001C022E02093AA04FF91EF919F918F91E6
S11312805F914F913F912F910F900BBE0F900FBE26
S11312900F901F9018951F920F920FB60F92112462
S11312A00BB60F928F939F93EF93FF939091AE049D
S11312B08091AD04981789F08091AD0490E0019677
S11312C08F7799278093AD04FC01E15DFA4F80810B
S11312D0809336011092A60408C0E1E3F1E0808116
S11312E08F7D808381E08093A604FF91EF919F918D
S11312F08F910F900BBE0F900FBE0F901F901895FB
S11313000F931F938B019C01F8941092AE041092DA
S1131310AD041092AC041092AB047894DC01CB01C0
S113132080589B47A14EBF4F880F991FAA1FBB1F10
S1131330880F991FAA1FBB1FBC01CD01660F771F21
S1131340881F991F000F111F221F331F000F111F29
S1131350221F331FA9019801220F331F441F551F59
S1131360220F331F441F551F0E94EB11BA01A9011C
S1131370415051096109710957FF06C082E0809309
S113138030015F7766277727BB27A72F962F852FF6
S1131390809335014093340188E98093310186E0DC
S11313A0809332011F910F9108959091AC04809124
S11313B0AB049817A1F08091AB0490E001968F776D
S11313C099278093AB04FC01E155FB4F2081809168
S11313D0AA0490E0982F8827820F911D089580E039
S11313E091E008954091AE0450E04F5F5F4F4F7716
S11313F055272091AD0430E042175307D1F3FA0189
S1131400E15DFA4F80834093AE04E1E3F1E0808133
S1131410806280830895F8948091AC042091AB0499
S1131420789490E080589F4F821B91098F77992779
S113143008958091A6048823E1F3089508950F93F5
S113144003E023E639E040E050E060E081E01ED3B1
S1131450909383098093820922E439E040E050E0CC
S113146060E081E013D3909362098093610921E2E3
S113147039E040E050E060E081E008D39093410916
S11314808093400920E039E040E050E060E081E0F2
S1131490FDD29093200980931F092FED38E040E09E
S11314A050E060E081E0F2D29093FF088093FE0860
S11314B02EEB38E040E050E060E081E0E7D290932A
S11314C0DE088093DD080F9108950F9303E025EA69
S11314D039E040E050E060E081E0D8D29093C50963
S11314E08093C40924E839E040E050E060E081E002
S11314F0CDD29093A4098093A3090F9108959EDF00
S11315009EDF03D0E2DF31C008950F9303E029E2A8
S11315103AE040E050E060E081E0B8D29093490ABC
S11315208093480A28E03AE040E050E060E081E03F
S1131530ADD29093280A8093270A27EE39E040E041
S113154050E060E081E0A2D29093070A8093060AFB
S113155026EC39E040E050E060E081E097D29093DF
S1131560E6098093E5090F9108950F9303E020E1C4
S11315703BE040E050E060E081E088D29093300BA3
S113158080932F0B2FEE3AE040E050E060E081E0E2
S11315907DD290930F0B80930E0B2EEC3AE040E03B
S11315A050E060E081E072D29093EE0A8093ED0AFD
S11315B02DEA3AE040E050E060E081E067D29093A9
S11315C0CD0A8093CC0A2CE83AE040E050E060E099
S11315D081E05CD29093AC0A8093AB0A2BE63AE0AC
S11315E040E050E060E081E051D290938B0A809318
S11315F08A0A2AE43AE040E050E060E081E046D222
S113160090936A0A8093690A0F910895279A2F9AF2
S11316102FEF87EA91E6215080409040E1F700C027
S113162000001F9AF5CFFC010396928381832FEF6C
S11316303FEF348323839683858390878783108247
S11316400895CF93DF939C01FB01DC011196CD91AA
S1131650DC911297D383C2838C819D81958384838B
S11316608C819D81DC0113967C936E9312977D830C
S11316706C8331872087F90180818F5F8083DF91BC
S1131680CF910895CF93DF93EB01488159814F3F68
S11316902FEF520721F4FC01A781B0850DC0DC01B6
S11316A0139601C0DF011296ED91FC9113972081EE
S11316B0318142175307B0F71296ED91FC911397BD
S11316C0FB83EA83D583C483BD83AC831396DC9305
S11316D0CE93129799878887FC0120812F5F2083FE
S11316E0DF91CF910895CF93DF93FC01A085B1855D
S11316F0C281D381848195819D838C83C481D5816A
S1131700828193819B838A8311968D919C911297F8
S1131710E817F90731F48481958112969C938E938E
S11317201197118610868C9181508C938C91DF9146
S1131730CF9108950F920FB6F8940F920BB60F92B3
S11317400CB60F921F9211242F923F924F925F92E8
S11317506F927F928F929F92AF92BF92CF92DF92BD
S1131760EF92FF920F931F932F933F934F935F93A7
S11317706F937F938F939F93AF93BF93CF93DF9395
S1131780EF93FF93A0916C0BB0916D0B0DB60D927E
S11317900EB60D92C8D3A0916C0BB0916D0BCD9188
S11317A0CDBFDD91DEBFFF91EF91DF91CF91BF916E
S11317B0AF919F918F917F916F915F914F913F91E5
S11317C02F911F910F91FF90EF90DF90CF90BF90DA
S11317D0AF909F908F907F906F905F904F903F90CD
S11317E02F901F900F900CBE0F900BBE0F900FBE4A
S11317F00F9008950F920FB6F8940F920BB60F92B4
S11318000CB60F921F9211242F923F924F925F9227
S11318106F927F928F929F92AF92BF92CF92DF92FC
S1131820EF92FF920F931F932F933F934F935F93E6
S11318306F937F938F939F93AF93BF93CF93DF93D4
S1131840EF93FF93A0916C0BB0916D0B0DB60D92BD
S11318500EB60D9213BE27D2811165D3A0916C0BE5
S1131860B0916D0BCD91CDBFDD91DEBFFF91EF91B6
S1131870DF91CF91BF91AF919F918F917F916F91A4
S11318805F914F913F912F911F910F91FF90EF9096
S1131890DF90CF90BF90AF909F908F907F906F908C
S11318A05F904F903F902F901F900F900CBE0F9021
S11318B00BBE0F900FBE0F9008959CDF18950F93E9
S11318C01F93CF93DF93EC01042F1A8D4C8D41119C
S11318D00BC088819981892B09F03FC08C819D813F
S11318E030D41D821C8240C0011116C050E08A8190
S11318F09B8193D52C8D8A819B81820F911D9B8323
S11319008A832C813D818217930748F188819981CC
S11319109B838A8380E028C050E08E819F817DD59F
S11319208C8D90E09195819591092E813F81280FAE
S1131930391F3F832E83488159812417350730F49A
S11319402C813D81820F931F9F838E83023049F443
S1131950112349F0115080E007C080E005C080E009
S113196003C080E001C080E01F5F1A8FDF91CF9138
S11319701F910F910895EF92FF920F931F93CF93AE
S11319808C010FB6F8940F92FC01C68D1C169CF4C2
S11319908189811106C00FC0F8018189811105C0B8
S11319A00AC07801F1E1EF0EF11CC7014CD381119B
S11319B0C4D3C15089F78FEFF801868F0F900FBE03
S11319C00FB6F8940F92C58D1C169CF48085811176
S11319D006C00FC0F8018085811105C00AC07801D6
S11319E0F8E0EF0EF11CC7012ED38111A6D3C1502C
S11319F089F78FEFF801858F0F900FBECF911F915C
S1131A000F91FF90EF900895CF93DF93EC010FB601
S1131A10F8940F92E881F9818B8D2C8D90E030E061
S1131A20829FA001839F500D929F500D11244E0F51
S1131A305F1F5D834C831A8EFB83EA830197829F29
S1131A40A001839F500D929F500D1124CF01840F4C
S1131A50951F9F838E838FEF8D8F8E8F61110AC0A8
S1131A608885882369F0CE010896EDD2882341F059
S1131A7061DE06C0CE010896D6DDCE014196D3DDE7
S1131A800F900FBE81E0DF91CF910895CF93DF9344
S1131A90E901209761F0611103C03983288302C0F2
S1131AA0598348838B8F6C8F61E0CE01ADDFCE010B
S1131AB0DF91CF9108959F92AF92BF92CF92DF9220
S1131AC0EF92FF920F931F93CF93DF9300D01F9257
S1131AD01F92CDB7DEB78C016B015D834C83A22EC0
S1131AE0B12C992493947C0188E0E80EF11C0FB684
S1131AF0F8940F92F801928D838D981718F0F2E004
S1131B00AF1215C04A2DB601C801D9DEF80191897A
S1131B10992339F0C801419696D2882321F00ADE30
S1131B2002C0811107DE0F900FBE81E045C08C8199
S1131B309D81892B21F40F900FBE80E03DC0B11030
S1131B4004C0CE010196C3D2B92C0F900FBEA5D00C
S1131B500FB6F8940F92F801858D8F3F09F4158E16
S1131B60F801868D8F3F09F4168E0F900FBEBE01CB
S1131B706C5F7F4FCE010196B5D2811119C00FB6AB
S1131B80F8940F92F801928D838D0F900FBE9813E5
S1131B900BC06C817D81C70146D2C801ECDE3AD10D
S1131BA08111A5CFC7DDA3CFC801E5DE33D19FCF17
S1131BB0C801E1DE2FD180E00F900F900F900F90BD
S1131BC00F90DF91CF911F910F91FF90EF90DF90D5
S1131BD0CF90BF90AF909F900895E091460BF09105
S1131BE0470B8081811107C08FEF9FEF9093330BD8
S1131BF08093320B0895E091460BF091470B0580DA
S1131C00F681E02D0680F781E02D82819381909307
S1131C10330B8093320B08950F931F93CF93DF936D
S1131C20EC010091380B1091390B80916C0B909161
S1131C306D0B029658DDC00FD11FE0916C0BF09133
S1131C406D0BD383C283C017D10760F460916C0B12
S1131C5070916D0B8091440B9091450B6E5F7F4F9B
S1131C6011DD16C060916C0B70916D0B8091460B69
S1131C709091470B6E5F7F4F05DD8091320B909101
S1131C80330BC817D90720F4D093330BC093320B0E
S1131C90DF91CF911F910F9108958091310B8F5F48
S1131CA08093310B0895CF92DF92EF92FF920F93BE
S1131CB01F93CF93DF938091310B811195C0E090F6
S1131CC0380BF090390B8FEFE81AF80AF092390BC1
S1131CD0E092380BE114F104B1F48091460B909139
S1131CE0470B2091440B3091450B3093470B2093C5
S1131CF0460B9093450B8093440B8091340B8F5F7C
S1131D008093340B6ADF8091320B9091330BE81689
S1131D10F90610F4D12C50C0D12CCC24C394E091FA
S1131D20460BF091470B8081811107C08FEF9FEF25
S1131D309093330B8093320B3FC0E091460BF091AC
S1131D40470B0580F681E02DC681D7818A819B816E
S1131D50E816F90628F49093330B8093320B2CC0C9
S1131D608E010E5F1F4FC801BEDC8C899D89892BB3
S1131D7019F0CE010C96B7DC8E899091370B981729
S1131D8010F48093370B90E09C01220F331F220F35
S1131D90331F220F331F820F931FB801885B944FA8
S1131DA050DCE0916C0BF0916D0B9E89868998173D
S1131DB008F4B5CFDC2CB3CFE0916C0BF0916D0B34
S1131DC0868990E0FC01EE0FFF1FEE0FFF1FEE0F60
S1131DD0FF1F8E0F9F1FFC01E85BF44F8081823050
S1131DE048F0DD24D39406C08091360B8F5F809336
S1131DF0360BD12C8091350B882311F0DD24D3943C
S1131E008D2DDF91CF911F910F91FF90EF90DF9077
S1131E10CF900895DF92EF92FF920F931F93CF9389
S1131E20DF930FB6F8940F928091310B8150809319
S1131E30310B8091310B811159C080913A0B811182
S1131E4030C057C0D7011596ED91FC911697C68105
S1131E50D781CE010C9647DC8E010E5F1F4FC8015F
S1131E6042DC8E899091370B981710F48093370BCE
S1131E7090E09C01220F331F220F331F220F331FC8
S1131E80820F931FB801885B944FDBDBE0916C0BEE
S1131E90F0916D0B9E898689981768F0D092350B66
S1131EA00AC0C0E0D0E00F2EFBE3EF2EFBE0FF2ED4
S1131EB0F02DDD24D394F70180818111C3CFCD2B84
S1131EC009F08BDEC091360BCC2349F0D1E0EBDE78
S1131ED08111D093350BC150D1F71092360B8091FC
S1131EE0350B882329F026DC81E003C080E001C0A3
S1131EF080E00F900FBEDF91CF911F910F91FF9063
S1131F00EF90DF900895CF93DF93EC01892B39F0A4
S1131F10C4DE60E0CE0180DE7DDF811101C00ADC19
S1131F20DF91CF9108958091310B882321F081E0D6
S1131F308093350B08951092350BA0916C0BB091E2
S1131F406D0BE0916C0BF0916D0B2D913C91878999
S1131F50908D8217930758F060916C0B70916D0B04
S1131F6080916C0B90916D0B675E7F4F4FDB2091DE
S1131F70370B822F90E0FC01EE0FFF1FEE0FFF1FC7
S1131F80EE0FFF1FE80FF91FE85BF44F30813111AA
S1131F9011C02150822F90E0FC01EE0FFF1FEE0FC5
S1131FA0FF1FEE0FFF1FE80FF91FE85BF44F3081AE
S1131FB0332379F3AC01440F551F440F551F440FCD
S1131FC0551F480F591FDA01A85BB44F1196ED91C4
S1131FD0FC9112970280F381E02D1296FC93EE930C
S1131FE01197455B544FE417F50729F44281538157
S1131FF0FD0152834183FC01EE0FFF1FEE0FFF1F13
S1132000EE0FFF1F8E0F9F1FFC01E85BF44F018052
S1132010F281E02D8681978190936D0B80936C0BF8
S11320202093370B0895CF93DF93EB0160916C0BF2
S113203070916D0B645F7F4F25DB61E0CE01ECDDB9
S1132040DF91CF9108950F931F93CF93DF93DC011A
S11320501596ED91FC911697C681D7818E01045F88
S11320601F4FC80140DB8091310B81111AC00A5007
S11320701109C80138DB8E899091370B981710F439
S11320808093370B90E09C01220F331F220F331FE4
S1132090220F331F820F931FB801885B944FD1DA4C
S11320A004C0B8018BE39BE0CCDAE0916C0BF091B7
S11320B06D0B9E898689891720F481E08093350B06
S11320C001C080E0DF91CF911F910F91089520917D
S11320D0340BFC0120832091380B3091390B32836F
S11320E0218308950FB6F8940F922091380B309104
S11320F0390BDC0111964D915C911297E091340BF0
S1132100FC91FE1719F02417350798F4241B350B9E
S1132110FB01408151812417350738F4421B530BCE
S113212051834083D4DF80E005C01182108281E0B6
S113213001C081E00F900FBE089581E08093350BBC
S113214008950F931F93CF93DF93FC01892B69F1BB
S113215082A1815082A3268991A1291741F181117D
S113216028C0EF018F010E5F1F4FC801BCDA89A19F
S11321708E8B24E030E0281B31093D872C87909119
S1132180370B981710F48093370B90E09C01220FC3
S1132190331F220F331F220F331F820F931FB801E7
S11321A0885B944F4EDA81E005C080E003C080E094
S11321B001C080E0DF91CF911F910F9108950F939B
S11321C003E02EE63BE040E050E060E081E05EDCCE
S11321D09093BF0B8093BE0B20E040E050E060E0A2
S11321E070E069DC0F9108950C94AC00089590930D
S11321F0900B80938F0B70938E0B60938D0B0895CF
S11322009093920B8093910B08958091970B9091EA
S1132210980B01969093980B8093970B2091970BB2
S11322203091980B8091930B9091940B2817390758
S1132230E8F080E193E00E94E90620E040E050E00D
S113224060E070E08091C00B9091C10B34DC81E4BC
S113225093E00E94E9066091970B7091980B80E0DF
S113226090E00E94CD068AE00C94B4060895809113
S1132270990B90919A0B019690939A0B8093990BDA
S11322802091990B30919A0B8091950B9091960B1C
S113229028173907E8F088E793E00E94E90620E070
S11322A040E050E060E070E08091000C9091010CFF
S11322B002DC81EA93E00E94E9066091990B709137
S11322C09A0B80E090E00E94CD068AE00C94B4065C
S11322D008950F9365E071E187E391E10E94C900DD
S11322E003E021EE3BE040E050E060E081E0CEDB43
S11322F09093010C8093000C22EC3BE040E050E012
S113230060E081E0C3DB9093C10B8093C00B0F911D
S1132310089590939C0B80939B0B08950E94EB026D
S11323201BD00E944202EBD84ADF80E00E942D02BB
S113233023E040E056E960E070E081E00E940201A1
S113234021E040E052EC61E070E083E00E94230170
S11323504BDFBFDF80E0089582E08093B00084E02B
S11323608093B1008AEF8093B300E0E7F0E08081CE
S1132370826080830895F8946091020C7091030C3C
S11323808091040C9091050C789408951F920F92FB
S11323900FB60F9211248F939F93AF93BF938091A5
S11323A0020C9091030CA091040CB091050C0196C1
S11323B0A11DB11D8093020C9093030CA093040CF7
S11323C0B093050CBF91AF919F918F910F900FBE69
S11323D00F901F901895A1E21A2EAA1BBB1BFD019A
S11323E00DC0AA1FBB1FEE1FFF1FA217B307E407F0
S11323F0F50720F0A21BB30BE40BF50B661F771F48
S1132400881F991F1A9469F7609570958095909527
S11324109B01AC01BD01CF010895FB01DC0102C0A9
S113242001900D9241505040D8F70895F894FFCF91
S11324304C6576656C5F73656E736F725F657272FF
S11324406F725F63616C6C6261636B200A004C4362
S1132450445F57524954455F54494D454F555420A4
S11324602B2B2B2B2B2B2B2B2B2B2B2B2B2B2B2BB8
S11324702B2B2B2B2B2B2B2B2B2B2B2B200A004CDE
S113248043445F524541445F54494D454F555420A0
S11324902D2D2D2D2D2D2D2D2D2D2D2D2D2D2D2D68
S11324A02D2D2D2D2D2D2D2D2D2D2D2D200A00548E
S11324B0656D70657261747572655F6F7665725F64
S11324C074656D70200A007374617274200A00745C
S11324D0616E6B206C6576656C2031203D20200098
S11324E074616E6B206C6576656C2032203D202013
S11324F00074616E6B206C6576656C2033203D2022
S11325002000626C616E63686572206C6576656C30
S113251020203D20200073616C745F6578697374BA
S1132520203D20200053414C542064726F7070652C
S113253064207375636365737366756C6C792000CE
S11325406265666F72727272656565656565204F56
S1132550574F574F574F574F4F574F574F574F5747
S11325604F574F4F574F574F574F574F4F574F573F
S113257000675F6F75745F6C69746572735F636F16
S1132580756E746572204F574F574F574F574F4FC3
S1132590574F574F574F574F574F4F574F574F5707
S11325A04F574F4F574F57004245464F5252525282
S11325B0524520465746574657465746574657466C
S11325C0574657465746574657465746574657461F
S11325D000675F66656564696E675F6C69746572E0
S11325E0735F636F756E746572204657465746571E
S11325F046574657465746574657465746574657EF
S11326004657465746574600535353535353535311
S11326105353535353535353535353535353535386
S11326205353535353535353535353535353535376
S113263053535353535353535353535353004747D1
S11326404747474747474747474747474747474716
S11326504747474747474747474747474747474706
S113266047474747474747474747474747474747F6
S1072670474747008D
S9030000FC
