:1000000071C0000090C000008EC000008CC00000D5
:100010008AC0000088C0000086C0000084C00000C4
:1000200082C0000080C000007EC000007CC00000D4
:100030000C94D8100C94B11276C0000074C000006B
:1000400072C0000071C000006EC000006CC00000F3
:100050006AC0000068C0000066C0000064C0000004
:1000600062C000000C94440B0C947D0B5CC000003B
:100070005AC000000C94E00A56C0000054C00000B2
:10008000B9C0000050C000004EC000004CC00000CD
:100090000C94480C0C94810C46C0000044C0000035
:1000A00042C0000040C000000BC100003CC0000086
:1000B0003AC0000038C0000036C0000067C1000030
:1000C00032C0000030C000002EC000000C94560D5D
:1000D0000C948F0D28C000000C94610E0C949A0EA5
:1000E00022C0000011241FBECFEFD1E2DEBFCDBF82
:1000F00000E00CBF12E0A0E0B2E0E4EFF5E200E0C7
:100100000BBF02C007900D92A632B107D9F729E0C4
:10011000A6E2B2E001C01D92AD32B207E1F70E9443
:10012000580A0C94F8126CCF1F920F920FB60F92D0
:1001300011240BB60F92CF92DF92EF92FF920F93A2
:100140001F932F933F934F935F936F937F938F935F
:100150009F93AF93BF93EF93FF930E94A6128B01DF
:100160009C016093FF0870930009809301099093AC
:1001700002094091DF085091E0086091E108709118
:10018000E20868017901C41AD50AE60AF70AC7012C
:10019000B601C092E708D092E808E092E908F09230
:1001A000EA080093DF081093E0082093E1083093F9
:1001B000E208E091F908F091FA080280F381E02D5D
:1001C0001995FF91EF91BF91AF919F918F917F9181
:1001D0006F915F914F913F912F911F910F91FF90E0
:1001E000EF90DF90CF900F900BBE0F900FBE0F904F
:1001F0001F9018951F920F920FB60F9211240BB6F5
:100200000F92CF92DF92EF92FF920F931F932F9353
:100210003F934F935F936F937F938F939F93AF938E
:10022000BF93EF93FF930E94A6128B019C016093F2
:10023000F5087093F6088093F7089093F8084091BA
:10024000D9085091DA086091DB087091DC086801E8
:100250007901C41AD50AE60AF70AC701B601C092A5
:10026000E708D092E808E092E908F092EA080093E3
:10027000D9081093DA082093DB083093DC08E0916A
:10028000DD08F091DE080280F381E02D1995FF91E1
:10029000EF91BF91AF919F918F917F916F915F91FE
:1002A0004F913F912F911F910F91FF90EF90DF9011
:1002B000CF900F900BBE0F900FBE0F901F90189510
:1002C0001F920F920FB60F9211240BB60F92CF927E
:1002D000DF92EF92FF920F931F932F933F934F93D1
:1002E0005F936F937F938F939F93AF93BF93EF939E
:1002F000FF930E94A6128B019C016093EB08709300
:10030000EC088093ED089093EE084091FB08509123
:10031000FC086091FD087091FE0868017901C41A1B
:10032000D50AE60AF70AC701B601C092E708D092DB
:10033000E808E092E908F092EA080093FB081093BD
:10034000FC082093FD083093FE08E091EF08F0913F
:10035000F0080280F381E02D1995FF91EF91BF9194
:10036000AF919F918F917F916F915F914F913F914D
:100370002F911F910F91FF90EF90DF90CF900F90F2
:100380000BBE0F900FBE0F901F9018951F920F92EB
:100390000FB60F9211240BB60F922F933F934F93EA
:1003A0005F936F937F938F939F93AF93BF93EF93DD
:1003B000FF9381E60E94060C109224016091E708E9
:1003C0007091E8088091E9089091EA08E0910309AA
:1003D000F09104090280F381E02D1995FF91EF91CE
:1003E000BF91AF919F918F917F916F915F914F914D
:1003F0003F912F910F900BBE0F900FBE0F901F904B
:10040000189561E080E00C94270B089560E080E08F
:100410000C94270B0895E6E2F2E020838183428367
:1004200053836483758381E092E09783868386E0BB
:1004300092E091878087BF0180E0D0C60895FF9247
:100440000F931F93CF93DF93F62EC72FD42F50E037
:10045000BC0180E0F5D7811112C0DD2399F00F2D8A
:100460001C2FC0E06C2F80E0A7D7F80181939193F7
:100470008F01CF5FDC13F6CF80E090E005C089E00C
:1004800090E002C080E090E0DF91CF911F910F914A
:10049000FF900895EF92FF920F931F93CF93DF93F6
:1004A0007C01D42F442369F0062F172FC0E0F801F8
:1004B000419151918F016C2F80E0A1D7CF5FDC1368
:1004C000F6CF4D2F50E0B70180E0D6D7DF91CF9126
:1004D0001F910F91FF90EF9008958F929F92AF928E
:1004E000BF92DF92EF92FF920F931F93CF93DF9310
:1004F000CDB7DEB7DA950FB6F894DEBF0FBECDBF2D
:10050000D62E811100C38091660489832FEF621378
:1005100006C08FE08A836894BB24B1F832C06A8336
:1005200081E06817B8F094E0961718F4A7E16A1311
:1005300011C080916404909165049B838C838091A9
:100540006204909163049D838E830F2EF6E0BF2E8C
:10055000F02D03C06894BB24B1F8B0E1BD1540F0A4
:10056000EFE0DE1670F48BEF8D0D823000F509C0E0
:10057000F6E1DF16E0F027E12D1518F48FEFD81221
:1005800016C09091E0038091E103E1E0F0E0EC0F10
:10059000FD1FEB0DF11D808381E08B0DE1E0F0E0AC
:1005A000EC0FFD1FE80FF11DB394B394908390E11D
:1005B000D91609F4ADC09D1558F0A6E0DA1661F120
:1005C000BFE0DB1609F441C0E5E0DE121AC10DC040
:1005D000F7E1DF1609F49CC02FEFD21609F498C09A
:1005E00086E1D81609F4DFC00CC19091DE0380913A
:1005F000DF03E1E0F0E0EC0FFD1FEB0DF11D808368
:1006000081E08B0DE1E0F0E0EC0FFD1FE80FF11D44
:10061000B394B3949083F5C0EEE5F3E080819181CB
:10062000A1E0B0E0AC0FBD1FAB0DB11D9C932081CC
:10063000318181E08B0DE1E0F0E0EC0FFD1FE80F70
:10064000F11DB394B3942083DCC08091DE039091BC
:10065000DF03E1E0F0E0EC0FFD1FEB0DF11D9083F7
:1006600032E03B0D21E02B0DE1E0F0E0EC0FFD1F4F
:10067000E20FF11D8083AC0147705527452B49F0EF
:1006800096958795969587959695879521E0280F5D
:1006900007C0969587959695879596958795282F67
:1006A00093E0B90EFE01E30FF11D2183222309F42B
:1006B000A8C080E0982F917080FF03C0913099F01E
:1006C00023C0E82FE695F0E0EE0FFF1FE25AFC4F43
:1006D00040815181E1E0F0E0EC0FFD1FEB0DF11DD9
:1006E0004083B39411C0E82FE695F0E0EE0FFF1FB2
:1006F000E25AFC4F40815181E1E0F0E0EC0FFD1F38
:10070000EB0DF11D5083B3948F5F2813D3CF79C0C5
:100710006091DE037091DF03E1E0F0E0EC0FFD1F7C
:10072000EB0DF11D708381E08B0DE1E0F0E0EC0F4B
:10073000FD1FE80FF11D608382E08B0DE1E0F0E02A
:10074000EC0FFD1FE80FF11DA3E0BA0E862F880FF6
:1007500080837727161617060CF053C080E090E0D0
:1007600020E0880F991FFC01E25AFC4F80819181A3
:10077000A1E0B0E0AC0FBD1FAB0DB11D9C9340815B
:10078000518181E08B0DE1E0F0E0EC0FFD1FE80FFF
:10079000F11DB394B39440832F5F822F90E08617AE
:1007A0009707FCF22EC0EEE5F3E080819181A1E095
:1007B000B0E0AC0FBD1FAB0DB11D9C93808191814A
:1007C00091E09B0DA1E0B0E0AC0FBD1FA90FB11DE2
:1007D0008C938281938182E08B0DA1E0B0E0AC0F1D
:1007E000BD1FA80FB11D9C932281338183E08B0D27
:1007F000E1E0F0E0EC0FFD1FE80FF11DB4E0BB0EEF
:100800002083BB20B9F08E010F5F1F4FEE24EA94C6
:10081000EB0CF12CEFEFEE1AFE0AE00EF11E8FEF5B
:100820009FEFD8016D918D010E9485120E151F0555
:10083000C1F702C08FEF9FEFEE24E394EB0CE1E0F1
:10084000F0E0EC0FFD1FEB0DF11D8083B394B3942A
:10085000E1E0F0E0EC0FFD1FEE0DF11D9083E1E013
:10086000F0E0EC0FFD1FEB0DF11D1082E091510344
:10087000F0915203199581159140C1F7E09157030A
:10088000F0915803309709F01995BB20A1F08E0123
:100890000F5F1F4FF12CEFEFEE1AFE0AE00EF11E74
:1008A000E0915303F0915403D8018D918D01199576
:1008B0000E151F05A9F7E0914F03F091500319950C
:1008C000EFE8F1E03197F1F700C00000E091550347
:1008D000F0915603309709F01995FFEF23ED80E36F
:1008E000F15020408040E1F700C000000E94A612B5
:1008F0004B015C0108E010E0ED2CF12CE0914D0380
:10090000F0914E031995892B91F0DD24D394D10EEB
:10091000E0915103F09152031995E1E0F0E0EC0F02
:10092000FD1FE10FF11D808301501D2D07C0E091D7
:100930005903F0915A03309709F01995153059F57C
:1009400099818091660498132BC48A81282F2F7770
:1009500030E02E153F0509F025C488232CF48B8147
:10096000882309F43DC0CAC0813158F48F3008F0A3
:10097000B5C3813080F0853068F0873008F4AEC3AD
:100980000AC0873139F08F3F09F4A8C3863119F4C2
:1009900005E0A5C30B810E94A612DC01CB018819DA
:1009A0009909AA09BB09813D9740A105B10508F441
:1009B000EBC380E092E05ED78AE028D70111F4C350
:1009C00082EE81119BC0153008F4A9C3A12EB12C71
:1009D0007501F2E0EF1AF1081E141F045CF08EC3DB
:1009E0000F2EF3E0EF2EF12CF02D0F2EF5E0AF2EB1
:1009F000B12CF02D20E030E08FEF9FEF10E0E1E030
:100A0000F0E0EC0FFD1FE20FF31F60810E948512E2
:100A10001F5F212F30E02E153F058CF371C3892F06
:100A20009927FE01EA0DFB1D208130E08217930714
:100A300009F073C374C39B819695E9F580E05EC0AD
:100A40007B81972F969509F478C3FE01319640E09B
:100A500050E080E0803470F4248130E0322F22278F
:100A60006381262BDA01AA0FBB1FAE51BC4F119632
:100A70003C932E938F5F4F5F5F4F32968913EACF7F
:100A80008FEF890F80935B0370FF35C0903470F453
:100A9000292F30E0220F331FFE01E20FF31F4481A4
:100AA00050E0F901EE51FC4F518340839F5F9093DA
:100AB0005B0380E023C0FE01319640E050E080E01F
:100AC000803470F4238130E0322F22276481262B7A
:100AD000DA01AA0FBB1FAE51BC4F11963C932E9367
:100AE0008F5F4F5F5F4F32968913EACF915090939B
:100AF0005B0380E003C080E001C080E010925D03F2
:100B000010925C0359C3813009F0E6C280914C0316
:100B100089832FEF621306C08FE08A836894BB2419
:100B2000B1F832C06A8381E06817B8F094E0961794
:100B300018F4A7E16A1311C080914A0390914B0306
:100B40009B838C8380914803909149039D838E837E
:100B50000F2EF6E0BF2EF02D03C06894BB24B1F831
:100B6000B0E1BD1540F0EFE0DE1670F48BEF8D0DB7
:100B7000823000F509C0F6E1DF16E0F027E12D151F
:100B800018F48FEFD81216C09091C6028091C70258
:100B9000E1E0F0E0EC0FFD1FEB0DF11D808381E043
:100BA0008B0DE1E0F0E0EC0FFD1FE80FF11DB394B9
:100BB000B394908390E1D91609F4ADC09D1558F017
:100BC000A6E0DA1661F1BFE0DB1609F441C0E5E00A
:100BD000DE121BC10DC0F7E1DF1609F49CC02FEF38
:100BE000D21609F498C086E1D81609F4E0C00DC108
:100BF0009091C4028091C502E1E0F0E0EC0FFD1F8E
:100C0000EB0DF11D808381E08B0DE1E0F0E0EC0F56
:100C1000FD1FE80FF11DB394B3949083F6C0E4E494
:100C2000F2E080819181A1E0B0E0AC0FBD1FAB0D7F
:100C3000B11D9C932081318181E08B0DE1E0F0E0DA
:100C4000EC0FFD1FE80FF11DB394B3942083DDC0BA
:100C50008091C4029091C502E1E0F0E0EC0FFD1F2D
:100C6000EB0DF11D908322E02B0D31E03B0DE1E017
:100C7000F0E0EC0FFD1FE30FF11D8083AC01477026
:100C80005527452B49F09695879596958795969586
:100C9000879591E0980F07C09695879596958795CB
:100CA00096958795982FA3E0BA0EFE01E20FF11DED
:100CB0009183992309F4A9C080E0282F217080FF37
:100CC00003C0213099F023C0E82FE695F0E0EE0F45
:100CD000FF1FEC5BFD4F20813181E1E0F0E0EC0F84
:100CE000FD1FEB0DF11D2083B39411C0E82FE69595
:100CF000F0E0EE0FFF1FEC5BFD4F20813181E1E062
:100D0000F0E0EC0FFD1FEB0DF11D3083B3948F5F0E
:100D10009813D3CF7AC08091C4029091C502E1E0CC
:100D2000F0E0EC0FFD1FEB0DF11D908321E02B0D8A
:100D3000E1E0F0E0EC0FFD1FE20FF11D808322E007
:100D40002B0DE1E0F0E0EC0FFD1FE20FF11DB3E031
:100D5000BB0E282F220F2083AC0155271416150631
:100D60000CF053C080E090E020E0880F991FFC0158
:100D7000EC5BFD4F80819181A1E0B0E0AC0FBD1F25
:100D8000AB0DB11D9C936081718181E08B0DE1E021
:100D9000F0E0EC0FFD1FE80FF11DB394B3946083F6
:100DA0002F5F822F90E084179507FCF22EC0E4E4B9
:100DB000F2E080819181A1E0B0E0AC0FBD1FAB0DEE
:100DC000B11D9C938081918191E09B0DA1E0B0E0E9
:100DD000AC0FBD1FA90FB11D8C938281938182E05E
:100DE0008B0DA1E0B0E0AC0FBD1FA80FB11D9C930F
:100DF0002281338183E08B0DE1E0F0E0EC0FFD1FF9
:100E0000E80FF11D84E0B80E2083BB20B9F08E01FD
:100E10000F5F1F4FEE24EA94EB0CF12C9FEFE91AC1
:100E2000F90AE00EF11E8FEF9FEFD8016D918D0151
:100E30000E9485120E151F05C1F702C08FEF9FEFAC
:100E4000EE24E394EB0CE1E0F0E0EC0FFD1FEB0D82
:100E5000F11D8083B394B394E1E0F0E0EC0FFD1F4B
:100E6000EE0DF11D9083E1E0F0E0EC0FFD1FEB0DC6
:100E7000F11D1082E0913702F09138021995811529
:100E80009140C1F7E0913D02F0913E02309709F0A8
:100E90001995BB20A1F08E010F5F1F4FF12CEFEFD2
:100EA000EE1AFE0AE00EF11EE0913902F0913A02CC
:100EB000D8018D918D011995E016F106A9F7E09101
:100EC0003302F09134021995E0913B02F0913C021B
:100ED000309709F019950E94A6124B015C0108E0B9
:100EE00010E0ED2CF12CE0913502F09136021995CD
:100EF000892B91F0DD24D394D10EE0913702F0914B
:100F000038021995E1E0F0E0EC0FFD1FE10FF11D53
:100F1000808301501D2D07C0E0913F02F0914002F7
:100F2000309709F01995153051F5998180914C034E
:100F300098133CC18A81282F2F7730E02E153F056A
:100F400009F036C1882324F48B818823B1F1BFC016
:100F5000813148F48F3070F4813088F0853060F052
:100F6000873040F00CC0873139F08F3F19F086315F
:100F700029F005C003E003C00B8101C005E00E9419
:100F8000A612DC01CB0188199909AA09BB09813D88
:100F90009740A105B10508F0FBC0FEC0811197C0C4
:100FA000153008F4DFC0012F10E07801F2E0EF1AED
:100FB000F1081E141F0444F0C4C00F2EF3E0EF2EFE
:100FC000F12CF02D05E010E020E030E08FEF9FEFF6
:100FD000D12CE1E0F0E0EC0FFD1FE20FF31F608188
:100FE0000E948512D3942D2D30E02E153F058CF3F1
:100FF000AAC0892F9927FE01E00FF11F208130E060
:101000008217930709F0ACC0ADC08B818695E1F5DE
:101010005EC06B81862F869509F4B2C0FE013196C1
:1010200040E050E090E0903470F4248130E0322FC2
:1010300022277381272BDA01AA0FBB1FA853BD4FAC
:1010400011963C932E939F5F4F5F5F4F329698139C
:10105000EACF9FEF980F9093410260FF35C0803434
:1010600070F4282F30E0220F331FFE01E20FF31F30
:10107000448150E0F901E853FD4F518340838F5F75
:101080008093410280E023C0FE01319640E050E0B1
:1010900090E0903470F4238130E0322F2227648175
:1010A000262BDA01AA0FBB1FA853BD4F11963C9304
:1010B0002E939F5F4F5F5F4F32969813EACF815018
:1010C0008093410280E003C080E001C080E0109284
:1010D00043021092420270C084EE6EC003E00E9490
:1010E000A612DC01CB0188199909AA09BB09813D27
:1010F0009740A105B10508F401CC5BCC8FEF9FEFC1
:10110000FE01EE0DFF1D218130E0AC015527421795
:10111000530709F484CC83EEF1CC83EEEFCC8A81C3
:10112000853038F4833008F086CC813008F088CCE4
:10113000E4CC873109F47FCCE0CC70FDA9CC80E011
:10114000DDCC8FEF9FEFFE01EE0DFF1D218130E022
:10115000AC0155274217530709F44BCF83EEB7CFA5
:1011600083EEB5CF8A81853038F4833008F04DCFD7
:10117000813008F04ECFAACF873109F446CFA6CFF1
:1011800060FD6FCF80E0A3CF0111B8CB80E019CC18
:10119000011110C082EE02CF0111A5CE80E0FECE7B
:1011A00080EEACCC81EEAACC82EEA8CC80EE8FCFC4
:1011B00081EE8DCF82EE8BCFD3950FB6F894DEBF44
:1011C0000FBECDBFDF91CF911F910F91FF90EF9098
:1011D000DF90BF90AF909F908F900895FB01811199
:1011E00086C080818093660441816281738184819D
:1011F00095812681378130935803209357032085AA
:101200003185309356032093550310925A03109260
:10121000590310925C0310925B03413009F5209151
:1012200032022111C8C021E0209332029FD383E40F
:101230009DE090934E0380934D0381E59DE0909354
:10124000500380934F038AE09DE090935203809374
:1012500051038AE29DE090935403809353030895D1
:10126000423009F5209131022111A5C021E02093DF
:1012700031028AD48EE49EE090934E0380934D0316
:101280008CE59EE09093500380934F0388E19EE0AD
:10129000909352038093510385E39EE0909354030F
:1012A000809353030895433009F085C020913002A4
:1012B000211181C021E02093300271D589E59FE0A2
:1012C00090934E0380934D0387E69FE090935003E5
:1012D00080934F0383E29FE09093520380935103E6
:1012E00080E49FE0909354038093530308958130EA
:1012F00009F061C0808180934C03418162817381D8
:10130000848195812681378130933E0220933D026E
:101310002085318530933C0220933B02109240029D
:1013200010923F021092420210924102413009F5A0
:101330002091320221113FC021E02093320216D3C6
:1013400083E49DE0909336028093350281E59DE031
:1013500090933402809333028AE09DE090933802A8
:10136000809337028AE29DE090933A02809339029B
:101370000895423001F52091310221111CC021E075
:101380002093310201D48EE49EE090933602809344
:1013900035028CE59EE0909334028093330288E11D
:1013A0009EE0909338028093370285E39EE090930D
:1013B0003A0280933902089581110BC06034B0F471
:1013C000E62FF0E0EE0FFF1FEE51FC4F8081918180
:1013D0000895813071F4603478F4E62FF0E0EE0F78
:1013E000FF1FE853FD4F8081918108958FEF9FEF9C
:1013F00008958FEF9FEF08958FEF9FEF089581116C
:101400000BC06034B8F4E62FF0E0EE0FFF1FE25A95
:10141000FC4F518340830895813071F4603470F43F
:10142000E62FF0E0EE0FFF1FEC5BFD4F5183408392
:1014300080E0089582E0089582E0089582E00895B2
:1014400081110BC07093650460936404509363042E
:101450004093620463E041C80895813059F4709369
:101460004B0360934A03509349034093480363E05E
:1014700034C8089584EE089581110BC07093E10380
:101480006093E0035093DF034093DE0360E125C8DF
:101490000895813059F47093C7026093C602509347
:1014A000C5024093C40260E118C8089584EE08950F
:1014B000CF93DF93CDB7DEB7A1970FB6F894DEBF19
:1014C0000FBECDBF8FEF8DB960E875E280E090E090
:1014D00049D10E94971291D021E040E052EC61E0A6
:1014E00070E083E00E940B02198280E07E0122E21C
:1014F000E20EF11CDD24D394D80E90E0F2D48D2DB1
:1015000090E094D5CE010196ABD76DD59B838A83AD
:1015100074D59D838C837BD59F838E8382D5998759
:101520008887FDD49B878A8754D59D878C8747D52C
:101530009F878E8730D5998B888B19D59B8B8A8B0B
:1015400034D59D8B8C8B1DD59F8B8E8BD4D4998F4E
:10155000888FEFD49B8F8A8FD8D49D8F8C8FF3D4B4
:101560009F8F8E8FFAD499A388A38E010E5F1F4F91
:10157000812C912C540183E192E07CD1C501B4010E
:101580005ED180E292E076D1F801619171918F0194
:1015900080E090E054D18AE039D1FFEF8F1A9F0AA2
:1015A000AF0ABF0A0E151F0531F72FEF89E698E144
:1015B000215080409040E1F700C000008D2D9ACF6F
:1015C0001F920F920FB60F9211242F938F939F9318
:1015D000809178002091790090E0922B909369049B
:1015E0008093680481E0809367049F918F912F918D
:1015F0000F900FBE0F901F901895509851985198CA
:1016000053982098559854983C9A3F9A3D9A399A05
:10161000399A579A389A3898569A3B9AE4E0F1E00A
:101620008081846080833F9A3F9A3F9AE1E0F1E0B5
:1016300080818E7F8083808182608083E2E0F1E020
:101640008081816080835298539A5A9A08958823A2
:1016500019F0813089F00895613031F4E5E0F1E06E
:10166000808184608083089561110DC0E5E0F1E020
:1016700080818B7F80830895613011F4479A0895AB
:10168000611101C0479808951F920F920FB60F92F3
:1016900011240BB60F922F933F934F935F938F9329
:1016A0009F93EF93FF932091C0003091C600287163
:1016B00080917F0790E001968F77992740917E0770
:1016C00050E08417950739F080937F07FC01EE57AF
:1016D000F84F308301C022E020937D07FF91EF9106
:1016E0009F918F915F914F913F912F910F900BBEE2
:1016F0000F900FBE0F901F9018951F920F920FB66C
:101700000F9211240BB60F928F939F93EF93FF9339
:101710009091810780918007981789F080918007C8
:1017200090E001968F77992780938007FC01EE5F08
:10173000F74F80818093C60010926D0408C0E1ECE1
:10174000F0E080818F7D808381E080936D04FF9144
:10175000EF919F918F910F900BBE0F900FBE0F9046
:101760001F9018950F931F938B019C01F894109272
:1017700081071092800710927F0710927E0778945D
:10178000DC01CB0180589B47A14EBF4F880F991FAA
:10179000AA1FBB1F880F991FAA1FBB1FBC01CD0129
:1017A000660F771F881F991F000F111F221F331FFD
:1017B000000F111F221F331FA9019801220F331F91
:1017C000441F551F220F331F441F551FEFD6BA0168
:1017D000A901415051096109710957FF06C082E012
:1017E0008093C0005F7766277727BB27A72F962FA8
:1017F000852F8093C5004093C40088E98093C10081
:1018000086E08093C2001F910F9108954091810757
:1018100050E04F5F5F4F4F7755272091800730E0B2
:1018200042175307D1F3FA01EE5FF74F80834093DD
:101830008107E1ECF0E080818062808308950F935E
:101840001F93CF93DF936A3071058105910550F0A6
:101850002AE030E040E050E0A9D6062FCA01B901E5
:10186000EEDF602F80E3860FD1DFDF91CF911F91F4
:101870000F910895CF93DF93EC018881882329F09D
:101880002196C4DF89918111FCCFDF91CF9108951A
:101890001F920F920FB60F9211240BB60F922F9337
:1018A0003F934F935F938F939F93EF93FF93209179
:1018B000C8003091CE00287180917A0690E00196A0
:1018C0008F7799274091790650E08417950739F072
:1018D00080937A06FC01E358F94F308301C022E07F
:1018E00020937806FF91EF919F918F915F914F9197
:1018F0003F912F910F900BBE0F900FBE0F901F9036
:1019000018951F920F920FB60F9211240BB60F92DB
:101910008F939F93EF93FF9390917C0680917B062A
:10192000981789F080917B0690E001968F77992730
:1019300080937B06FC01E350F94F80818093CE00B9
:1019400010926C0408C0E9ECF0E080818F7D808308
:1019500081E080936C04FF91EF919F918F910F90A4
:101960000BBE0F900FBE0F901F9018950F931F93F3
:101970008B019C01F89410927C0610927B061092C9
:101980007A06109279067894DC01CB0180589B4747
:10199000A14EBF4F880F991FAA1FBB1F880F991F09
:1019A000AA1FBB1FBC01CD01660F771F881F991F9F
:1019B000000F111F221F331F000F111F221F331F83
:1019C000A9019801220F331F441F551F220F331FF7
:1019D000441F551FEBD5BA01A901415051096109B6
:1019E000710957FF06C082E08093C8005F776627C1
:1019F0007727BB27A72F962F852F8093CD00409365
:101A0000CC0088E98093C90086E08093CA001F91CA
:101A10000F910895F89490917A0680917906981321
:101A200004C0789480E091E008958091790690E078
:101A300001968F779927809379067894FC01E35873
:101A4000F94F20818091780690E0982F8827820FA7
:101A5000911D089540917C0650E04F5F5F4F4F7796
:101A6000552720917B0630E042175307D1F3FA0146
:101A7000E350F94F808340937C06E9ECF0E08081ED
:101A8000806280830895F89480917A062091790687
:101A9000789490E080589F4F821B91098F77992707
:101AA000089580916C048823E1F308951F920F92AA
:101AB0000FB60F9211240BB60F922F933F934F93B3
:101AC0005F938F939F93EF93FF932091D00030917A
:101AD000D60028718091750590E001968F7799273F
:101AE0004091740550E08417950739F0809375058F
:101AF000FC01E858FA4F308301C022E020937305BF
:101B0000FF91EF919F918F915F914F913F912F9115
:101B10000F900BBE0F900FBE0F901F9018951F9245
:101B20000F920FB60F9211240BB60F928F939F93C3
:101B3000EF93FF939091770580917605981789F040
:101B40008091760590E001968F77992780937605AE
:101B5000FC01E850FA4F80818093D60010926B040C
:101B600008C0E1EDF0E080818F7D808381E080938B
:101B70006B04FF91EF919F918F910F900BBE0F908F
:101B80000FBE0F901F9018950F931F938B019C0110
:101B9000F8941092770510927605109275051092C0
:101BA00074057894DC01CB0180589B47A14EBF4F50
:101BB000880F991FAA1FBB1F880F991FAA1FBB1F41
:101BC000BC01CD01660F771F881F991F000F111FE1
:101BD000221F331F000F111F221F331FA90198015D
:101BE000220F331F441F551F220F331F441F551F41
:101BF000DDD4BA01A901415051096109710957FFAA
:101C000006C082E08093D0005F7766277727BB27E6
:101C1000A72F962F852F8093D5004093D40088E975
:101C20008093D10086E08093D2001F910F91089598
:101C300090917505809174059817A1F080917405B5
:101C400090E001968F77992780937405FC01E858FE
:101C5000FA4F20818091730590E0982F8827820F9A
:101C6000911D089580E091E008954091770550E03E
:101C70004F5F5F4F4F7755272091760530E0421731
:101C80005307D1F3FA01E850FA4F80834093770568
:101C9000E1EDF0E08081806280830895F894809186
:101CA000750520917405789490E080589F4F821BB1
:101CB00091098F779927089580916B048823E1F328
:101CC00008951F920F920FB60F9211240BB60F9228
:101CD0002F933F934F935F938F939F93EF93FF9334
:101CE000209130013091360128718091700490E08C
:101CF00001968F77992740916F0450E084179507DC
:101D000039F080937004FC01ED58FB4F308301C023
:101D100022E020936E04FF91EF919F918F915F914C
:101D20004F913F912F910F900BBE0F900FBE0F90D0
:101D30001F9018951F920F920FB60F9211240BB699
:101D40000F928F939F93EF93FF93909172048091E2
:101D50007104981789F08091710490E001968F7753
:101D6000992780937104FC01ED50FB4F8081809393
:101D7000360110926A0408C0E1E3F1E080818F7DB2
:101D8000808381E080936A04FF91EF919F918F910E
:101D90000F900BBE0F900FBE0F901F9018950F93D2
:101DA0001F938B019C01F89410927204109271049D
:101DB0001092700410926F047894DC01CB0180586B
:101DC0009B47A14EBF4F880F991FAA1FBB1F880FAB
:101DD000991FAA1FBB1FBC01CD01660F771F881F6B
:101DE000991F000F111F221F331F000F111F221FE9
:101DF000331FA9019801220F331F441F551F220FC3
:101E0000331F441F551FD2D3BA01A90141505109B4
:101E10006109710957FF06C082E0809330015F7746
:101E200066277727BB27A72F962F852F809335010D
:101E30004093340188E98093310186E08093320138
:101E40001F910F9108959091700480916F049817DD
:101E5000A1F080916F0490E001968F77992780938D
:101E60006F04FC01ED58FB4F208180916E0490E0DF
:101E7000982F8827820F911D089580E091E00895A2
:101E80004091720450E04F5F5F4F4F77552720918C
:101E9000710430E042175307D1F3FA01ED50FB4FC4
:101EA000808340937204E1E3F1E08081806280836B
:101EB0000895F8948091700420916F04789490E0D4
:101EC00080589F4F821B91098F77992708958091A1
:101ED0006A048823E1F30895809182089091830831
:101EE00008959093830880938208089590938F08B3
:101EF00080938E08089580918E0890918F080895A0
:101F000090938D0880938C08089580918C0890910F
:101F10008D08089590938B0880938A080895809186
:101F20008A0890918B080895909389088093880877
:101F30000895809188089091890808959093870862
:101F40008093860808958091860890918708089567
:101F500090938508809384080895809184089091D7
:101F60008508089590939708809396080895809126
:101F700096089091970808959093950880939408F7
:101F800008958091940890919508089590939308EE
:101F900080939208089580919208909193080895F3
:101FA0009093910880939008089580919008909163
:101FB000910808959093A5088093A40808958091AE
:101FC000A4089091A50808959093A3088093A2086F
:101FD00008958091A2089091A30808959093A10874
:101FE0008093A00808958091A0089091A108089579
:101FF00090939F0880939E08089580919E089091E9
:102000009F08089590939D0880939C08089580915F
:102010009C0890919D08089590939B0880939A083E
:10202000089580919A0890919B080895909399083B
:102030008093980808958091980890919908089540
:10204000279A2F9A2FEF87EA91E6215080409040FF
:10205000E1F700C000001F9AF5CFCF93DF939C01FA
:10206000FB01DC011196CD91DC911297D383C283E1
:102070008C819D81958384838C819D81DC01139665
:102080007C936E9312977D836C8331872087F9014F
:1020900080818F5F8083DF91CF910895CF93DF930D
:1020A000FC01A085B185C281D381848195819D8306
:1020B0008C83C481D581828193819B838A8311968D
:1020C0008D919C911297E817F90731F484819581DD
:1020D00012969C938E931197118610868C91815045
:1020E0008C938C91DF91CF9108950F920FB6F89455
:1020F0000F920BB60F920CB60F921F9211242F92D3
:102100003F924F925F926F927F928F929F92AF9287
:10211000BF92CF92DF92EF92FF920F931F932F9374
:102120003F934F935F936F937F938F939F93AF935F
:10213000BF93CF93DF93EF93FF93A091D708B09114
:10214000D8080DB60D920EB60D9213BE52D0811165
:1021500007D1A091D708B091D808CD91CDBFDD911E
:10216000DEBFFF91EF91DF91CF91BF91AF919F9132
:102170008F917F916F915F914F913F912F911F911F
:102180000F91FF90EF90DF90CF90BF90AF909F9016
:102190008F907F906F905F904F903F902F901F9007
:1021A0000F900CBE0F900BBE0F900FBE0F900895B6
:1021B0009CDF1895E091B108F091B20880818111FF
:1021C00007C08FEF9FEF9093A8088093A70808950A
:1021D000E091B108F091B2080580F681E02D06800B
:1021E000F781E02D828193819093A8088093A708BE
:1021F0000895CF92DF92EF92FF920F931F93CF93A8
:10220000DF938091A608811195C0E090AD08F09011
:10221000AE088FEFE81AF80AF092AE08E092AD0827
:10222000E114F104B1F48091B1089091B2082091C9
:10223000AF083091B0083093B2082093B108909362
:10224000B0088093AF088091A9088F5F8093A90898
:10225000B1DF8091A7089091A808E816F90610F45C
:10226000D12C50C0D12CCC24C394E091B108F09172
:10227000B2088081811107C08FEF9FEF9093A8086B
:102280008093A7083FC0E091B108F091B2080580A3
:10229000F681E02DC681D7818A819B81E816F906F7
:1022A00028F49093A8088093A7082CC08E010E5F95
:1022B0001F4FC801F3DE8C899D89892B19F0CE014F
:1022C0000C96ECDE8E899091AC08981710F48093F0
:1022D000AC0890E09C01220F331F220F331F220F06
:1022E000331F820F931FB8018D54974FB6DEE091D4
:1022F000D708F091D8089E898689981708F4B5CF39
:10230000DC2CB3CFE091D708F091D808868990E013
:10231000FC01EE0FFF1FEE0FFF1FEE0FFF1F8E0FD2
:102320009F1FFC01ED54F74F8081823048F0DD247F
:10233000D39406C08091AB088F5F8093AB08D12CFB
:102340008091AA08882311F0DD24D3948D2DDF918C
:10235000CF911F910F91FF90EF90DF90CF90089554
:102360008091A608882321F081E08093AA0808952F
:102370001092AA08A091D708B091D808E091D70888
:10238000F091D8082D913C918789908D8217930701
:1023900058F06091D7087091D8088091D708909133
:1023A000D808675E7F4F4CDE2091AC08822F90E00A
:1023B000FC01EE0FFF1FEE0FFF1FEE0FFF1FE80FD8
:1023C000F91FED54F74F3081311111C02150822F88
:1023D00090E0FC01EE0FFF1FEE0FFF1FEE0FFF1F3F
:1023E000E80FF91FED54F74F3081332379F3AC0137
:1023F000440F551F440F551F440F551F480F591FB9
:10240000DA01AD54B74F1196ED91FC91129702800D
:10241000F381E02D1296FC93EE9311974A54574F97
:10242000E417F50729F442815381FD01528341836A
:10243000FC01EE0FFF1FEE0FFF1FEE0FFF1F8E0FB1
:102440009F1FFC01ED54F74F0180F281E02D868142
:1024500097819093D8088093D7082093AC0808956B
:10246000CF93DF9341E169E079E081E090E00E9461
:102470001F02C9E0D9E08A859B85A6DD88859985FC
:1024800099DD8C859D85AADD8E859F85B1DD8A8944
:102490009B89C2DD88899989B5DD8881998162DD52
:1024A0008C819D8173DD8E819F817ADD8C899D89F0
:1024B0001DDD8E899F892EDD888D998D35DD8C8D72
:1024C0009D8D3CDD8E8D9F8D43DD8A8D9B8D18DD2E
:1024D0008A819B8151DD00DDC5E0D9E09983888345
:1024E000AADD9B838A8342E0BE0180E09FE00E94D8
:1024F0004A022FEF87EA91E6215080409040E1F7B1
:1025000000C00000DF91CF910895862728E030E0D9
:1025100080FF07C09695879541E0842740EA94277D
:1025200002C0969587952150310991F7089582E070
:102530008093B00084E08093B1008AEF8093B30071
:10254000E0E7F0E08081826080830895F8946091F4
:10255000290970912A0980912B0990912C0978946E
:1025600008951F920F920FB60F9211248F939F938D
:10257000AF93BF938091290990912A09A0912B09CB
:10258000B0912C090196A11DB11D8093290990934A
:102590002A09A0932B09B0932C09BF91AF919F9169
:1025A0008F910F900FBE0F901F901895A1E21A2ED9
:1025B000AA1BBB1BFD010DC0AA1FBB1FEE1FFF1FE7
:1025C000A217B307E407F50720F0A21BB30BE40B37
:1025D000F50B661F771F881F991F1A9469F760957E
:1025E0007095809590959B01AC01BD01CF01089538
:0425F000F894FFCF8D
:1025F400524553504F4E43455F54494D45445F4FF8
:1026040055540044454255475F61727261795B00DD
:062614005D203D200000E6
:00000001FF
