S0100000626C616E636865722E73726563D5
S11300009AC00000B8C00000B6C00000B4C0000030
S1130010B2C00000B0C00000AEC00000ACC0000020
S1130020AAC00000A8C00000A6C00000A4C0000030
S11300300C94B50A0C9493179EC000009CC0000059
S11300409AC0000099C0000096C0000094C000004F
S113005092C0000090C000008EC000008CC0000060
S11300608AC000002AC4000061C4000084C00000EB
S113007082C00000BEC300007EC000007CC000003F
S1130080E1C0000078C0000076C0000074C0000029
S11300901AC5000051C500006EC000006CC000000D
S11300A06AC0000068C0000033C1000064C00000E2
S11300B062C0000060C000005EC000008FC100008C
S11300C05AC0000058C0000056C000000BC6000013
S11300D042C6000050C0000011C7000048C700001D
S11300E04AC00000C1E4D8E007E518E08091400868
S11300F08823D1F00FB6F8940F92ED81FE818681AA
S1130100978102960E941B0980913F088150809339
S11301103F08809140088150809340080F900FBEA3
S1130120809140088111E6CFF80180818230F0F29D
S11301300E94F009DBCF11241FBECFEFD1E2DEBF56
S1130140CDBF00E00CBF12E0A0E0B2E0E8EDFFE2BA
S113015000E00BBF02C007900D92AA37B107D9F790
S11301602BE0AAE7B2E001C01D92AD31B207E1F77E
S1130170F0D20C94EA1744CF1F920F920FB60F924D
S113018011240BB60F92CF92DF92EF92FF920F934E
S11301901F932F933F934F935F936F937F938F930B
S11301A09F93AF93BF93EF93FF930E9488178B01A4
S11301B09C01609310097093110980931209909324
S11301C013094091F0085091F1086091F208709180
S11301D0F30868017901C41AD50AE60AF70AC701C7
S11301E0B601C092F808D092F908E092FA08F092A9
S11301F0FB080093F0081093F1082093F208309361
S1130200F308E0910A09F0910B090280F381E02DD3
S11302101995FF91EF91BF91AF919F918F917F912C
S11302206F915F914F913F912F911F910F91FF908B
S1130230EF90DF90CF900F900BBE0F900FBE0F90FA
S11302401F9018951F920F920FB60F9211240BB6A0
S11302500F92CF92DF92EF92FF920F931F932F93FF
S11302603F934F935F936F937F938F939F93AF933A
S1130270BF93EF93FF930E9488178B019C016093B7
S1130280060970930709809308099093090940911E
S1130290EA085091EB086091EC087091ED08680150
S11302A07901C41AD50AE60AF70AC701B601C09251
S11302B0F808D092F908E092FA08F092FB0800934B
S11302C0EA081093EB082093EC083093ED08E091D2
S11302D0EE08F091EF080280F381E02D1995FF916B
S11302E0EF91BF91AF919F918F917F916F915F91AA
S11302F04F913F912F911F910F91FF90EF90DF90BD
S1130300CF900F900BBE0F900FBE0F901F901895BB
S11303101F920F920FB60F9211240BB60F92CF9229
S1130320DF92EF92FF920F931F932F933F934F937C
S11303305F936F937F938F939F93AF93BF93EF9349
S1130340FF930E9488178B019C016093FC087093B3
S1130350FD088093FE089093FF0840910C0950918A
S11303600D0960910E0970910F0968017901C41A91
S1130370D50AE60AF70AC701B601C092F808D09276
S1130380F908E092FA08F092FB0800930C09109324
S11303900D0920930E0930930F09E0910009F091A3
S11303A001090280F381E02D1995FF91EF91BF912E
S11303B0AF919F918F917F916F915F914F913F91F9
S11303C02F911F910F91FF90EF90DF90CF900F909E
S11303D00BBE0F900FBE0F901F9018951F920F9297
S11303E00FB60F9211240BB60F922F933F934F9396
S11303F05F936F937F938F939F93AF93BF93EF9389
S1130400FF9381E61DD3109224016091F808709146
S1130410F9088091FA089091FB08E0911409F09191
S113042015090280F381E02D1995FF91EF91BF9199
S1130430AF919F918F917F916F915F914F913F9178
S11304402F910F900BBE0F900FBE0F901F90189519
S113045061E080E015C2089560E080E011C2089573
S1130460EAE7F2E0208381834283538364837583C4
S113047088E292E0978386838CE292E0918780877A
S1130480BF0180E001C00895FB01811186C0808115
S11304908093A80241816281738184819581268140
S11304A037813093A3022093A202208531853093B3
S11304B0A1022093A0021092A5021092A40210920D
S11304C0A7021092A602413009F52091860221115B
S11304D0C8C021E02093860264D38FE596E0909310
S11304E09902809398028DE696E090939B02809304
S11304F09A0286E296E090939D0280939C0286E4A1
S113050096E090939F0280939E020895423009F5ED
S1130510209185022111A5C021E02093850250D4A9
S11305208BE697E0909399028093980289E797E08D
S113053090939B0280939A0285E397E090939D02A7
S113054080939C0282E597E090939F0280939E02A1
S11305500895433009F085C020918402211181C09F
S113056021E02093840238D587E798E0909399029C
S11305708093980285E898E090939B0280939A0276
S113058081E498E090939D0280939C028EE598E02C
S113059090939F0280939E020895813009F061C078
S11305A080818093970241816281738184819581E6
S11305B026813781309392022093910220853185E0
S11305C03093900220938F0210929402109293021F
S11305D01092960210929502413009F520918602FC
S11305E021113FC021E020938602DBD28FE596E003
S11305F090938A02809389028DE696E09093880214
S11306008093870286E296E090938C0280938B021B
S113061086E496E090938E0280938D020895423092
S113062001F52091850221111CC021E0209385024F
S1130630C7D38BE697E090938A028093890289E777
S113064097E0909388028093870285E397E09093E4
S11306508C0280938B0282E597E090938E028093C4
S11306608D020895CF93DF9300D01F92CDB7DEB7EC
S11306707E0185E0E80EF11C80E092E016D226E0CF
S113068030E044E050E0BE016F5F7F4F80913E094F
S113069090913F090E940E0F892B21F486E192E08C
S11306A004D2EACF8FE192E000D28E010F5F1F4F98
S11306B0F80161918F0170E080E090E0DAD18CE282
S11306C0BFD10E151F05A1F78AE0BAD1D5CFCF93BC
S11306D0DF9300D01F92CDB7DEB785E0898386E033
S11306E08A8389E08B8381E08C837E0185E0E80E38
S11306F0F11C8E010F5F1F4FF80180818F5F819382
S1130700EE15FF05D1F785E392E0CFD1F8016191B1
S11307108F0170E080E090E0ACD18CE291D10E15B5
S11307201F05A1F78AE08CD120E030E044E050E0DE
S1130730BE016F5F7F4F80913E0990913F090E94F7
S1130740760E88E492E0B1D18AEF90E00E948F1295
S1130750D0CF8FEF8DB960E875E280E090E01BD1D7
S11307600E94791763D021E040E052EC61E070E030
S113077083E076DE0F2EF6E1CF2EF9E0DF2EF02DAA
S11307800F2EF3E7EF2EF9E0FF2EF02D02E020E02C
S113079030E048EC50E060E672E087E693E00E94C7
S11307A008100F2EF0E4CF2EF9E0DF2EF02D0F2EDF
S11307B0FAE4EF2EFAE0FF2EF02D20E030E048ECD2
S11307C050E066E672E082E393E00E9408100BE3D7
S11307D01AE029EA32E041E060E070E084E690E06B
S11307E00E94350E90933F0980933E090E94FF10AA
S11307F0FFCF1F920F920FB60F9211242F938F9356
S11308009F93809178002091790090E0922B9093AF
S11308100F0380930E0381E080930D039F918F91CA
S11308202F910F900FBE0F901F90189550985198CC
S1130830519853982098559854983C9A3F9A3D9AC9
S1130840399A399A579A389A3898569A3B9AE4E0E2
S1130850F1E08081846080833F9A3F9A3F9AE1E08F
S1130860F1E080818E7F8083808182608083E2E0FA
S1130870F1E08081816080835298539A5A9A089556
S1130880882319F0813089F00895613031F4E5E06E
S1130890F1E0808184608083089561110DC0E5E0FA
S11308A0F1E080818B7F80830895613011F4479A51
S11308B00895611101C0479808951F920F920FB6D1
S11308C00F9211240BB60F922F933F934F935F9384
S11308D08F939F93EF93FF932091C0003091C600B4
S11308E028718091250690E001968F779927409191
S11308F0240650E08417950739F080932506FC01FF
S1130900E85DF94F308301C022E020932306FF9174
S1130910EF919F918F915F914F913F912F910F9004
S11309200BBE0F900FBE0F901F9018951F920F9241
S11309300FB60F9211240BB60F928F939F93EF93E0
S1130940FF939091270680912606981789F080914D
S1130950260690E001968F77992780932606FC015E
S1130960E855F94F80818093C6001092130308C0A4
S1130970E1ECF0E080818F7D808381E0809313033C
S1130980FF91EF919F918F910F900BBE0F900FBE2F
S11309900F901F9018950F931F938B019C01F8944F
S11309A0109227061092260610922506109224060D
S11309B07894DC01CB0180589B47A14EBF4F880F30
S11309C0991FAA1FBB1F880F991FAA1FBB1FBC0119
S11309D0CD01660F771F881F991F000F111F221F5B
S11309E0331F000F111F221F331FA9019801220F6B
S11309F0331F441F551F220F331F441F551F0E94CE
S1130A00B817BA01A901415051096109710957FF89
S1130A1006C082E08093C0005F7766277727BB27F4
S1130A20A72F962F852F8093C5004093C40088E993
S1130A308093C10086E08093C2001F910F910895B6
S1130A404091270650E04F5F5F4F4F775527209125
S1130A50260630E042175307D1F3FA01E855F94F5F
S1130A60808340932706E1ECF0E0808180628083FC
S1130A7008950F931F93CF93DF936A307105810517
S1130A80910558F02AE030E040E050E00E94B817A9
S1130A90062FCA01B901EDDF602F80E3860FD0DF96
S1130AA0DF91CF911F910F910895CF93DF93EC01C4
S1130AB08881882329F02196C3DF89918111FCCF95
S1130AC0DF91CF9108951F920F920FB60F921124C8
S1130AD00BB60F922F933F934F935F938F939F93F4
S1130AE0EF93FF932091C8003091CE00287180913C
S1130AF0200590E001968F77992740911F0550E0DB
S1130B008417950739F080932005FC01ED5DFA4FB9
S1130B10308301C022E020931E05FF91EF919F9145
S1130B208F915F914F913F912F910F900BBE0F903A
S1130B300FBE0F901F9018951F920F920FB60F9231
S1130B4011240BB60F928F939F93EF93FF93909181
S1130B50220580912105981789F08091210590E064
S1130B6001968F77992780932105FC01ED55FA4F63
S1130B7080818093CE001092120308C0E9ECF0E06B
S1130B8080818F7D808381E080931203FF91EF91B8
S1130B909F918F910F900BBE0F900FBE0F901F90DF
S1130BA018950F931F938B019C01F89410922205C2
S1130BB0109221051092200510921F057894DC01F3
S1130BC0CB0180589B47A14EBF4F880F991FAA1F86
S1130BD0BB1F880F991FAA1FBB1FBC01CD01660F45
S1130BE0771F881F991F000F111F221F331F000F2B
S1130BF0111F221F331FA9019801220F331F441F05
S1130C00551F220F331F441F551F0E94B817BA01E6
S1130C10A901415051096109710957FF06C082E0D9
S1130C208093C8005F7766277727BB27A72F962F67
S1130C30852F8093CD004093CC0088E98093C90030
S1130C4086E08093CA001F910F910895F8949091C3
S1130C50200580911F05981304C0789480E091E0EA
S1130C60089580911F0590E001968F7799278093CE
S1130C701F057894FC01ED5DFA4F208180911E05DB
S1130C8090E0982F8827820F911D089540912205A6
S1130C9050E04F5F5F4F4F7755272091210530E09B
S1130CA042175307D1F3FA01ED55FA4F808340936D
S1130CB02205E9ECF0E08081806280830895F89455
S1130CC08091200520911F05789490E080589F4FD3
S1130CD0821B91098F7799270895809112038823A5
S1130CE0E1F308951F920F920FB60F9211240BB6E1
S1130CF00F922F933F934F935F938F939F93EF9311
S1130D00FF932091D0003091D600287180911B046C
S1130D1090E001968F77992740911A0450E0841748
S1130D20950739F080931B04FC01E25EFB4F30838E
S1130D3001C022E020931904FF91EF919F918F91BC
S1130D405F914F913F912F910F900BBE0F900FBE6B
S1130D500F901F9018951F920F920FB60F921124A7
S1130D600BB60F928F939F93EF93FF9390911D0473
S1130D7080911C04981789F080911C0490E00196DE
S1130D808F77992780931C04FC01E256FB4F8081E6
S1130D908093D6001092110308C0E1EDF0E0808149
S1130DA08F7D808381E080931103FF91EF919F9168
S1130DB08F910F900BBE0F900FBE0F901F90189540
S1130DC00F931F938B019C01F89410921D041092B1
S1130DD01C0410921B0410921A047894DC01CB01B9
S1130DE080589B47A14EBF4F880F991FAA1FBB1F56
S1130DF0880F991FAA1FBB1FBC01CD01660F771F67
S1130E00881F991F000F111F221F331F000F111F6E
S1130E10221F331FA9019801220F331F441F551F9E
S1130E20220F331F441F551F0E94B817BA01A9018E
S1130E30415051096109710957FF06C082E080934E
S1130E40D0005F7766277727BB27A72F962F852F9C
S1130E508093D5004093D40088E98093D10086E044
S1130E608093D2001F910F91089590911B0480915B
S1130E701A049817A1F080911A0490E001968F77D4
S1130E80992780931A04FC01E25EFB4F2081809134
S1130E90190490E0982F8827820F911D089580E00F
S1130EA091E0089540911D0450E04F5F5F4F4F77EC
S1130EB0552720911C0430E042175307D1F3FA015F
S1130EC0E256FB4F808340931D04E1EDF0E0808106
S1130ED0806280830895F89480911B0420911A0401
S1130EE0789490E080589F4F821B91098F779927BF
S1130EF00895809111038823E1F308951F920F92BE
S1130F000FB60F9211240BB60F922F933F934F936A
S1130F105F938F939F93EF93FF93209130013091D0
S1130F20360128718091160390E001968F779927F6
S1130F304091150350E08417950739F08093160308
S1130F40FC01E75EFC4F308301C022E020931403D0
S1130F50FF91EF919F918F915F914F913F912F91CD
S1130F600F900BBE0F900FBE0F901F9018951F92FD
S1130F700F920FB60F9211240BB60F928F939F937B
S1130F80EF93FF939091180380911703981789F0BA
S1130F908091170390E001968F7799278093170328
S1130FA0FC01E756FC4F80818093360110921003B8
S1130FB008C0E1E3F1E080818F7D808381E080934C
S1130FC01003FF91EF919F918F910F900BBE0F90A3
S1130FD00FBE0F901F9018950F931F938B019C01C8
S1130FE0F89410921803109217031092160310929B
S1130FF015037894DC01CB0180589B47A14EBF4F69
S1131000880F991FAA1FBB1F880F991FAA1FBB1FF8
S1131010BC01CD01660F771F881F991F000F111F98
S1131020221F331F000F111F221F331FA901980114
S1131030220F331F441F551F220F331F441F551FF8
S11310400E94B817BA01A9014150510961097109F7
S113105057FF06C082E0809330015F7766277727C9
S1131060BB27A72F962F852F8093350140933401FA
S113107088E98093310186E0809332011F910F91BA
S1131080089590911603809115039817A1F080910B
S1131090150390E001968F77992780931503FC013F
S11310A0E75EFC4F20818091140390E0982F8827FD
S11310B0820F911D089580E091E0089540911803F6
S11310C050E04F5F5F4F4F7755272091170330E073
S11310D042175307D1F3FA01E756FC4F808340933C
S11310E01803E1E3F1E08081806280830895F8943D
S11310F08091160320911503789490E080589F4FB7
S1131100821B91098F779927089580911003882372
S1131110E1F30895279A2F9A2FEF87EA91E6215059
S113112080409040E1F700C000001F9AF5CF2AEFFD
S113113037E0FC013183208385EA97E0FB0191834A
S1131140808385E590E0FA019183808308952DE7FB
S113115037E0FC013183208388E297E0FB0191832F
S1131160808385E590E0FA01918380830895FC01F2
S11311700396928381832FEF3FEF348323839683F7
S113118085839087878310820895FC0111861086D9
S11311900895CF93DF939C01FB01DC011196CD915F
S11311A0DC911297D383C2838C819D819583848340
S11311B08C819D81DC0113967C936E9312977D83C1
S11311C06C8331872087F90180818F5F8083DF9171
S11311D0CF910895CF93DF93EB01488159814F3F1D
S11311E02FEF520721F4FC01A781B0850DC0DC016B
S11311F0139601C0DF011296ED91FC9113972081A3
S1131200318142175307B0F71296ED91FC91139771
S1131210FB83EA83D583C483BD83AC831396DC93B9
S1131220CE93129799878887FC0120812F5F2083B2
S1131230DF91CF910895CF93DF93FC01A085B18511
S1131240C281D381848195819D838C83C481D5811E
S1131250828193819B838A8311968D919C911297AD
S1131260E817F90731F48481958112969C938E9343
S11312701197118610868C9181508C938C91DF91FB
S1131280CF91089531E1FC013083319722E220832C
S11312903197A3E3A08331976083319770833197AB
S11312A0108231971082319760E860833197108201
S11312B03197108231971082319762E060833197C1
S11312C063E06083319764E06083319765E0608315
S11312D0319766E06083319767E06083319768E017
S11312E06083319769E06083319760E1608331976F
S11312F03083319732E13083319733E13083319752
S113130034E13083319735E13083319736E13083EE
S1131310319737E13083319738E13083319739E1C0
S11313203083319730E23083319731E23083319723
S11313302083319723E22083319740833197508370
S1131340319726E22083319727E22083319728E2E0
S11313502083319729E22083319720E3208331973A
S113136021E3208389970895A89590EC88E10FB62E
S1131370F894A895809360000FBE90936000A091AC
S11313807B08B0917C08CD91CDBFDD91DEBFFF918C
S1131390EF91DF91CF91BF91AF919F918F917F9109
S11313A06F915F914F913F912F911F910F91FF90FA
S11313B0EF90DF90CF90BF90AF909F908F907F90F1
S11313C06F905F904F903F902F901F900F900CBEA6
S11313D00F900BBE0F900FBE0F90089581E00895FB
S11313E00F920FB6F8940F920BB60F920CB60F92A1
S11313F01F9211242F923F924F925F926F927F928D
S11314008F929F92AF92BF92CF92DF92EF92FF9210
S11314100F931F932F933F934F935F936F937F93F8
S11314208F939F93AF93BF93CF93DF93EF93FF93E8
S1131430A0917B08B0917C080DB60D920EB60D926A
S11314400E94A012A0917B08B0917C08CD91CDBFE1
S1131450DD91DEBFFF91EF91DF91CF91BF91AF910D
S11314609F918F917F916F915F914F913F912F91B8
S11314701F910F91FF90EF90DF90CF90BF90AF90AE
S11314809F908F907F906F905F904F903F902F90A0
S11314901F900F900CBE0F900BBE0F900FBE0F90BD
S11314A008950F920FB6F8940F920BB60F920CB6E4
S11314B00F921F9211242F923F924F925F926F923C
S11314C07F928F929F92AF92BF92CF92DF92EF92D0
S11314D0FF920F931F932F933F934F935F936F93B9
S11314E07F938F939F93AF93BF93CF93DF93EF93A8
S11314F0FF93A0917B08B0917C080DB60D920EB6B7
S11315000D9213BED5D681110E94A012A0917B0822
S1131510B0917C08CD91CDBFDD91DEBFFF91EF91FD
S1131520DF91CF91BF91AF919F918F917F916F91F7
S11315305F914F913F912F911F910F91FF90EF90E9
S1131540DF90CF90BF90AF909F908F907F906F90DF
S11315505F904F903F902F901F900F900CBE0F9074
S11315600BBE0F900FBE0F9008959BDF18950FB61A
S1131570F8940F92FC01928D0F900FBE81E09111AF
S113158080E008950F931F93CF93DF93EC01042F12
S11315901A8D4C8D41110CC088819981892B09F0D9
S11315A042C08C819D810E94EF131D821C8242C027
S11315B0011117C050E08A819B810E94DA172C8D9B
S11315C08A819B81820F911D9B838A832C813D811B
S11315D08217930750F1888199819B838A8380E0E5
S11315E029C050E08E819F810E94DA178C8D90E093
S11315F09195819591092E813F81280F391F3F8351
S11316002E83488159812417350730F42C813D817C
S1131610820F931F9F838E83023049F4112349F074
S1131620115080E007C080E005C080E003C080E086
S113163001C080E01F5F1A8FDF91CF911F910F913E
S11316400895FC01448D4423A9F050E0268137819C
S1131650240F351F37832683848195812817390702
S113166020F08081918197838683CB016681778185
S11316700C94DA170895EF92FF920F931F93CF9370
S11316808C010FB6F8940F92FC01C68D1C16A4F4BD
S11316908189811106C010C0F8018189811105C0BA
S11316A00BC07801F1E1EF0EF11CC701F3D78111F2
S11316B00E94D813C15081F78FEFF801868F0F90E5
S11316C00FBE0FB6F8940F92C58D1C16A4F4808536
S11316D0811106C010C0F8018085811105C00BC0BE
S11316E07801F8E0EF0EF11CC701D4D781110E94F4
S11316F0D813C15081F78FEFF801858F0F900FBE7B
S1131700CF911F910F91FF90EF900895CF93DF93A6
S1131710EC010FB6F8940F92E881F9818B8D2C8D32
S113172090E030E0829FA001839F500D929F500D66
S113173011244E0F5F1F5D834C831A8EFB83EA8353
S11317400197829FA001839F500D929F500D1124F9
S1131750CF01840F951F9F838E838FEF8D8F8E8F84
S113176061110AC08885882369F0CE01089692D752
S1131770882341F035DE06C0CE010896F8DCCE01A0
S11317804196F5DC0F900FBE81E0DF91CF91089573
S1131790CF93DF93E901209761F0611103C039838E
S11317A0288302C0598348838B8F6C8F61E0CE01FC
S11317B0ADDFCE01DF91CF9108959F92AF92BF929A
S11317C0CF92DF92EF92FF920F931F93CF93DF9309
S11317D000D01F921F92CDB7DEB78C016B015D83E1
S11317E04C83A22EB12C992493947C0188E0E80EBA
S11317F0F11C0FB6F8940F92F801928D838D98170F
S113180018F0F2E0AF1215C04A2DB601C801BADED5
S1131810F8019189992339F0C80141963BD788236F
S113182021F0DEDD02C08111DBDD0F900FBE81E00F
S113183045C08C819D81892B21F40F900FBE80E0DF
S11318403DC0B11004C0CE0101967CD7B92C0F90D5
S11318500FBE1ED50FB6F8940F92F801858D8F3FF9
S113186009F4158EF801868D8F3F09F4168E0F90BA
S11318700FBEBE016C5F7F4FCE0101966ED7811102
S113188019C00FB6F8940F92F801928D838D0F90C2
S11318900FBE98130BC06C817D81C701D2D6C801DD
S11318A0EADEC0D58111A5CF9BDDA3CFC801E3DE5D
S11318B0B9D59FCFC801DFDEB5D580E00F900F907A
S11318C00F900F900F90DF91CF911F910F91FF9088
S11318D0EF90DF90CF90BF90AF909F900895EF92DC
S11318E0FF920F931F93CF93DF938A01FC01528DD4
S11318F0338D531710F02230E1F4422F7801EC01BC
S11319001E8D40DE1F3F79F489898823A1F0CE0122
S11319104196C0D6882389F0E114F10481F081E076
S1131920F70180830DC0FF24F394F10EFE8E81E055
S113193007C080E005C081E003C081E001C081E010
S1131940DF91CF911F910F91FF90EF9008959F9297
S1131950AF92BF92CF92DF92EF92FF920F931F93B9
S1131960CF93DF9300D01F921F92CDB7DEB78C01C7
S11319705B015D834C83E12C992493946C0181E198
S1131980C80ED11C0FB6F8940F92F801F28CFF2008
S113199091F0B501C80155DEFA94F801F28E808504
S11319A0882329F0C801089675D6811119DD0F9096
S11319B00FBE81E044C08C819D81892B21F40F905E
S11319C00FBE80E03CC0E11004C0CE010196BAD63F
S11319D0E92C0F900FBE5CD40FB6F8940F92F80167
S11319E0858D8F3F09F4158EF801868D8F3F09F49C
S11319F0168E0F900FBEBE016C5F7F4FCE01019615
S1131A00ACD6811113C0C801B2DD882359F06C81B2
S1131A107D81C60116D6C8012EDE04D58111B2CF50
S1131A20DFDCB0CFC80127DEFDD4ACCFC80123DE94
S1131A30F9D4C8019CDD882309F4A4CF80E00F9079
S1131A400F900F900F900F90DF91CF911F910F91F6
S1131A50FF90EF90DF90CF90BF90AF909F9008954C
S1131A60CF93DF93EC010FB6F8940F928D8D8F3FD7
S1131A7009F41D8E8E8D8F3F09F41E8E0F900FBEBC
S1131A808A8D811103C0CE014196ECD5CE01F3DDE0
S1131A90DF91CF910895FC014481558122813381E6
S1131AA0240F351F80819181B901681B790BCB010B
S1131AB06417750710F0841B950B0895AF92BF92BD
S1131AC0CF92DF92EF92FF920F931F93CF93DF9306
S1131AD06C015B017A01FC01C281D381048115810F
S1131AE00C1B1D0B4017510708F48A01F60184856D
S1131AF09585A801B5018C0F9D1F0E94DA170E155C
S1131B001F0558F4A701401B510BB501600F711F4D
S1131B10F601848595850E94DA17CE018E0D9F1DEE
S1131B20F601248135818217930710F0821B930BF1
S1131B30F60193838283C701DF91CF911F910F91A7
S1131B40FF90EF90DF90CF90BF90AF900895CF9229
S1131B50DF92EF92FF920F931F93CF93DF931F9225
S1131B601F92CDB7DEB75A83498321153105C9F0D9
S1131B706B017C01FC01868580FD08C0CA01241725
S1131B80350708F4C9019A83898311C020173107E6
S1131B9058F042E050E0BE016F5F7F4FC7018EDF17
S1131BA006C080E090E008C080E090E005C0498174
S1131BB05A81B601C70182DF0F900F90DF91CF9158
S1131BC01F910F91FF90EF90DF90CF900895AF9207
S1131BD0BF92CF92DF92EF92FF920F931F93CF9316
S1131BE0DF937C015B01E9014217530708F4EA0122
S1131BF0209779F1F70100811181C480D580C01A42
S1131C00D10ACC15DD0508F46E01F70164857585EC
S1131C10600F711FA601C5010E94DA17CC16DD06FC
S1131C2058F4AE014C195D09F70164857585C50149
S1131C308C0D9D1D0E94DA170C0F1D1FF701848166
S1131C4095810817190710F0081B190BF701118368
S1131C500083CE01DF91CF911F910F91FF90EF9000
S1131C60DF90CF90BF90AF9008950F931F93CF93C1
S1131C70DF93DC01F8016115710511F461E070E096
S1131C80411102C092E001C093E02115310591F0A9
S1131C90309799F08FE0EF0119928A95E9F735872B
S1131CA02487B583A48377836683926096878E2F77
S1131CB09F2F05C080E090E002C08E2F9F2FDF9100
S1131CC0CF911F910F910895FC012481358180816A
S1131CD0918142815381820F931F0197841B950B3D
S1131CE08217930710F0821B930B08954F925F9213
S1131CF06F927F928F929F92AF92BF92CF92DF9218
S1131D00EF92FF920F931F93CF93DF9300D01F9214
S1131D101F92CDB7DEB76C012B013A013D832C83B2
S1131D20FC01868580FF05C04A01F2E08F0E911CFC
S1131D3001C04A018C819D81892B09F431C0CE01F7
S1131D400196F0D40FB6F8940F92C601BDDF5C0182
S1131D508815990500F580E090E082D62DD5F6012E
S1131D60938782870F900FBEEC80FD8000E010E027
S1131D7020E030E0A90160E070E0CB0170D5F6010D
S1131D8013861286BE016C5F7F4FCE010196E5D4A7
S1131D908823C1F202C00F900FBEA114B10419F43C
S1131DA0C60192DF5C0184019501A301B201C60161
S1131DB0CEDE7C01892BD9F0C6016DDEF6012681C9
S1131DC037818217930798F063D2F6018085918555
S1131DD0892B61F08085918500E010E020E040E0EF
S1131DE050E0BA01BFD5F601118610861BD3C70196
S1131DF00F900F900F900F900F90DF91CF911F9144
S1131E000F91FF90EF90DF90CF90BF90AF909F9095
S1131E108F907F906F905F904F9008956F927F9214
S1131E208F929F92AF92BF92CF92DF92EF92FF92E6
S1131E300F931F93CF93DF931F921F92CDB7DEB7FB
S1131E406C013B014A017901FC01868580FD03C0D8
S1131E50A12CB12C04C06894AA24A1F8B12CE114DB
S1131E60F10429F10FB6F8940F92C60114DE8C0127
S1131E70A816B90638F080E090E0F2D59DD4F601BA
S1131E80918780870F900FBEA016B106B0F000E0D6
S1131E9010E020E030E0A90160E070E0CB01DFD485
S1131EA0F60111861086C601F6DD8C0103C0C60159
S1131EB0F2DD8C01A016B106B8F5A114B104C1F08D
S1131EC0F601E080F1809801A501BE016F5F7F4FAC
S1131ED0C6017DDE89819A810A191B098816990633
S1131EE030F4F601F182E082812C912C01C04C0186
S1131EF09801A401B301C6016ADE7C01892BB1F00B
S1131F00C7D1F60182859385892B61F082859385FB
S1131F1000E010E020E040E050E0BA0123D5F601F3
S1131F20138612867FD202C0E12CF12CC7010F90D8
S1131F300F90DF91CF911F910F91FF90EF90DF9061
S1131F40CF90BF90AF909F908F907F906F900895A7
S1131F50E0915508F09156088081811107C08FEFF8
S1131F609FEF90933608809335080895E0915508C3
S1131F70F09156080580F681E02D0680F781E02D6A
S1131F8082819381909336088093350808950F9346
S1131F901F93CF93DF93EC0100913D0810913E080D
S1131FA080917B0890917C08029645D9C00FD11F7F
S1131FB0E0917B08F0917C08D383C283C017D107DA
S1131FC060F460917B0870917C0880915308909133
S1131FD054086E5F7F4FFED816C060917B087091E5
S1131FE07C0880915508909156086E5F7F4FF2D817
S1131FF08091350890913608C817D90720F4D093FA
S11320003608C0933508DF91CF911F910F91089541
S11320106F927F928F929F92AF92BF92CF92DF92F4
S1132020EF92FF920F93CF93DF93C114D10409F47D
S1132030CDC0E114F10409F4CCC0E60159013A0120
S11320404B016C01F88EEF8A65EA70E0C701BBD7DB
S113205081E0681A7108EF88F88CE60CF71CD4014B
S11320608C91898F8C918823A1F0AE01465E5F4FDD
S1132070F4013196B8E08B0E911CCF012191DA0165
S11320802D93AD01DC018C91882319F0E815F90535
S1132090A1F718A2043008F003E00E8B09A31AA2DA
S11320A04E01B2E08B0E911CC4016FD8CE010C9688
S11320B06CD8D987C88784E090E0801B91099D87FC
S11320C08C87DB8BCA8B1BA21CA21DA21EA21FA283
S11320D0A501B601C701D6D8998388830FB6F894B1
S11320E00F9280913F088F5F80933F0880917B0817
S11320F090917C08892B69F5D0937C08C0937B0868
S113210080913F088130A9F587E598E030D880E6D2
S113211098E02DD889E698E02AD882E798E027D875
S11321208BE298E024D882E298E021D88AE498E00F
S11321301ED881E498E01BD88BE298E0909356086F
S11321408093550882E298E0909354088093530852
S113215010C080913B0881110CC0E0917B08F09184
S11321607C0896898E89891720F0D0937C08C093C7
S11321707B08809137088F5F809337088E89909110
S11321803C08981710F480933C0890E09C01220FBF
S1132190331F220F331F220F331F820F931FB401EB
S11321A0895A974F0E94C9080F900FBE80913B082F
S11321B0882391F0E0917B08F0917C0896898E89C0
S11321C0981768F40DD98C2F9D2F0BC080E090E0F8
S11321D008C080E090E005C08C2F9D2F02C08C2F9A
S11321E09D2FDF91CF910F91FF90EF90DF90CF90D3
S11321F0BF90AF909F908F907F906F900895CF92F3
S1132200DF92EF92FF920F93CF93DF9300D000D031
S1132210CDB7DEB71E821D821C821B82AE014F5FCA
S11322205F4FBE016D5F7F4FCE0105960E949708F8
S1132230CD80DE80EB80FC8049815A8100E020E083
S113224030E06CE672E082E790E0E2DE892B91F008
S113225079D4813079F4F8948FEF9FEF9093360816
S11322608093350881E080933B0810923E081092D9
S11322703D087AD826960FB6F894DEBF0FBECDBFC0
S1132280DF91CF910F91FF90EF90DF90CF90089561
S1132290809134088F5F8093340808950FB6F894C2
S11322A00F9280913D0890913E080F900FBE0895C3
S11322B0CF92DF92EF92FF920F931F93CF93DF930E
S11322C080913408811198C0E0903D08F0903E0858
S11322D08FEFE81AF80AF0923E08E0923D08E11404
S11322E0F104B1F480915508909156082091530857
S11322F0309154083093560820935508909354080D
S113230080935308809138088F5F8093380820DECB
S11323108091350890913608E816F90610F4D12C0E
S113232053C0D12CCC24C394E0915508F0915608A5
S11323308081811107C08FEF9FEF909336088093BF
S1132340350842C0E0915508F09156080580F681A1
S1132350E02DC681D7818A819B81E816F90628F48D
S113236090933608809335082FC08E010E5F1F4F5F
S1132370C8010E941B098C899D89892B21F0CE01FB
S11323800C960E941B098E8990913C08981710F4B2
S113239080933C0890E09C01220F331F220F331FCF
S11323A0220F331F820F931FB801895A974F0E943F
S11323B0C908E0917B08F0917C089E89868998176A
S11323C008F4B2CFDC2CB0CFE0917B08F0917C080C
S11323D0868990E0FC01EE0FFF1FEE0FFF1FEE0F4A
S11323E0FF1F8E0F9F1FFC01E95AF74F8081823037
S11323F048F0DD24D39406C080913A088F5F80931F
S11324003A08D12C80913908882311F0DD24D39423
S11324108D2DDF91CF911F910F91FF90EF90DF9061
S1132420CF900895DF92EF92FF920F931F93CF9373
S1132430DF930FB6F8940F92809134088150809303
S113244034088091340881115DC080913F08811166
S113245033C05BC0D7011596ED91FC911697C681E8
S1132460D781CE010C960E941B098E010E5F1F4F6F
S1132470C8010E941B098E8990913C08981710F49A
S113248080933C0890E09C01220F331F220F331FDE
S1132490220F331F820F931FB801895A974F0E944E
S11324A0C908E0917B08F0917C089E898689981779
S11324B068F0D09239080AC0C0E0D0E00F2EFAE4E8
S11324C0EF2EF8E0FF2EF02DDD24D394F701808168
S11324D08111C0CFCD2B09F03BDDC0913A08CC234C
S11324E049F0D1E0E5DE8111D0933908C150D1F72C
S11324F010923A0880913908882331F00E94F0093B
S113250081E003C080E001C080E00F900FBEDF9146
S1132510CF911F910F91FF90EF90DF900895CF938B
S1132520DF93EC01892B39F0B3DE60E0CE012FDDBF
S113253079DF811102C00E94F009DF91CF910895E3
S113254080913408882321F081E08093390808952C
S113255010923908A0917B08B0917C08E0917B0827
S1132560F0917C082D913C918789908D8217930777
S113257060F060917B0870917C0880917B08909159
S11325807C08675E7F4F0E948A0820913C08822F56
S113259090E0FC01EE0FFF1FEE0FFF1FEE0FFF1F79
S11325A0E80FF91FE95AF74F3081311111C021505A
S11325B0822F90E0FC01EE0FFF1FEE0FFF1FEE0FC6
S11325C0FF1FE80FF91FE95AF74F3081332379F3DE
S11325D0AC01440F551F440F551F440F551F480F9E
S11325E0591FDA01A95AB74F1196ED91FC91129730
S11325F00280F381E02D1296FC93EE931197465AD4
S1132600574FE417F50729F442815381FD015283A2
S11326104183FC01EE0FFF1FEE0FFF1FEE0FFF1FA4
S11326208E0F9F1FFC01E95AF74F0180F281E02DC4
S11326308681978190937C0880937B0820933C0843
S11326400895CF93DF93EB0160917B0870917C0830
S1132650645F7F4F0E94EA0861E0CE0198DCDF915D
S1132660CF9108950F931F93CF938B01C42F609143
S11326707B0870917C08645F7F4F0E94C908CC235B
S113268011F00FEF1FEF6C2FC80181DCCF911F9168
S11326900F9108950F931F93CF93DF93DC01159649
S11326A0ED91FC911697C681D7818E01045F1F4F6F
S11326B0C8010E941B098091340881111CC00A5072
S11326C01109C8010E941B098E8990913C08981732
S11326D010F480933C0890E09C01220F331F220FDA
S11326E0331F220F331F820F931FB801895A974F4C
S11326F00E94C90805C0B8018AE498E00E94C9088C
S1132700E0917B08F0917C089E898689891720F4E2
S113271081E08093390801C080E0DF91CF911F915F
S11327200F9108950FB6F8940F9220913808FC0188
S1132730208320913D0830913E08328321830F90FD
S11327400FBE089520913808FC01208320913D0894
S113275030913E083283218308950FB6F8940F9286
S113276020913D0830913E08DC0111964D915C9119
S11327701297E0913808FC91FE1719F024173507D9
S113278098F4241B350BFB01408151812417350734
S113279038F4421B530B51834083D4DF80E005C0DF
S11327A01182108281E001C081E00F900FBE089574
S11327B081E080933908089580917B0890917C088A
S11327C0089580913B08882331F080913408882350
S11327D021F080E0089581E0089582E008950F9348
S11327E01F93CF93DF93FC01892B79F182A1815050
S11327F082A3268991A1291751F181112AC0EF01E1
S11328008F010E5F1F4FC8010E941B0989A18E8B87
S113281024E030E0281B31093D872C8790913C0847
S1132820981710F480933C0890E09C01220F331F0A
S1132830220F331F220F331F820F931FB801895AAF
S1132840974F0E94C90881E005C080E003C080E082
S113285001C080E0DF91CF911F910F9108954F92B5
S11328605F926F927F928F929F92AF92BF92EF92FC
S1132870FF920F931F9349015A010FB6F8940F92D8
S1132880E0917B08F0917C0827A1223021F1E091AE
S11328907B08F0917C0843A054A065A076A0DC01DD
S11328A0CB0180959095A095B09584219521A62182
S11328B0B72183A394A3A5A3B6A3E0917B08F091C9
S11328C07C0881E087A3E114F10429F061E0C701E9
S11328D05EDB0E94F0090F900FBE0FB6F8940F92C2
S11328E00115110569F0E0917B08F0917C0883A142
S11328F094A1A5A1B6A1F80180839183A283B38397
S1132900E0917B08F0917C0887A18230B1F4E091DA
S11329107B08F0917C0883A194A1A5A1B6A1809421
S11329209094A094B09488229922AA22BB2283A2D4
S113293094A2A5A2B6A281E001C080E0E0917B0848
S1132940F0917C0817A20F900FBE1F910F91FF907A
S1132950EF90BF90AF909F908F907F906F905F901B
S11329604F9008950F931F93CF93DF93FC010FB6FD
S1132970F8940F920115110549F083A194A1A5A122
S1132980B6A1E80188839983AA83BB8387A192E0D7
S113299097A32230B1F018F4213031F02AC023304B
S11329A0E9F0243001F125C003A114A125A136A129
S11329B0402B512B622B732B43A354A365A376A303
S11329C018C043A154A165A176A14F5F5F4F6F4F1B
S11329D07F4F43A354A365A376A30BC043A354A37F
S11329E065A376A306C0823079F143A354A365A3FB
S11329F076A3813059F5EF018F010E5F1F4FC80197
S1132A000E941B098E8990913C08981710F48093BA
S1132A103C0890E09C01220F331F220F331F220F2A
S1132A20331F820F931FB801895A974F0E94C90818
S1132A30E0917B08F0917C089E898689891740F48F
S1132A400E94F00981E005C080E003C081E001C07C
S1132A5081E00F900FBEDF91CF911F910F910895E8
S1132A60009721F480917B0890917C080FB6F8942C
S1132A700F92FC0127A1223019F417A281E001C0B2
S1132A8080E00F900FBE0895FC01738362839187E9
S1132A9080874617570790F0421B530B8485958512
S1132AA048175907E0F4BF016E5F7F4F8091E60835
S1132AB09091E7080E94EA0880E0089542175307BE
S1132AC018F46217730768F4BF016E5F7F4F80913B
S1132AD0E8089091E9080E94EA0880E0089581E0FE
S1132AE0089581E008950F930FB6F8940F928091A2
S1132AF0E4089091E508892B09F587ED98E00E9498
S1132B00B7088EEC98E00E94B70887ED98E09093A0
S1132B10E9088093E8088EEC98E09093E7088093A6
S1132B20E60800E02DE738E04CE958E065E08AE08B
S1132B300E94C80B9093E5088093E4080F900FBEA1
S1132B400F910895CF92DF92EF92FF920F93CF935C
S1132B50DF9300D000D0CDB7DEB7C5DF8091E408A5
S1132B609091E508892B31F11E821D821C821B8203
S1132B70AE014F5F5F4FBE016D5F7F4FCE01059683
S1132B800E94A708CD80DE80EB80FC8049815A81B9
S1132B9003E020E030E061E772E08EE996E138DAA4
S1132BA09C019093E3088093E20881E0232B19F4BD
S1132BB080E001C080E026960FB6F894DEBF0FBE19
S1132BC0CDBFDF91CF910F91FF90EF90DF90CF9029
S1132BD008950F931F93CF93DF9300D01F921F92FA
S1132BE0CDB7DEB7E091E408F091E508309769F1DC
S1132BF0D90169835B834A839D838C836630E4F4C3
S1132C00E0DD823061F420E0A801BE016F5F7F4FF8
S1132C108091E4089091E5080E94DD0B17C020E044
S1132C2040E050E0BE016F5F7F4F8091E4089091D7
S1132C30E5080E94DD0B0AC020E0AD01BE016F5F14
S1132C407F4FCF010E946F0C01C080E00F900F9066
S1132C500F900F900F90DF91CF911F910F910895D6
S1132C60AF92BF92CF92DF92EF92FF920F931F9396
S1132C70CF93DF936C0112DB7C018091E00890918B
S1132C80E108E816F90608F047C02FC00580F68170
S1132C90E02DA080B180C681D7818E010E5F1F4FC9
S1132CA0C8010E941B09E989FA89CE0119958E850C
S1132CB08130D9F48C859D858A0D9B1DA816B90693
S1132CC060F49B838A83D987C887B8018091E80818
S1132CD09091E9080E94EA0808C000E010E020E0B2
S1132CE030E0A50160E0CE0174DFE091E808F091E6
S1132CF0E90880818111CACF8091E6089091E708A4
S1132D009093E9088093E808F093E708E093E608D5
S1132D1081E0F601808302C0F6011082F092E1089E
S1132D20E092E008C701DF91CF911F910F91FF90CE
S1132D30EF90DF90CF90BF90AF900895CF93DF9343
S1132D4000D000D0CDB7DEB7CE0101964C014424AB
S1132D504394E12CF12C512CC82ED92CE091E80895
S1132D60F091E9088081882309F4B1C00580F681D7
S1132D70E02DA080B1808CDAC40172DF8C018981DE
S1132D80811143C00A151B0580F14CDBE091E80872
S1132D90F091E9080580F681E02D66807780C30113
S1132DA002960E941B09D3011E968C911E978130B6
S1132DB0A1F41C966D917C911D976A0D7B1D950164
S1132DC0A801C30161DE882341F00E2D1F2D2E2D95
S1132DD03F2DA501652DC301FCDED3015196ED9174
S1132DE0FC915297C301199565C0452DB501601B2F
S1132DF0710B8091E4089091E5080E94300D12DB7C
S1132E00811158C00E94F00955C00CDB53C0898160
S1132E1088230CF44FC0AC80BD80F5018285938576
S1132E20892B21F0C50102960E941B09CE0106964A
S1132E3017DFAC019981943089F11CF49330D0F5FB
S1132E4007C09630BCF198301CF0993039F132C08B
S1132E502A813B81D5011C966D917C911D97620F4F
S1132E60731FC50111DE882329F1D5015196ED9117
S1132E70FC915297C5011995F50186858130D1F4ED
S1132E804A815B8184859585480F591F0E2D1F2D1E
S1132E902E2D3F2D652DC5019CDE0CC06A817B81E2
S1132EA0D5011D967C936E931C97640F751F9A0130
S1132EB0C501EADD4E2D5F2D6C2D7D2D8091E4083A
S1132EC09091E5080E94A70C8111A1CF47CFE0D9CA
S1132ED0C401C6DE8C018981811197CFE091E60897
S1132EE0F091E7088081442D8111452DAE2CBF2C33
S1132EF07DCF82E08093B00084E08093B1008AEFBC
S1132F008093B300E0E7F0E08081826080830895DD
S1132F10F8946091190B70911A0B80911B0B90918E
S1132F201C0B789408951F920F920FB60F921124E0
S1132F308F939F93AF93BF938091190B90911A0B2A
S1132F40A0911B0BB0911C0B0196A11DB11D809388
S1132F50190B90931A0BA0931B0BB0931C0BBF91EE
S1132F60AF919F918F910F900FBE0F901F90189566
S1132F70A1E21A2EAA1BBB1BFD010DC0AA1FBB1F79
S1132F80EE1FFF1FA217B307E407F50720F0A21BEB
S1132F90B30BE40BF50B661F771F881F991F1A9458
S1132FA069F760957095809590959B01AC01BD0182
S1132FB0CF010895FB01DC0102C001900D92415044
S1132FC05040D8F70895DC0101C06D934150504042
S10B2FD0E0F70895F894FFCF27
S1132FD8567461736B3220726571756972657320FA
S1132FE8646174610A004E4F20646174610A00567A
S1132FF87461736B322072656365697665732064E6
S11330086174610A00567461736B312073656E6470
S11330187320646174610A00567461736B312073A0
S1133028656E745F5F5F5F5F5220646174610A005C
S11330385461736B31005461736B320049444C45DD
S10D304800546D72205376630000FB
S9030000FC
