:100000009AC00000B9C00000B7C00000B5C0000031
:10001000B3C00000B1C00000AFC00000ADC0000020
:10002000ABC00000A9C00000A7C00000A5C0000030
:100030000C942C0E0C942F1B9FC000009DC0000040
:100040009BC000009AC0000097C0000095C000004F
:1000500093C0000091C000008FC000008DC0000060
:100060008BC000000C94150A0C944E0A85C0000049
:1000700083C000000C94F8097FC000007DC0000020
:10008000E2C0000079C0000077C0000075C0000029
:100090000C941B0B0C94540B6FC000006DC000003F
:1000A0006BC0000069C0000034C1000065C00000E2
:1000B00063C0000061C000005FC0000090C100008C
:1000C0005BC0000059C0000057C000000C94890BB1
:1000D0000C94CC0B51C000004FC000004DC000007C
:1000E0004BC00000CCE5D9E002E719E080915B0944
:1000F0008823D1F00FB6F8940F92ED81FE818681AE
:10010000978102960E94920C8091510981508093B0
:10011000510980915B09815080935B090F900FBE5C
:1001200080915B098111E6CFF80180818230F0F285
:100130000E94670DDBCF11241FBECFEFD1E2DEBFDF
:10014000CDBF00E00CBF12E0A0E0B2E0E0E1F7E3D9
:1001500000E00BBF02C007900D92AC38B107D9F791
:100160002CE0ACE8B2E001C01D92A833B207E1F781
:100170000E949B090C94861B43CF1F920F920FB6CF
:100180000F9211240BB60F92CF92DF92EF92FF9253
:100190000F931F932F933F934F935F936F937F938F
:1001A0008F939F93AF93BF93EF93FF930E94241B72
:1001B0008B019C0160932B0A70932C0A80932D0A6B
:1001C00090932E0A40910B0A50910C0A60910D0AEF
:1001D00070910E0A68017901C41AD50AE60AF70A75
:1001E000C701B601C092130AD092140AE092150A10
:1001F000F092160A00930B0A10930C0A20930D0A32
:1002000030930E0AE091250AF091260A0280F381CC
:10021000E02D1995FF91EF91BF91AF919F918F9133
:100220007F916F915F914F913F912F911F910F910E
:10023000FF90EF90DF90CF900F900BBE0F900FBE0E
:100240000F901F9018951F920F920FB60F921124C6
:100250000BB60F92CF92DF92EF92FF920F931F9304
:100260002F933F934F935F936F937F938F939F93BE
:10027000AF93BF93EF93FF930E94241B8B019C01CC
:100280006093210A7093220A8093230A9093240A90
:100290004091050A5091060A6091070A7091080A78
:1002A00068017901C41AD50AE60AF70AC701B6013E
:1002B000C092130AD092140AE092150AF092160A1C
:1002C0000093050A1093060A2093070A3093080A40
:1002D000E091090AF0910A0A0280F381E02D199554
:1002E000FF91EF91BF91AF919F918F917F916F910E
:1002F0005F914F913F912F911F910F91FF90EF9040
:10030000DF90CF900F900BBE0F900FBE0F901F90FD
:1003100018951F920F920FB60F9211240BB60F92E1
:10032000CF92DF92EF92FF920F931F932F933F9301
:100330004F935F936F937F938F939F93AF93BF93ED
:10034000EF93FF930E94241B8B019C016093170A7B
:100350007093180A8093190A90931A0A4091270AF9
:100360005091280A6091290A70912A0A680179013E
:10037000C41AD50AE60AF70AC701B601C092130AE1
:10038000D092140AE092150AF092160A0093270AF6
:100390001093280A2093290A30932A0AE0911B0A15
:1003A000F0911C0A0280F381E02D1995FF91EF91E5
:1003B000BF91AF919F918F917F916F915F914F917D
:1003C0003F912F911F910F91FF90EF90DF90CF9071
:1003D0000F900BBE0F900FBE0F901F9018951F929D
:1003E0000F920FB60F9211240BB60F92CF92DF929D
:1003F000EF92FF920F931F932F933F934F935F932F
:100400006F937F938F939F93AF93BF93EF93FF93DC
:1004100095B181E0892785B90E94241B8B019C013D
:1004200060931D0A70931E0A80931F0A9093200AFE
:1004300040910F0A5091100A6091110A7091120AAE
:1004400068017901C41AD50AE60AF70AC701B6019C
:10045000C092130AD092140AE092150AF092160A7A
:1004600000930F0A1093100A2093110A3093120A76
:10047000E0912F0AF091300A0280F381E02D199566
:1004800010922401FF91EF91BF91AF919F918F91B5
:100490007F916F915F914F913F912F911F910F919C
:1004A000FF90EF90DF90CF900F900BBE0F900FBE9C
:1004B0000F901F901895AC0160E080E088D641E075
:1004C00050E062E070E080E0A3C608958F929F92B2
:1004D000AF92BF92DF92EF92FF920F931F93CF9351
:1004E000DF93CDB7DEB7DA950FB6F894DEBF0FBE57
:1004F000CDBFD62E811100C38091BF0489832FEF19
:10050000621306C08FE08A836894BB24B1F832C0BE
:100510006A8381E06817B8F094E0961718F4A7E1B1
:100520006A1311C08091BD049091BE049B838C839B
:100530008091BB049091BC049D838E830F2EF6E0C6
:10054000BF2EF02D03C06894BB24B1F8B0E1BD15F7
:1005500040F0EFE0DE1670F48BEF8D0D823000F589
:1005600009C0F6E1DF16E0F027E12D1518F48FEF52
:10057000D81216C09091390480913A04E1E0F0E07D
:10058000EC0FFD1FEB0DF11D808381E08B0DE1E091
:10059000F0E0EC0FFD1FE80FF11DB394B3949083CE
:1005A00090E1D91609F4ADC09D1558F0A6E0DA1611
:1005B00061F1BFE0DB1609F441C0E5E0DE121AC1CB
:1005C0000DC0F7E1DF1609F49CC02FEFD21609F435
:1005D00098C086E1D81609F4DFC00CC190913704A9
:1005E00080913804E1E0F0E0EC0FFD1FEB0DF11D10
:1005F000808381E08B0DE1E0F0E0EC0FFD1FE80F60
:10060000F11DB394B3949083F5C0E7EBF3E08081E0
:100610009181A1E0B0E0AC0FBD1FAB0DB11D9C936B
:100620002081318181E08B0DE1E0F0E0EC0FFD1FD6
:10063000E80FF11DB394B3942083DCC0809137049C
:1006400090913804E1E0F0E0EC0FFD1FEB0DF11D9F
:10065000908332E03B0D21E02B0DE1E0F0E0EC0F68
:10066000FD1FE20FF11D8083AC0147705527452B1C
:1006700049F096958795969587959695879521E06B
:10068000280F07C096958795969587959695879597
:10069000282F93E0B90EFE01E30FF11D21832223E1
:1006A00009F4A8C080E0982F917080FF03C09130BA
:1006B00099F023C0E82FE695F0E0EE0FFF1FE95414
:1006C000FC4F40815181E1E0F0E0EC0FFD1FEB0DAC
:1006D000F11D4083B39411C0E82FE695F0E0EE0FD2
:1006E000FF1FE954FC4F40815181E1E0F0E0EC0F45
:1006F000FD1FEB0DF11D5083B3948F5F2813D3CFF3
:1007000079C06091370470913804E1E0F0E0EC0FBB
:10071000FD1FEB0DF11D708381E08B0DE1E0F0E03A
:10072000EC0FFD1FE80FF11D608382E08B0DE1E00F
:10073000F0E0EC0FFD1FE80FF11DA3E0BA0E862FCD
:10074000880F80837727161617060CF053C080E0B9
:1007500090E020E0880F991FFC01E954FC4F808154
:100760009181A1E0B0E0AC0FBD1FAB0DB11D9C931A
:100770004081518181E08B0DE1E0F0E0EC0FFD1F45
:10078000E80FF11DB394B39440832F5F822F90E064
:1007900086179707FCF22EC0E7EBF3E0808191818A
:1007A000A1E0B0E0AC0FBD1FAB0DB11D9C938081EB
:1007B000918191E09B0DA1E0B0E0AC0FBD1FA90FAE
:1007C000B11D8C938281938182E08B0DA1E0B0E01A
:1007D000AC0FBD1FA80FB11D9C932281338183E014
:1007E0008B0DE1E0F0E0EC0FFD1FE80FF11DB4E030
:1007F000BB0E2083BB20B9F08E010F5F1F4FEE248C
:10080000EA94EB0CF12CEFEFEE1AFE0AE00EF11E6B
:100810008FEF9FEFD8016D918D010E94121B0E1575
:100820001F05C1F702C08FEF9FEFEE24E394EB0C9E
:10083000E1E0F0E0EC0FFD1FEB0DF11D8083B394C0
:10084000B394E1E0F0E0EC0FFD1FEE0DF11D90839D
:10085000E1E0F0E0EC0FFD1FEB0DF11D1082E091E7
:10086000AA03F091AB03199581159140C1F7E0916E
:10087000B003F091B103309709F01995BB20A1F0B6
:100880008E010F5F1F4FF12CEFEFEE1AFE0AE00E04
:10089000F11EE091AC03F091AD03D8018D918D0173
:1008A00019950E151F05A9F7E091A803F091A9036A
:1008B0001995EFE8F1E03197F1F700C00000E09101
:1008C000AE03F091AF03309709F01995FFEF23EDD8
:1008D00080E3F15020408040E1F700C000000E941A
:1008E000241B4B015C0108E010E0ED2CF12CE091A1
:1008F000A603F091A7031995892B91F0DD24D394D9
:10090000D10EE091AA03F091AB031995E1E0F0E07C
:10091000EC0FFD1FE10FF11D808301501D2D07C05D
:10092000E091B203F091B303309709F019951530B7
:1009300059F599818091BF0498132BC48A81282F7F
:100940002F7730E02E153F0509F025C488232CF4BD
:100950008B81882309F43DC0CAC0813158F48F309F
:1009600008F0B5C3813080F0853068F0873008F436
:10097000AEC30AC0873139F08F3F09F4A8C386316E
:1009800019F405E0A5C30B810E94241BDC01CB01F7
:1009900088199909AA09BB09813D9740A105B105AC
:1009A00008F4EBC380E092E038D68AE001D601116A
:1009B000F4C382EE81119BC0153008F4A9C3A12EA7
:1009C000B12C7501F2E0EF1AF1081E141F045CF05F
:1009D0008EC30F2EF3E0EF2EF12CF02D0F2EF5E04D
:1009E000AF2EB12CF02D20E030E08FEF9FEF10E024
:1009F000E1E0F0E0EC0FFD1FE20FF31F60810E94C9
:100A0000121B1F5F212F30E02E153F058CF371C3A1
:100A1000892F9927FE01EA0DFB1D208130E0821706
:100A2000930709F073C374C39B819695E9F580E041
:100A30005EC07B81972F969509F478C3FE013196AD
:100A400040E050E080E0803470F4248130E0322FC8
:100A500022276381262BDA01AA0FBB1FA55CBB4F9F
:100A600011963C932E938F5F4F5F5F4F32968913A1
:100A7000EACF8FEF890F8093B40370FF35C09034B5
:100A800070F4292F30E0220F331FFE01E20FF31F15
:100A9000448150E0F901E55CFB4F518340839F5F47
:100AA0009093B40380E023C0FE01319640E050E013
:100AB00080E0803470F4238130E0322F222764817B
:100AC000262BDA01AA0FBB1FA55CBB4F11963C93E6
:100AD0002E938F5F4F5F5F4F32968913EACF91500D
:100AE0009093B40380E003C080E001C080E01092E6
:100AF000B6031092B50359C3813009F0E6C2809164
:100B0000A50389832FEF621306C08FE08A83689460
:100B1000BB24B1F832C06A8381E06817B8F094E072
:100B2000961718F4A7E16A1311C08091A30390915E
:100B3000A4039B838C838091A1039091A2039D8346
:100B40008E830F2EF6E0BF2EF02D03C06894BB24D9
:100B5000B1F8B0E1BD1540F0EFE0DE1670F48BEFB8
:100B60008D0D823000F509C0F6E1DF16E0F027E1D7
:100B70002D1518F48FEFD81216C090911F03809195
:100B80002003E1E0F0E0EC0FFD1FEB0DF11D808391
:100B900081E08B0DE1E0F0E0EC0FFD1FE80FF11DAF
:100BA000B394B394908390E1D91609F4ADC09D1528
:100BB00058F0A6E0DA1661F1BFE0DB1609F441C097
:100BC000E5E0DE121BC10DC0F7E1DF1609F49CC0A1
:100BD0002FEFD21609F498C086E1D81609F4E0C0C8
:100BE0000DC190911D0380911E03E1E0F0E0EC0F38
:100BF000FD1FEB0DF11D808381E08B0DE1E0F0E046
:100C0000EC0FFD1FE80FF11DB394B3949083F6C071
:100C1000EDE9F2E080819181A1E0B0E0AC0FBD1F71
:100C2000AB0DB11D9C932081318181E08B0DE1E002
:100C3000F0E0EC0FFD1FE80FF11DB394B394208397
:100C4000DDC080911D0390911E03E1E0F0E0EC0F08
:100C5000FD1FEB0DF11D908322E02B0D31E03B0DCC
:100C6000E1E0F0E0EC0FFD1FE30FF11D8083AC012C
:100C700047705527452B49F096958795969587950A
:100C80009695879591E0980F07C0969587959695CC
:100C9000879596958795982FA3E0BA0EFE01E20FEF
:100CA000F11D9183992309F4A9C080E0282F2170B8
:100CB00080FF03C0213099F023C0E82FE695F0E0D3
:100CC000EE0FFF1FE356FD4F20813181E1E0F0E0A0
:100CD000EC0FFD1FEB0DF11D2083B39411C0E82F25
:100CE000E695F0E0EE0FFF1FE356FD4F20813181C6
:100CF000E1E0F0E0EC0FFD1FEB0DF11D3083B3944C
:100D00008F5F9813D3CF7AC080911D0390911E03FB
:100D1000E1E0F0E0EC0FFD1FEB0DF11D908321E011
:100D20002B0DE1E0F0E0EC0FFD1FE20FF11D8083E1
:100D300022E02B0DE1E0F0E0EC0FFD1FE20FF11DD2
:100D4000B3E0BB0E282F220F2083AC0155271416C9
:100D500015060CF053C080E090E020E0880F991F4A
:100D6000FC01E356FD4F80819181A1E0B0E0AC0F22
:100D7000BD1FAB0DB11D9C936081718181E08B0D16
:100D8000E1E0F0E0EC0FFD1FE80FF11DB394B39428
:100D900060832F5F822F90E084179507FCF22EC0AE
:100DA000EDE9F2E080819181A1E0B0E0AC0FBD1FE0
:100DB000AB0DB11D9C938081918191E09B0DA1E0D1
:100DC000B0E0AC0FBD1FA90FB11D8C938281938140
:100DD00082E08B0DA1E0B0E0AC0FBD1FA80FB11DEC
:100DE0009C932281338183E08B0DE1E0F0E0EC0FF6
:100DF000FD1FE80FF11D84E0B80E2083BB20B9F081
:100E00008E010F5F1F4FEE24EA94EB0CF12C9FEF45
:100E1000E91AF90AE00EF11E8FEF9FEFD8016D91EC
:100E20008D010E94121B0E151F05C1F702C08FEF26
:100E30009FEFEE24E394EB0CE1E0F0E0EC0FFD1FFC
:100E4000EB0DF11D8083B394B394E1E0F0E0EC0F7F
:100E5000FD1FEE0DF11D9083E1E0F0E0EC0FFD1FB2
:100E6000EB0DF11D1082E0919002F0919102199525
:100E700081159140C1F7E0919602F0919702309769
:100E800009F01995BB20A1F08E010F5F1F4FF12CC7
:100E9000EFEFEE1AFE0AE00EF11EE0919202F091E1
:100EA0009302D8018D918D011995E016F106A9F7ED
:100EB000E0918C02F0918D021995E0919402F091ED
:100EC0009502309709F019950E94241B4B015C0193
:100ED00008E010E0ED2CF12CE0918E02F0918F02F1
:100EE0001995892B91F0DD24D394D10EE0919002D5
:100EF000F09191021995E1E0F0E0EC0FFD1FE10F98
:100F0000F11D808301501D2D07C0E0919802F091E2
:100F10009902309709F01995153051F59981809112
:100F2000A50398133CC18A81282F2F7730E02E1516
:100F30003F0509F036C1882324F48B818823B1F161
:100F4000BFC0813148F48F3070F4813088F0853033
:100F500060F0873040F00CC0873139F08F3F19F0D6
:100F6000863129F005C003E003C00B8101C005E014
:100F70000E94241BDC01CB0188199909AA09BB092D
:100F8000813D9740A105B10508F0FBC0FEC081116D
:100F900097C0153008F4DFC0012F10E07801F2E0AF
:100FA000EF1AF1081E141F0444F0C4C00F2EF3E022
:100FB000EF2EF12CF02D05E010E020E030E08FEF77
:100FC0009FEFD12CE1E0F0E0EC0FFD1FE20FF31FEB
:100FD00060810E94121BD3942D2D30E02E153F0509
:100FE0008CF3AAC0892F9927FE01E00FF11F208101
:100FF00030E08217930709F0ACC0ADC08B818695B5
:10100000E1F55EC06B81862F869509F4B2C0FE01C2
:10101000319640E050E090E0903470F4248130E06C
:10102000322F22277381272BDA01AA0FBB1FAF5D56
:10103000BC4F11963C932E939F5F4F5F5F4F32964C
:101040009813EACF9FEF980F90939A0260FF35C0F4
:10105000803470F4282F30E0220F331FFE01E20F9E
:10106000F31F448150E0F901EF5DFC4F5183408351
:101070008F5F80939A0280E023C0FE01319640E0AA
:1010800050E090E0903470F4238130E0322F22273A
:101090006481262BDA01AA0FBB1FAF5DBC4F1196EE
:1010A0003C932E939F5F4F5F5F4F32969813EACF2A
:1010B000815080939A0280E003C080E001C080E00C
:1010C00010929C0210929B0270C084EE6EC003E0EE
:1010D0000E94241BDC01CB0188199909AA09BB09CC
:1010E000813D9740A105B10508F401CC5BCC8FEFA1
:1010F0009FEFFE01EE0DFF1D218130E0AC01552771
:101100004217530709F484CC83EEF1CC83EEEFCC85
:101110008A81853038F4833008F086CC813008F03D
:1011200088CCE4CC873109F47FCCE0CC70FDA9CC2D
:1011300080E0DDCC8FEF9FEFFE01EE0DFF1D2181E2
:1011400030E0AC0155274217530709F44BCF83EE2B
:10115000B7CF83EEB5CF8A81853038F4833008F07D
:101160004DCF813008F04ECFAACF873109F446CF5A
:10117000A6CF60FD6FCF80E0A3CF0111B8CB80E098
:1011800019CC011110C082EE02CF0111A5CE80E072
:10119000FECE80EEACCC81EEAACC82EEA8CC80EE66
:1011A0008FCF81EE8DCF82EE8BCFD3950FB6F89493
:1011B000DEBF0FBECDBFDF91CF911F910F91FF908A
:1011C000EF90DF90BF90AF909F908F900895811126
:1011D0000BC06034B8F4E62FF0E0EE0FFF1FE954C7
:1011E000FC4F518340830895813071F4603470F472
:1011F000E62FF0E0EE0FFF1FE356FD4F51834083D3
:1012000080E0089582E0089582E0089582E00895E4
:1012100081110BC070933A046093390450933804E1
:10122000409337046FE052C90895813059F47093A8
:10123000200360931F0350931E0340931D036FE030
:1012400045C9089584EE0895CF93DF9300D01F928F
:10125000CDB7DEB77E0185E0E80EF11C83E192E0B8
:10126000DCD126E030E044E050E0BE016F5F7F4F0C
:101270008091590A90915A0A0E948612892B21F472
:1012800089E292E0CAD1EACF82E392E0C6D18E0130
:101290000F5F1F4FF80161918F0170E080E090E0D7
:1012A000A0D18CE285D10E151F05A1F78AE080D16F
:1012B000D5CFCF93DF9300D01F92CDB7DEB785E0B7
:1012C000898386E08A8389E08B8381E08C837E0139
:1012D00085E0E80EF11C8E010F5F1F4FF801808141
:1012E0008F5F8193EE15FF05D1F788E492E095D1E9
:1012F000F80161918F0170E080E090E072D18CE2A2
:1013000057D10E151F05A1F78AE052D120E030E039
:1013100044E050E0BE016F5F7F4F8091590A909189
:101320005A0A0E94EE118BE592E077D18AEF90E0A5
:101330000E941E16D0CF8FEF8DB960E875E280E075
:1013400090E0E1D081E090E0B6D82FEF83ED90E31C
:10135000215080409040E1F700C0000080E090E024
:10136000AAD82FEF83ED90E3215080409040E1F721
:1013700000C000000F2EF1E3CF2EFAE0DF2EF02D9B
:101380000F2EFEE8EF2EFAE0FF2EF02D02E020E017
:1013900030E048EC50E063E772E089E599E00E94B4
:1013A00093130F2EFBE5CF2EFAE0DF2EF02D0F2E3C
:1013B000F5E6EF2EFBE0FF2EF02D20E030E048ECCC
:1013C00050E069E772E084E299E00E94931306E539
:1013D0001BE020EC34E041E060E070E084E690E067
:1013E000BCD790935A0A8093590A0E948E14FFCF5B
:1013F0001F920F920FB60F9211242F938F939F93EA
:10140000809178002091790090E0922B90932605AE
:101410008093250581E0809324059F918F912F91E2
:101420000F900FBE0F901F9018951F920F920FB63E
:101430000F9211240BB60F922F933F934F935F930C
:101440008F939F93EF93FF932091C0003091C6003C
:1014500028718091370790E001968F779927409106
:10146000360750E08417950739F080933707FC0161
:10147000E65CF84F308301C022E020933507FF91EE
:10148000EF919F918F915F914F913F912F910F908D
:101490000BBE0F900FBE0F901F9018951F920F92CA
:1014A0000FB60F9211240BB60F928F939F93EF9369
:1014B000FF939091390780913807981789F08091B0
:1014C000380790E001968F77992780933807FC01C1
:1014D000E654F84F80818093C60010922A0508C018
:1014E000E1ECF0E080818F7D808381E080932A05AC
:1014F000FF91EF919F918F910F900BBE0F900FBEB8
:101500000F901F9018950F931F938B019C01F894D7
:101510001092390710923807109237071092360749
:101520007894DC01CB0180589B47A14EBF4F880FB8
:10153000991FAA1FBB1F880F991FAA1FBB1FBC01A1
:10154000CD01660F771F881F991F000F111F221FE3
:10155000331F000F111F221F331FA9019801220FF3
:10156000331F441F551F220F331F441F551F0E9456
:10157000541BBA01A901415051096109710957FF72
:1015800006C082E08093C0005F7766277727BB277D
:10159000A72F962F852F8093C5004093C40088E91C
:1015A0008093C10086E08093C2001F910F9108953F
:1015B0004091390750E04F5F5F4F4F77552720919B
:1015C000380730E042175307D1F3FA01E654F84FD9
:1015D000808340933907E1ECF0E080818062808372
:1015E00008950F931F93CF93DF936A3071058105A0
:1015F000910558F02AE030E040E050E00E94541B92
:10160000062FCA01B901EDDF602F80E3860FD0DF1E
:10161000DF91CF911F910F910895CF93DF93EC014C
:101620008881882329F02196C3DF89918111FCCF1D
:10163000DF91CF9108951F920F920FB60F92112450
:101640000BB60F922F933F934F935F938F939F937C
:10165000EF93FF932091C8003091CE0028718091C4
:10166000320690E001968F7799274091310650E03D
:101670008417950739F080933206FC01EB5CF94F33
:10168000308301C022E020933006FF91EF919F91BB
:101690008F915F914F913F912F910F900BBE0F90C3
:1016A0000FBE0F901F9018951F920F920FB60F92BA
:1016B00011240BB60F928F939F93EF93FF9390910A
:1016C000340680913306981789F08091330690E0B4
:1016D00001968F77992780933306FC01EB54F94FDD
:1016E00080818093CE001092290508C0E9ECF0E0DB
:1016F00080818F7D808381E080932905FF91EF9128
:101700009F918F910F900BBE0F900FBE0F901F9067
:1017100018951F920F920FB60F9211240BB60F92CD
:101720002F933F934F935F938F939F93EF93FF93E9
:101730002091D0003091D60080912705E82FF0E06D
:10174000E35DF34F30838F5F80932705287180918D
:101750002D0590E001968F77992740912C0550E058
:101760008417950739F080932D05FC01E05DFA4F51
:10177000308301C022E020932B05FF91EF919F91D0
:101780008F915F914F913F912F910F900BBE0F90D2
:101790000FBE0F901F9018951F920F920FB60F92C9
:1017A00011240BB60F928F939F93EF93FF93909119
:1017B0002F0580912E05981789F080912E0590E0D5
:1017C00001968F77992780932E05FC01E055FA4FFB
:1017D00080818093D6001092280508C0E1EDF0E0EA
:1017E00080818F7D808381E080932805FF91EF9138
:1017F0009F918F910F900BBE0F900FBE0F901F9077
:101800001895279A2F9A2FE78AE196E02150804079
:101810009040E1F700C000001F9AF5CF2CE039E0BE
:10182000FC013183208387EB98E0FB019183808367
:1018300085E590E0FA019183808308952FE838E0F0
:10184000FC01318320838AE398E0FB01918380834C
:1018500085E590E0FA01918380830895FC01039669
:10186000928381832FEF3FEF348323839683858395
:101870009087878310820895FC0111861086089551
:10188000CF93DF939C01FB01DC011196CD91DC919C
:101890001297D383C2838C819D81958384838C81AD
:1018A0009D81DC0113967C936E9312977D836C83EC
:1018B00031872087F90180818F5F8083DF91CF910D
:1018C0000895CF93DF93EB01488159814F3F2FEF6C
:1018D000520721F4FC01A781B0850DC0DC011396ED
:1018E00001C0DF011296ED91FC91139720813181A7
:1018F00042175307B0F71296ED91FC911397FB83B3
:10190000EA83D583C483BD83AC831396DC93CE93E3
:10191000129799878887FC0120812F5F2083DF91B0
:10192000CF910895CF93DF93FC01A085B185C2814B
:10193000D381848195819D838C83C481D58182816B
:1019400093819B838A8311968D919C911297E817BE
:10195000F90731F48481958112969C938E931197A7
:10196000118610868C9181508C938C91DF91CF9150
:10197000089531E1FC013083319722E220833197D1
:10198000A3E3A083319760833197708331971082EE
:1019900031971082319760E86083319710823197D8
:1019A000108231971082319762E06083319763E053
:1019B0006083319764E06083319765E0608331979D
:1019C00066E06083319767E06083319768E0608309
:1019D000319769E06083319760E1608331973083AC
:1019E000319732E13083319733E13083319734E1FD
:1019F0003083319735E13083319736E13083319749
:101A000037E13083319738E13083319739E13083E2
:101A1000319730E23083319731E230833197208340
:101A2000319723E220833197408331975083319758
:101A300026E22083319727E22083319728E2208312
:101A4000319729E22083319720E32083319721E3E6
:101A5000208389970895A89590EC88E10FB6F894B3
:101A6000A895809360000FBE90936000A0919609A6
:101A7000B0919709CD91CDBFDD91DEBFFF91EF9180
:101A8000DF91CF91BF91AF919F918F917F916F9196
:101A90005F914F913F912F911F910F91FF90EF9088
:101AA000DF90CF90BF90AF909F908F907F906F907E
:101AB0005F904F903F902F901F900F900CBE0F9013
:101AC0000BBE0F900FBE0F90089581E008950F9206
:101AD0000FB6F8940F920BB60F920CB60F921F929E
:101AE00011242F923F924F925F926F927F928F922A
:101AF0009F92AF92BF92CF92DF92EF92FF920F939D
:101B00001F932F933F934F935F936F937F938F9385
:101B10009F93AF93BF93CF93DF93EF93FF93A091E6
:101B20009609B09197090DB60D920EB60D920E94CE
:101B30002F16A0919609B0919709CD91CDBFDD9157
:101B4000DEBFFF91EF91DF91CF91BF91AF919F9158
:101B50008F917F916F915F914F913F912F911F9145
:101B60000F91FF90EF90DF90CF90BF90AF909F903C
:101B70008F907F906F905F904F903F902F901F902D
:101B80000F900CBE0F900BBE0F900FBE0F900895DC
:101B90000F920FB6F8940F920BB60F920CB60F92ED
:101BA0001F9211242F923F924F925F926F927F92D9
:101BB0008F929F92AF92BF92CF92DF92EF92FF925D
:101BC0000F931F932F933F934F935F936F937F9345
:101BD0008F939F93AF93BF93CF93DF93EF93FF9335
:101BE000A0919609B09197090DB60D920EB60D927F
:101BF00013BEEDD681110E942F16A0919609B091C7
:101C00009709CD91CDBFDD91DEBFFF91EF91DF91BF
:101C1000CF91BF91AF919F918F917F916F915F9184
:101C20004F913F912F911F910F91FF90EF90DF9077
:101C3000CF90BF90AF909F908F907F906F905F906C
:101C40004F903F902F901F900F900CBE0F900BBEA7
:101C50000F900FBE0F9008959BDF18950FB6F89464
:101C60000F92FC01928D0F900FBE81E0911180E0E8
:101C700008950F931F93CF93DF93EC01042F1A8DD8
:101C80004C8D41110CC088819981892B09F042C08B
:101C90008C819D810E9488171D821C8242C0011187
:101CA00017C050E08A819B810E94761B2C8D8A810F
:101CB0009B81820F911D9B838A832C813D8182179A
:101CC000930750F1888199819B838A8380E029C0A2
:101CD00050E08E819F810E94761B8C8D90E09195C3
:101CE000819591092E813F81280F391F3F832E83D3
:101CF000488159812417350730F42C813D81820FAA
:101D0000931F9F838E83023049F4112349F01150B1
:101D100080E007C080E005C080E003C080E001C033
:101D200080E01F5F1A8FDF91CF911F910F9108956F
:101D3000FC01448D4423A9F050E026813781240F13
:101D4000351F37832683848195812817390720F032
:101D50008081918197838683CB01668177810C9402
:101D6000761B0895EF92FF920F931F93CF938C01F0
:101D70000FB6F8940F92FC01C68D1C16ACF4818945
:101D8000811106C011C0F8018189811105C00CC004
:101D90007801F1E1EF0EF11CC7010E94D916811103
:101DA0000E947117C15079F78FEFF801868F0F905D
:101DB0000FBE0FB6F8940F92C58D1C16A4F4808543
:101DC000811106C010C0F8018085811105C00BC0CB
:101DD0007801F8E0EF0EF11CC701EBD781110E94EA
:101DE0007117C15081F78FEFF801858F0F900FBEEB
:101DF000CF911F910F91FF90EF900895CF93DF93B4
:101E0000EC010FB6F8940F92E881F9818B8D2C8D3F
:101E100090E030E0829FA001839F500D929F500D73
:101E200011244E0F5F1F5D834C831A8EFB83EA8360
:101E30000197829FA001839F500D929F500D112406
:101E4000CF01840F951F9F838E838FEF8D8F8E8F91
:101E500061110AC08885882369F0CE010896A9D748
:101E6000882341F034DE06C0CE010896F7DCCE01AF
:101E70004196F4DC0F900FBE81E0DF91CF91089581
:101E8000CF93DF93E901209761F0611103C039839B
:101E9000288302C0598348838B8F6C8F61E0CE0109
:101EA000ADDFCE01DF91CF9108959F92AF92BF92A7
:101EB000CF92DF92EF92FF920F931F93CF93DF9316
:101EC00000D01F921F92CDB7DEB78C016B015D83EE
:101ED0004C83A22EB12C992493947C0188E0E80EC7
:101EE000F11C0FB6F8940F92F801928D838D98171C
:101EF00018F0F2E0AF1215C04A2DB601C801B9DEE4
:101F0000F8019189992339F0C801419652D7882365
:101F100021F0DDDD02C08111DADD0F900FBE81E01E
:101F200045C08C819D81892B21F40F900FBE80E0EC
:101F30003DC0B11004C0CE01019693D7B92C0F90CB
:101F40000FBE35D50FB6F8940F92F801858D8F3FEF
:101F500009F4158EF801868D8F3F09F4168E0F90C7
:101F60000FBEBE016C5F7F4FCE01019685D78111F8
:101F700019C00FB6F8940F92F801928D838D0F90CF
:101F80000FBE98130BC06C817D81C701E9D6C801D3
:101F9000E9DED7D58111A5CF9ADDA3CFC801E2DE56
:101FA000D0D59FCFC801DEDECCD580E00F900F905A
:101FB0000F900F900F90DF91CF911F910F91FF9095
:101FC000EF90DF90CF90BF90AF909F900895EF92E9
:101FD000FF920F931F93CF93DF938A01FC01528DE1
:101FE000338D531710F02230E1F4422F7801EC01C9
:101FF0001E8D3FDE1F3F79F489898823A1F0CE0131
:102000004196D7D6882389F0E114F10481F081E06C
:10201000F70180830DC0FF24F394F10EFE8E81E062
:1020200007C080E005C081E003C081E001C081E01D
:10203000DF91CF911F910F91FF90EF9008959F92A4
:10204000AF92BF92CF92DF92EF92FF920F931F93C6
:10205000CF93DF9300D01F921F92CDB7DEB78C01D4
:102060005B015D834C83E12C992493946C0181E1A5
:10207000C80ED11C0FB6F8940F92F801F28CFF2015
:1020800091F0B501C80154DEFA94F801F28E808512
:10209000882329F0C80108968CD6811118DD0F908D
:1020A0000FBE81E044C08C819D81892B21F40F906B
:1020B0000FBE80E03CC0E11004C0CE010196D1D635
:1020C000E92C0F900FBE73D40FB6F8940F92F8015D
:1020D000858D8F3F09F4158EF801868D8F3F09F4A9
:1020E000168E0F900FBEBE016C5F7F4FCE01019622
:1020F000C3D6811113C0C801B1DD882359F06C81AA
:102100007D81C6012DD6C8012DDE1BD58111B2CF30
:10211000DEDCB0CFC80126DE14D5ACCFC80122DE8C
:1021200010D5C8019BDD882309F4A4CF80E00F906F
:102130000F900F900F900F90DF91CF911F910F9103
:10214000FF90EF90DF90CF90BF90AF909F90089559
:10215000CF93DF93EC010FB6F8940F928D8D8F3FE4
:1021600009F41D8E8E8D8F3F09F41E8E0F900FBEC9
:102170008A8D811103C0CE01419603D6CE01F2DDD6
:10218000DF91CF910895FC014481558122813381F3
:10219000240F351F80819181B901681B790BCB0118
:1021A0006417750710F0841B950B0895AF92BF92CA
:1021B000CF92DF92EF92FF920F931F93CF93DF9313
:1021C0006C015B017A01FC01C281D381048115811C
:1021D0000C1B1D0B4017510708F48A01F60184857A
:1021E0009585A801B5018C0F9D1F0E94761B0E15C9
:1021F0001F0558F4A701401B510BB501600F711F5B
:10220000F601848595850E94761BCE018E0D9F1D5B
:10221000F601248135818217930710F0821B930BFE
:10222000F60193838283C701DF91CF911F910F91B4
:10223000FF90EF90DF90CF90BF90AF900895CF9236
:10224000DF92EF92FF920F931F93CF93DF931F9232
:102250001F92CDB7DEB75A83498321153105C9F0E6
:102260006B017C01FC01868580FD08C0CA01241732
:10227000350708F4C9019A83898311C020173107F3
:1022800058F042E050E0BE016F5F7F4FC7018EDF24
:1022900006C080E090E008C080E090E005C0498181
:1022A0005A81B601C70182DF0F900F90DF91CF9165
:1022B0001F910F91FF90EF90DF90CF900895AF9214
:1022C000BF92CF92DF92EF92FF920F931F93CF9323
:1022D000DF937C015B01E9014217530708F4EA012F
:1022E000209779F1F70100811181C480D580C01A4F
:1022F000D10ACC15DD0508F46E01F70164857585FA
:10230000600F711FA601C5010E94761BCC16DD0669
:1023100058F4AE014C195D09F70164857585C50156
:102320008C0D9D1D0E94761B0C0F1D1FF7018481D3
:1023300095810817190710F0081B190BF701118375
:102340000083CE01DF91CF911F910F91FF90EF900D
:10235000DF90CF90BF90AF9008950F931F93CF93CE
:10236000DF93DC01F8016115710511F461E070E0A3
:10237000411102C092E001C093E02115310591F0B6
:10238000309799F08FE0EF0119928A95E9F7358738
:102390002487B583A48377836683926096878E2F84
:1023A0009F2F05C080E090E002C08E2F9F2FDF910D
:1023B000CF911F910F910895FC0124813581808177
:1023C000918142815381820F931F0197841B950B4A
:1023D0008217930710F0821B930B08954F925F9220
:1023E0006F927F928F929F92AF92BF92CF92DF9225
:1023F000EF92FF920F931F93CF93DF9300D01F9222
:102400001F92CDB7DEB76C012B013A013D832C83BF
:10241000FC01868580FF05C04A01F2E08F0E911C09
:1024200001C04A018C819D81892B09F431C0CE0104
:10243000019607D50FB6F8940F92C601BDDF5C0177
:102440008815990500F580E090E0A3D64ED5F601F9
:10245000938782870F900FBEEC80FD8000E010E034
:1024600020E030E0A90160E070E0CB0191D5F601F9
:1024700013861286BE016C5F7F4FCE010196FCD49D
:102480008823C1F202C00F900FBEA114B10419F449
:10249000C60192DF5C0184019501A301B201C6016E
:1024A000CEDE7C01892BD9F0C6016DDEF6012681D6
:1024B00037818217930798F07AD2F601808591854B
:1024C000892B61F08085918500E010E020E040E0FC
:1024D00050E0BA01E0D5F6011186108632D3C7016B
:1024E0000F900F900F900F900F90DF91CF911F9151
:1024F0000F91FF90EF90DF90CF90BF90AF909F90A3
:102500008F907F906F905F904F9008956F927F9221
:102510008F929F92AF92BF92CF92DF92EF92FF92F3
:102520000F931F93CF93DF931F921F92CDB7DEB708
:102530006C013B014A017901FC01868580FD03C0E5
:10254000A12CB12C04C06894AA24A1F8B12CE114E8
:10255000F10429F10FB6F8940F92C60114DE8C0134
:10256000A816B90638F080E090E013D6BED4F60184
:10257000918780870F900FBEA016B106B0F000E0E3
:1025800010E020E030E0A90160E070E0CB0100D570
:10259000F60111861086C601F6DD8C0103C0C60166
:1025A000F2DD8C01A016B106B8F5A114B104C1F09A
:1025B000F601E080F1809801A501BE016F5F7F4FB9
:1025C000C6017DDE89819A810A191B098816990640
:1025D00030F4F601F182E082812C912C01C04C0193
:1025E0009801A401B301C6016ADE7C01892BB1F018
:1025F000DED1F60182859385892B61F082859385F2
:1026000000E010E020E040E050E0BA0144D5F601DF
:102610001386128696D202C0E12CF12CC7010F90CE
:102620000F90DF91CF911F910F91FF90EF90DF906E
:10263000CF90BF90AF909F908F907F906F900895B4
:10264000E0917009F09171098081811107C08FEFCD
:102650009FEF90934809809347090895E09170098E
:10266000F09171090580F681E02D0680F781E02D5B
:102670008281938190934809809347090895FF923E
:102680000F931F93CF93DF93EC01F62E00914F0928
:10269000109150098091960990919709029642D91C
:1026A000CF3F8FEFD80761F4FF2051F0609196097A
:1026B000709197096E5F7F4F82E599E0E1D82DC058
:1026C000C00FD11FE0919609F0919709D383C2837F
:1026D000C017D10760F460919609709197098091B5
:1026E0006E0990916F096E5F7F4FEBD816C06091B5
:1026F00096097091970980917009909171096E5FA8
:102700007F4FDFD88091470990914809C817D907B2
:1027100020F4D0934809C0934709DF91CF911F91CE
:102720000F91FF9008956F927F928F929F92AF9238
:10273000BF92CF92DF92EF92FF920F93CF93DF93EE
:10274000C114D10409F4D1C0E114F10409F4D0C0DA
:10275000E60159013A014B016C01F88EEF8A65EAF6
:1027600070E0C701CCD781E0681A7108EF88F88C57
:10277000E60CF71CD4018C91898F8C918823A1F0F1
:10278000AE01465E5F4FF4013196B8E08B0E911CAE
:10279000CF012191DA012D93AD01DC018C918823C9
:1027A00019F0E815F905A1F718A2043008F003E0C4
:1027B0000E8B09A31AA24E01B2E08B0E911CC4012C
:1027C0005BD8CE010C9658D8D987C88784E090E0B2
:1027D000801B91099D878C87DB8BCA8B1BA21CA257
:1027E0001DA21EA21FA2A501B601C701C2D89983CE
:1027F00088830FB6F8940F92809151098F5F809370
:1028000051098091960990919709892B89F5D09368
:102810009709C093960980915109813009F038C019
:1028200082E799E01BD88BE799E018D884E899E013
:1028300015D88DE899E012D88DE399E00FD884E39C
:1028400099E00CD885E699E009D88CE599E006D89E
:1028500082E599E003D88DE399E090937109809324
:10286000700984E399E090936F0980936E0910C01A
:1028700080914D0981110CC0E0919609F091970962
:1028800096898E89891720F0D0939709C09396096D
:10289000809149098F5F809349098E8990914E09F3
:1028A000981710F480934E0990E09C01220F331F7B
:1028B000220F331F220F331F820F931FB4018E5834
:1028C000964F0E94400C0F900FBE80914D098823B7
:1028D00091F0E0919609F091970996898E89981761
:1028E00068F4F5D88C2F9D2F0BC080E090E008C0D5
:1028F00080E090E005C08C2F9D2F02C08C2F9D2F73
:10290000DF91CF910F91FF90EF90DF90CF90BF902C
:10291000AF909F908F907F906F900895CF92DF92AD
:10292000EF92FF920F93CF93DF9300D000D0CDB7FB
:10293000DEB71E821D821C821B82AE014F5F5F4F7D
:10294000BE016D5F7F4FCE0105960E940E0CCD80BB
:10295000DE80EB80FC8049815A8100E020E030E09D
:102960006FE772E082E790E0DEDE892B91F083D49E
:10297000813079F4F8948FEF9FEF9093480980931A
:10298000470981E080934D091092500910924F0938
:1029900062D826960FB6F894DEBF0FBECDBFDF918A
:1029A000CF910F91FF90EF90DF90CF90089580919D
:1029B00046098F5F8093460908950FB6F8940F92E9
:1029C00080914F09909150090F900FBE0895CF92BA
:1029D000DF92EF92FF920F931F93CF93DF9380913B
:1029E0004609811198C0E0904F09F09050098FEF8F
:1029F000E81AF80AF0925009E0924F09E114F10444
:102A0000B1F4809170099091710920916E09309113
:102A10006F09309371092093700990936F09809327
:102A20006E0980914A098F5F80934A0909DE80917F
:102A3000470990914809E816F90610F4D12C53C0C3
:102A4000D12CCC24C394E0917009F091710980815C
:102A5000811107C08FEF9FEF90934809809347093A
:102A600042C0E0917009F09171090580F681E02D76
:102A7000C681D7818A819B81E816F90628F4909354
:102A80004809809347092FC08E010E5F1F4FC80170
:102A90000E94920C8C899D89892B21F0CE010C9685
:102AA0000E94920C8E8990914E09981710F4809391
:102AB0004E0990E09C01220F331F220F331F220F7B
:102AC000331F820F931FB8018E58964F0E94400CFF
:102AD000E0919609F09197099E898689981708F4E4
:102AE000B2CFDC2CB0CFE0919609F091970986899E
:102AF00090E0FC01EE0FFF1FEE0FFF1FEE0FFF1F18
:102B00008E0F9F1FFC01EE58F64F8081823048F0F7
:102B1000DD24D39406C080914C098F5F80934C09CB
:102B2000D12C80914B09882311F0DD24D3948D2D75
:102B3000DF91CF911F910F91FF90EF90DF90CF9099
:102B40000895DF92EF92FF920F931F93CF93DF933D
:102B50000FB6F8940F9280914609815080934609F0
:102B60008091460981115DC080915109811133C066
:102B70005BC0D7011596ED91FC911697C681D78160
:102B8000CE010C960E94920C8E010E5F1F4FC80161
:102B90000E94920C8E8990914E09981710F48093A0
:102BA0004E0990E09C01220F331F220F331F220F8A
:102BB000331F820F931FB8018E58964F0E94400C0E
:102BC000E0919609F09197099E898689981768F097
:102BD000D0924B090AC0C0E0D0E00F2EF5E6EF2EF0
:102BE000F9E0FF2EF02DDD24D394F70180818111CF
:102BF000C0CFCD2B09F024DDC0914C09CC2349F086
:102C0000D1E0E5DE8111D0934B09C150D1F710928C
:102C10004C0980914B09882331F00E94670D81E0B7
:102C200003C080E001C080E00F900FBEDF91CF9124
:102C30001F910F91FF90EF90DF900895CF93DF9356
:102C4000EC01892B39F0B3DE60E0CE0118DD79DFCD
:102C5000811102C00E94670DDF91CF91089580918C
:102C60004609882321F081E080934B090895109252
:102C70004B09A0919609B0919709E0919609F091BE
:102C800097092D913C918789908D8217930760F069
:102C90006091960970919709809196099091970992
:102CA000675E7F4F0E94010C20914E09822F90E0B9
:102CB000FC01EE0FFF1FEE0FFF1FEE0FFF1FE80FCF
:102CC000F91FEE58F64F3081311111C02150822F7B
:102CD00090E0FC01EE0FFF1FEE0FFF1FEE0FFF1F36
:102CE000E80FF91FEE58F64F3081332379F3AC012A
:102CF000440F551F440F551F440F551F480F591FB0
:102D0000DA01AE58B64F1196ED91FC911297028000
:102D1000F381E02D1296FC93EE9311974B58564F8A
:102D2000E417F50729F442815381FD015283418361
:102D3000FC01EE0FFF1FEE0FFF1FEE0FFF1F8E0FA8
:102D40009F1FFC01EE58F64F0180F281E02D868135
:102D50009781909397098093960920934E0908953F
:102D6000CF93DF93EB016091960970919709645FAF
:102D70007F4F0E94610C61E0CE0181DCDF91CF9139
:102D800008950F931F93CF938B01C42F60919609E1
:102D900070919709645F7F4F0E94400CCC2311F023
:102DA0000FEF1FEF6C2FC8016ADCCF911F910F91BD
:102DB00008950F931F93CF93DF93DC011596ED9148
:102DC000FC911697C681D7818E01045F1F4FC80101
:102DD0000E94920C8091460981111CC00A50110971
:102DE000C8010E94920C8E8990914E09981710F498
:102DF00080934E0990E09C01220F331F220F331F56
:102E0000220F331F820F931FB8018E58964F0E94D6
:102E1000400C05C0B80185E699E00E94400CE091A5
:102E20009609F09197099E898689891720F481E097
:102E300080934B0901C080E0DF91CF911F910F91EA
:102E400008950FB6F8940F9220914A09FC0120834F
:102E500020914F0930915009328321830F900FBE8A
:102E6000089520914A09FC01208320914F09309157
:102E70005009328321830895CF93DF930FB6F894DE
:102E80000F9220914F0930915009DB014D915C91D7
:102E90004F3FBFEF5B07E9F0EC01E981FA81A091B8
:102EA0004A09B881BA1719F02E173F07A0F42E1B54
:102EB0003F0B2417350740F4FB01421B530B518392
:102EC0004083CFDF80E008C0FB011182108281E0E7
:102ED00003C080E001C081E00F900FBEDF91CF9171
:102EE000089581E080934B0908958091960990910F
:102EF0009709089580914D09882331F08091460902
:102F0000882321F080E0089581E0089582E008950B
:102F10000F931F93CF93DF93FC01892B79F182A14B
:102F2000815082A3268991A1291751F181112AC0CC
:102F3000EF018F010E5F1F4FC8010E94920C89A103
:102F40008E8B24E030E0281B31093D872C8790913F
:102F50004E09981710F480934E0990E09C01220FBF
:102F6000331F220F331F220F331F820F931FB8010D
:102F70008E58964F0E94400C81E005C080E003C04F
:102F800080E001C080E0DF91CF911F910F91089503
:102F90004F925F926F927F928F929F92AF92BF9269
:102FA000EF92FF920F931F9349015A010FB6F894C5
:102FB0000F92E0919609F091970927A1223021F113
:102FC000E0919609F091970943A054A065A076A0DE
:102FD000DC01CB0180959095A095B0958421952139
:102FE000A621B72183A394A3A5A3B6A3E091960934
:102FF000F091970981E087A3E114F10429F061E0E1
:10300000C7013DDB0E94670D0F900FBE0FB6F8940D
:103010000F920115110569F0E0919609F091970959
:1030200083A194A1A5A1B6A1F80180839183A28375
:10303000B383E0919609F091970987A18230B1F4AA
:10304000E0919609F091970983A194A1A5A1B6A159
:1030500080949094A094B09488229922AA22BB22B2
:1030600083A294A2A5A2B6A281E001C080E0E09173
:103070009609F091970917A20F900FBE1F910F911B
:10308000FF90EF90BF90AF909F908F907F906F9048
:103090005F904F9008950F931F93CF93DF93FC01A0
:1030A0000FB6F8940F920115110549F083A194A170
:1030B000A5A1B6A1E80188839983AA83BB8387A1D0
:1030C00092E097A32230B1F018F4213031F02AC0F9
:1030D0002330E9F0243001F125C003A114A125A17A
:1030E00036A1402B512B622B732B43A354A365A312
:1030F00076A318C043A154A165A176A14F5F5F4F8D
:103100006F4F7F4F43A354A365A376A30BC043A384
:1031100054A365A376A306C0823079F143A354A3D8
:1031200065A376A3813059F5EF018F010E5F1F4F24
:10313000C8010E94920C8E8990914E09981710F444
:1031400080934E0990E09C01220F331F220F331F02
:10315000220F331F820F931FB8018E58964F0E9483
:10316000400CE0919609F09197099E89868989170C
:1031700040F40E94670D81E005C080E003C081E05B
:1031800001C081E00F900FBEDF91CF911F910F9191
:103190000895009721F480919609909197090FB6B0
:1031A000F8940F92FC0127A1223019F417A281E0B4
:1031B00001C080E00F900FBE0895FC01738362830D
:1031C000918780874617570790F0421B530B8485E1
:1031D000958548175907E0F4BF016E5F7F4F8091D6
:1031E000010A9091020A0E94610C80E00895421742
:1031F000530718F46217730768F4BF016E5F7F4FBF
:103200008091030A9091040A0E94610C80E0089565
:1032100081E0089581E008950F930FB6F8940F921E
:103220008091FF099091000A892B09F582EF99E0BE
:103230000E942E0C89EE99E00E942E0C82EF99E0FC
:103240009093040A8093030A89EE99E09093020A0E
:103250008093010A00E028E939E047EB59E065E096
:103260008AE00E94400F9093000A8093FF090F901C
:103270000FBE0F910895CF92DF92EF92FF920F93BE
:10328000CF93DF9300D000D0CDB7DEB7C5DF8091FC
:10329000FF099091000A892B31F11E821D821C8248
:1032A0001B82AE014F5F5F4FBE016D5F7F4FCE014E
:1032B00005960E941E0CCD80DE80EB80FC8049814B
:1032C0005A8103E020E030E064E872E087E39AE1AD
:1032D0002ADA9C019093FE098093FD0981E0232B5B
:1032E00019F480E001C080E026960FB6F894DEBFA6
:1032F0000FBECDBFDF91CF910F91FF90EF90DF9088
:10330000CF9008950F931F93CF93DF9300D01F9218
:103310001F92CDB7DEB7E091FF09F091000A309718
:1033200069F1D90169835B834A839D838C8366300D
:10333000E4F4E0DD823061F420E0A801BE016F5FBB
:103340007F4F8091FF099091000A0E94550F17C08E
:1033500020E040E050E0BE016F5F7F4F8091FF09A9
:103360009091000A0E94550F0AC020E0AD01BE01F5
:103370006F5F7F4FCF010E94E70F01C080E00F9089
:103380000F900F900F900F90DF91CF911F910F91A1
:103390000895AF92BF92CF92DF92EF92FF920F9378
:1033A0001F93CF93DF936C0108DB7C018091FB09B5
:1033B0009091FC09E816F90608F047C02FC0058077
:1033C000F681E02DA080B180C681D7818E010E5F8D
:1033D0001F4FC8010E94920CE989FA89CE01199504
:1033E0008E858130D9F48C859D858A0D9B1DA8160C
:1033F000B90660F49B838A83D987C887B801809116
:10340000030A9091040A0E94610C08C000E010E0D9
:1034100020E030E0A50160E0CE0174DFE091030A16
:10342000F091040A80818111CACF8091010A9091A4
:10343000020A9093040A8093030AF093020AE0932D
:10344000010A81E0F601808302C0F6011082F09249
:10345000FC09E092FB09C701DF91CF911F910F9109
:10346000FF90EF90DF90CF90BF90AF900895CF93F3
:10347000DF9300D000D0CDB7DEB7CE0101964C016E
:1034800044244394E12CF12C512CC82ED92CE091EA
:10349000030AF091040A8081882309F4B1C00580F1
:1034A000F681E02DA080B18082DAC40172DF8C0148
:1034B0008981811143C00A151B0580F142DBE0912F
:1034C000030AF091040A0580F681E02D668077807A
:1034D000C30102960E94920CD3011E968C911E97F6
:1034E0008130A1F41C966D917C911D976A0D7B1D16
:1034F0009501A801C30161DE882341F00E2D1F2D27
:103500002E2D3F2DA501652DC301FCDED301519663
:10351000ED91FC915297C301199565C0452DB501F8
:10352000601B710B8091FF099091000A0E94A81006
:1035300008DB811158C00E94670D55C002DB53C0E3
:10354000898188230CF44FC0AC80BD80F501828551
:103550009385892B21F0C50102960E94920CCE0121
:10356000069617DFAC019981943089F11CF49330F1
:10357000D0F507C09630BCF198301CF0993039F185
:1035800032C02A813B81D5011C966D917C911D979B
:10359000620F731FC50111DE882329F1D5015196F1
:1035A000ED91FC915297C5011995F5018685813001
:1035B000D1F44A815B8184859585480F591F0E2D72
:1035C0001F2D2E2D3F2D652DC5019CDE0CC06A815F
:1035D0007B81D5011D967C936E931C97640F751F9C
:1035E0009A01C501EADD4E2D5F2D6C2D7D2D809158
:1035F000FF099091000A0E941F108111A1CF47CFAF
:10360000D6D9C401C6DE8C018981811197CFE091A2
:10361000010AF091020A8081442D8111452DAE2CC2
:10362000BF2C7DCF862728E030E080FF07C096952D
:10363000879541E0842740EA942702C096958795B4
:103640002150310991F70895F8946091340C7091EC
:10365000350C8091360C9091370C789408951F9218
:103660000F920FB60F9211248F939F93AF93BF9336
:103670008091340C9091350CA091360CB091370CA0
:103680000196A11DB11D8093340C9093350CA0932D
:10369000360CB093370CBF91AF919F918F910F90E3
:1036A0000FBE0F901F901895A1E21A2EAA1BBB1BEC
:1036B000FD010DC0AA1FBB1FEE1FFF1FA217B307FE
:1036C000E407F50720F0A21BB30BE40BF50B661F14
:1036D000771F881F991F1A9469F7609570958095D8
:1036E00090959B01AC01BD01CF010895FB01DC0168
:1036F00002C001900D9241505040D8F70895DC016E
:1037000001C06D9341505040E0F70895F894FFCF09
:10371000524553504F4E43455F54494D45445F4FCA
:10372000555400567461736B3220726571756972FD
:10373000657320646174610A004E4F206461746196
:103740000A00567461736B32207265636569766531
:103750007320646174610A00567461736B31207365
:10376000656E647320646174610A00567461736BE2
:10377000312073656E745F5F5F5F5F5220646174B8
:10378000610A005461736B31005461736B320049FC
:0C379000444C4500546D722053766300D9
:00000001FF
