S0100000626C616E636865722E73726563D5
S11300009AC00000B9C00000B7C00000B5C000002D
S1130010B3C00000B1C00000AFC00000ADC000001C
S1130020ABC00000A9C00000A7C00000A5C000002C
S11300300C940D160C94DE1F9FC000009DC00000A0
S11300409BC000000C940D0D97C0000095C00000EB
S113005093C0000091C000008FC000008DC000005C
S11300608BC000000C94CF0E0C94080F85C00000C8
S113007083C000000C94220C7FC000007DC00000EF
S11300800C947D0D79C0000077C0000075C000009D
S11300900C94D50F0C940E106FC000006DC00000BE
S11300A06BC0000069C000000C94ED0D65C0000039
S11300B063C0000061C000005FC000000C945D0ECE
S11300C05BC0000059C0000057C000000C94E4104D
S11300D00C941D1151C000000C94F0110C942912C1
S11300E04BC00000CCE6DDE002E81DE080916B0D22
S11300F08823D1F00FB6F8940F92ED81FE818681AA
S1130100978102960E94751480916A0D81508093A4
S11301106A0D80916B0D815080936B0D0F900FBE13
S113012080916B0D8111E6CFF80180818230F0F26D
S11301300E944A15DBCF11241FBECFEFD1E2DEBFF0
S1130140CDBF00E00CBF13E0A0E0B2E0EAE4F5E4C8
S113015000E00BBF02C007900D92AE34B107D9F78F
S113016027E1AEE4B3E001C01D92A732B207E1F784
S11301700E94DC0B0C94A32243CFCF93DF931F92F6
S11301801F92CDB7DEB7E5E2FEE0809104029091C4
S113019005029383828380910602909107029183E2
S11301A080838091020290910302958384838091DD
S11301B0000290910102978386831186108685E060
S11301C090E093878287CF0155D12FEF33ED80E301
S11301D0215030408040E1F700C0000081E037D278
S11301E081E00E94750C9FEF29E532E682E0915090
S11301F0204030408040D9F700C000007BD0892BDC
S113020059F588E092E00E94C70F80E020D21A825C
S1130210198287E190E068D29FEF23EC39E0915096
S113022020403040E1F700C0000089819A81892B89
S113023099F4BE016F5F7F4F80E290E042D28FEF6E
S113024093EC29E0815090402040E1F700C0000089
S113025089819A81892B69F380E0F9D10E94850C08
S113026081112CC08AE192E00E94C70F80E00E94B5
S1130270750C1A82198288E190E036D23FEF83EC44
S113028099E0315080409040E1F700C0000089813E
S11302909A81892B99F4BE016F5F7F4F81E290E0D0
S11302A010D22FEF33EC89E0215030408040E1F749
S11302B000C0000089819A81892B69F380E00E9443
S11302C0750C87E292E00E94C70F86E090E00E94DE
S11302D0811BF7CF6093320E7093330E8093340EEC
S11302E09093350E089540E150E065E08AE691E090
S11302F054C00895CF92DF92EF92FF928091320E14
S11303009091330EA091340EB091350EBC01CD0105
S1130310660F771F881F991F660F771F881F991F05
S11303200E94002120E030E64AE657E40E946C2057
S11303306B017C011092320E1092330E1092340E27
S11303401092350E20E030E0A9010E946820882335
S113035051F0A701960160E070E080E89FE30E94FD
S11303606C206B017C01C701B6010E9419220E9416
S1130370D4206B017C0185E392E00E94C70FB60193
S113038080E090E00E94AB0F8AE00E94920FC601C9
S1130390FF90EF90DF90CF900895E6E3FEE0648352
S11303A05183408393838283CF010C94A50C0895D9
S11303B0E0913B0EF0913C0E19950895E0913D0EAD
S11303C0F0913E0E19950895CF92DF92EF92FF922D
S11303D00F931F93CF93DF936A017901C4E4DEE0A6
S11303E000EF10E01983088381E08C8388ED91E0AD
S11303F09B838A83CE010E94A50C1983088383E022
S11304008C838EED91E09B838A838FE39EE00E9430
S1130410A50CD0923C0EC0923B0EF0923E0EE092A0
S11304203D0E0E943F0CDF91CF911F910F91FF90E1
S1130430EF90DF90CF90089561E081E00C94880CF8
S1130440089560E081E00C94880C0895EEE4F3E0F4
S113045081834283538364837583208381E292E0A2
S1130460918780878CE192E097838683BF0181E046
S1130470D4C708956F927F928F929F92AF92BF924A
S1130480CF92DF92EF92FF920F931F93CF93DF935C
S11304908C0190934A0E8093490EFC01C081D18156
S11304A082819381C89FB001C99F700DD89F700D40
S11304B0112480E090E00E9400216B017C01F8018E
S11304C022853385A9E8B8E80E9484229695879509
S11304D0929582958F7089279F708927BC0180E04F
S11304E090E00E9400214B015C01F8016085718558
S11304F080E090E00E9400219B01AC01C501B401A1
S11305000E9404204B015C01F8016481758180E044
S113051090E00E9400219B01AC01C501B4010E943E
S1130520B62120E030E040EB51E40E94B62120E007
S113053030E040EE50E40E946C209B01AC01C70106
S1130540B6010E946C20F62EE72ED82EC92EF80193
S113055006811781B80180E090E00E940021B62E48
S1130560A72E982E892E262F372F482F592F6F2DDF
S11305707E2D8D2D9C2D0E94B2211816E4F0B80119
S11305807695679580E090E00E940021162F072F52
S1130590782E692E262F372F482F592F6F2D7E2D19
S11305A08D2D9C2D0E94682088234CF4F12EE02E82
S11305B0D72CC62C04C0FB2CEA2CD92CC82CBE0189
S11305C080E090E00E9400219B01AC016F2D7E2D04
S11305D08D2D9C2D0E946C2060934B0E70934C0EBD
S11305E080934D0E90934E0E20E030E44CE955E498
S11305F06F2D7E2D8D2D9C2D0E94B6212B2D3A2DF5
S1130600492D582D0E946C200E94D420AB016938DA
S1130610734138F4443C89E0580728F444EC59E029
S113062002C048E853E161E070E281E00E945F0BA0
S1130630DF91CF911F910F91FF90EF90DF90CF90BA
S1130640BF90AF909F908F907F906F90089581118D
S113065008C045E050E060E070E281E00C945F0B7C
S11306600895813031F441E050E060E070E20C9490
S11306705F0B089580E090E00C94811B089560E086
S113068080E00C94880C089561E080E00C94880C60
S11306900895EAE5F3E020838183428353836483EE
S11306A0758384E493E0978386838FE393E0918753
S11306B080878AE393E093878287BF0180E0ADC699
S11306C00895CF93DF93EB0141E050E0BC0180E05B
S11306D0DAD7811104C060E092D79983888389E0D6
S11306E090E0DF91CF910895AC0160E080E0AAD75B
S11306F041E050E063E070E080E00C94830B0895E7
S11307008F929F92AF92BF92DF92EF92FF920F93DC
S11307101F93CF93DF93CDB7DEB7DA950FB6F89476
S1130720DEBF0FBECDBFD62E8111F5C280919C05D0
S113073089832FEF621306C08FE08A836894BB24F9
S1130740B1F832C06A8381E06817B8F094E0961774
S113075018F4A7E16A1311C080919A0590919B0542
S11307609B838C8380919805909199059D838E83BA
S11307700F2EF6E0BF2EF02D03C06894BB24B1F811
S1130780B0E1BD1540F0EFE0DE1670F48BEF8D0D97
S1130790823000F509C0F6E1DF16E0F027E12D15FF
S11307A018F48FEFD81216C0909116058091170592
S11307B0E1E0F0E0EC0FFD1FEB0DF11D808381E023
S11307C08B0DE1E0F0E0EC0FFD1FE80FF11DB39499
S11307D0B394908390E1D91609F4ADC09D1558F0F7
S11307E0A6E0DA1661F1BFE0DB1609F441C0E5E0EA
S11307F0DE121AC10DC0F7E1DF1609F49CC02FEF19
S1130800D21609F498C086E1D81609F4DFC00CC1E9
S11308109091140580911505E1E0F0E0EC0FFD1FC7
S1130820EB0DF11D808381E08B0DE1E0F0E0EC0F36
S1130830FD1FE80FF11DB394B3949083F5C0E4E970
S1130840F4E080819181A1E0B0E0AC0FBD1FAB0D5D
S1130850B11D9C932081318181E08B0DE1E0F0E0BA
S1130860EC0FFD1FE80FF11DB394B3942083DCC09B
S11308708091140590911505E1E0F0E0EC0FFD1F67
S1130880EB0DF11D908332E03B0D21E02B0DE1E0F7
S1130890F0E0EC0FFD1FE20FF11D8083AC01477007
S11308A05527452B49F09695879596958795969566
S11308B0879521E0280F07C096958795969587958B
S11308C096958795282F93E0B90EFE01E30FF11D4D
S11308D02183222309F4A8C080E0982F917080FF1F
S11308E003C0913099F023C0E82FE695F0E0EE0FB5
S11308F0FF1FEC56FB4F40815181E1E0F0E0EC0F2B
S1130900FD1FEB0DF11D4083B39411C0E82FE69554
S1130910F0E0EE0FFF1FEC56FB4F40815181E1E008
S1130920F0E0EC0FFD1FEB0DF11D5083B3948F5FCE
S11309302813D3CF79C06091140570911505E1E0B7
S1130940F0E0EC0FFD1FEB0DF11D708381E08B0DCA
S1130950E1E0F0E0EC0FFD1FE80FF11D608382E0A1
S11309608B0DE1E0F0E0EC0FFD1FE80FF11DA3E0BB
S1130970BA0E862F880F80837727161617060CF079
S113098053C080E090E020E0880F991FFC01EC56F2
S1130990FB4F80819181A1E0B0E0AC0FBD1FAB0D96
S11309A0B11D9C934081518181E08B0DE1E0F0E029
S11309B0EC0FFD1FE80FF11DB394B39440832F5F38
S11309C0822F90E086179707FCF22EC0E4E9F4E04A
S11309D080819181A1E0B0E0AC0FBD1FAB0DB11DD2
S11309E09C938081918191E09B0DA1E0B0E0AC0FDC
S11309F0BD1FA90FB11D8C938281938182E08B0D61
S1130A00A1E0B0E0AC0FBD1FA80FB11D9C932281E3
S1130A10338183E08B0DE1E0F0E0EC0FFD1FE80F84
S1130A20F11DB4E0BB0E2083BB20B9F08E010F5F33
S1130A301F4FEE24EA94EB0CF12CEFEFEE1AFE0AB2
S1130A40E00EF11E8FEF9FEFD8016D918D010E9492
S1130A50B21F0E151F05C1F702C08FEF9FEFEE24E2
S1130A60E394EB0CE1E0F0E0EC0FFD1FEB0DF11D66
S1130A708083B394B394E1E0F0E0EC0FFD1FEE0D3E
S1130A80F11D9083E1E0F0E0EC0FFD1FEB0DF11D93
S1130A901082E0918704F0918804199581159140A2
S1130AA0C1F7E0918D04F0918E04309709F0199507
S1130AB0BB20A1F08E010F5F1F4FF12CEFEFEE1A58
S1130AC0FE0AE00EF11EE0918904F0918A04D80137
S1130AD08D918D0119950E151F05A9F7E0918504D7
S1130AE0F09186041995EFE8F1E03197F1F700C031
S1130AF00000E0918B04F0918C04309709F0199573
S1130B000E94D31F4B015C0108E010E0ED2CF12C96
S1130B10E0918304F09184041995892B91F0DD24EC
S1130B20D394D10EE0918704F09188041995E1E003
S1130B30F0E0EC0FFD1FE10FF11D808301501D2D2E
S1130B4007C0E0918F04F0919004309709F0199553
S1130B50153051F5998180919C05981340C48A8180
S1130B60282F2F7730E02E153F0509F03AC488234B
S1130B7024F48B818823E1F1C9C0813158F48F308A
S1130B8008F0BFC3813080F0853068F0873008F406
S1130B90B8C30AC0873139F08F3F09F4B2C3863134
S1130BA019F405E0AFC30B810E94D31FDC01CB0114
S1130BB088199909AA09BB09893C9105A105B105C0
S1130BC008F405C488E392E00E94C70F01110BC426
S1130BD082EE81119BC0153008F4B4C3A12EB12C50
S1130BE07501F2E0EF1AF1081E141F045CF099C3BA
S1130BF00F2EF3E0EF2EF12CF02D0F2EF5E0AF2E9B
S1130C00B12CF02D20E030E08FEF9FEF10E0E1E019
S1130C10F0E0EC0FFD1FE20FF31F60810E94B21F92
S1130C201F5F212F30E02E153F058CF37CC3892FE5
S1130C309927FE01EA0DFB1D208130E082179307FE
S1130C4009F07EC37FC39B819695E9F580E05EC081
S1130C507B81972F969509F483C3FE01319640E07A
S1130C6050E080E0803470F4248130E0322F222779
S1130C706381262BDA01AA0FBB1FA85EBA4F119617
S1130C803C932E938F5F4F5F5F4F32968913EACF69
S1130C908FEF890F8093910470FF35C0903470F406
S1130CA0292F30E0220F331FFE01E20FF31F44818E
S1130CB050E0F901E85EFA4F518340839F5F9093BF
S1130CC0910480E023C0FE01319640E050E080E0D2
S1130CD0803470F4238130E0322F22276481262B64
S1130CE0DA01AA0FBB1FA85EBA4F11963C932E934C
S1130CF08F5F4F5F5F4F32968913EACF9150909385
S1130D00910480E003C080E001C080E0109293046D
S1130D101092920470C3813009F0F1C28091820470
S1130D2089832FEF621306C08FE08A836894BB2403
S1130D30B1F832C06A8381E06817B8F094E096177E
S1130D4018F4A7E16A1311C0809180049091810482
S1130D509B838C8380917E0490917F049D838E83FA
S1130D600F2EF6E0BF2EF02D03C06894BB24B1F81B
S1130D70B0E1BD1540F0EFE0DE1670F48BEF8D0DA1
S1130D80823000F509C0F6E1DF16E0F027E12D1509
S1130D9018F48FEFD81216C09091FC038091FD03D4
S1130DA0E1E0F0E0EC0FFD1FEB0DF11D808381E02D
S1130DB08B0DE1E0F0E0EC0FFD1FE80FF11DB394A3
S1130DC0B394908390E1D91609F4ADC09D1558F001
S1130DD0A6E0DA1661F1BFE0DB1609F441C0E5E0F4
S1130DE0DE121BC10DC0F7E1DF1609F49CC02FEF22
S1130DF0D21609F498C086E1D81609F4E0C00DC1F2
S1130E009091FA038091FB03E1E0F0E0EC0FFD1F09
S1130E10EB0DF11D808381E08B0DE1E0F0E0EC0F40
S1130E20FD1FE80FF11DB394B3949083F6C0EAE775
S1130E30F3E080819181A1E0B0E0AC0FBD1FAB0D68
S1130E40B11D9C932081318181E08B0DE1E0F0E0C4
S1130E50EC0FFD1FE80FF11DB394B3942083DDC0A4
S1130E608091FA039091FB03E1E0F0E0EC0FFD1FA9
S1130E70EB0DF11D908322E02B0D31E03B0DE1E001
S1130E80F0E0EC0FFD1FE30FF11D8083AC01477010
S1130E905527452B49F09695879596958795969570
S1130EA0879591E0980F07C09695879596958795B5
S1130EB096958795982FA3E0BA0EFE01E20FF11DD7
S1130EC09183992309F4A9C080E0282F217080FF21
S1130ED003C0213099F023C0E82FE695F0E0EE0F2F
S1130EE0FF1FE658FC4F20813181E1E0F0E0EC0F78
S1130EF0FD1FEB0DF11D2083B39411C0E82FE6957F
S1130F00F0E0EE0FFF1FE658FC4F20813181E1E055
S1130F10F0E0EC0FFD1FEB0DF11D3083B3948F5FF8
S1130F209813D3CF7AC08091FA039091FB03E1E048
S1130F30F0E0EC0FFD1FEB0DF11D908321E02B0D74
S1130F40E1E0F0E0EC0FFD1FE20FF11D808322E0F1
S1130F502B0DE1E0F0E0EC0FFD1FE20FF11DB3E01B
S1130F60BB0E282F220F2083AC015527141615061B
S1130F700CF053C080E090E020E0880F991FFC0142
S1130F80E658FC4F80819181A1E0B0E0AC0FBD1F19
S1130F90AB0DB11D9C936081718181E08B0DE1E00B
S1130FA0F0E0EC0FFD1FE80FF11DB394B3946083E0
S1130FB02F5F822F90E084179507FCF22EC0EAE79A
S1130FC0F3E080819181A1E0B0E0AC0FBD1FAB0DD7
S1130FD0B11D9C938081918191E09B0DA1E0B0E0D3
S1130FE0AC0FBD1FA90FB11D8C938281938182E048
S1130FF08B0DA1E0B0E0AC0FBD1FA80FB11D9C93F9
S11310002281338183E08B0DE1E0F0E0EC0FFD1FE2
S1131010E80FF11D84E0B80E2083BB20B9F08E01E7
S11310200F5F1F4FEE24EA94EB0CF12C9FEFE91AAB
S1131030F90AE00EF11E8FEF9FEFD8016D918D013B
S11310400E94B21F0E151F05C1F702C08FEF9FEF5C
S1131050EE24E394EB0CE1E0F0E0EC0FFD1FEB0D6C
S1131060F11D8083B394B394E1E0F0E0EC0FFD1F35
S1131070EE0DF11D9083E1E0F0E0EC0FFD1FEB0DB0
S1131080F11D1082E0916D03F0916E0319958115A5
S11310909140C1F7E0917303F0917403309709F024
S11310A01995BB20A1F08E010F5F1F4FF12CEFEFBC
S11310B0EE1AFE0AE00EF11EE0916F03F091700348
S11310C0D8018D918D011995E016F106A9F7E091EB
S11310D06903F0916A031995E7E0F7E03197F1F7B6
S11310E000C00000E0917103F0917203309709F0A1
S11310F019950E94D31F4B015C0108E010E0ED2C10
S1131100F12CE0916B03F0916C031995892B91F00C
S1131110DD24D394D10EE0916D03F0916E03199503
S1131120E1E0F0E0EC0FFD1FE10FF11D80830150C1
S11311301D2D07C0E0917503F0917603309709F0F7
S11311401995153051F599818091820498134DC1F8
S11311508A81282F2F7730E02E153F0509F047C1EB
S1131160882324F48B818823D9F1C4C0813158F4B5
S11311708F3008F0F9C0813080F0853068F0873016
S113118008F4F2C00AC0873139F08F3F09F4ECC08B
S1131190863119F405E0E9C00B810E94D31FDC01FC
S11311A0CB0188199909AA09BB09893C9105A105B4
S11311B0B10508F410C181E592E0E9D6011119C125
S11311C082EE811197C0153008F4EFC0012F10E0B2
S11311D07801F2E0EF1AF1081E141F0444F0D4C0A1
S11311E00F2EF3E0EF2EF12CF02D05E010E020E0BF
S11311F030E08FEF9FEFD12CE1E0F0E0EC0FFD1F2A
S1131200E20FF31F60810E94B21FD3942D2D30E0B2
S11312102E153F058CF3BAC0892F9927FE01E00FE4
S1131220F11F208130E08217930709F0BCC0BDC0D4
S11312308B818695E1F55EC06B81862F869509F4D6
S1131240C2C0FE01319640E050E090E0903470F46A
S1131250248130E0322F22277381272BDA01AA0F51
S1131260BB1FA250BC4F11963C932E939F5F4F5FC0
S11312705F4F32969813EACF9FEF980F90937703BE
S113128060FF35C0803470F4282F30E0220F331F04
S1131290FE01E20FF31F448150E0F901E250FC4FDC
S11312A0518340838F5F8093770380E023C0FE01E6
S11312B0319640E050E090E0903470F4238130E0C7
S11312C0322F22276481262BDA01AA0FBB1FA250DA
S11312D0BC4F11963C932E939F5F4F5F5F4F3296A6
S11312E09813EACF81508093770380E003C080E0B5
S11312F001C080E010927903109278037CC084EEE0
S11313007AC003E00E94D31FDC01CB01881999093C
S1131310AA09BB09893C9105A105B10508F4F8CBDC
S113132051CC8FEF9FEFFE01EE0DFF1D218130E0C8
S1131330AC0155274217530709F479CC83EEE6CC68
S113134083EEE4CC8A81853038F4833008F07BCC9A
S1131350813008F07DCCD9CC873109F474CCD5CC5C
S113136070FD9ECC80E0D2CC03E00E94D31FDC0150
S1131370CB0188199909AA09BB09893C9105A105E2
S1131380B10508F4BECE17CF8FEF9FEFFE01EE0D2F
S1131390FF1D218130E0AC0155274217530709F4A2
S11313A03BCF83EEA7CF83EEA5CF8A81853038F477
S11313B0833008F03DCF813008F03ECF9ACF87319B
S11313C009F436CF96CF60FD5FCF80E093CF011153
S11313D09FCB80E0FECB011194CE80E0F2CE80EE74
S11313E095CC81EE93CC82EE91CC80EE83CF81EECE
S11313F081CF82EE7FCFD3950FB6F894DEBF0FBEB8
S1131400CDBFDF91CF911F910F91FF90EF90DF90AF
S1131410BF90AF909F908F900895FB01811188C079
S1131420808180939C05418162817381848195814F
S11314302681378130938E0420938D042085318555
S113144030938C0420938B0422853385309390044D
S113145020938F041092920410929104413009F564
S1131460209168032111CAC021E0209368030BD6A0
S113147081ED90E190938404809383048FED90E157
S1131480909386048093850488E990E1909388047E
S11314908093870488EB90E190938A048093890475
S11314A00895423009F5209167032111A7C021E076
S11314B020936703F7D68DED91E190938404809394
S11314C083048BEE91E1909386048093850487EAEC
S11314D091E1909388048093870484EC91E1909344
S11314E08A04809389040895433009F087C02091C9
S11314F06603211183C021E020936603DFD789EEC0
S113150092E1909384048093830487EF92E1909313
S113151086048093850483EB92E1909388048093FE
S1131520870480ED92E190938A048093890408955E
S1131530813009F063C0808180938204418162819B
S1131540738184819581268137813093740320933C
S113155073032085318530937203209371032285B0
S11315603385309376032093750310927803109299
S11315707703413009F52091680321113FC021E030
S11315802093680380D581ED90E190936C03809360
S11315906B038FED90E190936A038093690388E96C
S11315A090E190936E0380936D0388EB90E19093A8
S11315B0700380936F030895423001F5209167030F
S11315C021111CC021E0209367036CD68DED91E1BD
S11315D090936C0380936B038BEE91E190936A0379
S11315E08093690387EA91E190936E0380936D037E
S11315F084EC91E19093700380936F0308958111BB
S11316000BC06034B0F4E62FF0E0EE0FFF1FE85E8D
S1131610FA4F808191810895813071F4603478F4B7
S1131620E62FF0E0EE0FFF1FE250FC4F8081918126
S113163008958FEF9FEF08958FEF9FEF08958FEF39
S11316409FEF089581110BC06034B8F4E62FF0E0E9
S1131650EE0FFF1FEC56FB4F5183408308958130FA
S113166071F4603470F4E62FF0E0EE0FFF1FE658DB
S1131670FC4F5183408380E0089582E0089582E026
S1131680089582E0089581110BC070939B056093C7
S11316909A05509399054093980563E031C80895DD
S11316A0813059F4709381046093800450937F04D3
S11316B040937E0463E024C8089584EE0895811164
S11316C00FC07093170560931605109215051092BC
S11316D01405509395044093940466E011C808954A
S11316E0813079F47093FD036093FC031092FB0343
S11316F01092FA0350937B0340937A0366E000C888
S1131700089584EE089581110CC0709317056093B9
S1131710160550931505409314056FEF0C94800340
S11317200895813061F47093FD036093FC0350933A
S1131730FB034093FA036FEF0C948003089584EE47
S113174008958AE692E023C4089582E892E01FC4D3
S1131750089580EA92E01BC4089581ED92E017C4D5
S1131760089569EA7BE08DEA9BE00E943A1F85EACE
S11317709BE00E94431F81EA9BE00C94911F089513
S113178081E093E004D48EE093E001D48FE190E013
S11317900E94811BF8CFCF93DF931F92CDB7DEB7A2
S11317A019828CE193E0F3D3CE0101960E94BD002F
S11317B00F90DF91CF9108958FEF8DB960E875E2B6
S11317C080E090E05AD30E94961F0E94881F8DE209
S11317D093E0DDD30F2EF9E7CF2EFEE0DF2EF02DC0
S11317E00F2EFCECEF2EF0E1FF2EF02D02E020E0B6
S11317F030E044EF51E065E373E08BEC9BE00E9442
S113180000199093A00580939F050F2EFFE4CF2E1F
S1131810FEE0DF2EF02D0F2EF8EDEF2EFEE0FF2E72
S1131820F02D20E030E044EF51E06BE373E080EC16
S11318309BE00E94001990939E0580939D050E9451
S1131840F919FFCF1F920F920FB60F9211242F9305
S11318508F939F93809178002091790090E0922B50
S11318609093A3058093A20581E08093A1059F91A5
S11318708F912F910F900FBE0F901F901895EAE053
S1131880F1E080818F7E808380818F7D8083808161
S11318908F7B8083539820983A9854983C9A3F9A27
S11318A03D9A399A399A579AE7E0F1E08081806845
S11318B080833898569A3B9AE4E0F1E08081846012
S11318C08083549A3F9A3F9AE1E0F1E080818E7FD1
S11318D08083808182608083E2E0F1E080818160A6
S11318E080835298539A5A9A0895813031F4E8E0EB
S11318F0F1E08081806880830895811105C0E8E06B
S1131900F1E080818F778083089586B18170089596
S1131910882319F0813089F00895613031F4E5E0CD
S1131920F1E0808184608083089561110DC0E5E059
S1131930F1E080818B7F80830895613011F45C9A9B
S11319400895611101C05C980895FC01948191305F
S1131950B1F4109280008EE08093810080819181A7
S113196001979093890080938800AFE6B0E08C9152
S113197082608C93F093DE16E093DD1649C09330B9
S1131980B1F4109290008EE0809391008081918157
S113199001979093990080939800A1E7B0E08C910F
S11319A082608C93F093DA16E093D91631C09430A8
S11319B0B1F41092A0008EE08093A1008081918107
S11319C001979093A9008093A800A3E7B0E08C91BD
S11319D082608C93F093DC16E093DB1619C095308B
S11319E0D1F4109220018EE08093210180819181B5
S11319F001979093290180932801A3E7B0E08C918B
S1131A0082608C93F093E016E093DF161092240129
S1131A10789481E008958FEF08951F920F920FB686
S1131A200F9211240BB60F922F933F934F935F9312
S1131A306F937F938F939F93AF93BF93EF93FF9392
S1131A40CF93DF9300D01F92CDB7DEB70E94D31F90
S1131A506093C0057093C1058093C2059093C3053C
S1131A608091C0059091C105A091C205B091C305B4
S1131A704091BC055091BD056091BE057091BF05B4
S1131A80841B950BA60BB70B89839A83AB83BC830A
S1131A908091C0059091C105A091C205B091C30584
S1131AA08093BC059093BD05A093BE05B093BF057C
S1131AB069817A818B819C81E091DD16F091DE163B
S1131AC00280F381E02D19950F900F900F900F90E5
S1131AD0DF91CF91FF91EF91BF91AF919F918F9142
S1131AE07F916F915F914F913F912F910F900BBE1A
S1131AF00F900FBE0F901F9018951F920F920FB664
S1131B000F9211240BB60F922F933F934F935F9331
S1131B106F937F938F939F93AF93BF93EF93FF93B1
S1131B20CF93DF9300D01F92CDB7DEB70E94D31FAF
S1131B306093B8057093B9058093BA059093BB057B
S1131B408091B8059091B905A091BA05B091BB05F3
S1131B504091B4055091B5056091B6057091B705F3
S1131B60841B950BA60BB70B89839A83AB83BC8329
S1131B708091B8059091B905A091BA05B091BB05C3
S1131B808093B4059093B505A093B605B093B705BB
S1131B9069817A818B819C81E091D916F091DA1662
S1131BA00280F381E02D19950F900F900F900F9004
S1131BB0DF91CF91FF91EF91BF91AF919F918F9161
S1131BC07F916F915F914F913F912F910F900BBE39
S1131BD00F900FBE0F901F9018951F920F920FB683
S1131BE00F9211240BB60F922F933F934F935F9351
S1131BF06F937F938F939F93AF93BF93EF93FF93D1
S1131C00CF93DF9300D01F92CDB7DEB70E94D31FCE
S1131C106093B0057093B1058093B2059093B305BA
S1131C208091B0059091B105A091B205B091B30532
S1131C304091AC055091AD056091AE057091AF0532
S1131C40841B950BA60BB70B89839A83AB83BC8348
S1131C508091B0059091B105A091B205B091B30502
S1131C608093AC059093AD05A093AE05B093AF05FA
S1131C7069817A818B819C81E091DB16F091DC167D
S1131C800280F381E02D19950F900F900F900F9023
S1131C90DF91CF91FF91EF91BF91AF919F918F9180
S1131CA07F916F915F914F913F912F910F900BBE58
S1131CB00F900FBE0F901F9018951F920F920FB6A2
S1131CC00F9211240BB60F922F933F934F935F9370
S1131CD06F937F938F939F93AF93BF93EF93FF93F0
S1131CE0CF93DF9300D01F92CDB7DEB70E94D31FEE
S1131CF06093A8057093A9058093AA059093AB05FA
S1131D008091A8059091A905A091AA05B091AB0571
S1131D104091A4055091A5056091A6057091A70571
S1131D20841B950BA60BB70B89839A83AB83BC8367
S1131D308091A8059091A905A091AA05B091AB0541
S1131D408093A4059093A505A093A605B093A70539
S1131D501092240169817A818B819C81E091DF1644
S1131D60F091E0160280F381E02D19950F900F9009
S1131D700F900F90DF91CF91FF91EF91BF91AF91B1
S1131D809F918F917F916F915F914F913F912F918F
S1131D900F900BBE0F900FBE0F901F9018951F92BF
S1131DA00F920FB60F9211240BB60F922F933F93FD
S1131DB04F935F938F939F93EF93FF932091C00072
S1131DC03091C60028718091D90890E001968F77F0
S1131DD099274091D80850E08417950739F08093EB
S1131DE0D908FC01E452F74F308301C022E020936C
S1131DF0D708FF91EF919F918F915F914F913F9100
S1131E002F910F900BBE0F900FBE0F901F9018953F
S1131E101F920F920FB60F9211240BB60F928F934D
S1131E209F93EF93FF939091DB088091DA089817C2
S1131E3089F08091DA0890E001968F779927809352
S1131E40DA08FC01E45AF64F80818093C6001092B0
S1131E50C70508C0E1ECF0E080818F7D808381E0DC
S1131E608093C705FF91EF919F918F910F900BBEC7
S1131E700F900FBE0F901F9018950F931F938B0117
S1131E809C01F8941092DB081092DA081092D90899
S1131E901092D8087894DC01CB0180589B47A14E5E
S1131EA0BF4F880F991FAA1FBB1F880F991FAA1F16
S1131EB0BB1FBC01CD01660F771F881F991F000F40
S1131EC0111F221F331F000F111F221F331FA901CF
S1131ED09801220F331F441F551F220F331F441F25
S1131EE0551F0E946222BA01A9014150510961099A
S1131EF0710957FF06C082E08093C0005F776627B0
S1131F007727BB27A72F962F852F8093C500409353
S1131F10C40088E98093C10086E08093C2001F91C9
S1131F200F9108954091DB0850E04F5F5F4F4F776A
S1131F3055272091DA0830E042175307D1F3FA010C
S1131F40E45AF64F80834093DB08E1ECF0E08081B3
S1131F508062808308950F931F93CF93DF936A3039
S1131F6071058105910558F02AE030E040E050E029
S1131F700E946222062FCA01B901EDDF602F80E3BF
S1131F80860FD0DFDF91CF911F910F910895CF93EA
S1131F90DF93EC018881882329F02196C3DF89919E
S1131FA08111FCCFDF91CF9108951F920F920FB64C
S1131FB00F9211240BB60F922F933F934F935F937D
S1131FC08F939F93EF93FF932091C8003091CE009D
S1131FD028718091D40790E001968F7799274091DA
S1131FE0D30750E08417950739F08093D407FC0198
S1131FF0E952F84F308301C022E02093D207FF91C9
S1132000EF919F918F915F914F913F912F910F90FD
S11320100BBE0F900FBE0F901F9018951F920F923A
S11320200FB60F9211240BB60F928F939F93EF93D9
S1132030FF939091D6078091D507981789F08091E6
S1132040D50790E001968F7799278093D507FC01F7
S1132050E95AF74F80818093CE001092C60508C0DC
S1132060E9ECF0E080818F7D808381E08093C60578
S1132070FF91EF919F918F910F900BBE0F900FBE28
S11320800F901F9018950F931F938B019C01F89448
S11320901092D6071092D5071092D4071092D30746
S11320A07894DC01CB0180589B47A14EBF4F880F29
S11320B0991FAA1FBB1F880F991FAA1FBB1FBC0112
S11320C0CD01660F771F881F991F000F111F221F54
S11320D0331F000F111F221F331FA9019801220F64
S11320E0331F441F551F220F331F441F551F0E94C7
S11320F06222BA01A901415051096109710957FFCE
S113210006C082E08093C8005F7766277727BB27E5
S1132110A72F962F852F8093CD004093CC0088E97C
S11321208093C90086E08093CA001F910F9108959F
S1132130F8949091D4078091D307981304C07894AD
S113214080E091E008958091D30790E001968F7725
S113215099278093D3077894FC01E952F84F2081A2
S11321608091D20790E0982F8827820F911D0895BF
S11321704091D60750E04F5F5F4F4F77552720912E
S1132180D50730E042175307D1F3FA01E95AF74F64
S113219080834093D607E9ECF0E0808180628083FD
S11321A00895F8948091D4072091D307789490E00F
S11321B080589F4F821B91098F77992708958091AA
S11321C0C6058823E1F308951F920F920FB60F926C
S11321D011240BB60F922F933F934F935F938F93DA
S11321E09F93EF93FF932091D0003091D6002871F4
S11321F08091CF0690E001968F7799274091CE0683
S113220050E08417950739F08093CF06FC01EE5215
S1132210F94F308301C022E02093CD06FF91EF9166
S11322209F918F915F914F913F912F910F900BBE92
S11322300F900FBE0F901F9018951F920F920FB61C
S11322400F9211240BB60F928F939F93EF93FF93EA
S11322509091D1068091D006981789F08091D0068C
S113226090E001968F7799278093D006FC01EE5A6F
S1132270F84F80818093D6001092C50508C0E1ED27
S1132280F0E080818F7D808381E08093C505FF919C
S1132290EF919F918F910F900BBE0F900FBE0F90F7
S11322A01F9018950F931F938B019C01F894109223
S11322B0D1061092D0061092CF061092CE067894D2
S11322C0DC01CB0180589B47A14EBF4F880F991F5B
S11322D0AA1FBB1F880F991FAA1FBB1FBC01CD01DA
S11322E0660F771F881F991F000F111F221F331FAE
S11322F0000F111F221F331FA9019801220F331F42
S1132300441F551F220F331F441F551F0E94622272
S1132310BA01A901415051096109710957FF06C069
S113232082E08093D0005F7766277727BB27A72FAB
S1132330962F852F8093D5004093D40088E980930D
S1132340D10086E08093D2001F910F91089590915F
S1132350CF068091CE069817A1F08091CE0690E02A
S113236001968F7799278093CE06FC01EE52F94FA0
S113237020818091CD0690E0982F8827820F911DAF
S1132380089580E091E008954091D10650E04F5FB8
S11323905F4F4F7755272091D00630E042175307FF
S11323A0D1F3FA01EE5AF84F80834093D106E1ED60
S11323B0F0E08081806280830895F8948091CF0654
S11323C02091CE06789490E080589F4F821B91090B
S11323D08F77992708958091C5058823E1F308959F
S11323E01F920F920FB60F9211240BB60F922F93D8
S11323F03F934F935F938F939F93EF93FF9320911A
S113240030013091360128718091CA0590E001961F
S11324108F7799274091C90550E08417950739F0C3
S11324208093CA05FC01E353FA4F308301C022E0D4
S11324302093C805FF91EF919F918F915F914F91E8
S11324403F912F910F900BBE0F900FBE0F901F90D6
S113245018951F920F920FB60F9211240BB60F927C
S11324608F939F93EF93FF939091CC058091CB052D
S1132470981789F08091CB0590E001968F77992782
S11324808093CB05FC01E35BF94F80818093360197
S11324901092C40508C0E1E3F1E080818F7D808360
S11324A081E08093C405FF91EF919F918F910F90EC
S11324B00BBE0F900FBE0F901F9018950F931F9394
S11324C08B019C01F8941092CC051092CB051092CC
S11324D0CA051092C9057894DC01CB0180589B474A
S11324E0A14EBF4F880F991FAA1FBB1F880F991FAA
S11324F0AA1FBB1FBC01CD01660F771F881F991F40
S1132500000F111F221F331F000F111F221F331F23
S1132510A9019801220F331F441F551F220F331F97
S1132520441F551F0E946222BA01A901415051095A
S11325306109710957FF06C082E0809330015F771B
S113254066277727BB27A72F962F852F80933501E2
S11325504093340188E98093310186E0809332010D
S11325601F910F9108959091CA058091C9059817FC
S1132570A1F08091C90590E001968F779927809307
S1132580C905FC01E353FA4F20818091C80590E00E
S1132590982F8827820F911D089580E091E0089577
S11325A04091CC0550E04F5F5F4F4F775527209106
S11325B0CB0530E042175307D1F3FA01E35BF94F3F
S11325C080834093CC05E1E3F1E0808180628083E5
S11325D00895F8948091CA052091C905789490E0F3
S11325E080589F4F821B91098F7799270895809176
S11325F0C4058823E1F3089508950F9303E021E8C7
S11326003AE040E050E060E081E017D49093A10A02
S11326108093A00A20E63AE040E050E060E081E0E8
S11326200CD49093800A80937F0A2FE33AE040E031
S113263050E060E081E001D490935F0A80935E0AE9
S11326402EE13AE040E050E060E081E0F6D3909380
S11326503E0A80933D0A2DEF39E040E050E060E00F
S113266081E0EBD390931D0A80931C0A2CED39E092
S113267040E050E060E081E0E0D39093FC09809377
S1132680FB090F9108950F9303E023EC3AE040E037
S113269050E060E081E0D1D39093E30A8093E20AB2
S11326A022EA3AE040E050E060E081E0C6D3909353
S11326B0C20A8093C10A0F9108959EDF9EDF03D062
S11326C0E2DF31C008950F9303E027E43BE040E0EC
S11326D050E060E081E0B1D39093670B8093660B88
S11326E026E23BE040E050E060E081E0A6D3909336
S11326F0460B8093450B25E03BE040E050E060E072
S113270081E09BD39093250B8093240B24EE3AE035
S113271040E050E060E081E090D39093040B80931C
S1132720030B0F9108950F9303E02EE23CE040E089
S113273050E060E081E081D390934E0C80934D0C87
S11327402DE03CE040E050E060E081E076D39093FF
S11327502D0C80932C0C2CEE3BE040E050E060E02C
S113276081E06BD390930C0C80930B0C2BEC3BE02F
S113277040E050E060E081E060D39093EB0B809305
S1132780EA0B2AEA3BE040E050E060E081E055D308
S11327909093CA0B8093C90B29E83BE040E050E0DA
S11327A060E081E04AD39093A90B8093A80B28E6BC
S11327B03BE040E050E060E081E03FD39093880B41
S11327C08093870B0F910895279A2F9A2FEF87EA0A
S11327D091E6215080409040E1F700C000001F9A2C
S11327E0F5CF23E23DE0FC01318320838EEC9CE0B5
S11327F0FB019183808385E590E0FA0191838083D6
S1132800089524EA3CE0FC01318320838FE49CE0BA
S1132810FB019183808385E590E0FA0191838083B5
S11328200895FC010396928381832FEF3FEF348355
S11328302383968385839087878310820895FC0180
S1132840118610860895CF93DF939C01FB01DC0170
S11328501196CD91DC911297D383C2838C819D8193
S1132860958384838C819D81DC0113967C936E9384
S113287012977D836C8331872087F90180818F5F74
S11328808083DF91CF910895CF93DF93EB0148814B
S113289059814F3F2FEF520721F4FC01A781B085E6
S11328A00DC0DC01139601C0DF011296ED91FC917D
S11328B013972081318142175307B0F71296ED9197
S11328C0FC911397FB83EA83D583C483BD83AC83D4
S11328D01396DC93CE93129799878887FC01208105
S11328E02F5F2083DF91CF910895CF93DF93FC0175
S11328F0A085B185C281D381848195819D838C8398
S1132900C481D581828193819B838A8311968D9121
S11329109C911297E817F90731F4848195811296F6
S11329209C938E931197118610868C9181508C9371
S11329308C91DF91CF91089531E1FC01308331977F
S113294022E220833197A3E3A083319760833197F8
S113295070833197108231971082319760E86083D9
S1132960319710823197108231971082319762E04B
S11329706083319763E06083319764E060833197CB
S113298065E06083319766E06083319767E0608338
S1132990319768E06083319769E06083319760E143
S11329A0608331973083319732E13083319733E15B
S11329B03083319734E13083319735E13083319777
S11329C036E13083319737E13083319738E1308312
S11329D0319739E13083319730E23083319731E2F6
S11329E0308331972083319723E2208331974083CA
S11329F031975083319726E22083319727E2208351
S1132A00319728E22083319729E22083319720E30C
S1132A102083319721E3208389970895A89590EC2A
S1132A2088E10FB6F894A895809360000FBE909348
S1132A306000A091A60DB091A70DCD91CDBFDD9101
S1132A40DEBFFF91EF91DF91CF91BF91AF919F9145
S1132A508F917F916F915F914F913F912F911F9132
S1132A600F91FF90EF90DF90CF90BF90AF909F9029
S1132A708F907F906F905F904F903F902F901F901A
S1132A800F900CBE0F900BBE0F900FBE0F900895C9
S1132A9081E008950F920FB6F8940F920BB60F923F
S1132AA00CB60F921F9211242F923F924F925F9275
S1132AB06F927F928F929F92AF92BF92CF92DF924A
S1132AC0EF92FF920F931F932F933F934F935F9334
S1132AD06F937F938F939F93AF93BF93CF93DF9322
S1132AE0EF93FF93A091A60DB091A70D0DB60D9293
S1132AF00EB60D9216D6A091A60DB091A70DCD914C
S1132B00CDBFDD91DEBFFF91EF91DF91CF91BF91FA
S1132B10AF919F918F917F916F915F914F913F9171
S1132B202F911F910F91FF90EF90DF90CF90BF9066
S1132B30AF909F908F907F906F905F904F903F9059
S1132B402F901F900F900CBE0F900BBE0F900FBED6
S1132B500F9008950F920FB6F8940F920BB60F9240
S1132B600CB60F921F9211242F923F924F925F92B4
S1132B706F927F928F929F92AF92BF92CF92DF9289
S1132B80EF92FF920F931F932F933F934F935F9373
S1132B906F937F938F939F93AF93BF93CF93DF9361
S1132BA0EF93FF93A091A60DB091A70D0DB60D92D2
S1132BB00EB60D9213BE75D48111B3D5A091A60D96
S1132BC0B091A70DCD91CDBFDD91DEBFFF91EF9107
S1132BD0DF91CF91BF91AF919F918F917F916F9131
S1132BE05F914F913F912F911F910F91FF90EF9023
S1132BF0DF90CF90BF90AF909F908F907F906F9019
S1132C005F904F903F902F901F900F900CBE0F90AD
S1132C100BBE0F900FBE0F9008959CDF18950FB652
S1132C20F8940F92FC01928D0F900FBE81E09111E8
S1132C3080E008950F931F93CF93DF93EC01042F4B
S1132C401A8D4C8D41110BC088819981892B09F013
S1132C5041C08C819D819BD61D821C8242C0011182
S1132C6017C050E08A819B810E9493222C8D8A8117
S1132C709B81820F911D9B838A832C813D818217C6
S1132C80930750F1888199819B838A8380E029C0CE
S1132C9050E08E819F810E9493228C8D90E09195CB
S1132CA0819591092E813F81280F391F3F832E83FF
S1132CB0488159812417350730F42C813D81820FD6
S1132CC0931F9F838E83023049F4112349F01150DE
S1132CD080E007C080E005C080E003C080E001C060
S1132CE080E01F5F1A8FDF91CF911F910F9108959C
S1132CF0FC01448D4423A9F050E026813781240F40
S1132D00351F37832683848195812817390720F05E
S1132D108081918197838683CB01668177810C942E
S1132D2093220895EF92FF920F931F93CF938C01F8
S1132D300FB6F8940F92FC01C68D1C169CF4818981
S1132D40811106C00FC0F8018189811105C00AC034
S1132D507801F1E1EF0EF11CC7018BD5811105D685
S1132D60C15089F78FEFF801868F0F900FBE0FB611
S1132D70F8940F92C58D1C169CF48085811106C0B1
S1132D800FC0F8018085811105C00AC07801F8E000
S1132D90EF0EF11CC7016DD58111E7D5C15089F73C
S1132DA08FEFF801858F0F900FBECF911F910F9178
S1132DB0FF90EF900895CF93DF93EC010FB6F89452
S1132DC00F92E881F9818B8D2C8D90E030E0829F09
S1132DD0A001839F500D929F500D11244E0F5F1F31
S1132DE05D834C831A8EFB83EA830197829FA00143
S1132DF0839F500D929F500D1124CF01840F951F76
S1132E009F838E838FEF8D8F8E8F61110AC088858B
S1132E10882369F0CE0108962CD5882341F03ADE48
S1132E2006C0CE010896FDDCCE014196FADC0F9077
S1132E300FBE81E0DF91CF910895CF93DF93E90135
S1132E40209761F0611103C03983288302C059833C
S1132E5048838B8F6C8F61E0CE01ADDFCE01DF91B3
S1132E60CF9108959F92AF92BF92CF92DF92EF924B
S1132E70FF920F931F93CF93DF9300D01F921F9263
S1132E80CDB7DEB78C016B015D834C83A22EB12CD0
S1132E90992493947C0188E0E80EF11C0FB6F89411
S1132EA00F92F801928D838D981718F0F2E0AF120B
S1132EB015C04A2DB601C801BDDEF80191899923D8
S1132EC039F0C8014196D5D4882321F0E3DD02C04E
S1132ED08111E0DD0F900FBE81E045C08C819D81A2
S1132EE0892B21F40F900FBE80E03DC0B11004C0C7
S1132EF0CE01019604D5B92C0F900FBEC2D20FB6E5
S1132F00F8940F92F801858D8F3F09F4158EF8011E
S1132F10868D8F3F09F4168E0F900FBEBE016C5F35
S1132F207F4FCE010196F6D4811119C00FB6F894E3
S1132F300F92F801928D838D0F900FBE98130BC0E2
S1132F406C817D81C7016DD4C801ECDE61D3811130
S1132F50A5CFA0DDA3CFC801E5DE5AD39FCFC8011A
S1132F60E1DE56D380E00F900F900F900F900F90FA
S1132F70DF91CF911F910F91FF90EF90DF90CF9051
S1132F80BF90AF909F900895EF92FF920F931F937D
S1132F90CF93DF938A01FC01528D338D531710F0C8
S1132FA02230E1F4422F7801EC011E8D43DE1F3FF5
S1132FB079F489898823A1F0CE0141965AD48823D3
S1132FC089F0E114F10481F081E0F70180830DC000
S1132FD0FF24F394F10EFE8E81E007C080E005C06B
S1132FE081E003C081E001C081E0DF91CF911F91B6
S1132FF00F91FF90EF9008959F92AF92BF92CF925E
S1133000DF92EF92FF920F931F93CF93DF9300D041
S11330101F921F92CDB7DEB78C015B015D834C8399
S1133020E12C992493946C0181E1C80ED11C0FB654
S1133030F8940F92F801F28CFF2091F0B501C801C9
S113304057DEFA94F801F28E8085882329F0C801AE
S113305008960FD481111EDD0F900FBE81E044C08D
S11330608C819D81892B21F40F900FBE80E03CC0A0
S1133070E11004C0CE01019642D4E92C0F900FBE9A
S113308000D20FB6F8940F92F801858D8F3F09F4A2
S1133090158EF801868D8F3F09F4168E0F900FBEA2
S11330A0BE016C5F7F4FCE01019634D4811113C0F1
S11330B0C801B5DD882359F06C817D81C601B1D387
S11330C0C80130DEA5D28111B2CFE4DCB0CFC80193
S11330D029DE9ED2ACCFC80125DE9AD2C8019FDD7D
S11330E0882309F4A4CF80E00F900F900F900F90E5
S11330F00F90DF91CF911F910F91FF90EF90DF9090
S1133100CF90BF90AF909F900895CF93DF93EC0141
S11331100FB6F8940F928D8D8F3F09F41D8E8E8D0E
S11331208F3F09F41E8E0F900FBE8A8D811103C04C
S1133130CE01419686D3CE01F5DDDF91CF9108957E
S1133140E091800DF091810D8081811107C08FEF96
S11331509FEF9093610D8093600D0895E091800D31
S1133160F091810D0580F681E02D0680F781E02D38
S1133170828193819093610D8093600D08950F93E4
S11331801F93CF93DF93EC010091680D1091690DAB
S11331908091A60D9091A70D0296A7DBC00FD11FB9
S11331A0E091A60DF091A70DD383C283C017D10778
S11331B060F46091A60D7091A70D80917E0D9091A1
S11331C07F0D6E5F7F4F60DB16C06091A60D70911E
S11331D0A70D8091800D9091810D6E5F7F4F54DB20
S11331E08091600D9091610DC817D90720F4D09398
S11331F0610DC093600DDF91CF911F910F910895E0
S11332006F927F928F929F92AF92BF92CF92DF92F2
S1133210EF92FF920F93CF93DF93C114D10409F47B
S1133220CFC0E114F10409F4CEC0E60159013A011A
S11332304B016C01F88EEF8A65EA70E0C7010E94C9
S11332409C2281E0681A7108EF88F88CE60CF71C60
S1133250D4018C91898F8C918823A1F0AE01465EB4
S11332605F4FF4013196B8E08B0E911CCF01219190
S1133270DA012D93AD01DC018C91882319F0E81556
S1133280F905A1F718A2043008F003E00E8B09A396
S11332901AA24E01B2E08B0E911CC401D0DACE0109
S11332A00C96CDDAD987C88784E090E0801B910919
S11332B09D878C87DB8BCA8B1CA21BA21DA21EA21E
S11332C01FA218A619A6A501B601C70135DB99836B
S11332D088830FB6F8940F9280916A0D8F5F809364
S11332E06A0D8091A60D9091A70D892B69F5D09355
S11332F0A70DC093A60D80916A0D8130A9F582E8CF
S11333009DE08FDA8BE89DE08CDA84E99DE089DA30
S11333108DE99DE086DA86E59DE083DA8DE49DE023
S113332080DA85E79DE07DDA8CE69DE07ADA86E551
S11333309DE09093810D8093800D8DE49DE09093AA
S11333407F0D80937E0D10C08091660D81110CC09D
S1133350E091A60DF091A70D96898E89891720F02A
S1133360D093A70DC093A60D8091620D8F5F8093BB
S1133370620D8E899091670D981710F48093670DF4
S113338090E09C01220F331F220F331F220F331FA3
S1133390820F931FB4018E57924F55DA0F900FBED0
S11333A08091660D882391F0E091A60DF091A70D10
S11333B096898E89981768F46DDB8C2F9D2F0BC02E
S11333C080E090E008C080E090E005C08C2F9D2F45
S11333D002C08C2F9D2FDF91CF910F91FF90EF9022
S11333E0DF90CF90BF90AF909F908F907F906F9021
S11333F00895CF92DF92EF92FF920F93CF93DF93D2
S113340000D000D0CDB7DEB71E821D821C821B8285
S1133410AE014F5F5F4FBE016D5F7F4FCE010596DA
S1133420E0D9CD80DE80EB80FC8049815A8100E0C8
S113343020E030E061E473E082E790E0E1DE892B94
S113344091F042D3813079F4F8948FEF9FEF909309
S1133450610D8093600D81E08093660D1092690D7B
S11334601092680DDBDA26960FB6F894DEBF0FBE15
S1133470CDBFDF91CF910F91FF90EF90DF90CF9070
S1133480089580915F0D8F5F80935F0D08950FB64F
S1133490F8940F928091680D9091690D0F900FBE72
S11334A00895CF92DF92EF92FF920F931F93CF93E1
S11334B0DF9380915F0D811195C0E090680DF090CD
S11334C0690D8FEFE81AF80AF092690DE092680D21
S11334D0E114F104B1F48091800D9091810D20915B
S11334E07E0D30917F0D3093810D2093800D90934C
S11334F07F0D80937E0D8091630D8F5F8093630DAC
S11335001FDE8091600D9091610DE816F90610F4AC
S1133510D12C50C0D12CCC24C394E091800DF091D7
S1133520810D8081811107C08FEF9FEF9093610D12
S11335308093600D3FC0E091800DF091810D058076
S1133540F681E02DC681D7818A819B81E816F90630
S113355028F49093610D8093600D2CC08E010E5F52
S11335601F4FC801C2D98C899D89892B19F0CE01BE
S11335700C96BBD98E899091670D981710F480939F
S1133580670D90E09C01220F331F220F331F220F7F
S1133590331F820F931FB8018E57924F54D9E09175
S11335A0A60DF091A70D9E898689981708F4B5CFCA
S11335B0DC2CB3CFE091A60DF091A70D868990E0A5
S11335C0FC01EE0FFF1FEE0FFF1FEE0FFF1F8E0F0C
S11335D09F1FFC01EE57F24F8081823048F0DD24BA
S11335E0D39406C08091650D8F5F8093650DD12CB7
S11335F08091640D882311F0DD24D3948D2DDF9107
S1133600CF911F910F91FF90EF90DF90CF9008958D
S1133610DF92EF92FF920F931F93CF93DF930FB636
S1133620F8940F9280915F0D815080935F0D80918B
S11336305F0D811159C080916A0D811130C057C04E
S1133640D7011596ED91FC911697C681D781CE01CD
S11336500C964BD98E010E5F1F4FC80146D98E8937
S11336609091670D981710F48093670D90E09C017A
S1133670220F331F220F331F220F331F820F931F7A
S1133680B8018E57924FDFD8E091A60DF091A70DA7
S11336909E898689981768F0D092640D0AC0C0E0AC
S11336A0D0E00F2EF5E7EF2EFDE0FF2EF02DDD2408
S11336B0D394F70180818111C3CFCD2B09F040DD74
S11336C0C091650DCC2349F0D1E0EBDE8111D0939C
S11336D0640DC150D1F71092650D8091640D88235B
S11336E029F0D8D981E003C080E001C080E00F90C8
S11336F00FBEDF91CF911F910F91FF90EF90DF905C
S11337000895CF93DF93EC01892B39F0BADE60E0A2
S1133710CE0135DD7DDF811101C0BCD9DF91CF91B0
S1133720089580915F0D882321F081E08093640DDA
S113373008951092640DA091A60DB091A70DE0918B
S1133740A60DF091A70D2D913C918789908D82173C
S1133750930758F06091A60D7091A70D8091A60D66
S11337609091A70D675E7F4F2FD82091670D822F10
S113377090E0FC01EE0FFF1FEE0FFF1FEE0FFF1F87
S1133780E80FF91FEE57F24F3081311111C021506B
S1133790822F90E0FC01EE0FFF1FEE0FFF1FEE0FD4
S11337A0FF1FE80FF91FEE57F24F3081332379F3EF
S11337B0AC01440F551F440F551F440F551F480FAC
S11337C0591FDA01AE57B24F1196ED91FC91129741
S11337D00280F381E02D1296FC93EE9311974B57E0
S11337E0524FE417F50729F442815381FD015283B6
S11337F04183FC01EE0FFF1FEE0FFF1FEE0FFF1FB3
S11338008E0F9F1FFC01EE57F24F0180F281E02DD5
S1133810868197819093A70D8093A60D2093670DC1
S11338200895CF93DF93EB016091A60D7091A70DDE
S1133830645F7F4F29D861E0CE01A1DCDF91CF9195
S113384008950F931F93CF938B01C42F6091A60DFE
S11338507091A70D645F7F4F0E942314CC2311F055
S11338600FEF1FEF6C2FC8018ADCCF911F910F91CE
S113387008950F931F93CF93DF93DC011596ED9179
S1133880FC911697C681D7818E01045F1F4FC80132
S11338902CD880915F0D81111BC00A501109C801F9
S11338A024D88E899091670D981710F48093670D32
S11338B090E09C01220F331F220F331F220F331F6E
S11338C0820F931FB8018E57924F0E94231405C094
S11338D0B80185E79DE00E942314E091A60DF091C4
S11338E0A70D9E898689891720F481E08093640D51
S11338F001C080E0DF91CF911F910F910895209135
S1133900630DFC0120832091680D3091690D328391
S1133910218308950FB6F8940F922091680D309189
S1133920690DDC0111964D915C911297E091630D44
S1133930FC91FE1719F02417350798F4241B350B56
S1133940FB01408151812417350738F4421B530B86
S113395051834083D4DF80E005C01182108281E06E
S113396001C081E00F900FBE089581E08093640D43
S113397008958091660D882331F080915F0D88232E
S113398021F080E0089581E0089582E008950F9386
S11339901F93CF93DF93FC01892B79F182A181508E
S11339A082A3268991A1291751F181112AC0EF011F
S11339B08F010E5F1F4FC8010E94751489A18E8B61
S11339C024E030E0281B31093D872C879091670D56
S11339D0981710F48093670D90E09C01220F331F19
S11339E0220F331F220F331F820F931FB8018E57EC
S11339F0924F0E94231481E005C080E003C080E060
S1133A0001C080E0DF91CF911F910F910895FC01D7
S1133A1073836283918780874617570790F0421B10
S1133A20530B8485958548175907E0F4BF016E5FF1
S1133A307F4F8091110E9091120E0E94441480E0E9
S1133A4008954217530718F46217730768F4BF0107
S1133A506E5F7F4F8091130E9091140E0E94441458
S1133A6080E0089581E0089581E008950F930FB6F2
S1133A70F8940F9280910F0E9091100E892B01F5FE
S1133A8082E09EE00E94111489EF9DE00E941114CF
S1133A9082E09EE09093140E8093130E89EF9DE0D4
S1133AA09093120E8093110E00E028EA3DE047EC5B
S1133AB05DE065E08AE0C1D99093100E80930F0E0B
S1133AC00F900FBE0F910895CF92DF92EF92FF9265
S1133AD00F93CF93DF9300D000D0CDB7DEB7C6DF0E
S1133AE080910F0E9091100E892B31F11E821D8250
S1133AF01C821B82AE014F5F5F4FBE016D5F7F4F23
S1133B00CE0105960E940114CD80DE80EB80FC80FE
S1133B1049815A8103E020E030E066E473E08DE5FA
S1133B209EE16EDB9C0190930E0E80930D0E81E05E
S1133B30232B19F480E001C080E026960FB6F89498
S1133B40DEBF0FBECDBFDF91CF910F91FF90EF90FD
S1133B50DF90CF9008950F931F93CF93DF9300D0FE
S1133B601F921F92CDB7DEB7E0910F0EF091100EA9
S1133B70309751F1D90169835B834A839D838C8398
S1133B806630D4F4F6DE823059F420E0A801BE0198
S1133B906F5F7F4F80910F0E9091100E63D915C007
S1133BA020E040E050E0BE016F5F7F4F80910F0E38
S1133BB09091100E57D909C020E0AD01BE016F5F8E
S1133BC07F4FCF01E1D901C080E00F900F900F909B
S1133BD00F900F90DF91CF911F910F910895AF92A5
S1133BE0BF92CF92DF92EF92FF920F931F93CF93E6
S1133BF0DF936C014CDC7C0180910B0E90910C0ED8
S1133C00E816F90608F047C02FC00580F681E02DBC
S1133C10A080B180C681D7818E010E5F1F4FC8017D
S1133C200E947514E989FA89CE0119958E8581302F
S1133C30D9F48C859D858A0D9B1DA816B90660F460
S1133C409B838A83D987C887B8018091130E90918A
S1133C50140E0E94441408C000E010E020E030E09C
S1133C60A50160E0CE0177DFE091130EF091140E10
S1133C7080818111CACF8091110E9091120E909380
S1133C80140E8093130EF093120EE093110E81E044
S1133C90F601808302C0F6011082F0920C0EE092CD
S1133CA00B0EC701DF91CF911F910F91FF90EF9001
S1133CB0DF90CF90BF90AF900895CF93DF9300D063
S1133CC000D0CDB7DEB7CE0101964C014424439415
S1133CD0E12CF12C512CC82ED92CE091130EF0912B
S1133CE0140E8081882309F4AFC00580F681E02D8D
S1133CF0A080B180C6DBC40172DF8C01898181118F
S1133D0042C00A151B0580F183DCE091130EF0918B
S1133D10140E0580F681E02D66807780C30102963B
S1133D200E947514D3011E968C911E978130A1F4C4
S1133D301C966D917C911D976A0D7B1D9501A801C0
S1133D40C30165DE882341F00E2D1F2D2E2D3F2D3E
S1133D50A501652DC301FFDED3015196ED91FC91C0
S1133D605297C301199564C0452DB501601B710BB1
S1133D7080910F0E9091100EC8D94ADC811158C061
S1133D800E944A1555C044DC53C0898188230CF431
S1133D904FC0AC80BD80F50182859385892B21F0CD
S1133DA0C50102960E947514CE01069618DFAC0177
S1133DB09981943089F11CF49330D0F507C0963082
S1133DC0BCF198301CF0993039F132C02A813B8122
S1133DD0D5011C966D917C911D97620F731FC501CF
S1133DE016DE882329F1D5015196ED91FC91529765
S1133DF0C5011995F50186858130D1F44A815B812D
S1133E0084859585480F591F0E2D1F2D2E2D3F2D6E
S1133E10652DC501A0DE0CC06A817B81D5011D968C
S1133E207C936E931C97640F751F9A01C501EFDD97
S1133E304E2D5F2D6C2D7D2D80910F0E9091100EC7
S1133E40DBD88111A2CF49CF1CDBC401C8DE8C01B1
S1133E508981811198CFE091110EF091120E808129
S1133E60442D8111452DAE2CBF2C7FCF08950C9489
S1133E70730108959093180E8093170E7093160E85
S1133E806093150E089590931A0E8093190E089559
S1133E9080911F0E9091200E01969093200E809396
S1133EA01F0E20911F0E3091200E80911B0E9091B9
S1133EB01C0E2817390758F020E040E050E060E07D
S1133EC070E08091E1169091E2160C9432170895F7
S1133ED08091210E9091220E01969093220E809350
S1133EE0210E2091210E3091220E80911D0E909171
S1133EF01E0E2817390758F020E040E050E060E03B
S1133F0070E080912117909122170C943217089534
S1133F1028E43FE148E65FE163E084E00C94E401D7
S1133F2008959093240E8093230E08950E943F0CCD
S1133F302BD00E94B10B0E945D1398DF23E040E078
S1133F4056E960E070E081E00E94260221E040E052
S1133F5052EC61E070E083E00E94490388DFD8DF1F
S1133F6080E00895862728E030E080FF07C096951A
S1133F70879541E0842740EA942702C09695879567
S1133F802150310991F7089582E08093B00084E0D4
S1133F908093B1008AEF8093B300E0E7F0E0808182
S1133FA0826080830895F894609123177091241798
S1133FB08091251790912617789408951F920F9257
S1133FC00FB60F9211248F939F93AF93BF93809159
S1133FD0231790912417A0912517B09126170196C5
S1133FE0A11DB11D8093231790932417A093251727
S1133FF0B0932617BF91AF919F918F910F900FBEF1
S11340000F901F9018955058BB27AA270ED070C147
S113401061D130F066D120F031F49F3F11F41EF4E9
S113402056C10EF4E095E7FB4CC1E92F72D180F341
S1134030BA17620773078407950718F071F49EF5A1
S11340408AC10EF4E0950B2EBA2FA02D0B01B901F5
S113405090010C01CA01A0011124FF27591B99F0FA
S1134060593F50F4503E68F11A16F040A22F232F06
S1134070342F4427585FF3CF469537952795A79556
S1134080F0405395C9F77EF41F16BA0B620B730BFD
S1134090840BBAF09150A1F0FF0FBB1F661F771F6E
S11340A0881FC2F70EC0BA0F621F731F841F48F423
S11340B0879577956795B795F7959E3F08F0B3CFA9
S11340C09395880F08F09927EE0F97958795089593
S11340D0D4D008F481E008950CD00AC102D140F094
S11340E0F9D030F021F45F3F19F0EBC0511134C125
S11340F0EEC00FD198F39923C9F35523B1F3951B5F
S1134100550BBB27AA2762177307840738F09F5FF4
S11341105F4F220F331F441FAA1FA9F333D00E2E63
S11341203AF0E0E830D091505040E695001CCAF7D0
S113413029D0FE2F27D0660F771F881FBB1F261795
S113414037074807AB07B0E809F0BB0B802DBF0168
S1134150FF2793585F4F2AF09E3F510568F0B1C086
S1134160FBC05F3FECF3983EDCF38695779567954B
S1134170B795F7959F5FC9F7880F911D9695879519
S113418097F90895E1E0660F771F881FBB1F621738
S113419073078407BA0720F0621B730B840BBA0BF6
S11341A0EE1F88F7E0950895BCD088F09F5790F0F3
S11341B0B92F9927B751A0F0D1F0660F771F881F48
S11341C0991F1AF0BA95C9F712C0B13081F0C3D063
S11341D0B1E00895C0C0672F782F8827B85F39F001
S11341E0B93FCCF3869577956795B395D9F73EF4A7
S11341F090958095709561957F4F8F4F9F4F08954F
S1134200E89409C097FB3EF490958095709561956C
S11342107F4F8F4F9F4F9923A9F0F92F96E9BB2722
S11342209395F695879577956795B795F111F8CF9E
S1134230FAF4BB0F11F460FF1BC06F5F7F4F8F4F09
S11342409F4F16C0882311F096E911C0772321F0FF
S11342509EE8872F762F05C0662371F096E8862F97
S113426070E060E02AF09A95660F771F881FDAF7EE
S1134270880F9695879597F90895990F0008550F1B
S1134280AA0BE0E8FEEF16161706E807F907C0F0D8
S113429012161306E407F50798F0621B730B840BE0
S11342A0950B39F40A2661F0232B242B252B21F4BA
S11342B008950A2609F4A140A6958FEF811D811D5A
S11342C0089597F99F6780E870E060E008959FEF94
S11342D080EC089500240A94161617061806090699
S11342E0089500240A941216130614060506089568
S11342F0092E0394000C11F4882352F0BB0F40F4F0
S1134300BF2B11F460FF04C06F5F7F4F8F4F9F4F2F
S1134310089557FD9058440F551F59F05F3F71F0B1
S11343204795880F97FB991F61F09F3F79F0879518
S11343300895121613061406551FF2CF4695F1DFA1
S113434008C0161617061806991FF1CF8695710531
S1134350610508940895E894BB2766277727CB0165
S113436097F908958ADF08F48FEF08950BD0C0CF32
S1134370B1DF28F0B6DF18F0952309F0A2CFA7CF5C
S11343801124EACFC6DFA0F3959FD1F3950F50E037
S1134390551F629FF001729FBB27F00DB11D639FF3
S11343A0AA27F00DB11DAA1F649F6627B00DA11D99
S11343B0661F829F2227B00DA11D621F739FB00D3F
S11343C0A11D621F839FA00D611D221F749F3327AF
S11343D0A00D611D231F849F600D211D822F762F48
S11343E06A2F11249F5750408AF0E1F088234AF045
S11343F0EE0FFF1FBB1F661F771F881F9150504091
S1134400A9F79E3F510570F05CCFA6CF5F3FECF358
S1134410983EDCF3869577956795B795F795E7957C
S11344209F5FC1F7FE2B880F911D9695879597F98D
S1134430089577DFE0F09E37D8F09639B8F49E38C7
S113444048F4672F782F8827985FF9CF869577955A
S1134450679593959539D0F3B62FB1706B0F711D95
S1134460811D20F4879577956795939502C01CC0AC
S113447073CF882371F4772321F09850872B762FFC
S113448007C0662311F499270DC09051862B70E064
S113449060E02AF09A95660F771F881FDAF7880F75
S11344A09695879597F908959F3F31F0915020F4A0
S11344B0879577956795B795880F911D96958795FC
S11344C097F90895A1E21A2EAA1BBB1BFD010DC08A
S11344D0AA1FBB1FEE1FFF1FA217B307E407F507B0
S11344E020F0A21BB30BE40BF50B661F771F881F8C
S11344F0991F1A9469F760957095809590959B0122
S1134500AC01BD01CF010895A29FB001B39FC001CA
S1134510A39F700D811D1124911DB29F700D811DEB
S11345201124911D0895FB01DC0102C001900D923C
S113453041505040D8F70895DC0101C06D934150BB
S10D45405040E0F70895F894FFCF0F
S113454A84030600D2005000204472756D207370F3
S113455A65656420457272200A0020636F6E2045E7
S113456A72726F72200A0020696E7369646520731F
S113457A6571200A005350004D4F44302052455370
S113458A504F4E43455F54494D45445F4F55540A75
S113459A004D6F643120524553504F4E43455F548A
S11345AA494D45445F4F55540A0054656D70657210
S11345BA61747572655F6F7665725F74656D70207C
S11345CA0A004C6576656C5F73656E736F725F651E
S11345DA72726F725F63616C6C6261636B200A0052
S11345EA4C43445F57524954455F54494D454F55CE
S11345FA54202B2B2B2B2B2B2B2B2B2B2B2B2B2BDF
S113460A2B2B2B2B2B2B2B2B2B2B2B2B2B2B200A18
S113461A004C43445F524541445F54494D454F550C
S113462A54202D2D2D2D2D2D2D2D2D2D2D2D2D2D92
S113463A2D2D2D2D2D2D2D2D2D2D2D2D2D2D200ACC
S113464A00456E746572205461736B340A007654A3
S113465A61736B342045786973740A005365717504
S113466A616E6365205461736B31200A007374614F
S113467A7274200A005461736B31005461736B3491
S111468A0049444C4500546D72205376630081
S9030000FC
