:100000009AC00000B8C00000B6C00000B4C0000034
:10001000B2C00000B0C00000AEC00000ACC0000024
:10002000AAC00000A8C00000A6C00000A4C0000034
:100030000C940F0B0C94F4159EC000009CC00000A3
:100040009AC0000099C0000096C0000094C0000053
:1000500092C0000090C000008EC000008CC0000064
:100060008AC00000F1C3000028C4000084C0000062
:1000700082C0000085C300007EC000007CC000007C
:10008000E1C0000078C0000076C0000074C000002D
:10009000E1C4000018C500006EC000006CC0000084
:1000A0006AC0000068C0000033C1000064C00000E6
:1000B00062C0000060C000005EC000008FC1000090
:1000C0005AC0000058C0000056C00000D2C5000051
:1000D00009C6000050C00000D8C600000FC70000CD
:1000E0004AC00000C0E3DAE006E41AE080912F0A7B
:1000F0008823D1F00FB6F8940F92ED81FE818681AE
:10010000978102960E94770980912E0A81508093F0
:100110002E0A80912F0A815080932F0A0F900FBED4
:1001200080912F0A8111E6CFF80180818230F0F2B0
:100130000E944C0ADBCF11241FBECFEFD1E2DEBFFD
:10014000CDBF00E00CBF12E0A0E0B2E0EAE9FCE2C3
:1001500000E00BBF02C007900D92A837B107D9F796
:100160002CE0A8E7B2E001C01D92AB3FB207E1F777
:10017000B9D20C944B1644CF1F920F920FB60F9228
:1001800011240BB60F92CF92DF92EF92FF920F9352
:100190001F932F933F934F935F936F937F938F930F
:1001A0009F93AF93BF93EF93FF930E94E9158B0149
:1001B0009C016093FF0A7093000B8093010B909356
:1001C000020B4091DF0A5091E00A6091E10A7091C0
:1001D000E20A68017901C41AD50AE60AF70AC701DA
:1001E000B601C092E70AD092E80AE092E90AF092DA
:1001F000EA0A0093DF0A1093E00A2093E10A3093A1
:10020000E20AE091F90AF091FA0A0280F381E02D06
:100210001995FF91EF91BF91AF919F918F917F9130
:100220006F915F914F913F912F911F910F91FF908F
:10023000EF90DF90CF900F900BBE0F900FBE0F90FE
:100240001F9018951F920F920FB60F9211240BB6A4
:100250000F92CF92DF92EF92FF920F931F932F9303
:100260003F934F935F936F937F938F939F93AF933E
:10027000BF93EF93FF930E94E9158B019C0160935C
:10028000F50A7093F60A8093F70A9093F80A409162
:10029000D90A5091DA0A6091DB0A7091DC0A680190
:1002A0007901C41AD50AE60AF70AC701B601C09255
:1002B000E70AD092E80AE092E90AF092EA0A00938B
:1002C000D90A1093DA0A2093DB0A3093DC0AE09112
:1002D000DD0AF091DE0A0280F381E02D1995FF918D
:1002E000EF91BF91AF919F918F917F916F915F91AE
:1002F0004F913F912F911F910F91FF90EF90DF90C1
:10030000CF900F900BBE0F900FBE0F901F901895BF
:100310001F920F920FB60F9211240BB60F92CF922D
:10032000DF92EF92FF920F931F932F933F934F9380
:100330005F936F937F938F939F93AF93BF93EF934D
:10034000FF930E94E9158B019C016093EB0A709367
:10035000EC0A8093ED0A9093EE0A4091FB0A5091CB
:10036000FC0A6091FD0A7091FE0A68017901C41AC5
:10037000D50AE60AF70AC701B601C092E70AD09289
:10038000E80AE092E90AF092EA0A0093FB0A109365
:10039000FC0A2093FD0A3093FE0AE091EF0AF091E7
:1003A000F00A0280F381E02D1995FF91EF91BF9142
:1003B000AF919F918F917F916F915F914F913F91FD
:1003C0002F911F910F91FF90EF90DF90CF900F90A2
:1003D0000BBE0F900FBE0F901F9018951F920F929B
:1003E0000FB60F9211240BB60F922F933F934F939A
:1003F0005F936F937F938F939F93AF93BF93EF938D
:10040000FF9381E6E4D2109224016091E70A709193
:10041000E80A8091E90A9091EA0AE091030BF091D1
:10042000040B0280F381E02D1995FF91EF91BF91AC
:10043000AF919F918F917F916F915F914F913F917C
:100440002F910F900BBE0F900FBE0F901F9018951D
:1004500060E080E0DCC1089561E080E0D8C10895EB
:10046000E8E7F2E0208381834283538364837583CA
:100470008CE292E09783868388E292E0918780877E
:10048000BF0180E001C00895FB01811186C0808119
:100490008093A60241816281738184819581268146
:1004A00037813093A1022093A002208531853093BB
:1004B0009F0220939E021092A3021092A202109219
:1004C000A5021092A402413009F520918402211165
:1004D000C8C021E0209384022BD386E296E090935B
:1004E00097028093960284E396E09093990280931A
:1004F00098028DEE95E090939B0280939A028DE096
:1005000096E090939D0280939C020895423009F5F5
:10051000209183022111A5C021E02093830217D4EA
:1005200082E397E0909397028093960280E497E0AD
:1005300090939902809398028CEF96E090939B029F
:1005400080939A0289E197E090939D0280939C02A8
:100550000895433009F085C020918202211181C0A5
:1005600021E020938202FFD48EE398E090939702DB
:10057000809396028CE498E090939902809398027D
:1005800088E098E090939B0280939A0285E298E03D
:1005900090939D0280939C020895813009F061C080
:1005A00080818093950241816281738184819581EC
:1005B000268137813093900220938F0220853185E8
:1005C00030938E0220938D0210929202109291022B
:1005D0001092940210929302413009F52091840206
:1005E00021113FC021E020938402A2D286E296E04E
:1005F000909388028093870284E396E0909386022A
:10060000809385028DEE95E090938A028093890213
:100610008DE096E090938C0280938B020895423097
:1006200001F52091830221111CC021E02093830257
:100630008ED382E397E0909388028093870280E4D0
:1006400097E090938602809385028CEF96E09093DA
:100650008A028093890289E197E090938C028093CB
:100660008B0208958091A7029091A8020196909321
:10067000A8028093A70280E092E0DED16091A702F9
:100680007091A80280E090E0BBD18AE0A0D120E088
:1006900040E050E060E070E08091C8029091C902B3
:1006A0000E94340C85E192E0C7D18AEF90E00E946D
:1006B0003B11D8CF81E392E0BFD16FEF7FEF809104
:1006C000C8029091C9020E94870D88E492E0B4D1DB
:1006D0006091A7027091A80280E090E091D18AE039
:1006E00076D1E8CF8FEF8DB960E875E280E090E0D9
:1006F00019D10E94CB150F2EF5E0CF2EFBE0DF2E97
:10070000F02D0F2EF0E6EF2EFBE0FF2EF02D02E095
:1007100020E030E048EC50E06FE572E08AE593E0DD
:100720000E94BD0E9093CD028093CC020F2EFDE26D
:10073000CF2EFBE0DF2EF02D0F2EF8E2EF2EFCE0A7
:10074000FF2EF02D20E030E048EC50E065E672E04E
:1007500082E393E00E94BD0E9093CB028093CA0285
:1007600003E029EA32E040E050E060E081E00E94EE
:100770001F0C9093C9028093C8020E94B30FFFCF51
:100780001F920F920FB60F9211242F938F939F9366
:10079000809178002091790090E0922B9093D00284
:1007A0008093CF0281E08093CE029F918F912F9111
:1007B0000F900FBE0F901F90189550985198519818
:1007C00053982098559854983C9A3F9A3D9A399A54
:1007D000399A579A389A3898569A3B9AE4E0F1E059
:1007E0008081846080833F9A3F9A3F9AE1E0F1E004
:1007F00080818E7F8083808182608083E2E0F1E06F
:100800008081816080835298539A5A9A08958823F0
:1008100019F0813089F00895613031F4E5E0F1E0BC
:10082000808184608083089561110DC0E5E0F1E06E
:1008300080818B7F80830895613011F4479A0895F9
:10084000611101C0479808951F920F920FB60F9241
:1008500011240BB60F922F933F934F935F938F9377
:100860009F93EF93FF932091C0003091C6002871B1
:100870008091E60590E001968F7799274091E505F4
:1008800050E08417950739F08093E605FC01E751A5
:10089000FA4F308301C022E02093E405FF91EF91ED
:1008A0009F918F915F914F913F912F910F900BBE30
:1008B0000F900FBE0F901F9018951F920F920FB6BA
:1008C0000F9211240BB60F928F939F93EF93FF9388
:1008D0009091E8058091E705981789F08091E705E8
:1008E00090E001968F7799278093E705FC01E759FF
:1008F000F94F80818093C6001092D40208C0E1ECC9
:10090000F0E080818F7D808381E08093D402FF912D
:10091000EF919F918F910F900BBE0F900FBE0F9094
:100920001F9018950F931F938B019C01F8941092C0
:10093000E8051092E7051092E6051092E505789417
:10094000DC01CB0180589B47A14EBF4F880F991FF8
:10095000AA1FBB1F880F991FAA1FBB1FBC01CD0177
:10096000660F771F881F991F000F111F221F331F4B
:10097000000F111F221F331FA9019801220F331FDF
:10098000441F551F220F331F441F551F0E94191665
:10099000BA01A901415051096109710957FF06C007
:1009A00082E08093C0005F7766277727BB27A72F59
:1009B000962F852F8093C5004093C40088E98093CB
:1009C000C10086E08093C2001F910F91089540916D
:1009D000E80550E04F5F5F4F4F7755272091E705BF
:1009E00030E042175307D1F3FA01E759F94F8083FA
:1009F0004093E805E1ECF0E0808180628083089517
:100A00000F931F93CF93DF936A3071058105910592
:100A100058F02AE030E040E050E00E941916062F1E
:100A2000CA01B901EDDF602F80E3860FD0DFDF91CF
:100A3000CF911F910F910895CF93DF93EC0188819F
:100A4000882329F02196C3DF89918111FCCFDF91A2
:100A5000CF9108951F920F920FB60F9211240BB6EB
:100A60000F922F933F934F935F938F939F93EF93A7
:100A7000FF932091C8003091CE0028718091E1044D
:100A800090E001968F7799274091E00450E0841719
:100A9000950739F08093E104FC01EC51FB4F308362
:100AA00001C022E02093DF04FF91EF919F918F918D
:100AB0005F914F913F912F910F900BBE0F900FBE02
:100AC0000F901F9018951F920F920FB60F9211243E
:100AD0000BB60F928F939F93EF93FF939091E30444
:100AE0008091E204981789F08091E20490E00196E9
:100AF0008F7799278093E204FC01EC59FA4F8081AB
:100B00008093CE001092D30208C0E9ECF0E080811F
:100B10008F7D808381E08093D302FF91EF919F913D
:100B20008F910F900BBE0F900FBE0F901F901895D6
:100B30000F931F938B019C01F8941092E304109281
:100B4000E2041092E1041092E0047894DC01CB01FD
:100B500080589B47A14EBF4F880F991FAA1FBB1FEC
:100B6000880F991FAA1FBB1FBC01CD01660F771FFD
:100B7000881F991F000F111F221F331F000F111F05
:100B8000221F331FA9019801220F331F441F551F35
:100B9000220F331F441F551F0E941916BA01A901C5
:100BA000415051096109710957FF06C082E08093E5
:100BB000C8005F7766277727BB27A72F962F852F3B
:100BC0008093CD004093CC0088E98093C90086E0F3
:100BD0008093CA001F910F910895F8949091E104B9
:100BE0008091E004981304C0789480E091E0089527
:100BF0008091E00490E001968F7799278093E0043C
:100C00007894FC01EC51FB4F20818091DF0490E04F
:100C1000982F8827820F911D08954091E30450E09A
:100C20004F5F5F4F4F7755272091E20430E0421726
:100C30005307D1F3FA01EC59FA4F80834093E30450
:100C4000E9ECF0E08081806280830895F8948091DF
:100C5000E1042091E004789490E080589F4F821B3B
:100C600091098F77992708958091D3028823E1F322
:100C700008951F920F920FB60F9211240BB60F9288
:100C80002F933F934F935F938F939F93EF93FF9394
:100C90002091D0003091D60028718091DC0390E043
:100CA00001968F7799274091DB0350E084179507D1
:100CB00039F08093DC03FC01E152FC4F308301C02A
:100CC00022E02093DA03FF91EF919F918F915F9142
:100CD0004F913F912F910F900BBE0F900FBE0F9031
:100CE0001F9018951F920F920FB60F9211240BB6FA
:100CF0000F928F939F93EF93FF939091DE038091D8
:100D0000DD03981789F08091DD0390E001968F77DD
:100D100099278093DD03FC01E15AFB4F808180938A
:100D2000D6001092D20208C0E1EDF0E080818F7D04
:100D3000808381E08093D202FF91EF919F918F9108
:100D40000F900BBE0F900FBE0F901F9018950F9332
:100D50001F938B019C01F8941092DE031092DD0327
:100D60001092DC031092DB037894DC01CB018058F5
:100D70009B47A14EBF4F880F991FAA1FBB1F880F0B
:100D8000991FAA1FBB1FBC01CD01660F771F881FCB
:100D9000991F000F111F221F331F000F111F221F49
:100DA000331FA9019801220F331F441F551F220F23
:100DB000331F441F551F0E941916BA01A901415043
:100DC00051096109710957FF06C082E08093D00084
:100DD0005F7766277727BB27A72F962F852F8093CE
:100DE000D5004093D40088E98093D10086E08093B9
:100DF000D2001F910F9108959091DC038091DB0345
:100E00009817A1F08091DB0390E001968F779927E6
:100E10008093DB03FC01E152FC4F20818091DA03D7
:100E200090E0982F8827820F911D089580E091E02F
:100E300008954091DE0350E04F5F5F4F4F77552795
:100E40002091DD0330E042175307D1F3FA01E15A54
:100E5000FB4F80834093DE03E1EDF0E08081806210
:100E600080830895F8948091DC032091DB037894CB
:100E700090E080589F4F821B91098F7799270895A2
:100E80008091D2028823E1F308951F920F920FB64A
:100E90000F9211240BB60F922F933F934F935F93B2
:100EA0008F939F93EF93FF93209130013091360100
:100EB00028718091D70290E001968F779927409111
:100EC000D60250E08417950739F08093D702FC01D1
:100ED000E652FD4F308301C022E02093D502FF91FE
:100EE000EF919F918F915F914F913F912F910F9033
:100EF0000BBE0F900FBE0F901F9018951F920F9270
:100F00000FB60F9211240BB60F928F939F93EF930E
:100F1000FF939091D9028091D802981789F080911F
:100F2000D80290E001968F7799278093D802FC0130
:100F3000E65AFC4F8081809336011092D10208C09E
:100F4000E1E3F1E080818F7D808381E08093D102B5
:100F5000FF91EF919F918F910F900BBE0F900FBE5D
:100F60000F901F9018950F931F938B019C01F8947D
:100F70001092D9021092D8021092D7021092D60283
:100F80007894DC01CB0180589B47A14EBF4F880F5E
:100F9000991FAA1FBB1F880F991FAA1FBB1FBC0147
:100FA000CD01660F771F881F991F000F111F221F89
:100FB000331F000F111F221F331FA9019801220F99
:100FC000331F441F551F220F331F441F551F0E94FC
:100FD0001916BA01A901415051096109710957FF58
:100FE00006C082E0809330015F7766277727BB27B2
:100FF000A72F962F852F809335014093340188E9E0
:101000008093310186E0809332011F910F91089502
:101010009091D7028091D6029817A1F08091D602C4
:1010200090E001968F7799278093D602FC01E652D3
:10103000FD4F20818091D50290E0982F8827820F64
:10104000911D089580E091E008954091D90250E00B
:101050004F5F5F4F4F7755272091D80230E04217FE
:101060005307D1F3FA01E65AFC4F80834093D9022B
:10107000E1E3F1E08081806280830895F8948091BB
:10108000D7022091D602789490E080589F4F821B1F
:1010900091098F77992708958091D1028823E1F3F0
:1010A000089508950F9303E024E837E040E050E00E
:1010B00060E081E0C4D325E637E040E050E060E046
:1010C00081E0BDD326E437E040E050E060E081E01D
:1010D000B6D327E237E040E050E060E081E0AFD3F4
:1010E00028E037E040E050E060E081E0A8D329EE5E
:1010F00036E040E050E060E081E0A1D30F91089538
:101100000F9303E022EC37E040E050E060E081E044
:1011100096D323EA37E040E050E060E081E08FD3EF
:101120000F910895BEDFBEDF03D0EADF21C008952E
:101130000F9303E02EE338E040E050E060E081E010
:101140007ED32FE138E040E050E060E081E077D3EB
:1011500020E038E040E050E060E081E070D321EE34
:1011600037E040E050E060E081E069D30F910895FE
:101170000F9303E028EF38E040E050E060E081E0CA
:101180005ED329ED38E040E050E060E081E057D3E5
:101190002AEB38E040E050E060E081E050D32BE9FA
:1011A00038E040E050E060E081E049D32CE738E0EF
:1011B00040E050E060E081E042D32DE538E040E0DF
:1011C00050E060E081E03BD30F910895279A2F9A79
:1011D0002FEF87EA91E6215080409040E1F700C070
:1011E00000001F9AF5CF29EE39E0FC0131832083FE
:1011F00084E999E0FB019183808385E590E0FA0121
:101200009183808308952CE639E0FC0131832083AB
:1012100087E199E0FB019183808385E590E0FA0105
:10122000918380830895FC010396928381832FEF3D
:101230003FEF34832383968385839087878310824F
:101240000895FC01118610860895CF93DF939C01C9
:10125000FB01DC011196CD91DC911297D383C283FF
:101260008C819D81958384838C819D81DC01139683
:101270007C936E9312977D836C8331872087F9016D
:1012800080818F5F8083DF91CF910895CF93DF932B
:10129000EB01488159814F3F2FEF520721F4FC01A8
:1012A000A781B0850DC0DC01139601C0DF01129645
:1012B000ED91FC9113972081318142175307B0F7CC
:1012C0001296ED91FC911397FB83EA83D583C48337
:1012D000BD83AC831396DC93CE931297998788874E
:1012E000FC0120812F5F2083DF91CF910895CF9360
:1012F000DF93FC01A085B185C281D3818481958172
:101300009D838C83C481D581828193819B838A83D1
:1013100011968D919C911297E817F90731F4848109
:10132000958112969C938E931197118610868C91BD
:1013300081508C938C91DF91CF91089531E1FC0124
:101340003083319722E220833197A3E3A083319742
:101350006083319770833197108231971082319773
:1013600060E8608331971082319710823197108244
:10137000319762E06083319763E06083319764E086
:101380006083319765E06083319766E060833197D1
:1013900067E06083319768E06083319769E060833C
:1013A000319760E1608331973083319732E1308348
:1013B000319733E13083319734E13083319735E130
:1013C0003083319736E13083319737E1308331977D
:1013D00038E13083319739E13083319730E230831F
:1013E000319731E2308331972083319723E2208394
:1013F0003197408331975083319726E2208331978C
:1014000027E22083319728E22083319729E2208345
:10141000319720E32083319721E320838997089532
:10142000A89590EC88E10FB6F894A8958093600099
:101430000FBE90936000A0916A0AB0916B0ACD91A3
:10144000CDBFDD91DEBFFF91EF91DF91CF91BF91D5
:10145000AF919F918F917F916F915F914F913F914C
:101460002F911F910F91FF90EF90DF90CF90BF9041
:10147000AF909F908F907F906F905F904F903F9034
:101480002F901F900F900CBE0F900BBE0F900FBEB1
:101490000F90089581E008950F920FB6F8940F927F
:1014A0000BB60F920CB60F921F9211242F923F92FF
:1014B0004F925F926F927F928F929F92AF92BF9264
:1014C000CF92DF92EF92FF920F931F932F933F9350
:1014D0004F935F936F937F938F939F93AF93BF933C
:1014E000CF93DF93EF93FF93A0916A0AB0916B0AB9
:1014F0000DB60D920EB60D92CED6A0916A0AB0919D
:101500006B0ACD91CDBFDD91DEBFFF91EF91DF91F1
:10151000CF91BF91AF919F918F917F916F915F918B
:101520004F913F912F911F910F91FF90EF90DF907E
:10153000CF90BF90AF909F908F907F906F905F9073
:101540004F903F902F901F900F900CBE0F900BBEAE
:101550000F900FBE0F9008950F920FB6F8940F9250
:101560000BB60F920CB60F921F9211242F923F923E
:101570004F925F926F927F928F929F92AF92BF92A3
:10158000CF92DF92EF92FF920F931F932F933F938F
:101590004F935F936F937F938F939F93AF93BF937B
:1015A000CF93DF93EF93FF93A0916A0AB0916B0AF8
:1015B0000DB60D920EB60D9213BE2DD581116BD6C0
:1015C000A0916A0AB0916B0ACD91CDBFDD91DEBFCB
:1015D000FF91EF91DF91CF91BF91AF919F918F914B
:1015E0007F916F915F914F913F912F911F910F913B
:1015F000FF90EF90DF90CF90BF90AF909F908F9033
:101600007F906F905F904F903F902F901F900F9022
:101610000CBE0F900BBE0F900FBE0F9008959CDF75
:1016200018950FB6F8940F92FC01928D0F900FBE93
:1016300081E0911180E008950F931F93CF93DF9382
:10164000EC01042F1A8D4C8D41110BC088819981BA
:10165000892B09F041C08C819D81C9D71D821C82D4
:1016600042C0011117C050E08A819B810E943B1645
:101670002C8D8A819B81820F911D9B838A832C8173
:101680003D818217930750F1888199819B838A83DA
:1016900080E029C050E08E819F810E943B168C8D96
:1016A00090E09195819591092E813F81280F391FF6
:1016B0003F832E83488159812417350730F42C81CC
:1016C0003D81820F931F9F838E83023049F4112343
:1016D00049F0115080E007C080E005C080E003C001
:1016E00080E001C080E01F5F1A8FDF91CF911F91D2
:1016F0000F910895FC01448D4423A9F050E0268108
:101700003781240F351F37832683848195812817DD
:10171000390720F08081918197838683CB01668190
:1017200077810C943B160895EF92FF920F931F93CD
:10173000CF938C010FB6F8940F92FC01C68D1C1646
:101740009CF48189811106C00FC0F8018189811143
:1017500005C00AC07801F1E1EF0EF11CC70145D6C2
:101760008111C1D6C15089F78FEFF801868F0F9094
:101770000FBE0FB6F8940F92C58D1C169CF4808591
:10178000811106C00FC0F8018085811105C00AC013
:101790007801F8E0EF0EF11CC70127D68111A3D61E
:1017A000C15089F78FEFF801858F0F900FBECF9151
:1017B0001F910F91FF90EF900895CF93DF93EC016D
:1017C0000FB6F8940F92E881F9818B8D2C8D90E003
:1017D00030E0829FA001839F500D929F500D1124F5
:1017E0004E0F5F1F5D834C831A8EFB83EA83019744
:1017F000829FA001839F500D929F500D1124CF0115
:10180000840F951F9F838E838FEF8D8F8E8F611135
:101810000AC08885882369F0CE010896E6D588231A
:1018200041F03ADE06C0CE010896FDDCCE014196BD
:10183000FADC0F900FBE81E0DF91CF910895CF9336
:10184000DF93E901209761F0611103C03983288398
:1018500002C0598348838B8F6C8F61E0CE01ADDF6E
:10186000CE01DF91CF9108959F92AF92BF92CF9218
:10187000DF92EF92FF920F931F93CF93DF9300D0ED
:101880001F921F92CDB7DEB78C016B015D834C8335
:10189000A22EB12C992493947C0188E0E80EF11CCF
:1018A0000FB6F8940F92F801928D838D981718F067
:1018B000F2E0AF1215C04A2DB601C801BDDEF80135
:1018C0009189992339F0C80141968FD5882321F059
:1018D000E3DD02C08111E0DD0F900FBE81E045C065
:1018E0008C819D81892B21F40F900FBE80E03DC03B
:1018F000B11004C0CE010196C0D5B92C0F900FBE17
:101900007AD30FB6F8940F92F801858D8F3F09F4C2
:10191000158EF801868D8F3F09F4168E0F900FBE3D
:10192000BE016C5F7F4FCE010196B2D5811119C007
:101930000FB6F8940F92F801928D838D0F900FBE21
:1019400098130BC06C817D81C70126D5C801ECDEE0
:1019500019D48111A5CFA0DDA3CFC801E5DE12D433
:101960009FCFC801E1DE0ED480E00F900F900F9062
:101970000F900F90DF91CF911F910F91FF90EF90FB
:10198000DF90CF90BF90AF909F900895EF92FF921D
:101990000F931F93CF93DF938A01FC01528D338DF8
:1019A000531710F02230E1F4422F7801EC011E8D24
:1019B00043DE1F3F79F489898823A1F0CE01419647
:1019C00014D5882389F0E114F10481F081E0F70156
:1019D00080830DC0FF24F394F10EFE8E81E007C0DA
:1019E00080E005C081E003C081E001C081E0DF91BB
:1019F000CF911F910F91FF90EF9008959F92AF921A
:101A0000BF92CF92DF92EF92FF920F931F93CF93EB
:101A1000DF9300D01F921F92CDB7DEB78C015B0120
:101A20005D834C83E12C992493946C0181E1C80E71
:101A3000D11C0FB6F8940F92F801F28CFF2091F0B0
:101A4000B501C80157DEFA94F801F28E808588232B
:101A500029F0C8010896C9D481111EDD0F900FBE70
:101A600081E044C08C819D81892B21F40F900FBEB1
:101A700080E03CC0E11004C0CE010196FED4E92C08
:101A80000F900FBEB8D20FB6F8940F92F801858D63
:101A90008F3F09F4158EF801868D8F3F09F4168E5D
:101AA0000F900FBEBE016C5F7F4FCE010196F0D448
:101AB000811113C0C801B5DD882359F06C817D8187
:101AC000C6016AD4C80130DE5DD38111B2CFE4DC37
:101AD000B0CFC80129DE56D3ACCFC80125DE52D322
:101AE000C8019FDD882309F4A4CF80E00F900F90F8
:101AF0000F900F900F90DF91CF911F910F91FF905A
:101B0000EF90DF90CF90BF90AF909F900895BF92DD
:101B1000CF92DF92EF92FF920F931F93CF93DF93B9
:101B200000D01F921F92CDB7DEB78C017D836C83EE
:101B3000B12CD12CCC24C3947C0181E1E80EF11CA2
:101B40000FB6F8940F92D8015A968C915A97882321
:101B5000D1F081505A968C935A978D919C91892BF4
:101B600021F4D5D5F80195838483D80118968C91FA
:101B7000882329F0C801089638D481118DDC0F9094
:101B80000FBE81E070C08C819D81892B21F40F9064
:101B90000FBE80E068C0D11004C0CE0101966DD4A4
:101BA000DC2C0F900FBE27D20FB6F8940F92F801DD
:101BB000858D8F3F09F4158ED8015E968C915E97C6
:101BC0008F3F11F45E961C920F900FBEBE016C5FAA
:101BD0007F4FCE0101965CD4811121C0C80121DD67
:101BE0008823C9F0F80180819181892B49F40FB6CF
:101BF000F8940F928481958188D4B82E0F900FBEEF
:101C00006C817D81C701C8D3C8018EDDBBD2811133
:101C100097CF42DC95CFC80187DDB4D291CFC80100
:101C200083DDB0D2C801FDDC882309F489CFBB2055
:101C3000C9F00FB6F8940F92F8018189882339F022
:101C40000688F789E02D808164E0681B01C060E0B0
:101C5000D80114968D919C91159709D50F900FBEC0
:101C600080E001C080E00F900F900F900F900F90D8
:101C7000DF91CF911F910F91FF90EF90DF90CF9068
:101C8000BF900895CF93DF93EC010FB6F8940F92B5
:101C90008D8D8F3F09F41D8E8E8D8F3F09F41E8E22
:101CA0000F900FBE8A8D811103C0CE01419685D35E
:101CB000CE013ADDDF91CF910895E091440AF09191
:101CC000450A8081811107C08FEF9FEF9093250A0D
:101CD0008093240A0895E091440AF091450A058012
:101CE000F681E02D0680F781E02D8281938190932B
:101CF000250A8093240A08950F931F93CF93DF93AF
:101D0000EC0100912C0A10912D0A80916A0A9091A1
:101D10006B0A0296ECDAC00FD11FE0916A0AF091CB
:101D20006B0AD383C283C017D10760F460916A0A3B
:101D300070916B0A8091420A9091430A6E5F7F4FC7
:101D4000A5DA16C060916A0A70916B0A8091440A04
:101D50009091450A6E5F7F4F99DA8091240A9091A5
:101D6000250AC817D90720F4D093250AC093240A5E
:101D7000DF91CF911F910F9108956F927F928F9273
:101D80009F92AF92BF92CF92DF92EF92FF920F930A
:101D9000CF93DF93C114D10409F4CCC0E114F10452
:101DA00009F4CBC0E60159013A014B016C01F88EF0
:101DB000EF8A65EA70E0C70167D781E0681A7108A9
:101DC000EF88F88CE60CF71CD4018C91898F8C91EC
:101DD0008823A1F0AE01465E5F4FF4013196B8E072
:101DE0008B0E911CCF012191DA012D93AD01DC0105
:101DF0008C91882319F0E815F905A1F718A2043091
:101E000008F003E00E8B09A31AA24E01B2E08B0E7C
:101E1000911CC40116DACE010C9613DAD987C88753
:101E200084E090E0801B91099D878C87DB8BCA8BB7
:101E30001BA21CA21DA21EA21FA2A501B601C701C2
:101E40007DDA998388830FB6F8940F9280912E0AD9
:101E50008F5F80932E0A80916A0A90916B0A892B7A
:101E600069F5D0936B0AC0936A0A80912E0A81307B
:101E7000A9F586E49AE0D7D98FE49AE0D4D988E529
:101E80009AE0D1D981E69AE0CED98AE19AE0CBD91D
:101E900081E19AE0C8D989E39AE0C5D980E39AE064
:101EA000C2D98AE19AE09093450A8093440A81E17D
:101EB0009AE09093430A8093420A10C080912A0AC4
:101EC00081110CC0E0916A0AF0916B0A96898E89A3
:101ED000891720F0D0936B0AC0936A0A8091260A72
:101EE0008F5F8093260A8E8990912B0A981710F4A1
:101EF00080932B0A90E09C01220F331F220F331F87
:101F0000220F331F820F931FB4018A5B954F9DD917
:101F10000F900FBE80912A0A882391F0E0916A0AFF
:101F2000F0916B0A96898E89981768F4B5DA8C2F30
:101F30009D2F0BC080E090E008C080E090E005C0DD
:101F40008C2F9D2F02C08C2F9D2FDF91CF910F9151
:101F5000FF90EF90DF90CF90BF90AF909F908F90C9
:101F60007F906F900895CF92DF92EF92FF920F9340
:101F7000CF93DF9300D000D0CDB7DEB71E821D8295
:101F80001C821B82AE014F5F5F4FBE016D5F7F4FB2
:101F9000CE01059628D9CD80DE80EB80FC8049817A
:101FA0005A8100E020E030E06BE672E082E790E0EA
:101FB000E4DE892B91F01AD4813079F4F8948FEF14
:101FC0009FEF9093250A8093240A81E080932A0A48
:101FD00010922D0A10922C0A23DA26960FB6F89446
:101FE000DEBF0FBECDBFDF91CF910F91FF90EF907D
:101FF000DF90CF9008958091230A8F5F8093230A0A
:1020000008950FB6F8940F9280912C0A90912D0AA2
:102010000F900FBE0895CF92DF92EF92FF920F9331
:102020001F93CF93DF938091230A811195C0E09095
:102030002C0AF0902D0A8FEFE81AF80AF0922D0A78
:10204000E0922C0AE114F104B1F48091440A9091D9
:10205000450A2091420A3091430A3093450A209361
:10206000440A9093430A8093420A8091270A8F5F23
:102070008093270A22DE8091240A9091250AE8168F
:10208000F90610F4D12C50C0D12CCC24C394E0918B
:10209000440AF091450A8081811107C08FEF9FEFBC
:1020A0009093250A8093240A3FC0E091440AF0915E
:1020B000450A0580F681E02DC681D7818A819B8102
:1020C000E816F90628F49093250A8093240A2CC078
:1020D0008E010E5F1F4FC8010AD98C899D89892BFB
:1020E00019F0CE010C9603D98E8990912B0A98177E
:1020F00010F480932B0A90E09C01220F331F220FD3
:10210000331F220F331F820F931FB8018A5B954F35
:102110009CD8E0916A0AF0916B0A9E89868998178B
:1021200008F4B5CFDC2CB3CFE0916A0AF0916B0ACA
:10213000868990E0FC01EE0FFF1FEE0FFF1FEE0FF0
:10214000FF1F8E0F9F1FFC01EA5BF54F80818230DD
:1021500048F0DD24D39406C08091290A8F5F8093D4
:10216000290AD12C8091280A882311F0DD24D394E8
:102170008D2DDF91CF911F910F91FF90EF90DF9008
:10218000CF900895DF92EF92FF920F931F93CF931A
:10219000DF930FB6F8940F928091230A81508093B9
:1021A000230A8091230A811159C080912E0A81113E
:1021B00030C057C0D7011596ED91FC911697C68196
:1021C000D781CE010C9693D88E010E5F1F4FC801A8
:1021D0008ED88E8990912B0A981710F480932B0A31
:1021E00090E09C01220F331F220F331F220F331F59
:1021F000820F931FB8018A5B954F27D8E0916A0A36
:10220000F0916B0A9E898689981768F0D092280A07
:102210000AC0C0E0D0E00F2EF9E3EF2EFAE0FF2E67
:10222000F02DDD24D394F70180818111C3CFCD2B14
:1022300009F043DDC091290ACC2349F0D1E0EBDE5F
:102240008111D093280AC150D1F71092290A8091A8
:10225000280A882329F020D981E003C080E001C04A
:1022600080E00F900FBEDF91CF911F910F91FF90F3
:10227000EF90DF900895CF93DF93EC01892B39F035
:10228000BADE60E0CE0138DD7DDF811101C004D906
:10229000DF91CF9108958091230A882321F081E076
:1022A0008093280A08951092280AA0916A0AB09192
:1022B0006B0AE0916A0AF0916B0A2D913C91878933
:1022C000908D8217930760F060916A0A70916B0A93
:1022D00080916A0A90916B0A675E7F4F0E94E608C0
:1022E00020912B0A822F90E0FC01EE0FFF1FEE0FD2
:1022F000FF1FEE0FFF1FE80FF91FEA5BF54F30815C
:10230000311111C02150822F90E0FC01EE0FFF1F10
:10231000EE0FFF1FEE0FFF1FE80FF91FEA5BF54FEF
:102320003081332379F3AC01440F551F440F551FFF
:10233000440F551F480F591FDA01AA5BB54F11967C
:10234000ED91FC9112970280F381E02D1296FC939F
:10235000EE931197475B554FE417F50729F4428137
:102360005381FD0152834183FC01EE0FFF1FEE0FED
:10237000FF1FEE0FFF1F8E0F9F1FFC01EA5BF54F43
:102380000180F281E02D8681978190936B0A809382
:102390006A0A20932B0A0895CF93DF93EB01609193
:1023A0006A0A70916B0A645F7F4F0E94460961E080
:1023B000CE01A2DCDF91CF9108950F931F93CF93AD
:1023C0008B01C42F60916A0A70916B0A645F7F4F22
:1023D0000E942509CC2311F00FEF1FEF6C2FC801CD
:1023E0008BDCCF911F910F9108950F931F93CF9383
:1023F000DF93DC011596ED91FC911697C681D7818C
:102400008E01045F1F4FC8010E9477098091230A43
:1024100081111CC00A501109C8010E9477098E89D8
:1024200090912B0A981710F480932B0A90E09C014E
:10243000220F331F220F331F220F331F820F931FD0
:10244000B8018A5B954F0E94250905C0B80189E350
:102450009AE00E942509E0916A0AF0916B0A9E8930
:102460008689891720F481E08093280A01C080E0E2
:10247000DF91CF911F910F9108952091270AFC01C0
:10248000208320912C0A30912D0A328321830895D4
:102490000FB6F8940F9220912C0A30912D0ADC018E
:1024A00011964D915C911297E091270AFC91FE17CD
:1024B00019F02417350798F4241B350BFB014081D4
:1024C00051812417350738F4421B530B5183408345
:1024D000D4DF80E005C01182108281E001C081E07C
:1024E0000F900FBE089581E08093280A089580918F
:1024F0002A0A882331F08091230A882321F080E082
:10250000089581E0089582E008950F931F93CF937B
:10251000DF93FC01892B09F464C02689A0916A0A23
:10252000B0916B0A56968C91281708F04EC084859E
:102530009585992364F0A0916A0AB0916B0A56962A
:102540003C9184E090E0831B91099587848730E07B
:10255000C901880F991F880F991F880F991F280F8D
:10256000391F2A5B354F828593858217930721F5A2
:102570008F01EF012296CE010E947709E0916A0A4D
:10258000F0916B0A8689F801868B90912B0A981737
:1025900010F480932B0A90E09C01220F331F220F2E
:1025A000331F220F331F820F931FBE018A5B954F8B
:1025B0000E94250981E016C0A0916A0AB0916B0AB9
:1025C00056968C91868B81E00DC0A0916A0AB091DD
:1025D0006B0A81E021A156969C91291718F080E0A2
:1025E00001C080E0DF91CF911F910F9108950F936B
:1025F0001F93CF93DF93FC01892B79F182A1815046
:1026000082A3268991A1291751F181112AC0EF01D6
:102610008F010E5F1F4FC8010E94770989A18E8B21
:1026200024E030E0281B31093D872C8790912B0A4C
:10263000981710F480932B0A90E09C01220F331F0F
:10264000220F331F220F331F820F931FB8018A5BA3
:10265000954F0E94250981E005C080E003C080E01D
:1026600001C080E0DF91CF911F910F9108950F93EA
:102670001F93CF93DF93FC01892B09F443C091A1F1
:10268000961708F4962F86898917E1F122A1213047
:10269000C9F5968B24853585332334F024E030E06A
:1026A000291B31093587248790E09C01220F331FB5
:1026B000220F331F220F331F820F931F8A5B954F08
:1026C0002285338528173907E9F4EF018F010E5F62
:1026D0001F4FC8010E9477098E8990912B0A981785
:1026E00010F480932B0A90E09C01220F331F220FDD
:1026F000331F220F331F820F931FB8018A5B954F40
:102700000E942509DF91CF911F910F91089580912B
:102710006A0A90916B0A892B39F0E0916A0AF0916C
:102720006B0A82A18F5F82A380916A0A90916B0AE3
:102730000895FC017383628391878087461757074A
:1027400090F0421B530B8485958548175907E0F498
:10275000BF016E5F7F4F8091D50A9091D60A0E948B
:10276000460980E008954217530718F4621773076B
:1027700068F4BF016E5F7F4F8091D70A9091D80AAD
:102780000E94460980E0089581E0089581E008955F
:102790000F930FB6F8940F928091D30A9091D40AB8
:1027A000892B01F586EC9AE00E9413098DEB9AE0E3
:1027B0000E94130986EC9AE09093D80A8093D70A76
:1027C0008DEB9AE09093D60A8093D50A00E02CE630
:1027D0003AE04BE85AE065E08AE031D89093D40AB9
:1027E0008093D30A0F900FBE0F910895CF92DF927E
:1027F000EF92FF920F93CF93DF9300D000D0CDB72D
:10280000DEB7C6DF8091D30A9091D40A892B31F1CB
:102810001E821D821C821B82AE014F5F5F4FBE0174
:102820006D5F7F4FCE0105960E940309CD80DE804B
:10283000EB80FC8049815A8103E020E030E060E7D2
:1028400072E081EF94E199DA9C019093D20A80932F
:10285000D10A81E0232B19F480E001C080E02696A4
:102860000FB6F894DEBF0FBECDBFDF91CF910F91B1
:10287000FF90EF90DF90CF9008950F931F93CF9329
:10288000DF9300D01F921F92CDB7DEB7E091D30A3D
:10289000F091D40A309761F1D90169835B834A834F
:1028A0009D838C836630E4F422DE823061F420E084
:1028B000A801BE016F5F7F4F8091D30A9091D40A27
:1028C0000E94340C16C020E040E050E0BE016F5F73
:1028D0007F4F8091D30A9091D40A0E94340C09C092
:1028E00020E0AD01BE016F5F7F4FCF014FD801C027
:1028F00080E00F900F900F900F900F90DF91CF918D
:102900001F910F910895AF92BF92CF92DF92EF92F5
:10291000FF920F931F93CF93DF936C0172DB7C01C7
:102920008091CF0A9091D00AE816F90608F047C0C6
:102930002FC00580F681E02DA080B180C681D781AF
:102940008E010E5F1F4FC8010E947709E989FA893D
:10295000CE0119958E858130D9F48C859D858A0D9F
:102960009B1DA816B90660F49B838A83D987C88704
:10297000B8018091D70A9091D80A0E94460908C0F0
:1029800000E010E020E030E0A50160E0CE0175DF5E
:10299000E091D70AF091D80A80818111CACF809145
:1029A000D50A9091D60A9093D80A8093D70AF093CB
:1029B000D60AE093D50A81E0F601808302C0F601D1
:1029C0001082F092D00AE092CF0AC701DF91CF9136
:1029D0001F910F91FF90EF90DF90CF90BF90AF903D
:1029E0000895CF93DF9300D000D0CDB7DEB7CE01EE
:1029F00001964C0144244394E12CF12C512CC82E17
:102A0000D92CE091D70AF091D80A8081882309F463
:102A1000B0C00580F681E02DA080B180ECDAC40161
:102A200072DF8C018981811142C00A151B0580F17A
:102A3000A9DBE091D70AF091D80A0580F681E02D54
:102A400066807780C30102960E947709D3011E96A3
:102A50008C911E978130A1F41C966D917C911D97ED
:102A60006A0D7B1D9501A801C30163DE882341F037
:102A70000E2D1F2D2E2D3F2DA501652DC301FDDE31
:102A8000D3015196ED91FC915297C301199564C001
:102A9000452DB501601B710B8091D30A9091D40A2A
:102AA000F1D870DB811158C00E944C0A55C06ADB16
:102AB00053C0898188230CF44FC0AC80BD80F501E0
:102AC00082859385892B21F0C50102960E947709A2
:102AD000CE01069618DFAC019981943089F11CF47F
:102AE0009330D0F507C09630BCF198301CF0993087
:102AF00039F132C02A813B81D5011C966D917C91C0
:102B00001D97620F731FC50114DE882329F1D501BB
:102B10005196ED91FC915297C5011995F501868565
:102B20008130D1F44A815B8184859585480F591F96
:102B30000E2D1F2D2E2D3F2D652DC5019EDE0CC0A7
:102B40006A817B81D5011D967C936E931C97640FDF
:102B5000751F9A01C501EDDD4E2D5F2D6C2D7D2D6C
:102B60008091D30A9091D40A0E94FE0C8111A1CFCA
:102B700048CF41DAC401C7DE8C018981811197CF2A
:102B8000E091D50AF091D60A8081442D8111452D1E
:102B9000AE2CBF2C7ECF0E94DD030CD021E040E0A4
:102BA00052EC61E070E083E00E9430020E949208E3
:102BB00080E0089582E08093B00084E08093B100CB
:102BC0008AEF8093B300E0E7F0E080818260808349
:102BD0000895F8946091F70C7091F80C8091F90CBD
:102BE0009091FA0C789408951F920F920FB60F925D
:102BF00011248F939F93AF93BF938091F70C909183
:102C0000F80CA091F90CB091FA0C0196A11DB11D20
:102C10008093F70C9093F80CA093F90CB093FA0CF6
:102C2000BF91AF919F918F910F900FBE0F901F900A
:102C30001895A1E21A2EAA1BBB1BFD010DC0AA1FED
:102C4000BB1FEE1FFF1FA217B307E407F50720F015
:102C5000A21BB30BE40BF50B661F771F881F991F90
:102C60001A9469F760957095809590959B01AC01D9
:102C7000BD01CF010895FB01DC0102C001900D925E
:102C800041505040D8F70895DC0101C06D93415088
:0A2C90005040E0F70895F894FFCFDC
:102C9A00567461736B322073656E64732064617459
:102CAA0061203D2000567461736B32204769766556
:102CBA0073207468652073656D6170686F72650A48
:102CCA0000567461736B312072656365697665734A
:102CDA002064617461200A00567461736B3120525A
:102CEA00656C656173656420646174613D2000549C
:102CFA0061736B31005461736B320049444C450077
:082D0A00546D72205376630042
:00000001FF
