:100000009AC00000B8C00000B6C00000B4C0000034
:10001000B2C00000B0C00000AEC00000ACC0000024
:10002000AAC00000A8C00000A6C00000A4C0000034
:100030000C94790A0C944F159EC000009CC00000DF
:100040009AC0000099C0000096C0000094C0000053
:1000500092C0000090C000008EC000008CC0000064
:100060008AC00000F0C3000027C4000084C0000064
:1000700082C0000084C300007EC000007CC000007D
:10008000E1C0000078C0000076C0000074C000002D
:10009000E0C4000017C500006EC000006CC0000086
:1000A0006AC0000068C0000033C1000064C00000E6
:1000B00062C0000060C000005EC000008FC1000090
:1000C0005AC0000058C0000056C00000D1C5000052
:1000D00008C6000050C00000D7C600000EC70000D0
:1000E0004AC00000CEEFD7E004E118E08091FD07A0
:1000F0008823D1F00FB6F8940F92ED81FE818681AE
:10010000978102960E94E1088091FC0781508093BC
:10011000FC078091FD0781508093FD070F900FBE73
:100120008091FD078111E6CFF80180818230F0F2E5
:100130000E94B609DBCF11241FBECFEFD1E2DEBF94
:10014000CDBF00E00CBF12E0A0E0B2E0E0E5FBE2D2
:1001500000E00BBF02C007900D92A837B107D9F796
:100160002AE0A8E7B2E001C01D92AA3DB207E1F77C
:10017000B9D20C94A61544CF1F920F920FB60F92CE
:1001800011240BB60F92CF92DF92EF92FF920F9352
:100190001F932F933F934F935F936F937F938F930F
:1001A0009F93AF93BF93EF93FF930E9444158B01EE
:1001B0009C016093CD087093CE088093CF089093F4
:1001C000D0084091AD085091AE086091AF08709191
:1001D000B00868017901C41AD50AE60AF70AC7010E
:1001E000B601C092B508D092B608E092B708F09276
:1001F000B8080093AD081093AE082093AF08309371
:10020000B008E091C708F091C8080280F381E02DA2
:100210001995FF91EF91BF91AF919F918F917F9130
:100220006F915F914F913F912F911F910F91FF908F
:10023000EF90DF90CF900F900BBE0F900FBE0F90FE
:100240001F9018951F920F920FB60F9211240BB6A4
:100250000F92CF92DF92EF92FF920F931F932F9303
:100260003F934F935F936F937F938F939F93AF933E
:10027000BF93EF93FF930E9444158B019C01609301
:10028000C3087093C4088093C5089093C608409132
:10029000A7085091A8086091A9087091AA08680160
:1002A0007901C41AD50AE60AF70AC701B601C09255
:1002B000B508D092B608E092B708F092B80800935B
:1002C000A7081093A8082093A9083093AA08E091E2
:1002D000AB08F091AC080280F381E02D1995FF91F5
:1002E000EF91BF91AF919F918F917F916F915F91AE
:1002F0004F913F912F911F910F91FF90EF90DF90C1
:10030000CF900F900BBE0F900FBE0F901F901895BF
:100310001F920F920FB60F9211240BB60F92CF922D
:10032000DF92EF92FF920F931F932F933F934F9380
:100330005F936F937F938F939F93AF93BF93EF934D
:10034000FF930E9444158B019C016093B908709340
:10035000BA088093BB089093BC084091C90850919B
:10036000CA086091CB087091CC0868017901C41A61
:10037000D50AE60AF70AC701B601C092B508D092BD
:10038000B608E092B708F092B8080093C908109335
:10039000CA082093CB083093CC08E091BD08F091B7
:1003A000BE080280F381E02D1995FF91EF91BF9176
:1003B000AF919F918F917F916F915F914F913F91FD
:1003C0002F911F910F91FF90EF90DF90CF900F90A2
:1003D0000BBE0F900FBE0F901F9018951F920F929B
:1003E0000FB60F9211240BB60F922F933F934F939A
:1003F0005F936F937F938F939F93AF93BF93EF938D
:10040000FF9381E6E3D2109224016091B5087091C8
:10041000B6088091B7089091B808E091D108F091A2
:10042000D2080280F381E02D1995FF91EF91BF91E1
:10043000AF919F918F917F916F915F914F913F917C
:100440002F910F900BBE0F900FBE0F901F9018951D
:1004500061E080E0DBC1089560E080E0D7C10895ED
:10046000E8E7F2E0208381834283538364837583CA
:1004700088E292E0978386838CE292E0918780877E
:10048000BF0180E001C00895FB01811186C0808119
:100490008093A60241816281738184819581268146
:1004A00037813093A1022093A002208531853093BB
:1004B0009F0220939E021092A3021092A202109219
:1004C000A5021092A402413009F520918402211165
:1004D000C8C021E0209384022AD385E296E090935D
:1004E00097028093960283E396E09093990280931B
:1004F00098028CEE95E090939B0280939A028CE098
:1005000096E090939D0280939C020895423009F5F5
:10051000209183022111A5C021E02093830216D4EB
:1005200081E397E090939702809396028FE397E0A0
:1005300090939902809398028BEF96E090939B02A0
:1005400080939A0288E197E090939D0280939C02A9
:100550000895433009F085C020918202211181C0A5
:1005600021E020938202FED48DE398E090939702DD
:10057000809396028BE498E090939902809398027E
:1005800087E098E090939B0280939A0284E298E03F
:1005900090939D0280939C020895813009F061C080
:1005A00080818093950241816281738184819581EC
:1005B000268137813093900220938F0220853185E8
:1005C00030938E0220938D0210929202109291022B
:1005D0001092940210929302413009F52091840206
:1005E00021113FC021E020938402A1D285E296E050
:1005F000909388028093870283E396E0909386022B
:10060000809385028CEE95E090938A028093890214
:100610008CE096E090938C0280938B020895423098
:1006200001F52091830221111CC021E02093830257
:100630008DD381E397E090938802809387028FE3C4
:1006400097E090938602809385028BEF96E09093DB
:100650008A028093890288E197E090938C028093CC
:100660008B0208958091A7029091A8020196909321
:10067000A8028093A70280E092E0DDD16091A702FA
:100680007091A80280E090E0BAD18AE09FD120E08A
:1006900040E050E060E070E08091C8029091C902B3
:1006A0000E949E0B85E192E0C6D18AEF90E00E9405
:1006B000A510D8CF81E392E0BED16FEF7FEF80919C
:1006C000C8029091C9020E94F10C88E492E0B3D173
:1006D0006091A7027091A80280E090E090D18AE03A
:1006E00075D1E8CF8FEF8DB960E875E280E090E0DA
:1006F00018D10E94351560D021E040E052EC61E055
:1007000070E083E0ADDE0F2EF3EDCF2EF8E0DF2EAC
:10071000F02D0F2EF0E3EF2EF9E0FF2EF02D02E08A
:1007200020E030E048EC50E06FE572E08AE593E0CD
:100730000E94270E0F2EFDEFCF2EF8E0DF2EF02DBA
:100740000F2EF7E0EF2EFAE0FF2EF02D20E030E044
:1007500048EC50E065E672E082E393E00E94270EE9
:1007600003E029EA32E040E050E060E081E0D1D7E8
:100770009093C9028093C8020E941D0FFFCF1F9261
:100780000F920FB60F9211242F938F939F93809106
:1007900078002091790090E0922B9093CC02809386
:1007A000CB0281E08093CA029F918F912F910F908D
:1007B0000FBE0F901F9018955098519851985398CC
:1007C0002098559854983C9A3F9A3D9A399A399A6C
:1007D000579A389A3898569A3B9AE4E0F1E080812B
:1007E000846080833F9A3F9A3F9AE1E0F1E0808104
:1007F0008E7F8083808182608083E2E0F1E080816F
:10080000816080835298539A5A9A0895882319F0E8
:10081000813089F00895613031F4E5E0F1E08081C4
:1008200084608083089561110DC0E5E0F1E080816E
:100830008B7F80830895613011F4479A0895611188
:1008400001C0479808951F920F920FB60F9211247E
:100850000BB60F922F933F934F935F938F939F937A
:10086000EF93FF932091C0003091C60028718091D2
:10087000E20590E001968F7799274091E10550E0DD
:100880008417950739F08093E205FC01EB51FA4F8C
:10089000308301C022E02093E005FF91EF919F910A
:1008A0008F915F914F913F912F910F900BBE0F90C1
:1008B0000FBE0F901F9018951F920F920FB60F92B8
:1008C00011240BB60F928F939F93EF93FF93909108
:1008D000E4058091E305981789F08091E30590E0A5
:1008E00001968F7799278093E305FC01EB59F94F27
:1008F00080818093C6001092D00208C0E1ECF0E045
:1009000080818F7D808381E08093D002FF91EF9181
:100910009F918F910F900BBE0F900FBE0F901F9065
:1009200018950F931F938B019C01F8941092E40586
:100930001092E3051092E2051092E1057894DC0133
:10094000CB0180589B47A14EBF4F880F991FAA1F0C
:10095000BB1F880F991FAA1FBB1FBC01CD01660FCB
:10096000771F881F991F000F111F221F331F000FB1
:10097000111F221F331FA9019801220F331F441F8B
:10098000551F220F331F441F551F0E947415BA01B3
:10099000A901415051096109710957FF06C082E060
:1009A0008093C0005F7766277727BB27A72F962FF6
:1009B000852F8093C5004093C40088E98093C100CF
:1009C00086E08093C2001F910F9108954091E40545
:1009D00050E04F5F5F4F4F7755272091E30530E0A0
:1009E00042175307D1F3FA01EB59F94F8083409333
:1009F000E405E1ECF0E080818062808308950F934C
:100A00001F93CF93DF936A3071058105910558F0EC
:100A10002AE030E040E050E00E947415062FCA0141
:100A2000B901EDDF602F80E3860FD0DFDF91CF913A
:100A30001F910F910895CF93DF93EC018881882354
:100A400029F02196C3DF89918111FCCFDF91CF91ED
:100A500008951F920F920FB60F9211240BB60F92AA
:100A60002F933F934F935F938F939F93EF93FF93B6
:100A70002091C8003091CE0028718091DD0490E073
:100A800001968F7799274091DC0450E084179507F1
:100A900039F08093DD04FC01E052FB4F308301C04C
:100AA00022E02093DB04FF91EF919F918F915F9162
:100AB0004F913F912F910F900BBE0F900FBE0F9053
:100AC0001F9018951F920F920FB60F9211240BB61C
:100AD0000F928F939F93EF93FF939091DF048091F8
:100AE000DE04981789F08091DE0490E001968F77FC
:100AF00099278093DE04FC01E05AFA4F80818093AD
:100B0000CE001092CF0208C0E9ECF0E080818F7D2A
:100B1000808381E08093CF02FF91EF919F918F912D
:100B20000F900BBE0F900FBE0F901F9018950F9354
:100B30001F938B019C01F8941092DF041092DE0445
:100B40001092DD041092DC047894DC01CB01805813
:100B50009B47A14EBF4F880F991FAA1FBB1F880F2D
:100B6000991FAA1FBB1FBC01CD01660F771F881FED
:100B7000991F000F111F221F331F000F111F221F6B
:100B8000331FA9019801220F331F441F551F220F45
:100B9000331F441F551F0E947415BA01A90141500B
:100BA00051096109710957FF06C082E08093C800AE
:100BB0005F7766277727BB27A72F962F852F8093F0
:100BC000CD004093CC0088E98093C90086E08093F3
:100BD000CA001F910F910895F8949091DD048091BF
:100BE000DC04981304C0789480E091E0089580912B
:100BF000DC0490E001968F7799278093DC04789449
:100C0000FC01E052FB4F20818091DB0490E0982FA3
:100C10008827820F911D08954091DF0450E04F5FB7
:100C20005F4F4F7755272091DE0430E0421753077E
:100C3000D1F3FA01E05AFA4F80834093DF04E9ECE4
:100C4000F0E08081806280830895F8948091DD04D3
:100C50002091DC04789490E080589F4F821B91098A
:100C60008F77992708958091CF028823E1F3089523
:100C70001F920F920FB60F9211240BB60F922F9363
:100C80003F934F935F938F939F93EF93FF932091A5
:100C9000D0003091D60028718091D80390E0019661
:100CA0008F7799274091D70350E08417950739F043
:100CB0008093D803FC01E552FC4F308301C022E051
:100CC0002093D603FF91EF919F918F915F914F9168
:100CD0003F912F910F900BBE0F900FBE0F901F9062
:100CE00018951F920F920FB60F9211240BB60F9208
:100CF0008F939F93EF93FF939091DA038091D903A1
:100D0000981789F08091D90390E001968F77992701
:100D10008093D903FC01E55AFB4F80818093D60074
:100D20001092CE0208C0E1EDF0E080818F7D8083DB
:100D300081E08093CE02FF91EF919F918F910F9070
:100D40000BBE0F900FBE0F901F9018950F931F931F
:100D50008B019C01F8941092DA031092D90310923F
:100D6000D8031092D7037894DC01CB0180589B47BD
:100D7000A14EBF4F880F991FAA1FBB1F880F991F35
:100D8000AA1FBB1FBC01CD01660F771F881F991FCB
:100D9000000F111F221F331F000F111F221F331FAF
:100DA000A9019801220F331F441F551F220F331F23
:100DB000441F551F0E947415BA01A90141505109E1
:100DC0006109710957FF06C082E08093D0005F7708
:100DD00066277727BB27A72F962F852F8093D500CF
:100DE0004093D40088E98093D10086E08093D200BC
:100DF0001F910F9108959091D8038091D703981770
:100E0000A1F08091D70390E001968F779927809386
:100E1000D703FC01E552FC4F20818091D60390E07E
:100E2000982F8827820F911D089580E091E0089502
:100E30004091DA0350E04F5F5F4F4F775527209185
:100E4000D90330E042175307D1F3FA01E55AFB4FBB
:100E500080834093DA03E1EDF0E08081806280835B
:100E60000895F8948091D8032091D703789490E066
:100E700080589F4F821B91098F7799270895809101
:100E8000CE028823E1F308951F920F920FB60F92BE
:100E900011240BB60F922F933F934F935F938F9331
:100EA0009F93EF93FF932091300130913601287189
:100EB0008091D30290E001968F7799274091D202DA
:100EC00050E08417950739F08093D302FC01EA5271
:100ED000FD4F308301C022E02093D102FF91EF91BA
:100EE0009F918F915F914F913F912F910F900BBEEA
:100EF0000F900FBE0F901F9018951F920F920FB674
:100F00000F9211240BB60F928F939F93EF93FF9341
:100F10009091D5028091D402981789F08091D402E3
:100F200090E001968F7799278093D402FC01EA5ACA
:100F3000FC4F8081809336011092CD0208C0E1E31E
:100F4000F1E080818F7D808381E08093CD02FF91ED
:100F5000EF919F918F910F900BBE0F900FBE0F904E
:100F60001F9018950F931F938B019C01F89410927A
:100F7000D5021092D4021092D3021092D202789429
:100F8000DC01CB0180589B47A14EBF4F880F991FB2
:100F9000AA1FBB1F880F991FAA1FBB1FBC01CD0131
:100FA000660F771F881F991F000F111F221F331F05
:100FB000000F111F221F331FA9019801220F331F99
:100FC000441F551F220F331F441F551F0E947415C5
:100FD000BA01A901415051096109710957FF06C0C1
:100FE00082E0809330015F7766277727BB27A72FA2
:100FF000962F852F809335014093340188E98093A3
:10100000310186E0809332011F910F9108959091F4
:10101000D3028091D2029817A1F08091D20290E081
:1010200001968F7799278093D202FC01EA52FD4FF7
:1010300020818091D10290E0982F8827820F911D06
:10104000089580E091E008954091D50250E04F5F0F
:101050005F4F4F7755272091D40230E04217530756
:10106000D1F3FA01EA5AFC4F80834093D502E1E3C1
:10107000F1E08081806280830895F8948091D302AA
:101080002091D202789490E080589F4F821B910962
:101090008F77992708958091CD028823E1F30895F1
:1010A000279A2F9A2FEF87EA91E6215080409040AF
:1010B000E1F700C000001F9AF5CF27EB37E0FC01F5
:1010C0003183208382E697E0FB019183808385E56D
:1010D00090E0FA019183808308952AE337E0FC01D0
:1010E0003183208385EE96E0FB019183808385E543
:1010F00090E0FA01918380830895FC010396928326
:1011000081832FEF3FEF34832383968385839087FA
:10111000878310820895FC01118610860895CF936D
:10112000DF939C01FB01DC011196CD91DC911297BC
:10113000D383C2838C819D81958384838C819D819F
:10114000DC0113967C936E9312977D836C833187B9
:101150002087F90180818F5F8083DF91CF9108958F
:10116000CF93DF93EB01488159814F3F2FEF520717
:1011700021F4FC01A781B0850DC0DC01139601C0EC
:10118000DF011296ED91FC91139720813181421776
:101190005307B0F71296ED91FC911397FB83EA8306
:1011A000D583C483BD83AC831396DC93CE9312970F
:1011B00099878887FC0120812F5F2083DF91CF9161
:1011C0000895CF93DF93FC01A085B185C281D381BF
:1011D000848195819D838C83C481D5818281938113
:1011E0009B838A8311968D919C911297E817F9073A
:1011F00031F48481958112969C938E931197118678
:1012000010868C9181508C938C91DF91CF910895B1
:1012100031E1FC013083319722E220833197A3E34F
:10122000A083319760833197708331971082319713
:101230001082319760E86083319710823197108275
:1012400031971082319762E06083319763E0608369
:10125000319764E06083319765E06083319766E0A1
:101260006083319767E06083319768E060833197EE
:1012700069E06083319760E1608331973083319713
:1012800032E13083319733E13083319734E1308379
:10129000319735E13083319736E13083319737E14B
:1012A0003083319738E13083319739E1308331979A
:1012B00030E23083319731E23083319720833197A8
:1012C00023E220833197408331975083319726E280
:1012D0002083319727E22083319728E220833197BA
:1012E00029E22083319720E32083319721E3208373
:1012F00089970895A89590EC88E10FB6F894A89581
:10130000809360000FBE90936000A0913808B09168
:101310003908CD91CDBFDD91DEBFFF91EF91DF9117
:10132000CF91BF91AF919F918F917F916F915F917D
:101330004F913F912F911F910F91FF90EF90DF9070
:10134000CF90BF90AF909F908F907F906F905F9065
:101350004F903F902F901F900F900CBE0F900BBEA0
:101360000F900FBE0F90089581E008950F920FB671
:10137000F8940F920BB60F920CB60F921F92112495
:101380002F923F924F925F926F927F928F929F9295
:10139000AF92BF92CF92DF92EF92FF920F931F9383
:1013A0002F933F934F935F936F937F938F939F936D
:1013B000AF93BF93CF93DF93EF93FF93A091380840
:1013C000B09139080DB60D920EB60D92CED6A09101
:1013D0003808B0913908CD91CDBFDD91DEBFFF91C6
:1013E000EF91DF91CF91BF91AF919F918F917F91BD
:1013F0006F915F914F913F912F911F910F91FF90AE
:10140000EF90DF90CF90BF90AF909F908F907F90A4
:101410006F905F904F903F902F901F900F900CBE59
:101420000F900BBE0F900FBE0F9008950F920FB646
:10143000F8940F920BB60F920CB60F921F921124D4
:101440002F923F924F925F926F927F928F929F92D4
:10145000AF92BF92CF92DF92EF92FF920F931F93C2
:101460002F933F934F935F936F937F938F939F93AC
:10147000AF93BF93CF93DF93EF93FF93A09138087F
:10148000B09139080DB60D920EB60D9213BE2DD542
:1014900081116BD6A0913808B0913908CD91CDBF9C
:1014A000DD91DEBFFF91EF91DF91CF91BF91AF91C1
:1014B0009F918F917F916F915F914F913F912F916C
:1014C0001F910F91FF90EF90DF90CF90BF90AF9062
:1014D0009F908F907F906F905F904F903F902F9054
:1014E0001F900F900CBE0F900BBE0F900FBE0F9071
:1014F00008959CDF18950FB6F8940F92FC01928D19
:101500000F900FBE81E0911180E008950F931F931B
:10151000CF93DF93EC01042F1A8D4C8D41110BC03A
:1015200088819981892B09F041C08C819D81C9D71F
:101530001D821C8242C0011117C050E08A819B812C
:101540000E9496152C8D8A819B81820F911D9B8311
:101550008A832C813D818217930750F1888199817C
:101560009B838A8380E029C050E08E819F810E9406
:1015700096158C8D90E09195819591092E813F81F2
:10158000280F391F3F832E8348815981241735073F
:1015900030F42C813D81820F931F9F838E83023014
:1015A00049F4112349F0115080E007C080E005C0E4
:1015B00080E003C080E001C080E01F5F1A8FDF91F0
:1015C000CF911F910F910895FC01448D4423A9F000
:1015D00050E026813781240F351F3783268384818D
:1015E00095812817390720F0808191819783868320
:1015F000CB01668177810C9496150895EF92FF9246
:101600000F931F93CF938C010FB6F8940F92FC01A8
:10161000C68D1C169CF48189811106C00FC0F8018B
:101620008189811105C00AC07801F1E1EF0EF11C3A
:10163000C70145D68111C1D6C15089F78FEFF80196
:10164000868F0F900FBE0FB6F8940F92C58D1C16A3
:101650009CF48085811106C00FC0F801808581113E
:1016600005C00AC07801F8E0EF0EF11CC70127D6CB
:101670008111A3D6C15089F78FEFF801858F0F90A4
:101680000FBECF911F910F91FF90EF900895CF93D0
:10169000DF93EC010FB6F8940F92E881F9818B8DFE
:1016A0002C8D90E030E0829FA001839F500D929F8F
:1016B000500D11244E0F5F1F5D834C831A8EFB83E8
:1016C000EA830197829FA001839F500D929F500D46
:1016D0001124CF01840F951F9F838E838FEF8D8FF1
:1016E0008E8F61110AC08885882369F0CE01089623
:1016F000E6D5882341F03ADE06C0CE010896FDDC2F
:10170000CE014196FADC0F900FBE81E0DF91CF91C0
:101710000895CF93DF93E901209761F0611103C031
:101720003983288302C0598348838B8F6C8F61E093
:10173000CE01ADDFCE01DF91CF9108959F92AF92A0
:10174000BF92CF92DF92EF92FF920F931F93CF93AE
:10175000DF9300D01F921F92CDB7DEB78C016B01D3
:101760005D834C83A22EB12C992493947C0188E054
:10177000E80EF11C0FB6F8940F92F801928D838D4C
:10178000981718F0F2E0AF1215C04A2DB601C80143
:10179000BDDEF8019189992339F0C80141968FD5B2
:1017A000882321F0E3DD02C08111E0DD0F900FBE40
:1017B00081E045C08C819D81892B21F40F900FBE63
:1017C00080E03DC0B11004C0CE010196C0D5B92C57
:1017D0000F900FBE7AD30FB6F8940F92F801858D53
:1017E0008F3F09F4158EF801868D8F3F09F4168E10
:1017F0000F900FBEBE016C5F7F4FCE010196B2D538
:10180000811119C00FB6F8940F92F801928D838D53
:101810000F900FBE98130BC06C817D81C70126D538
:10182000C801ECDE19D48111A5CFA0DDA3CFC8017A
:10183000E5DE12D49FCFC801E1DE0ED480E00F9028
:101840000F900F900F900F90DF91CF911F910F91FC
:10185000FF90EF90DF90CF90BF90AF909F90089552
:10186000EF92FF920F931F93CF93DF938A01FC01B6
:10187000528D338D531710F02230E1F4422F78014E
:10188000EC011E8D43DE1F3F79F489898823A1F086
:10189000CE01419614D5882389F0E114F10481F03A
:1018A00081E0F70180830DC0FF24F394F10EFE8EDA
:1018B00081E007C080E005C081E003C081E001C095
:1018C00081E0DF91CF911F910F91FF90EF900895EC
:1018D0009F92AF92BF92CF92DF92EF92FF920F93BF
:1018E0001F93CF93DF9300D01F921F92CDB7DEB727
:1018F0008C015B015D834C83E12C992493946C01F2
:1019000081E1C80ED11C0FB6F8940F92F801F28C49
:10191000FF2091F0B501C80157DEFA94F801F28E6C
:101920008085882329F0C8010896C9D481111EDD5D
:101930000F900FBE81E044C08C819D81892B21F4E2
:101940000F900FBE80E03CC0E11004C0CE010196B4
:10195000FED4E92C0F900FBEB8D20FB6F8940F92B8
:10196000F801858D8F3F09F4158EF801868D8F3F24
:1019700009F4168E0F900FBEBE016C5F7F4FCE0133
:101980000196F0D4811113C0C801B5DD882359F048
:101990006C817D81C6016AD4C80130DE5DD38111BE
:1019A000B2CFE4DCB0CFC80129DE56D3ACCFC8013A
:1019B00025DE52D3C8019FDD882309F4A4CF80E03F
:1019C0000F900F900F900F900F90DF91CF911F917C
:1019D0000F91FF90EF90DF90CF90BF90AF909F90CE
:1019E0000895BF92CF92DF92EF92FF920F931F93D1
:1019F000CF93DF9300D01F921F92CDB7DEB78C013B
:101A00007D836C83B12CD12CCC24C3947C0181E1E7
:101A1000E80EF11C0FB6F8940F92D8015A968C91EB
:101A20005A978823D1F081505A968C935A978D916A
:101A30009C91892B21F4D5D5F80195838483D80115
:101A400018968C91882329F0C801089638D4811102
:101A50008DDC0F900FBE81E070C08C819D81892B41
:101A600021F40F900FBE80E068C0D11004C0CE01F9
:101A700001966DD4DC2C0F900FBE27D20FB6F894D0
:101A80000F92F801858D8F3F09F4158ED8015E966F
:101A90008C915E978F3F11F45E961C920F900FBE53
:101AA000BE016C5F7F4FCE0101965CD4811121C0D5
:101AB000C80121DD8823C9F0F80180819181892B3B
:101AC00049F40FB6F8940F928481958188D4B82E8A
:101AD0000F900FBE6C817D81C701C8D3C8018EDD18
:101AE000BBD2811197CF42DC95CFC80187DDB4D23C
:101AF00091CFC80183DDB0D2C801FDDC882309F491
:101B000089CFBB20C9F00FB6F8940F92F8018189F4
:101B1000882339F00688F789E02D808164E0681B0E
:101B200001C060E0D80114968D919C91159709D55C
:101B30000F900FBE80E001C080E00F900F900F90DB
:101B40000F900F90DF91CF911F910F91FF90EF9029
:101B5000DF90CF90BF900895CF93DF93EC010FB645
:101B6000F8940F928D8D8F3F09F41D8E8E8D8F3FCF
:101B700009F41E8E0F900FBE8A8D811103C0CE0115
:101B8000419685D3CE013ADDDF91CF910895E09162
:101B90001208F09113088081811107C08FEF9FEF29
:101BA0009093F3078093F2070895E0911208F09163
:101BB00013080580F681E02D0680F781E02D8281F3
:101BC00093819093F3078093F20708950F931F93E7
:101BD000CF93DF93EC010091FA071091FB078091FE
:101BE0003808909139080296ECDAC00FD11FE091C5
:101BF0003808F0913908D383C283C017D10760F445
:101C000060913808709139088091100890911108FE
:101C10006E5F7F4FA5DA16C0609138087091390861
:101C200080911208909113086E5F7F4F99DA80912E
:101C3000F2079091F307C817D90720F4D093F30760
:101C4000C093F207DF91CF911F910F9108956F928A
:101C50007F928F929F92AF92BF92CF92DF92EF923C
:101C6000FF920F93CF93DF93C114D10409F4CCC03A
:101C7000E114F10409F4CBC0E60159013A014B012A
:101C80006C01F88EEF8A65EA70E0C70158D781E0F1
:101C9000681A7108EF88F88CE60CF71CD4018C9157
:101CA000898F8C918823A1F0AE01465E5F4FF401CD
:101CB0003196B8E08B0E911CCF012191DA012D9362
:101CC000AD01DC018C91882319F0E815F905A1F725
:101CD00018A2043008F003E00E8B09A31AA24E01EB
:101CE000B2E08B0E911CC40116DACE010C9613DA09
:101CF000D987C88784E090E0801B91099D878C87F5
:101D0000DB8BCA8B1BA21CA21DA21EA21FA2A501B7
:101D1000B601C7017DDA998388830FB6F8940F92D4
:101D20008091FC078F5F8093FC0780913808909129
:101D30003908892B69F5D0933908C0933808809108
:101D4000FC078130A9F584E198E0D7D98DE198E0CE
:101D5000D4D986E298E0D1D98FE298E0CED988EE46
:101D600097E0CBD98FED97E0C8D987E098E0C5D947
:101D70008EEF97E0C2D988EE97E090931308809396
:101D800012088FED97E0909311088093100810C00F
:101D90008091F80781110CC0E0913808F091390862
:101DA00096898E89891720F0D0933908C093380816
:101DB0008091F4078F5F8093F4078E899091F907E3
:101DC000981710F48093F90790E09C01220F331FBD
:101DD000220F331F220F331F820F931FB4018C5E1B
:101DE000974F9DD90F900FBE8091F807882391F0EF
:101DF000E0913808F091390896898E89981768F42F
:101E0000B5DA8C2F9D2F0BC080E090E008C080E0F9
:101E100090E005C08C2F9D2F02C08C2F9D2FDF914D
:101E2000CF910F91FF90EF90DF90CF90BF90AF9048
:101E30009F908F907F906F900895CF92DF92EF9256
:101E4000FF920F93CF93DF9300D000D0CDB7DEB7D2
:101E50001E821D821C821B82AE014F5F5F4FBE013E
:101E60006D5F7F4FCE01059628D9CD80DE80EB8057
:101E7000FC8049815A8100E020E030E06BE672E0AE
:101E800082E790E0E4DE892B91F01AD4813079F476
:101E9000F8948FEF9FEF9093F3078093F20781E020
:101EA0008093F8071092FB071092FA0723DA269620
:101EB0000FB6F894DEBF0FBECDBFDF91CF910F916B
:101EC000FF90EF90DF90CF9008958091F1078F5FA2
:101ED0008093F10708950FB6F8940F928091FA0756
:101EE0009091FB070F900FBE0895CF92DF92EF9273
:101EF000FF920F931F93CF93DF938091F10781118E
:101F000095C0E090FA07F090FB078FEFE81AF80A07
:101F1000F092FB07E092FA07E114F104B1F480912A
:101F200012089091130820911008309111083093F5
:101F30001308209312089093110880931008809141
:101F4000F5078F5F8093F50722DE8091F20790916D
:101F5000F307E816F90610F4D12C50C0D12CCC248C
:101F6000C394E0911208F09113088081811107C099
:101F70008FEF9FEF9093F3078093F2073FC0E091BC
:101F80001208F09113080580F681E02DC681D781F3
:101F90008A819B81E816F90628F49093F3078093D1
:101FA000F2072CC08E010E5F1F4FC8010AD98C8921
:101FB0009D89892B19F0CE010C9603D98E899091B9
:101FC000F907981710F48093F90790E09C01220F0D
:101FD000331F220F331F220F331F820F931FB801AD
:101FE0008C5E974F9CD8E0913808F09139089E8913
:101FF0008689981708F4B5CFDC2CB3CFE091380868
:10200000F0913908868990E0FC01EE0FFF1FEE0F7A
:10201000FF1FEE0FFF1F8E0F9F1FFC01EC5EF74F9F
:102020008081823048F0DD24D39406C08091F70788
:102030008F5F8093F707D12C8091F607882311F0EA
:10204000DD24D3948D2DDF91CF911F910F91FF90BF
:10205000EF90DF90CF900895DF92EF92FF920F9371
:102060001F93CF93DF930FB6F8940F928091F107EF
:1020700081508093F1078091F107811159C08091BF
:10208000FC07811130C057C0D7011596ED91FC9126
:102090001697C681D781CE010C9693D88E010E5F1C
:1020A0001F4FC8018ED88E899091F907981710F4A8
:1020B0008093F90790E09C01220F331F220F331FFA
:1020C000220F331F820F931FB8018C5E974F27D8C2
:1020D000E0913808F09139089E898689981768F050
:1020E000D092F6070AC0C0E0D0E00F2EF7E0EF2E46
:1020F000F8E0FF2EF02DDD24D394F70180818111CB
:10210000C3CFCD2B09F043DDC091F707CC2349F0B5
:10211000D1E0EBDE8111D093F607C150D1F71092D8
:10212000F7078091F607882329F020D981E003C0C2
:1021300080E001C080E00F900FBEDF91CF911F9132
:102140000F91FF90EF90DF900895CF93DF93EC0114
:10215000892B39F0BADE60E0CE0138DD7DDF8111F8
:1021600001C004D9DF91CF9108958091F1078823B0
:1021700021F081E08093F60708951092F607A09170
:102180003808B0913908E0913808F09139082D915C
:102190003C918789908D8217930760F06091380891
:1021A000709139088091380890913908675E7F4FA7
:1021B0000E9450082091F907822F90E0FC01EE0F59
:1021C000FF1FEE0FFF1FEE0FFF1FE80FF91FEC5E62
:1021D000F74F3081311111C02150822F90E0FC0166
:1021E000EE0FFF1FEE0FFF1FEE0FFF1FE80FF91F8F
:1021F000EC5EF74F3081332379F3AC01440F551F68
:10220000440F551F440F551F480F591FDA01AC5E8C
:10221000B74F1196ED91FC9112970280F381E02D5A
:102220001296FC93EE931197495E574FE417F5070A
:1022300029F442815381FD0152834183FC01EE0F59
:10224000FF1FEE0FFF1FEE0FFF1F8E0F9F1FFC01E2
:10225000EC5EF74F0180F281E02D868197819093AB
:102260003908809338082093F9070895CF93DF93B6
:10227000EB016091380870913908645F7F4F0E94CC
:10228000B00861E0CE01A2DCDF91CF9108950F93F9
:102290001F93CF938B01C42F609138087091390838
:1022A000645F7F4F0E948F08CC2311F00FEF1FEF68
:1022B0006C2FC8018BDCCF911F910F9108950F9364
:1022C0001F93CF93DF93DC011596ED91FC91169748
:1022D000C681D7818E01045F1F4FC8010E94E108AB
:1022E0008091F10781111CC00A501109C8010E9498
:1022F000E1088E899091F907981710F48093F907F7
:1023000090E09C01220F331F220F331F220F331F37
:10231000820F931FB8018C5E974F0E948F0805C0F3
:10232000B80187E098E00E948F08E0913808F091AA
:1023300039089E898689891720F481E08093F60701
:1023400001C080E0DF91CF911F910F9108952091FE
:10235000F507FC0120832091FA073091FB073283B7
:10236000218308950FB6F8940F922091FA073091C7
:10237000FB07DC0111964D915C911297E091F507F6
:10238000FC91FE1719F02417350798F4241B350B20
:10239000FB01408151812417350738F4421B530B50
:1023A00051834083D4DF80E005C01182108281E038
:1023B00001C081E00F900FBE089581E08093F60781
:1023C00008958091F807882331F08091F1078823E0
:1023D00021F080E0089581E0089582E008950F9350
:1023E0001F93CF93DF93FC01892B09F464C02689E6
:1023F000A0913808B091390856968C91281708F0AA
:102400004EC084859585992364F0A0913808B091D9
:10241000390856963C9184E090E0831B910995879A
:10242000848730E0C901880F991F880F991F880F92
:10243000991F280F391F2C5E374F8285938582178D
:10244000930721F58F01EF012296CE010E94E1084A
:10245000E0913808F09139088689F801868B9091CF
:10246000F907981710F48093F90790E09C01220F68
:10247000331F220F331F220F331F820F931FBE0102
:102480008C5E974F0E948F0881E016C0A09138089B
:10249000B091390856968C91868B81E00DC0A09141
:1024A0003808B091390881E021A156969C912917EE
:1024B00018F080E001C080E0DF91CF911F910F9173
:1024C00008950F931F93CF93DF93FC01892B79F12C
:1024D00082A1815082A3268991A1291751F18111EE
:1024E0002AC0EF018F010E5F1F4FC8010E94E10853
:1024F00089A18E8B24E030E0281B31093D872C8791
:102500009091F907981710F48093F90790E09C01D7
:10251000220F331F220F331F220F331F820F931FEF
:10252000B8018C5E974F0E948F0881E005C080E063
:1025300003C080E001C080E0DF91CF911F910F9137
:1025400008950F931F93CF93DF93FC01892B09F418
:1025500043C091A1961708F4962F86898917E1F157
:1025600022A12130C9F5968B24853585332334F09B
:1025700024E030E0291B31093587248790E09C0155
:10258000220F331F220F331F220F331F820F931F7F
:102590008C5E974F2285338528173907E9F4EF01C0
:1025A0008F010E5F1F4FC8010E94E1088E89909134
:1025B000F907981710F48093F90790E09C01220F17
:1025C000331F220F331F220F331F820F931FB801B7
:1025D0008C5E974F0E948F08DF91CF911F910F91D2
:1025E00008958091380890913908892B39F0E0914D
:1025F0003808F091390882A18F5F82A38091380852
:10260000909139080895FC017383628391878087D4
:102610004617570790F0421B530B84859585481742
:102620005907E0F4BF016E5F7F4F8091A30890913E
:10263000A4080E94B00880E008954217530718F4D8
:102640006217730768F4BF016E5F7F4F8091A50822
:102650009091A6080E94B00880E0089581E0089556
:1026600081E008950F930FB6F8940F928091A1081E
:102670009091A208892B01F584E998E00E947D08D9
:102680008BE898E00E947D0884E998E09093A60882
:102690008093A5088BE898E09093A4088093A30802
:1026A00000E02AE338E049E558E065E08AE031D807
:1026B0009093A2088093A1080F900FBE0F910895E8
:1026C000CF92DF92EF92FF920F93CF93DF9300D0E0
:1026D00000D0CDB7DEB7C6DF8091A1089091A208E7
:1026E000892B31F11E821D821C821B82AE014F5F3D
:1026F0005F4FBE016D5F7F4FCE0105960E946D0852
:10270000CD80DE80EB80FC8049815A8103E020E0AF
:1027100030E060E772E08BE594E199DA9C019093F8
:10272000A00880939F0881E0232B19F480E001C06A
:1027300080E026960FB6F894DEBF0FBECDBFDF91C6
:10274000CF910F91FF90EF90DF90CF9008950F936E
:102750001F93CF93DF9300D01F921F92CDB7DEB7A8
:10276000E091A108F091A208309761F1D901698345
:102770005B834A839D838C836630E4F422DE82305F
:1027800061F420E0A801BE016F5F7F4F8091A10836
:102790009091A2080E949E0B16C020E040E050E0FD
:1027A000BE016F5F7F4F8091A1089091A2080E94A7
:1027B0009E0B09C020E0AD01BE016F5F7F4FCF01CE
:1027C0004FD801C080E00F900F900F900F900F90A6
:1027D000DF91CF911F910F910895AF92BF92CF9249
:1027E000DF92EF92FF920F931F93CF93DF936C01D1
:1027F00072DB7C0180919D0890919E08E816F90695
:1028000008F047C02FC00580F681E02DA080B18080
:10281000C681D7818E010E5F1F4FC8010E94E1085B
:10282000E989FA89CE0119958E858130D9F48C8594
:102830009D858A0D9B1DA816B90660F49B838A832B
:10284000D987C887B8018091A5089091A6080E94F1
:10285000B00808C000E010E020E030E0A50160E032
:10286000CE0175DFE091A508F091A6088081811165
:10287000CACF8091A3089091A4089093A608809352
:10288000A508F093A408E093A30881E0F6018083F3
:1028900002C0F6011082F0929E08E0929D08C701E6
:1028A000DF91CF911F910F91FF90EF90DF90CF902C
:1028B000BF90AF900895CF93DF9300D000D0CDB7F5
:1028C000DEB7CE0101964C0144244394E12CF12C57
:1028D000512CC82ED92CE091A508F091A608808132
:1028E000882309F4B0C00580F681E02DA080B18076
:1028F000ECDAC40172DF8C018981811142C00A15B2
:102900001B0580F1A9DBE091A508F091A6080580E0
:10291000F681E02D66807780C30102960E94E1086F
:10292000D3011E968C911E978130A1F41C966D9157
:102930007C911D976A0D7B1D9501A801C30163DE83
:10294000882341F00E2D1F2D2E2D3F2DA501652D25
:10295000C301FDDED3015196ED91FC915297C30165
:10296000199564C0452DB501601B710B8091A108BC
:102970009091A208F1D870DB811158C00E94B6096D
:1029800055C06ADB53C0898188230CF44FC0AC80EA
:10299000BD80F50182859385892B21F0C5010296C2
:1029A0000E94E108CE01069618DFAC0199819430AF
:1029B00089F11CF49330D0F507C09630BCF1983003
:1029C0001CF0993039F132C02A813B81D5011C9627
:1029D0006D917C911D97620F731FC50114DE8823D2
:1029E00029F1D5015196ED91FC915297C5011995A8
:1029F000F50186858130D1F44A815B818485958596
:102A0000480F591F0E2D1F2D2E2D3F2D652DC50151
:102A10009EDE0CC06A817B81D5011D967C936E93EE
:102A20001C97640F751F9A01C501EDDD4E2D5F2DBA
:102A30006C2D7D2D8091A1089091A2080E94680CB8
:102A40008111A1CF48CF41DAC401C7DE8C01898151
:102A5000811197CFE091A308F091A4088081442DC3
:102A60008111452DAE2CBF2C7ECF82E08093B0002B
:102A700084E08093B1008AEF8093B300E0E7F0E058
:102A80008081826080830895F8946091D60A709165
:102A9000D70A8091D80A9091D90A789408951F9204
:102AA0000F920FB60F9211248F939F93AF93BF9302
:102AB0008091D60A9091D70AA091D80AB091D90AEC
:102AC0000196A11DB11D8093D60A9093D70AA093B9
:102AD000D80AB093D90ABF91AF919F918F910F906F
:102AE0000FBE0F901F901895A1E21A2EAA1BBB1BB8
:102AF000FD010DC0AA1FBB1FEE1FFF1FA217B307CA
:102B0000E407F50720F0A21BB30BE40BF50B661FDF
:102B1000771F881F991F1A9469F7609570958095A3
:102B200090959B01AC01BD01CF010895FB01DC0133
:102B300002C001900D9241505040D8F70895DC0139
:102B400001C06D9341505040E0F70895F894FFCFD5
:102B5000567461736B322073656E647320646174A4
:102B600061203D2000567461736B322047697665A1
:102B700073207468652073656D6170686F72650A93
:102B800000567461736B3120726563656976657395
:102B90002064617461200A00567461736B312052A5
:102BA000656C656173656420646174613D200054E7
:102BB00061736B31005461736B320049444C4500C2
:082BC000546D7220537663008E
:00000001FF
