:10000000B2C00000D1C00000CFC00000CDC00000D1
:10001000CBC00000C9C00000C7C00000C5C00000C0
:10002000C3C00000C1C00000BFC00000BDC00000D0
:100030000C949E140C94381BB7C00000B5C000008F
:10004000B3C000000C94E60BAFC00000ADC00000D0
:10005000ABC00000A9C00000A7C00000A5C0000000
:10006000A3C000000C94A80D0C94E10D9DC00000ED
:100070009BC000000C94E90A97C0000095C00000E6
:100080000C94560C91C000008FC000008DC0000081
:100090000C94AE0E0C94E70E87C0000085C00000E3
:1000A00083C0000081C000000C94C60C7DC000001D
:1000B0007BC0000079C0000077C000000C94360DB2
:1000C00073C0000071C000006FC000000C94BD0F31
:1000D0000C94F60F69C000000C94C9100C94021126
:1000E00063C0000007634236B79BD8A71A39685629
:1000F00018AEBAAB558C1D3CB7CC5763BD6DEDFD4A
:10010000753EF6177231BF000000803F0800000006
:10011000BE922449123EABAAAA2ABECDCCCC4C3EFC
:1001200000000080BEABAAAAAA3E00000000BF00EB
:100130000000803F0000000000084178D3BB4387E7
:10014000D1133D190E3CC3BD4282AD2B3E68EC82FB
:1001500076BED98FE1A93E4C80EFFFBE01C4FF7F80
:100160003F000000000011241FBECFEFD1E2DEBF30
:10017000CDBF00E00CBF14E0A0E0B2E0E6E3FEE398
:1001800000E00BBF02C007900D92A836B107D9F767
:1001900029E1A8E6B4E001C01D92AB30B207E1F757
:1001A0000E94080A0C94191F2BCF6093FC0D7093CA
:1001B000FD0D8093FE0D9093FF0D089540E150E0FA
:1001C00065E085ED90E001C00895E0E0FEE0648325
:1001D0005183408393838283CF010C94660B0895EF
:1001E000E091050EF091060E19950895E091070E25
:1001F000F091080E19950895EF92FF920F931F93B7
:10020000CF93DF937C018B01EEE0FEE0C5E0D0E010
:10021000D183C08384E0848380EF90E093838283E2
:10022000CF010E94660BE9E0FEE0D183C08383E04A
:10023000848386EF90E093838283CF010E94660BD4
:10024000F092060EE092050E1093080E0093070E32
:10025000DF91CF911F910F91FF90EF90089561E092
:1002600081E00C94490B089560E081E00C94490B07
:100270000895E8E6F4E081834283538364837583C1
:10028000208384E391E0918780878FE291E09783D8
:100290008683BF0181E0C8C6089580E090E00C9499
:1002A000BF18089560E080E00C94490B089561E068
:1002B00080E00C94490B0895E4E7F4E02083818307
:1002C000428353836483758387E591E097838683B4
:1002D00082E591E0918780878DE491E09387828722
:1002E000BF0180E0A1C60895CF93DF93EB0141E009
:1002F00050E0BC0180E0AED7811104C060E087D738
:100300009983888389E090E0DF91CF9108958F925F
:100310009F92AF92BF92DF92EF92FF920F931F9343
:10032000CF93DF93CDB7DEB7DA950FB6F894DEBF83
:100330000FBECDBFD62E8111F5C28091B60689833E
:100340002FEF621306C08FE08A836894BB24B1F854
:1003500032C06A8381E06817B8F094E0961718F409
:10036000A7E16A1311C08091B4069091B5069B83F2
:100370008C838091B2069091B3069D838E830F2E5D
:10038000F6E0BF2EF02D03C06894BB24B1F8B0E1B5
:10039000BD1540F0EFE0DE1670F48BEF8D0D82306E
:1003A00000F509C0F6E1DF16E0F027E12D1518F49D
:1003B0008FEFD81216C09091300680913106E1E09F
:1003C000F0E0EC0FFD1FEB0DF11D808381E08B0D44
:1003D000E1E0F0E0EC0FFD1FE80FF11DB394B394E2
:1003E000908390E1D91609F4ADC09D1558F0A6E0B0
:1003F000DA1661F1BFE0DB1609F441C0E5E0DE1278
:100400001AC10DC0F7E1DF1609F49CC02FEFD21618
:1004100009F498C086E1D81609F4DFC00CC19091A8
:100420002E0680912F06E1E0F0E0EC0FFD1FEB0DB2
:10043000F11D808381E08B0DE1E0F0E0EC0FFD1F0A
:10044000E80FF11DB394B3949083F5C0EEEAF5E0A4
:1004500080819181A1E0B0E0AC0FBD1FAB0DB11D5B
:100460009C932081318181E08B0DE1E0F0E0EC0F85
:10047000FD1FE80FF11DB394B3942083DCC080917D
:100480002E0690912F06E1E0F0E0EC0FFD1FEB0D42
:10049000F11D908332E03B0D21E02B0DE1E0F0E017
:1004A000EC0FFD1FE20FF11D8083AC014770552753
:1004B000452B49F0969587959695879596958795BE
:1004C00021E0280F07C09695879596958795969574
:1004D0008795282F93E0B90EFE01E30FF11D2183CC
:1004E000222309F4A8C080E0982F917080FF03C0F8
:1004F000913099F023C0E82FE695F0E0EE0FFF1F52
:10050000E255FA4F40815181E1E0F0E0EC0FFD1F30
:10051000EB0DF11D4083B39411C0E82FE695F0E098
:10052000EE0FFF1FE255FA4F40815181E1E0F0E00C
:10053000EC0FFD1FEB0DF11D5083B3948F5F28135B
:10054000D3CF79C060912E0670912F06E1E0F0E0E4
:10055000EC0FFD1FEB0DF11D708381E08B0DE1E0D1
:10056000F0E0EC0FFD1FE80FF11D608382E08B0DC2
:10057000E1E0F0E0EC0FFD1FE80FF11DA3E0BA0E83
:10058000862F880F80837727161617060CF053C026
:1005900080E090E020E0880F991FFC01E255FA4FBF
:1005A00080819181A1E0B0E0AC0FBD1FAB0DB11D0A
:1005B0009C934081518181E08B0DE1E0F0E0EC0FF4
:1005C000FD1FE80FF11DB394B39440832F5F822F7A
:1005D00090E086179707FCF22EC0EEEAF5E08081E6
:1005E0009181A1E0B0E0AC0FBD1FAB0DB11D9C939C
:1005F0008081918191E09B0DA1E0B0E0AC0FBD1F27
:10060000A90FB11D8C938281938182E08B0DA1E0B3
:10061000B0E0AC0FBD1FA80FB11D9C9322813381A8
:1006200083E08B0DE1E0F0E0EC0FFD1FE80FF11D22
:10063000B4E0BB0E2083BB20B9F08E010F5F1F4FCB
:10064000EE24EA94EB0CF12CEFEFEE1AFE0AE00E2A
:10065000F11E8FEF9FEFD8016D918D010E940C1B51
:100660000E151F05C1F702C08FEF9FEFEE24E39434
:10067000EB0CE1E0F0E0EC0FFD1FEB0DF11D8083D2
:10068000B394B394E1E0F0E0EC0FFD1FEE0DF11D2B
:100690009083E1E0F0E0EC0FFD1FEB0DF11D108207
:1006A000E091A105F091A205199581159140C1F73E
:1006B000E091A705F091A805309709F01995BB20A6
:1006C000A1F08E010F5F1F4FF12CEFEFEE1AFE0A23
:1006D000E00EF11EE091A305F091A405D8018D91E3
:1006E0008D0119950E151F05A9F7E0919F05F09151
:1006F000A0051995EFE8F1E03197F1F700C000008F
:10070000E091A505F091A605309709F019950E9492
:100710002D1B4B015C0108E010E0ED2CF12CE09169
:100720009D05F0919E051995892B91F0DD24D394B8
:10073000D10EE091A105F091A2051995E1E0F0E05C
:10074000EC0FFD1FE10FF11D808301501D2D07C02F
:10075000E091A905F091AA05309709F01995153097
:1007600051F599818091B606981340C48A81282F4B
:100770002F7730E02E153F0509F03AC4882324F482
:100780008B818823E1F1C9C0813158F48F3008F0A2
:10079000BFC3813080F0853068F0873008F4B8C37B
:1007A0000AC0873139F08F3F09F4B2C3863119F49A
:1007B00005E0AFC30B810E942D1BDC01CB01881922
:1007C0009909AA09BB09893C9105A105B10508F45D
:1007D00005C480E092E00E94A00E01110BC482EEDD
:1007E00081119BC0153008F4B4C3A12EB12C750142
:1007F000F2E0EF1AF1081E141F045CF099C30F2EEB
:10080000F3E0EF2EF12CF02D0F2EF5E0AF2EB12CF2
:10081000F02D20E030E08FEF9FEF10E0E1E0F0E01E
:10082000EC0FFD1FE20FF31F60810E940C1B1F5F86
:10083000212F30E02E153F058CF37CC3892F99279B
:10084000FE01EA0DFB1D208130E08217930709F0BD
:100850007EC37FC39B819695E9F580E05EC07B8176
:10086000972F969509F483C3FE01319640E050E03E
:1008700080E0803470F4248130E0322F22276381BD
:10088000262BDA01AA0FBB1FAE5CB94F11963C9321
:100890002E938F5F4F5F5F4F32968913EACF8FEFB2
:1008A000890F8093AB0570FF35C0903470F4292F09
:1008B00030E0220F331FFE01E20FF31F448150E0AE
:1008C000F901EE5CF94F518340839F5F9093AB0534
:1008D00080E023C0FE01319640E050E080E08034AB
:1008E00070F4238130E0322F22276481262BDA0135
:1008F000AA0FBB1FAE5CB94F11963C932E938F5F2E
:100900004F5F5F4F32968913EACF91509093AB05BA
:1009100080E003C080E001C080E01092AD0510923D
:10092000AC0570C3813009F0F1C280919C058983C8
:100930002FEF621306C08FE08A836894BB24B1F85E
:1009400032C06A8381E06817B8F094E0961718F413
:10095000A7E16A1311C080919A0590919B059B8332
:100960008C8380919805909199059D838E830F2E9D
:10097000F6E0BF2EF02D03C06894BB24B1F8B0E1BF
:10098000BD1540F0EFE0DE1670F48BEF8D0D823078
:1009900000F509C0F6E1DF16E0F027E12D1518F4A7
:1009A0008FEFD81216C09091160580911705E1E0DF
:1009B000F0E0EC0FFD1FEB0DF11D808381E08B0D4E
:1009C000E1E0F0E0EC0FFD1FE80FF11DB394B394EC
:1009D000908390E1D91609F4ADC09D1558F0A6E0BA
:1009E000DA1661F1BFE0DB1609F441C0E5E0DE1282
:1009F0001BC10DC0F7E1DF1609F49CC02FEFD21622
:100A000009F498C086E1D81609F4E0C00DC19091B0
:100A1000140580911505E1E0F0E0EC0FFD1FEB0DF2
:100A2000F11D808381E08B0DE1E0F0E0EC0FFD1F14
:100A3000E80FF11DB394B3949083F6C0E4E9F4E0B9
:100A400080819181A1E0B0E0AC0FBD1FAB0DB11D65
:100A50009C932081318181E08B0DE1E0F0E0EC0F8F
:100A6000FD1FE80FF11DB394B3942083DDC0809186
:100A7000140590911505E1E0F0E0EC0FFD1FEB0D82
:100A8000F11D908322E02B0D31E03B0DE1E0F0E021
:100A9000EC0FFD1FE30FF11D8083AC01477055275C
:100AA000452B49F0969587959695879596958795C8
:100AB00091E0980F07C0969587959695879596959E
:100AC0008795982FA3E0BA0EFE01E20FF11D9183E6
:100AD000992309F4A9C080E0282F217080FF03C06A
:100AE000213099F023C0E82FE695F0E0EE0FFF1FCC
:100AF000EC56FB4F20813181E1E0F0E0EC0FFD1F6F
:100B0000EB0DF11D2083B39411C0E82FE695F0E0C2
:100B1000EE0FFF1FEC56FB4F20813181E1E0F0E04A
:100B2000EC0FFD1FEB0DF11D3083B3948F5F981315
:100B3000D3CF7AC08091140590911505E1E0F0E0E3
:100B4000EC0FFD1FEB0DF11D908321E02B0DE1E07B
:100B5000F0E0EC0FFD1FE20FF11D808322E02B0D72
:100B6000E1E0F0E0EC0FFD1FE20FF11DB3E0BB0E82
:100B7000282F220F2083AC015527141615060CF0E0
:100B800053C080E090E020E0880F991FFC01EC56F4
:100B9000FB4F80819181A1E0B0E0AC0FBD1FAB0D98
:100BA000B11D9C936081718181E08B0DE1E0F0E0EB
:100BB000EC0FFD1FE80FF11DB394B39460832F5F1A
:100BC000822F90E084179507FCF22EC0E4E9F4E050
:100BD00080819181A1E0B0E0AC0FBD1FAB0DB11DD4
:100BE0009C938081918191E09B0DA1E0B0E0AC0FDE
:100BF000BD1FA90FB11D8C938281938182E08B0D63
:100C0000A1E0B0E0AC0FBD1FA80FB11D9C932281E5
:100C1000338183E08B0DE1E0F0E0EC0FFD1FE80F86
:100C2000F11D84E0B80E2083BB20B9F08E010F5F68
:100C30001F4FEE24EA94EB0CF12C9FEFE91AF90A0E
:100C4000E00EF11E8FEF9FEFD8016D918D010E9494
:100C50000C1B0E151F05C1F702C08FEF9FEFEE248E
:100C6000E394EB0CE1E0F0E0EC0FFD1FEB0DF11D68
:100C70008083B394B394E1E0F0E0EC0FFD1FEE0D40
:100C8000F11D9083E1E0F0E0EC0FFD1FEB0DF11D95
:100C90001082E0918704F0918804199581159140A4
:100CA000C1F7E0918D04F0918E04309709F0199509
:100CB000BB20A1F08E010F5F1F4FF12CEFEFEE1A5A
:100CC000FE0AE00EF11EE0918904F0918A04D80139
:100CD0008D918D011995E016F106A9F7E091830435
:100CE000F09184041995E7E0F7E03197F1F700C03F
:100CF0000000E0918B04F0918C04309709F0199575
:100D00000E942D1B4B015C0108E010E0ED2CF12C42
:100D1000E0918504F09186041995892B91F0DD24EA
:100D2000D394D10EE0918704F09188041995E1E005
:100D3000F0E0EC0FFD1FE10FF11D808301501D2D30
:100D400007C0E0918F04F0919004309709F0199555
:100D5000153051F5998180919C0598134DC18A8178
:100D6000282F2F7730E02E153F0509F047C1882343
:100D700024F48B818823D9F1C4C0813158F48F3099
:100D800008F0F9C0813080F0853068F0873008F4D1
:100D9000F2C00AC0873139F08F3F09F4ECC08631C8
:100DA00019F405E0E9C00B810E942D1BDC01CB0189
:100DB00088199909AA09BB09893C9105A105B105C2
:100DC00008F410C189E192E0BBD7011119C182EE8C
:100DD000811197C0153008F4EFC0012F10E07801A1
:100DE000F2E0EF1AF1081E141F0444F0D4C00F2ED5
:100DF000F3E0EF2EF12CF02D05E010E020E030E0E4
:100E00008FEF9FEFD12CE1E0F0E0EC0FFD1FE20F40
:100E1000F31F60810E940C1BD3942D2D30E02E1502
:100E20003F058CF3BAC0892F9927FE01E00FF11F0F
:100E3000208130E08217930709F0BCC0BDC08B81D0
:100E40008695E1F55EC06B81862F869509F4C2C058
:100E5000FE01319640E050E090E0903470F424813F
:100E600030E0322F22277381272BDA01AA0FBB1F14
:100E7000A85EBA4F11963C932E939F5F4F5F5F4FD2
:100E800032969813EACF9FEF980F9093910460FFEA
:100E900035C0803470F4282F30E0220F331FFE015C
:100EA000E20FF31F448150E0F901E85EFA4F5183ED
:100EB00040838F5F8093910480E023C0FE013196D0
:100EC00040E050E090E0903470F4238130E0322F25
:100ED00022276481262BDA01AA0FBB1FA85EBA4F16
:100EE00011963C932E939F5F4F5F5F4F32969813FE
:100EF000EACF81508093910480E003C080E001C07C
:100F000080E010929304109292047CC084EE7AC028
:100F100003E00E942D1BDC01CB0188199909AA0965
:100F2000BB09893C9105A105B10508F4F8CB51CC6A
:100F30008FEF9FEFFE01EE0DFF1D218130E0AC0130
:100F400055274217530709F479CC83EEE6CC83EE9C
:100F5000E4CC8A81853038F4833008F07BCC813052
:100F600008F07DCCD9CC873109F474CCD5CC70FD98
:100F70009ECC80E0D2CC03E00E942D1BDC01CB0193
:100F800088199909AA09BB09893C9105A105B105F0
:100F900008F4BECE17CF8FEF9FEFFE01EE0DFF1DC1
:100FA000218130E0AC0155274217530709F43BCFAC
:100FB00083EEA7CF83EEA5CF8A81853038F48330C6
:100FC00008F03DCF813008F03ECF9ACF873109F449
:100FD00036CF96CF60FD5FCF80E093CF01119FCBDE
:100FE00080E0FECB011194CE80E0F2CE80EE95CC75
:100FF00081EE93CC82EE91CC80EE83CF81EE81CFD7
:1010000082EE7FCFD3950FB6F894DEBF0FBECDBF73
:10101000DF91CF911F910F91FF90EF90DF90BF90E4
:10102000AF909F908F900895FB01811189C08081BE
:101030008093B60641816281738184819581268186
:1010400037813093A8052093A705208531853093FB
:10105000A6052093A505228533853093AA05209304
:10106000A9051092AC051092AB05413009F520910D
:1010700082042111CBC021E020938204DDD68AEACC
:101080009FE090939E0580939D0588EB9FE0909351
:10109000A00580939F0581E79FE09093A205809330
:1010A000A10581E99FE09093A4058093A30508958D
:1010B000423009F5209181042111A8C021E020933C
:1010C0008104C9D786EB90E190939E0580939D059E
:1010D00084EC90E19093A00580939F0580E890E1D7
:1010E0009093A2058093A1058DE990E19093A405CA
:1010F0008093A3050895433009F088C020918004AF
:10110000211184C021E0209380040E94371182ECD9
:1011100091E190939E0580939D0580ED91E19093E0
:10112000A00580939F058CE891E19093A2058093A0
:10113000A10589EA91E19093A4058093A305089500
:10114000813009F063C0808180939C054181628178
:101150007381848195812681378130938E04209319
:101160008D042085318530938C0420938B04228557
:1011700033853093900420938F0410929204109240
:101180009104413009F52091820421113FC021E0F2
:101190002093820451D68AEA9FE09093860480933C
:1011A000850488EB9FE0909384048093830481E717
:1011B0009FE0909388048093870481E99FE0909357
:1011C0008A04809389040895423001F520918104B6
:1011D00021111CC021E0209381043DD786EB90E1D2
:1011E000909386048093850484EC90E1909384042A
:1011F0008093830480E890E190938804809387042F
:101200008DE990E190938A04809389040895811177
:101210000BC06034B0F4E62FF0E0EE0FFF1FEE5C81
:10122000F94F808191810895813071F4603478F4B0
:10123000E62FF0E0EE0FFF1FE85EFA4F808191810C
:1012400008958FEF9FEF08958FEF9FEF08958FEF31
:101250009FEF089581110BC07093B5066093B4069B
:101260005093B3064093B20663E051C808958130AD
:1012700059F470939B0560939A0550939905409398
:10128000980563E044C8089584EE089574C10895F4
:10129000CF92DF92EF92FF92CF93CFE0C12CD12C6F
:1012A00076018BD1BC0180E090E00E94561C9B012E
:1012B000AC01C701B6010E945E1B6B017C0180E09E
:1012C00090E00E94BF18C15061F720E030E040E795
:1012D00051E4C701B6010E94C21B2BED39EF4EE16C
:1012E00050E40E94E41C20E030E040E85AE30E9411
:1012F000E41C20E030E04AE754E40E94E41C23E0D0
:1013000039E042EF50E40E94C21B20E030E048EC9C
:1013100052E40E94C21B9B01AC0160E070E080E8D7
:101320009FE30E945D1B23E233EE4AE156EB0E94ED
:10133000E41C9B01AC0166E672E280E897E30E9440
:101340005D1B20E030E040E05FE30E94471D22E3A8
:1013500031E140E85BE30E945D1B23E233EE4AE9A2
:1013600055EB0E94C21B0E94931D0E942A1CCB01B8
:10137000CF91FF90EF90DF90CF90089582E392E0BD
:10138000DFC408958AE492E0DBC4089588E692E021
:10139000D7C4089589E992E0D3C4089566EC79E052
:1013A0008AEC99E00E94331A82EC99E00E943C1A80
:1013B0008EEB99E00C94C51A08958FE190E00E949D
:1013C000BF18FBCF89EC92E0BBD482E190E00E9491
:1013D000BF18FBCF8AEF90E00E94BF18FBCF86EDCD
:1013E00092E0AED48CE090E00E94BF18FBCFCF9388
:1013F000DF931F92CDB7DEB7198287EE92E0A0D4BB
:10140000CE0101960E94CA1A0F90DF91CF910895E4
:10141000CF93DF931F921F92CDB7DEB78FEF8DB9B9
:1014200060E875E280E090E001D40E94ED1A85EF5B
:1014300092E086D40F2EFDE3CF2EFEE0DF2EF02DBE
:101440000F2EF0E9EF2EF0E1FF2EF02D02E020E06C
:1014500030E044EF51E06DEF72E08FEE99E00E94D2
:1014600090169093C0068093BF060F2EF7E6CF2EFE
:10147000FEE0DF2EF02D0F2EF2EAEF2EF4E1FF2E2C
:10148000F02D20E030E044EF51E063E073E08AEEBD
:1014900099E00E9490169093BE068093BD060F2E91
:1014A000F4E8CF2EF2E1DF2EF02D0F2EFDE9EF2E26
:1014B000F6E1FF2EF02D20E030E044EF51E069E04E
:1014C00073E087EF99E00E9490169093BC0680939A
:1014D000BB060F2EF3E1CF2EFEE0DF2EF02D0F2EF8
:1014E000FCE9EF2EFEE0FF2EF02D20E030E044EF8F
:1014F00051E06FE073E082EE99E00E9490169093C5
:10150000BA068093B9060F2EF1E9CF2EF8E1DF2E4F
:10151000F02D0F2EFEEAEF2EF2E1FF2EF02D05E06A
:1015200020E030E044EF51E065E173E08DED99E0BB
:101530000E9490169093B8068093B7061A8219827B
:10154000BE016F5F7F4F82E190E00E9474018BE1EA
:1015500093E0F6D369817A8180E090E0D5D38AE088
:10156000BAD32FEF83ED90E3215080409040E1F714
:1015700000C00000E5CF90B321E030E0082E02C0AB
:10158000220F331F0A94E2F72095292320BBECE7B2
:10159000F0E090819F7090839081907F90838F7016
:1015A000982B90838FE880937A0078940895EAE7E7
:1015B000F0E08081806480830895F9DF1092C10695
:1015C00080EC92E10197F1F78091C2069091C306F9
:1015D00008951F920F920FB60F9211242F938F939D
:1015E0009F93809178002091790090E0922B9093C6
:1015F000C3068093C20681E08093C1069F918F91BC
:101600002F910F900FBE0F901F901895EAE0F1E018
:1016100080818F7E808380818F7D808380818F7B9E
:10162000808380818F7780833C983D983A98808131
:10163000877F8083099A0A9AE7E0F1E080818064DD
:1016400080830E9A0E9A8081806280838081806878
:1016500080833898089A0B9AE4E0F1E080818460F6
:101660008083549A0E9A3F9A8081806480830F9A77
:10167000E1E0F1E080818E7F8083808182608083E1
:10168000E2E0F1E08081816080835298539A5A9A17
:101690000895882319F0813089F00895613031F47C
:1016A000E5E0F1E0808184608083089561110DC0E0
:1016B000E5E0F1E080818B7F80830895613011F453
:1016C0005C9A0895611101C05C980895FC019481B1
:1016D0009130C1F456985E9A109280008EE080930B
:1016E0008100808191810197909389008093880087
:1016F000AFE6B0E08C9182608C93F093C018E093D9
:10170000BF185FC09330C1F46E98769A1092900023
:101710008EE0809391008081918101979093990050
:1017200080939800A1E7B0E08C9182608C93F09355
:10173000BC18E093BB1845C0943001F5A1E0B1E0BE
:101740008C918F778C93A2E0B1E08C9180688C9320
:101750001092A0008EE08093A1008081918101977A
:101760009093A9008093A800A2E7B0E08C918260DA
:101770008C93F093BE18E093BD1823C0953021F5EB
:10178000AAE0B1E08C918B7F8C93ABE0B1E08C91BF
:1017900084608C93109220018EE0809321018081DF
:1017A000918101979093290180932801A3E7B0E0EC
:1017B0008C9182608C93F093C218E093C1181092C0
:1017C0002401789481E008958FEF08951F920F927D
:1017D0000FB60F9211240BB60F922F933F934F9396
:1017E0005F936F937F938F939F93AF93BF93EF9389
:1017F000FF93CF93DF9300D01F92CDB7DEB70E9447
:101800002D1B6093E0067093E1068093E2069093AF
:10181000E3068091E0069091E106A091E206B09186
:10182000E3064091DC065091DD066091DE06709182
:10183000DF06841B950BA60BB70B89839A83AB83BA
:10184000BC838091E0069091E106A091E206B09100
:10185000E3068093DC069093DD06A093DE06B0934A
:10186000DF0669817A818B819C81E091BF18F091BC
:10187000C0180280F381E02D19950F900F900F9002
:101880000F90DF91CF91FF91EF91BF91AF919F9119
:101890008F917F916F915F914F913F912F910F9019
:1018A0000BBE0F900FBE0F901F9018951F920F92B6
:1018B0000FB60F9211240BB60F922F933F934F93B5
:1018C0005F936F937F938F939F93AF93BF93EF93A8
:1018D000FF93CF93DF9300D01F92CDB7DEB70E9466
:1018E0002D1B6093D8067093D9068093DA069093E7
:1018F000DB068091D8069091D906A091DA06B091C6
:10190000DB064091D4065091D5066091D6067091C1
:10191000D706841B950BA60BB70B89839A83AB83E1
:10192000BC838091D8069091D906A091DA06B09137
:10193000DB068093D4069093D506A093D606B09389
:10194000D70669817A818B819C81E091BB18F091E7
:10195000BC180280F381E02D19950F900F900F9025
:101960000F90DF91CF91FF91EF91BF91AF919F9138
:101970008F917F916F915F914F913F912F910F9038
:101980000BBE0F900FBE0F901F9018951F920F92D5
:101990000FB60F9211240BB60F922F933F934F93D4
:1019A0005F936F937F938F939F93AF93BF93EF93C7
:1019B000FF93CF93DF9300D01F92CDB7DEB70E9485
:1019C0002D1B6093D0067093D1068093D20690931E
:1019D000D3068091D0069091D106A091D206B09105
:1019E000D3064091CC065091CD066091CE06709101
:1019F000CF06841B950BA60BB70B89839A83AB8309
:101A0000BC838091D0069091D106A091D206B0916E
:101A1000D3068093CC069093CD06A093CE06B093C8
:101A2000CF0669817A818B819C81E091BD18F0910C
:101A3000BE180280F381E02D19950F900F900F9042
:101A40000F90DF91CF91FF91EF91BF91AF919F9157
:101A50008F917F916F915F914F913F912F910F9057
:101A60000BBE0F900FBE0F901F9018951F920F92F4
:101A70000FB60F9211240BB60F922F933F934F93F3
:101A80005F936F937F938F939F93AF93BF93EF93E6
:101A9000FF93CF93DF9300D01F92CDB7DEB70E94A4
:101AA0002D1B6093C8067093C9068093CA06909355
:101AB000CB068091C8069091C906A091CA06B09144
:101AC000CB064091C4065091C5066091C606709140
:101AD000C706841B950BA60BB70B89839A83AB8330
:101AE000BC838091C8069091C906A091CA06B091A6
:101AF000CB068093C4069093C506A093C606B09308
:101B0000C7061092240169817A818B819C81E091C2
:101B1000C118F091C2180280F381E02D19950F9041
:101B20000F900F900F90DF91CF91FF91EF91BF91A8
:101B3000AF919F918F917F916F915F914F913F9165
:101B40002F910F900BBE0F900FBE0F901F90189506
:101B50001F920F920FB60F9211240BB60F922F9374
:101B60003F934F935F938F939F93EF93FF932091B6
:101B7000C0003091C60028718091F90990E001966B
:101B80008F7799274091F80950E08417950739F02D
:101B90008093F909FC01E450F64F308301C022E044
:101BA0002093F709FF91EF919F918F915F914F9152
:101BB0003F912F910F900BBE0F900FBE0F901F9073
:101BC00018951F920F920FB60F9211240BB60F9219
:101BD0008F939F93EF93FF939091FB098091FA0964
:101BE000981789F08091FA0990E001968F779927EC
:101BF0008093FA09FC01E458F54F80818093C60078
:101C00001092E70608C0E1ECF0E080818F7D8083D0
:101C100081E08093E706FF91EF919F918F910F9064
:101C20000BBE0F900FBE0F901F9018950F931F9330
:101C30008B019C01F8941092FB091092FA09109202
:101C4000F9091092F8097894DC01CB0180589B4780
:101C5000A14EBF4F880F991FAA1FBB1F880F991F46
:101C6000AA1FBB1FBC01CD01660F771F881F991FDC
:101C7000000F111F221F331F000F111F221F331FC0
:101C8000A9019801220F331F441F551F220F331F34
:101C9000441F551F0E94E71EBA01A9014150510976
:101CA0006109710957FF06C082E08093C0005F7729
:101CB00066277727BB27A72F962F852F8093C500F0
:101CC0004093C40088E98093C10086E08093C200FD
:101CD0001F910F9108954091FB0950E04F5F5F4FB6
:101CE0004F7755272091FA0930E042175307D1F377
:101CF000FA01E458F54F80834093FB09E1ECF0E0F2
:101D000080818062808308950F931F93CF93DF9328
:101D10006A3071058105910558F02AE030E040E015
:101D200050E00E94E71E062FCA01B901EDDF602FC7
:101D300080E3860FD0DFDF91CF911F910F9108953F
:101D4000CF93DF93EC018881882329F02196C3DFAC
:101D500089918111FCCFDF91CF9108951F920F924D
:101D60000FB60F9211240BB60F922F933F934F9300
:101D70005F938F939F93EF93FF932091C8003091CF
:101D8000CE0028718091F40890E001968F77992712
:101D90004091F30850E08417950739F08093F408D8
:101DA000FC01E950F74F308301C022E02093F20894
:101DB000FF91EF919F918F915F914F913F912F9163
:101DC0000F900BBE0F900FBE0F901F9018951F9293
:101DD0000F920FB60F9211240BB60F928F939F9311
:101DE000EF93FF939091F6088091F508981789F08A
:101DF0008091F50890E001968F7799278093F508F8
:101E0000FC01E958F64F80818093CE001092E606DF
:101E100008C0E9ECF0E080818F7D808381E08093D1
:101E2000E606FF91EF919F918F910F900BBE0F905F
:101E30000FBE0F901F9018950F931F938B019C015D
:101E4000F8941092F6081092F5081092F408109287
:101E5000F3087894DC01CB0180589B47A14EBF4F1B
:101E6000880F991FAA1FBB1F880F991FAA1FBB1F8E
:101E7000BC01CD01660F771F881F991F000F111F2E
:101E8000221F331F000F111F221F331FA9019801AA
:101E9000220F331F441F551F220F331F441F551F8E
:101EA0000E94E71EBA01A901415051096109710957
:101EB00057FF06C082E08093C8005F7766277727C8
:101EC000BB27A72F962F852F8093CD004093CC0062
:101ED00088E98093C90086E08093CA001F910F9122
:101EE0000895F8949091F4088091F308981304C031
:101EF000789480E091E008958091F30890E0019655
:101F00008F7799278093F3087894FC01E950F74F75
:101F100020818091F20890E0982F8827820F911DF0
:101F200008954091F60850E04F5F5F4F4F77552777
:101F30002091F50830E042175307D1F3FA01E95830
:101F4000F64F80834093F608E9ECF0E080818062F0
:101F500080830895F8948091F4082091F308789490
:101F600090E080589F4F821B91098F7799270895A1
:101F70008091E6068823E1F308951F920F920FB631
:101F80000F9211240BB60F922F933F934F935F93B1
:101F90008F939F93EF93FF932091D0003091D600C1
:101FA00028718091EF0790E001968F7799274091F3
:101FB000EE0750E08417950739F08093EF07FC0196
:101FC000EE50F84F308301C022E02093ED07FF91DF
:101FD000EF919F918F915F914F913F912F910F9032
:101FE0000BBE0F900FBE0F901F9018951F920F926F
:101FF0000FB60F9211240BB60F928F939F93EF930E
:10200000FF939091F1078091F007981789F08091E4
:10201000F00790E001968F7799278093F007FC01F5
:10202000EE58F74F80818093D6001092E50608C0E5
:10203000E1EDF0E080818F7D808381E08093E50693
:10204000FF91EF919F918F910F900BBE0F900FBE5C
:102050000F901F9018950F931F938B019C01F8947C
:102060001092F1071092F0071092EF071092EE070E
:102070007894DC01CB0180589B47A14EBF4F880F5D
:10208000991FAA1FBB1F880F991FAA1FBB1FBC0146
:10209000CD01660F771F881F991F000F111F221F88
:1020A000331F000F111F221F331FA9019801220F98
:1020B000331F441F551F220F331F441F551F0E94FB
:1020C000E71EBA01A901415051096109710957FF81
:1020D00006C082E08093D0005F7766277727BB2712
:1020E000A72F962F852F8093D5004093D40088E9A1
:1020F0008093D10086E08093D2001F910F910895C4
:102100009091EF078091EE079817A1F08091EE076C
:1021100090E001968F7799278093EE07FC01EE50AF
:10212000F84F20818091ED0790E0982F8827820F4B
:10213000911D089580E091E008954091F10750E0ED
:102140004F5F5F4F4F7755272091F00730E04217E0
:102150005307D1F3FA01EE58F74F80834093F1070C
:10216000E1EDF0E08081806280830895F8948091B1
:10217000EF072091EE07789490E080589F4F821BE4
:1021800091098F77992708958091E5068823E1F3D7
:1021900008951F920F920FB60F9211240BB60F9253
:1021A0002F933F934F935F938F939F93EF93FF935F
:1021B000209130013091360128718091EA0690E03B
:1021C00001968F7799274091E90650E0841795078B
:1021D00039F08093EA06FC01E351F94F308301C0E6
:1021E00022E02093E806FF91EF919F918F915F91FC
:1021F0004F913F912F910F900BBE0F900FBE0F90FC
:102200001F9018951F920F920FB60F9211240BB6C4
:102210000F928F939F93EF93FF939091EC06809191
:10222000EB06981789F08091EB0690E001968F7786
:1022300099278093EB06FC01E359F84F8081809346
:1022400036011092E40608C0E1E3F1E080818F7D61
:10225000808381E08093E406FF91EF919F918F91BD
:102260000F900BBE0F900FBE0F901F9018950F93FD
:102270001F938B019C01F8941092EC061092EB06D0
:102280001092EA061092E9067894DC01CB0180589E
:102290009B47A14EBF4F880F991FAA1FBB1F880FD6
:1022A000991FAA1FBB1FBC01CD01660F771F881F96
:1022B000991F000F111F221F331F000F111F221F14
:1022C000331FA9019801220F331F441F551F220FEE
:1022D000331F441F551F0E94E71EBA01A901415038
:1022E00051096109710957FF06C082E080933001EE
:1022F0005F7766277727BB27A72F962F852F809399
:1023000035014093340188E98093310186E0809360
:1023100032011F910F9108959091EA068091E9068C
:102320009817A1F08091E90690E001968F779927A0
:102330008093E906FC01E351F94F20818091E80682
:1023400090E0982F8827820F911D089580E091E0FA
:1023500008954091EC0650E04F5F5F4F4F7755274F
:102360002091EB0630E042175307D1F3FA01E3590D
:10237000F84F80834093EC06E1E3F1E080818062D6
:1023800080830895F8948091EA062091E906789474
:1023900090E080589F4F821B91098F77992708956D
:1023A0008091E4068823E1F3089508950F9303E0F4
:1023B00021EA3BE040E050E060E081E0AAD3909366
:1023C000C10B8093C00B20E83BE040E050E060E0B0
:1023D00081E09FD39093A00B80939F0B2FE53BE070
:1023E00040E050E060E081E094D390937F0B8093D5
:1023F0007E0B2EE33BE040E050E060E081E089D3DB
:1024000090935E0B80935D0B2DE13BE040E050E04C
:1024100060E081E07ED390933D0B80933C0B2CEFEA
:102420003AE040E050E060E081E073D390931C0B11
:1024300080931B0B0F9108950F9303E023EE3BE075
:1024400040E050E060E081E064D39093030C80931F
:10245000020C22EC3BE040E050E060E081E059D328
:102460009093E20B8093E10B0F9108959EDF9EDF26
:1024700003D0E2DF31C008950F9303E027E63CE08C
:1024800040E050E060E081E044D39093870C80937B
:10249000860C26E43CE040E050E060E081E039D387
:1024A0009093660C8093650C25E23CE040E050E0A0
:1024B00060E081E02ED39093450C8093440C24E09F
:1024C0003CE040E050E060E081E023D39093240CB6
:1024D0008093230C0F9108950F9303E022E53DE0D4
:1024E00040E050E060E081E014D39093720D80935F
:1024F000710D21E33DE040E050E060E081E009D370
:102500009093510D8093500D20E13DE040E050E06C
:1025100060E081E0FED29093300D80932F0D2FEE7E
:102520003CE040E050E060E081E0F3D290930F0D9A
:1025300080930E0D2EEC3CE040E050E060E081E046
:10254000E8D29093EE0C8093ED0C2DEA3CE040E055
:1025500050E060E081E0DDD29093CD0C8093CC0C14
:102560002CE83CE040E050E060E081E0D2D2909383
:10257000AC0C8093AB0C0F9108959093890C8093D1
:10258000880C089590938B0C80938A0C20E040E097
:1025900050E060E070E08091AB0C9091AC0CCEC24A
:1025A0000895279A2F9A2FEF87EA91E621508040CD
:1025B0009040E1F700C000001F9AF5CFFC010396A0
:1025C000928381832FEF3FEF348323839683858328
:1025D0009087878310820895FC01118610860895E4
:1025E000CF93DF939C01FB01DC011196CD91DC912F
:1025F0001297D383C2838C819D81958384838C8140
:102600009D81DC0113967C936E9312977D836C837E
:1026100031872087F90180818F5F8083DF91CF919F
:102620000895CF93DF93EB01488159814F3F2FEFFE
:10263000520721F4FC01A781B0850DC0DC0113967F
:1026400001C0DF011296ED91FC9113972081318139
:1026500042175307B0F71296ED91FC911397FB8345
:10266000EA83D583C483BD83AC831396DC93CE9376
:10267000129799878887FC0120812F5F2083DF9143
:10268000CF910895CF93DF93FC01A085B185C281DE
:10269000D381848195819D838C83C481D5818281FE
:1026A00093819B838A8311968D919C911297E81751
:1026B000F90731F48481958112969C938E9311973A
:1026C000118610868C9181508C938C91DF91CF91E3
:1026D000089531E1FC013083319722E22083319764
:1026E000A3E3A08331976083319770833197108281
:1026F00031971082319760E860833197108231976B
:10270000108231971082319762E06083319763E0E5
:102710006083319764E06083319765E0608331972F
:1027200066E06083319767E06083319768E060839B
:10273000319769E06083319760E16083319730833E
:10274000319732E13083319733E13083319734E18F
:102750003083319735E13083319736E130833197DB
:1027600037E13083319738E13083319739E1308375
:10277000319730E23083319731E2308331972083D3
:10278000319723E2208331974083319750833197EB
:1027900026E22083319727E22083319728E22083A5
:1027A000319729E22083319720E32083319721E379
:1027B0002083899708950F920FB6F8940F920BB665
:1027C0000F920CB60F921F9211242F923F924F92AC
:1027D0005F926F927F928F929F92AF92BF92CF92B1
:1027E000DF92EF92FF920F931F932F933F934F939C
:1027F0005F936F937F938F939F93AF93BF93CF9389
:10280000DF93EF93FF93A091CB0DB091CC0D0DB65C
:102810000D920EB60D92C3D4A091CB0DB091CC0DFC
:10282000CD91CDBFDD91DEBFFF91EF91DF91CF91D3
:10283000BF91AF919F918F917F916F915F914F91D8
:102840003F912F911F910F91FF90EF90DF90CF90CC
:10285000BF90AF909F908F907F906F905F904F90C0
:102860003F902F901F900F900CBE0F900BBE0F90BB
:102870000FBE0F9008950F920FB6F8940F920BB6FB
:102880000F920CB60F921F9211242F923F924F92EB
:102890005F926F927F928F929F92AF92BF92CF92F0
:1028A000DF92EF92FF920F931F932F933F934F93DB
:1028B0005F936F937F938F939F93AF93BF93CF93C8
:1028C000DF93EF93FF93A091CB0DB091CC0D0DB69C
:1028D0000D920EB60D9213BE22D3811160D4A09139
:1028E000CB0DB091CC0DCD91CDBFDD91DEBFFF9171
:1028F000EF91DF91CF91BF91AF919F918F917F9198
:102900006F915F914F913F912F911F910F91FF9088
:10291000EF90DF90CF90BF90AF909F908F907F907F
:102920006F905F904F903F902F901F900F900CBE34
:102930000F900BBE0F900FBE0F9008959CDF18955F
:102940000F931F93CF93DF93EC01042F1A8D4C8DBF
:1029500041110BC088819981892B09F041C08C817C
:102960009D812BD51D821C8242C0011117C050E0F1
:102970008A819B810E94091F2C8D8A819B81820FF5
:10298000911D9B838A832C813D818217930750F18F
:10299000888199819B838A8380E029C050E08E8161
:1029A0009F810E94091F8C8D90E0919581959109DE
:1029B0002E813F81280F391F3F832E834881598103
:1029C0002417350730F42C813D81820F931F9F839C
:1029D0008E83023049F4112349F0115080E007C082
:1029E00080E005C080E003C080E001C080E01F5FA0
:1029F0001A8FDF91CF911F910F910895EF92FF925F
:102A00000F931F93CF938C010FB6F8940F92FC0194
:102A1000C68D1C169CF48189811106C00FC0F80177
:102A20008189811105C00AC07801F1E1EF0EF11C26
:102A3000C70145D48111BDD4C15089F78FEFF8018A
:102A4000868F0F900FBE0FB6F8940F92C58D1C168F
:102A50009CF48085811106C00FC0F801808581112A
:102A600005C00AC07801F8E0EF0EF11CC70127D4B9
:102A700081119FD4C15089F78FEFF801858F0F9096
:102A80000FBECF911F910F91FF90EF900895CF93BC
:102A9000DF93EC010FB6F8940F92E881F9818B8DEA
:102AA0002C8D90E030E0829FA001839F500D929F7B
:102AB000500D11244E0F5F1F5D834C831A8EFB83D4
:102AC000EA830197829FA001839F500D929F500D32
:102AD0001124CF01840F951F9F838E838FEF8D8FDD
:102AE0008E8F61110AC08885882369F0CE0108960F
:102AF000E6D3882341F05FDE06C0CE0108965EDD96
:102B0000CE0141965BDD0F900FBE81E0DF91CF914A
:102B10000895CF93DF93E901209761F0611103C01D
:102B20003983288302C0598348838B8F6C8F61E07F
:102B3000CE01ADDFCE01DF91CF9108959F92AF928C
:102B4000BF92CF92DF92EF92FF920F931F93CF939A
:102B5000DF9300D01F921F92CDB7DEB78C016B01BF
:102B60005D834C83A22EB12C992493947C0188E040
:102B7000E80EF11C0FB6F8940F92F801928D838D38
:102B8000981718F0F2E0AF1215C04A2DB601C8012F
:102B9000D7DEF8019189992339F0C80141968FD386
:102BA000882321F008DE02C0811105DE0F900FBEE0
:102BB00081E045C08C819D81892B21F40F900FBE4F
:102BC00080E03DC0B11004C0CE010196BCD3B92C49
:102BD0000F900FBE9ED10FB6F8940F92F801858D1D
:102BE0008F3F09F4158EF801868D8F3F09F4168EFC
:102BF0000F900FBEBE016C5F7F4FCE010196AED32A
:102C0000811119C00FB6F8940F92F801928D838D3F
:102C10000F900FBE98130BC06C817D81C7013FD30D
:102C2000C801ECDE33D28111A5CFC5DDA3CFC80129
:102C3000E5DE2CD29FCFC801E1DE28D280E00F90E4
:102C40000F900F900F900F90DF91CF911F910F91E8
:102C5000FF90EF90DF90CF90BF90AF909F9008953E
:102C6000E091A50DF091A60D8081811107C08FEF35
:102C70009FEF9093870D8093860D0895E091A50DA9
:102C8000F091A60D0580F681E02D0680F781E02DFC
:102C9000828193819093870D8093860D08950F9381
:102CA0001F93CF93DF93EC0100918E0D10918F0D48
:102CB0008091CB0D9091CC0D0296E4DCC00FD11F1A
:102CC000E091CB0DF091CC0DD383C283C017D10717
:102CD00060F46091CB0D7091CC0D8091A30D90911B
:102CE000A40D6E5F7F4F9DDC16C06091CB0D70917F
:102CF000CC0D8091A50D9091A60D6E5F7F4F91DC5C
:102D00008091860D9091870DC817D90720F4D09334
:102D1000870DC093860DDF91CF911F910F9108957C
:102D20006F927F928F929F92AF92BF92CF92DF92DB
:102D3000EF92FF920F93CF93DF93C114D10409F464
:102D4000CFC0E114F10409F4CEC0E60159013A0103
:102D50004B016C01F88EEF8A65EA70E0C7010E94B2
:102D6000121F81E0681A7108EF88F88CE60CF71CD6
:102D7000D4018C91898F8C918823A1F0AE01465E9D
:102D80005F4FF4013196B8E08B0E911CCF01219179
:102D9000DA012D93AD01DC018C91882319F0E8153F
:102DA000F905A1F718A2043008F003E00E8B09A37F
:102DB0001AA24E01B2E08B0E911CC4010DDCCE01B3
:102DC0000C960ADCD987C88784E090E0801B9109C3
:102DD0009D878C87DB8BCA8B1CA21BA21DA21EA207
:102DE0001FA218A619A6A501B601C70172DC998316
:102DF00088830FB6F8940F928091900D8F5F809327
:102E0000900D8091CB0D9091CC0D892B69F5D093CD
:102E1000CC0DC093CB0D8091900D8130A9F587EA40
:102E20009DE0CCDB80EB9DE0C9DB89EB9DE0C6DB60
:102E300082EC9DE0C3DB8CE79DE0C0DB83E79DE097
:102E4000BDDB8AE99DE0BADB81E99DE0B7DB8CE779
:102E50009DE09093A60D8093A50D83E79DE0909350
:102E6000A40D8093A30D10C080918C0D81110CC016
:102E7000E091CB0DF091CC0D96898E89891720F0C9
:102E8000D093CC0DC093CB0D8091880D8F5F809334
:102E9000880D8E8990918D0D981710F480938D0D6B
:102EA00090E09C01220F331F220F331F220F331F8C
:102EB000820F931FB4018955924F92DB0F900FBE82
:102EC00080918C0D882391F0E091CB0DF091CC0D89
:102ED00096898E89981768F46EDC8C2F9D2F0BC015
:102EE00080E090E008C080E090E005C08C2F9D2F2E
:102EF00002C08C2F9D2FDF91CF910F91FF90EF900B
:102F0000DF90CF90BF90AF909F908F907F906F9009
:102F100008958091850D8F5F8093850D0895CF92E0
:102F2000DF92EF92FF920F931F93CF93DF938091E5
:102F3000850D811195C0E0908E0DF0908F0D8FEF73
:102F4000E81AF80AF0928F0DE0928E0DE114F10468
:102F5000B1F48091A50D9091A60D2091A30D309113
:102F6000A40D3093A60D2093A50D9093A40D8093EE
:102F7000A30D8091890D8F5F8093890D71DE809103
:102F8000860D9091870DE816F90610F4D12C50C0EB
:102F9000D12CCC24C394E091A50DF091A60D808195
:102FA000811107C08FEF9FEF9093870D8093860D5F
:102FB0003FC0E091A50DF091A60D0580F681E02DB2
:102FC000C681D7818A819B81E816F90628F49093FF
:102FD000870D8093860D2CC08E010E5F1F4FC80198
:102FE00051DB8C899D89892B19F0CE010C964ADB27
:102FF0008E8990918D0D981710F480938D0D90E02F
:103000009C01220F331F220F331F220F331F820F09
:10301000931FB8018955924FE3DAE091CB0DF091FF
:10302000CC0D9E898689981708F4B5CFDC2CB3CFD8
:10303000E091CB0DF091CC0D868990E0FC01EE0F74
:10304000FF1FEE0FFF1FEE0FFF1F8E0F9F1FFC01D4
:10305000E955F24F8081823048F0DD24D39406C0D8
:1030600080918B0D8F5F80938B0DD12C80918A0D79
:10307000882311F0DD24D3948D2DDF91CF911F9102
:103080000F91FF90EF90DF90CF900895DF92EF9235
:10309000FF920F931F93CF93DF930FB6F8940F9285
:1030A0008091850D81508093850D8091850D8111D2
:1030B00059C08091900D811130C057C0D70115962D
:1030C000ED91FC911697C681D781CE010C96DADA84
:1030D0008E010E5F1F4FC801D5DA8E8990918D0D3C
:1030E000981710F480938D0D90E09C01220F331FF0
:1030F000220F331F220F331F820F931FB8018955F0
:10310000924F6EDAE091CB0DF091CC0D9E898689BD
:10311000981768F0D0928A0D0AC0C0E0D0E00F2E58
:10312000FAE9EF2EFDE0FF2EF02DDD24D394F70118
:1031300080818111C3CFCD2B09F092DDC0918B0D21
:10314000CC2349F0D1E0EBDE8111D0938A0DC15040
:10315000D1F710928B0D80918A0D882329F02BDBFB
:1031600081E003C080E001C080E00F900FBEDF91DE
:10317000CF911F910F91FF90EF90DF900895CF9323
:10318000DF93EC01892B39F0C4DE60E0CE0187DDEE
:103190007DDF811101C00FDBDF91CF910895809118
:1031A000850D882321F081E080938A0D0895109287
:1031B0008A0DA091CB0DB091CC0DE091CB0DF0918B
:1031C000CC0D2D913C918789908D8217930758F0F3
:1031D0006091CB0D7091CC0D8091CB0D9091CC0D69
:1031E000675E7F4FDED920918D0D822F90E0FC012C
:1031F000EE0FFF1FEE0FFF1FEE0FFF1FE80FF91F6F
:10320000E955F24F3081311111C02150822F90E0E9
:10321000FC01EE0FFF1FEE0FFF1FEE0FFF1FE80F69
:10322000F91FE955F24F3081332379F3AC01440F94
:10323000551F440F551F440F551F480F591FDA01E2
:10324000A955B24F1196ED91FC9112970280F3812E
:10325000E02D1296FC93EE9311974655524FE417CA
:10326000F50729F442815381FD0152834183FC011A
:10327000EE0FFF1FEE0FFF1FEE0FFF1F8E0F9F1FA2
:10328000FC01E955F24F0180F281E02D86819781A2
:103290009093CC0D8093CB0D20938D0D0895CF93FB
:1032A000DF93EB016091CB0D7091CC0D645F7F4F8C
:1032B000B8D961E0CE01F3DCDF91CF9108950F938F
:1032C0001F93CF93DF93DC011596ED91FC91169738
:1032D000C681D7818E01045F1F4FC801D3D9809169
:1032E000850D81111AC00A501109C801CBD98E89E8
:1032F00090918D0D981710F480938D0D90E09C01A6
:10330000220F331F220F331F220F331F820F931FF1
:10331000B8018955924F64D904C0B8018AE99DE08B
:103320005FD9E091CB0DF091CC0D9E8986898917EC
:1033300020F481E080938A0D01C080E0DF91CF917D
:103340001F910F9108952091890DFC0120832091F8
:103350008E0D30918F0D3283218308950FB6F8942E
:103360000F9220918E0D30918F0DDC0111964D91B1
:103370005C911297E091890DFC91FE1719F02417CA
:10338000350798F4241B350BFB014081518124172C
:10339000350738F4421B530B51834083D4DF80E060
:1033A00005C01182108281E001C081E00F900FBE44
:1033B000089581E080938A0D08950F931F93CF9312
:1033C000DF93FC01892B69F182A1815082A32689B8
:1033D00091A1291741F1811128C0EF018F010E5FE2
:1033E0001F4FC8014FD989A18E8B24E030E0281BE4
:1033F00031093D872C8790918D0D981710F480939B
:103400008D0D90E09C01220F331F220F331F220FDE
:10341000331F820F931FB8018955924FE1D881E085
:1034200005C080E003C080E001C080E0DF91CF9163
:103430001F910F9108950F9303E02DEC3DE040E0C4
:1034400050E060E081E065DB9093C4188093C3187E
:1034500020E040E050E060E070E070DB0F91089504
:103460000C94DE0008959093EF0D8093EE0D709311
:10347000ED0D6093EC0D08959093F10D8093F00D98
:1034800008958091F60D9091F70D01969093F70DA8
:103490008093F60D2091F60D3091F70D8091F20D8D
:1034A0009091F30D28173907E8F082E293E00E942B
:1034B000A00E20E040E050E060E070E08091C51890
:1034C0009091C6183BDB83E593E00E94A00E6091CB
:1034D000F60D7091F70D80E090E00E94840E8AE076
:1034E0000C946B0E08958091F80D9091F90D019652
:1034F0009093F90D8093F80D2091F80D3091F90D0E
:103500008091F40D9091F50D28173907E8F08AE8BD
:1035100093E00E94A00E20E040E050E060E070E008
:10352000809105199091061909DB83EB93E00E94C5
:10353000A00E6091F80D7091F90D80E090E00E946E
:10354000840E8AE00C946B0E08950F9361E47AE187
:1035500083E79AE10E94FC0003E026EE38E140E0B8
:1035600050E060E081E0D5DA909306198093051968
:1035700027EC38E140E050E060E081E0CADA909367
:10358000C6188093C5180F9108959093FB0D8093F2
:10359000FA0D089510E086E594E00E94A00E0E94C6
:1035A0004809EC018D33910578F01F5F163038F033
:1035B000E091FA0DF091FB0D309709F019958AEF23
:1035C0009FEA0E94C21202C00E94BD12CE010E9458
:1035D000C21283E090E0D3DDDECF0E94060B2ED036
:1035E0000E94CE090E94361226DF80E00E94460922
:1035F00023E040E056E960E070E081E00E9439019C
:1036000021E040E052EC61E070E083E00E945C0168
:1036100027DF9BDF80E00895862728E030E080FFE9
:1036200007C09695879541E0842740EA942702C019
:10363000969587952150310991F7089582E08093FE
:10364000B00084E08093B1008AEF8093B300E0E79C
:10365000F0E08081826080830895F894609107197A
:10366000709108198091091990910A197894089518
:103670001F920F920FB60F9211248F939F93AF93C7
:10368000BF938091071990910819A0910919B091E1
:103690000A190196A11DB11D80930719909308196D
:1036A000A0930919B0930A19BF91AF919F918F917F
:1036B0000F900FBE0F901F9018955058BB27AA2748
:1036C0000ED048C139D130F03ED120F031F49F3FC7
:1036D00011F41EF42EC10EF4E095E7FB24C1E92F8E
:1036E0004AD180F3BA17620773078407950718F069
:1036F00071F49EF562C10EF4E0950B2EBA2FA02D49
:103700000B01B90190010C01CA01A0011124FF278E
:10371000591B99F0593F50F4503E68F11A16F04089
:10372000A22F232F342F4427585FF3CF4695379588
:103730002795A795F0405395C9F77EF41F16BA0B4D
:10374000620B730B840BBAF09150A1F0FF0FBB1FFB
:10375000661F771F881FC2F70EC0BA0F621F731F44
:10376000841F48F4879577956795B795F7959E3FA1
:1037700008F0B3CF9395880F08F09927EE0F97952F
:10378000879508950CD0E6C0DED040F0D5D030F05B
:1037900021F45F3F19F0C7C0511110C1CAC0EBD06E
:1037A00098F39923C9F35523B1F3951B550BBB2708
:1037B000AA2762177307840738F09F5F5F4F220FB5
:1037C000331F441FAA1FA9F333D00E2E3AF0E0E8AE
:1037D00030D091505040E695001CCAF729D0FE2FFA
:1037E00027D0660F771F881FBB1F2617370748078C
:1037F000AB07B0E809F0BB0B802DBF01FF27935842
:103800005F4F2AF09E3F510568F08DC0D7C05F3FE3
:10381000ECF3983EDCF3869577956795B795F79529
:103820009F5FC9F7880F911D9695879597F9089521
:10383000E1E0660F771F881FBB1F621773078407BD
:10384000BA0720F0621B730B840BBA0BEE1F88F7CC
:10385000E095089598D088F09F5790F0B92F992758
:10386000B751A0F0D1F0660F771F881F991F1AF08B
:10387000BA95C9F712C0B13081F09FD0B1E0089578
:103880009CC0672F782F8827B85F39F0B93FCCF3F9
:10389000869577956795B395D9F73EF49095809581
:1038A000709561957F4F8F4F9F4F0895E89409C0A1
:1038B00097FB3EF490958095709561957F4F8F4F63
:1038C0009F4F9923A9F0F92F96E9BB279395F69579
:1038D000879577956795B795F111F8CFFAF4BB0FF7
:1038E00011F460FF1BC06F5F7F4F8F4F9F4F16C05B
:1038F000882311F096E911C0772321F09EE8872FE5
:10390000762F05C0662371F096E8862F70E060E0A0
:103910002AF09A95660F771F881FDAF7880F969519
:10392000879597F9089597F99F6780E870E060E0C0
:1039300008959FEF80EC089500240A941616170648
:1039400018060906089500240A9412161306140690
:1039500005060895092E0394000C11F4882352F0F3
:10396000BB0F40F4BF2B11F460FF04C06F5F7F4FAB
:103970008F4F9F4F089557FD9058440F551F59F092
:103980005F3F71F04795880F97FB991F61F09F3F4C
:1039900079F087950895121613061406551FF2CF75
:1039A0004695F1DF08C0161617061806991FF1CFC5
:1039B00086957105610508940895E894BB276627EC
:1039C0007727CB0197F908950BD0C4CFB5DF28F046
:1039D000BADF18F0952309F0A6CFABCF1124EECFB4
:1039E000CADFA0F3959FD1F3950F50E0551F629F5A
:1039F000F001729FBB27F00DB11D639FAA27F00D48
:103A0000B11DAA1F649F6627B00DA11D661F829F6E
:103A10002227B00DA11D621F739FB00DA11D621F53
:103A2000839FA00D611D221F749F3327A00D611D70
:103A3000231F849F600D211D822F762F6A2F112452
:103A40009F5750408AF0E1F088234AF0EE0FFF1FA5
:103A5000BB1F661F771F881F91505040A9F79E3FDC
:103A6000510570F060CFAACF5F3FECF3983EDCF3D6
:103A7000869577956795B795F795E7959F5FC1F719
:103A8000FE2B880F911D9695879597F90895FA0159
:103A9000EE0FFF1F30962105310599F16115710573
:103AA00061F48038BFE39B0749F168949038810541
:103AB00061F08038BFEF9B0741F0992342F5FF3F4B
:103AC000E1053105210511F1E8940894E795D90144
:103AD000AA2329F4AB2FBE2FF85FD0F310C0FF5FED
:103AE00070F4A695E0F7F73950F019F0FF3A38F482
:103AF0009F779F930CD00F9007FC905808953EF04D
:103B000018CF60E070E080E89FE308954FE79F776B
:103B10005F934F933F932F93E7D02F913F914F9116
:103B20005F9152DF25C02FDFE0F09E37D8F0963945
:103B3000B8F49E3848F4672F782F8827985FF9CF1C
:103B400086957795679593959539D0F3B62FB17093
:103B50006B0F711D811D20F487957795679593955F
:103B600033C04DC02BCF19F40EF0DDCE26CFE1CE01
:103B70000ADFC8F39638C0F707F80F92E8942BE3F2
:103B80003AEA48EB5FE72EDF0F920F920F924DB7A4
:103B90005EB70F92E9D0E4EEF0E03FD04F915F9135
:103BA000EF91FF91E595EE1FFF1F49F0FE57E0688A
:103BB0004427EE0F441FFA95E1F74195550B5BD072
:103BC0000F9007FE4FC00895882371F4772321F0EA
:103BD0009850872B762F07C0662311F499270DC0C4
:103BE0009051862B70E060E02AF09A95660F771F5F
:103BF000881FDAF7880F9695879597F908959F3F64
:103C000031F0915020F4879577956795B795880F97
:103C1000911D9695879597F90895DF93CF931F93FC
:103C20000F93FF92EF92DF927B018C01689405C0A5
:103C3000DA2EEF01D5DEFE01E894A59125913591AC
:103C400045915591AEF3EF014ADDFE019701A801C0
:103C5000DA9479F7DF90EF90FF900F911F91CF9159
:103C6000DF9108959B01AC0160E070E080E89FE384
:103C700089CD59CEC4CF87DEE8F39923D9F3940FC9
:103C8000511DBBF39150504094F059F0882332F00D
:103C9000660F771F881F91505040C1F79E3F510516
:103CA00044F7880F911D9695879597F908955F3F82
:103CB000ACF0983E9CF0BB27869577956795B795B5
:103CC00008F4B1609395C1F7BB0F58F711F460FF8A
:103CD000E8CF6F5F7F4F8F4F9F4FE3CF6FCE0EF0D8
:103CE0008ECF27CE68941FCE4EDEC8F39923D1F332
:103CF000C6F3DF93CF931F930F93FF92C92FDD2756
:103D000088232AF02197660F771F881FDAF720E0B3
:103D100030E040E85FEB9FE3883920F0803E30F0F0
:103D200021968F77CBDCECE0F1E003C0C7DCE9E360
:103D3000F1E073DF8B01BE01EC01FB2E6F577109BF
:103D40007595771F880B990BB3DD28E132E741E3C6
:103D50005FE346DEAF2D9801AE01FF900F911F91FA
:103D6000CF91DF91BCDCF6CDFA01DC01AA0FBB1FBD
:103D70009B01AC01BF5728F42227332744275078F2
:103D80001FC0B75188F4AB2F00244695379527956F
:103D9000011CA395D2F3002069F0220F331F441FAA
:103DA000B395DAF30DD089CC61307105A0E88A07AC
:103DB000B94630F49B01AC016627772788279078B5
:103DC000309621F020833183428353830895A1E20A
:103DD0001A2EAA1BBB1BFD010DC0AA1FBB1FEE1F85
:103DE000FF1FA217B307E407F50720F0A21BB30BD0
:103DF000E40BF50B661F771F881F991F1A9469F74C
:103E000060957095809590959B01AC01BD01CF01A7
:103E10000895FB01DC0102C001900D924150504019
:103E2000D8F70895DC0101C06D9341505040E0F790
:063E30000895F894FFCF95
:103E36004D4F443020524553504F4E43455F5449F1
:103E46004D45445F4F55540A004D6F64312052452D
:103E560053504F4E43455F54494D45445F4F55546B
:103E66000A0054656D70657261747572655F6F7670
:103E760065725F74656D70200A004C6576656C5FCF
:103E860073656E736F725F6572726F725F63616C7A
:103E96006C6261636B200A004C43445F575249547D
:103EA600455F54494D454F5554202B2B2B2B2B2B1F
:103EB6002B2B2B2B2B2B2B2B2B2B2B2B2B2B2B2B4C
:103EC6002B2B2B2B2B2B200A004C43445F524541B6
:103ED600445F54494D454F5554202D2D2D2D2D2DE4
:103EE6002D2D2D2D2D2D2D2D2D2D2D2D2D2D2D2DFC
:103EF6002D2D2D2D2D2D200A00456E746572205412
:103F060061736B340A0053657175656E6365205481
:103F160061736B31200A004C4556454C2054617341
:103F26006B33200A007374617274200A0054617343
:103F36006B31005461736B32005461736B33005400
:103F460061736B34005461736B3500726573203D89
:103F560020006265666F7272727265656565656579
:103F6600204F574F574F574F574F4F574F574F5752
:103F76004F574F574F4F574F574F574F574F4F5713
:103F86004F5700675F6F75745F6C69746572735F16
:103F9600636F756E746572204F574F574F574F5763
:103FA6004F4F574F574F574F574F574F4F574F57E3
:103FB6004F574F574F4F574F57004245464F525254
:103FC6005252524520465746574657465746574639
:103FD60057465746574657465746574657465746F3
:103FE600574600675F66656564696E675F6C6974EE
:103FF6006572735F636F756E7465722046574657B8
:1040060046574657465746574657465746574657C2
:1040160046574657465746574600535353535353EE
:10402600535353535353535353535353535353535A
:10403600535353535353535353535353535353534A
:10404600535353535353535353535353535353008D
:1040560047474747474747474747474747474747EA
:1040660047474747474747474747474747474747DA
:1040760047474747474747474747474747474747CA
:1040860047474747470054656D70207461736B203E
:08409600616C6976650A000007
:00000001FF
