:10000000DBC00000FAC00000F8C00000F6C000002D
:10001000F4C00000F2C00000F0C00000EEC000001C
:10002000ECC00000EAC00000E8C00000E6C000002C
:100030000C94851B0C945C2AE0C00000DEC000001C
:10004000DCC000000C948F10D8C00000D6C00000A7
:10005000D4C00000D2C00000D0C00000CEC000005C
:10006000CCC000000C9451120C948A12C6C000003F
:10007000C4C000000C941C0FC0C00000BEC0000033
:100080000C94FF10BAC00000B8C00000B6C0000059
:100090000C9457130C949013B0C00000AEC0000035
:1000A000ACC00000AAC000000C946F11A6C00000F4
:1000B000A4C00000A2C00000A0C000000C94DF118A
:1000C0009CC000009AC0000098C000000C94A214CC
:1000D0000C94DB1492C000000C94EA150C942316C7
:1000E0008CC0000007634236B79BD8A71A39685600
:1000F00018AEBAAB558C1D3CB7CC5763BD6DEDFD4A
:10010000753EF6177231BF000000803F0800000006
:10011000BE922449123EABAAAA2ABECDCCCC4C3EFC
:1001200000000080BEABAAAAAA3E00000000BF00EB
:100130000000803F0000000000084178D3BB4387E7
:10014000D1133D190E3CC3BD4282AD2B3E68EC82FB
:1001500076BED98FE1A93E4C80EFFFBE01C4FF7F80
:100160003F0000000000C2E2DFE008E31FE08091F2
:10017000210F8823D1F00FB6F8940F92ED81FE8104
:100180008681978102960E94ED198091200F8150FF
:100190008093200F8091210F81508093210F0F9029
:1001A0000FBE8091210F8111E6CFF801808182304E
:1001B000F0F20E94C21ADBCF11241FBECFEFD1E2B2
:1001C000DEBFCDBF00E00CBF14E0A0E0B2E0E6ED82
:1001D000FCE500E00BBF02C007900D92A63AB10704
:1001E000D9F720E2A6EAB4E001C01D92A936B20711
:1001F000E1F70E94B00D0C94692E02CF9093E010AD
:100200008093DF1020E040E050E060E070E08091FB
:10021000A6049091A7040C94AC1C08956FEF7FEF97
:100220008091F91F9091FA1F0E94FF1D0E940118F2
:100230008A3F2FEA920709F480C0009791F4C0E04A
:10024000D0E08AE090E00E94BB28811102C02A968B
:1002500003C089E190E0D2DF0E940118009789F382
:1002600002C0C0E0D0E0019709F062C0009117071A
:1002700010911807BE01600F711F80E090E00E948E
:100280007E2B6B017C01B80180E090E00E947E2B08
:100290002DEC3CEC4CE45EE30E94342C9B01AC0161
:1002A000C701B6010E94822A20E030E040EE50E40F
:1002B0000E94342C0E944C0C811136C060911707AB
:1002C0007091180780E090E00E947E2B6B017C010A
:1002D0002DEC3CEC4CE45EE30E94342C9B01AC0121
:1002E000C701B6010E94822A0E94522BCB010E94B4
:1002F000BB28811115C00E9401188A3F2FEA92077E
:1003000059F0029721F481E08093AA0419C08CE18E
:1003100090E00E94C62614C08BE190E06FDF10C011
:1003200089E190E06BDF0CC08AE190E067DF08C0F4
:100330008DE190E00E94C62603C08BE190E05EDF75
:1003400020E040E050E060E070E08091F11F90918B
:10035000F21F0E94AC1C8091AA04882309F484C077
:100360000E941C18EC01892BF9F48AE090E00E94AD
:10037000D92881110AC08091A8049091A9040A96F5
:100380009093A9048093A80403C08FE190E036DF26
:100390000E941C18EC010E940118009729F08A3F66
:1003A0009F4A11F0209709F36091A8047091A90465
:1003B00080E090E00E947E2B6B017C012DEC3CECF8
:1003C0004CE45EE30E94342C9B01AC01C701B601F2
:1003D0000E94822A20E030E040EE50E40E94342C5B
:1003E0000E944C0C811122C08091A8049091A90414
:1003F0000E94BB28811105C01092A9041092A80484
:100400002BC089E190E00E94C6261092AA04219791
:1004100049F40E941C18EC018DE790E00E94BB217A
:100420002197B9F380E290E0E9DE16C01092AA04A9
:100430008AE190E00E94C6260E941C18019749F4A8
:100440000E941C18EC018DE790E00E94BB212197CF
:10045000B9F381E290E0D2DE82E190E00E94BB211C
:100460008091AA0481117CCF80E092E00E94491320
:100470008BEB90E00E94BB21F7CF6093E11070936B
:10048000E2108093E3109093E410089540E150E06F
:1004900065E08DE392E001C00895E5EEF0E164834C
:1004A0005183408393838283CF010C940F1008956E
:1004B000E091EA10F091EB1019950895E091EC109D
:1004C000F091ED1019950895EF92FF920F931F93FD
:1004D000CF93DF937C018B01E3EFF0E1C5E0D0E047
:1004E000D183C08384E0848388E592E09383828310
:1004F000CF010E940F10EEEEF0E1D183C08383E0C4
:1005000084838EE592E093838283CF010E940F1053
:10051000F092EB10E092EA101093ED100093EC10C3
:10052000DF91CF911F910F91FF90EF90089561E0BF
:1005300081E00C94DA0F089560E081E00C94DA0F0A
:100540000895EBEAF4E081834283538364837583E7
:1005500020838CE992E09187808787E992E09783F6
:100560008683BF0181E08BC7089580E090E00C9402
:10057000BB21089560E080E00C94DA0F089561E0FB
:1005800080E00C94DA0F0895E7EBF4E02083818398
:1005900042835383648375838FEB92E097838683D2
:1005A0008AEB92E09187808785EB92E09387828740
:1005B000BF0180E064C70895CF93DF93EB0141E072
:1005C00050E0BC0180E00E94F20B811105C060E0A8
:1005D0000E94AE0B9983888389E090E0DF91CF91F0
:1005E0000895CF93DF93EC01AB0160E080E00E94BF
:1005F000D10B41E050E0BE0180E00E942E0CDF9163
:10060000CF910895FF920F931F93CF93DF93F62E10
:10061000C72FD42F50E0BC0180E00E94F20B811163
:1006200013C0DD2381F00F2D1C2FC0E06C2F80E064
:100630000E94AE0BF801819391938F01CF5FCD1390
:10064000F5CF80E001C080E0DF91CF911F910F9145
:10065000FF900895EF92FF920F931F93CF93DF9334
:100660007C01D42F442371F0062F172FC0E0F8012E
:10067000419151918F016C2F80E00E94D10BCF5F8F
:10068000CD13F5CF4D2F50E0B70180E00E942E0C26
:10069000DF91CF911F910F91FF90EF900895AC01E2
:1006A00060E080E00E94D10B41E050E063E070E048
:1006B00080E00C94100C0895CF93DF9381E00E94AA
:1006C0007C0FC82F82E00E947C0FD82F83E00E940D
:1006D0007C0FDD0F24E0829FC00111248D2B8C2B19
:1006E000823051F09CEF980F933040F0833041F00E
:1006F000873039F483E005C085E503C085E501C096
:1007000082E0DF91CF9108950C949C0F08957F9221
:100710008F929F92AF92BF92CF92DF92EF92FF9211
:100720000F931F93CF93DF93CDB7DEB7DA950FB654
:10073000F894DEBF0FBECDBFD62E811114C38091B9
:10074000130789832FEF621306C08FE08A836894B2
:10075000CC24C1F832C06A8381E06817B8F094E015
:10076000961718F4A7E16A1311C080910C079091B5
:100770000D079B838C8380910A0790910B079D83C3
:100780008E830F2EF6E0CF2EF02D03C06894CC247C
:10079000C1F8B0E1BD1540F0EFE0DE1670F48BEF6C
:1007A0008D0D823000F509C0F6E1DF16E0F027E19B
:1007B0002D1518F48FEFD81216C0909188068091ED
:1007C0008906E1E0F0E0EC0FFD1FEC0DF11D8083E8
:1007D00081E08C0DE1E0F0E0EC0FFD1FE80FF11D72
:1007E000C394C394908390E1D91609F4ADC09D15CC
:1007F00058F0A6E0DA1661F1BFE0DB1609F441C05B
:10080000E5E0DE121EC10DC0F7E1DF1609F49CC061
:100810002FEFD21609F498C086E1D81609F4E1C08A
:1008200010C19091860680918706E1E0F0E0EC0F20
:10083000FD1FEC0DF11D808381E08C0DE1E0F0E007
:10084000EC0FFD1FE80FF11DC394C3949083F9C012
:10085000E6E0F6E080819181A1E0B0E0AC0FBD1F41
:10086000AC0DB11D9C932081318181E08C0DE1E0C4
:10087000F0E0EC0FFD1FE80FF11DC394C39420833B
:10088000E0C08091860690918706E1E0F0E0EC0FF1
:10089000FD1FEC0DF11D908332E03C0D21E02C0D8D
:1008A000E1E0F0E0EC0FFD1FE20FF11D8083AC01F1
:1008B00047705527452B49F09695879596958795CE
:1008C0009695879521E0280F07C096958795969570
:1008D000879596958795282F93E0C90EFE01E30F23
:1008E000F11D2183222309F4ACC080E0982F917080
:1008F00080FF03C0913099F023C0E82FE695F0E027
:10090000EE0FFF1FEA5FF94F40815181E1E0F0E017
:10091000EC0FFD1FEC0DF11D4083C39411C0E82FB7
:10092000E695F0E0EE0FFF1FEA5FF94F408151813D
:10093000E1E0F0E0EC0FFD1FEC0DF11D5083C394DE
:100940008F5F8213D3CF7DC060918606809187062A
:10095000E1E0F0E0EC0FFD1FEC0DF11D808381E084
:100960008C0DE1E0F0E0EC0FFD1FE80FF11D60835E
:1009700073E07C0D82E08C0DE1E0F0E0EC0FFD1FF8
:10098000E80FF11D862F880F8083662309F458C075
:10099000862F880F8D5FC80E872F20E030E091E012
:1009A000980FF901EE0FFF1FEA5FF94F4081518167
:1009B000A1E0B0E0AC0FBD1FA80FB11D5C938E5F2E
:1009C00040815181E1E0F0E0EC0FFD1FE90FF11DE6
:1009D00040832F5F3F4F8C11E2CF660FC62EC70EAC
:1009E00030C0E6E0F6E080819181A1E0B0E0AC0F9C
:1009F000BD1FAC0DB11D9C938081918191E09C0D38
:100A0000A1E0B0E0AC0FBD1FA90FB11D8C93828196
:100A1000938182E08C0DA1E0B0E0AC0FBD1FA80F68
:100A2000B11D9C932281338183E08C0DE1E0F0E0E5
:100A3000EC0FFD1FE80FF11DA4E0CA0E208301C0DA
:100A4000C72ECC20B9F08E010F5F1F4FEE24EA9421
:100A5000EC0CF12CBFEFEB1AFB0AE00EF11E8FEF4E
:100A60009FEFF80161918F010E94302A0E151F053A
:100A7000C1F702C08FEF9FEFEE24E394EC0CE1E0AE
:100A8000F0E0EC0FFD1FEC0DF11D8083C394C394C7
:100A9000E1E0F0E0EC0FFD1FEE0DF11D9083E1E0D1
:100AA000F0E0EC0FFD1FEC0DF11D1082E091F70559
:100AB000F091F805199581159140C1F7E091FD0578
:100AC000F091FE05309709F01995CC20A1F08E0128
:100AD0000F5F1F4FF12C2FEFE21AF20AE00EF11E0A
:100AE000E091F905F091FA05D8018D918D011995E4
:100AF0000E151F05A9F7E091F505F091F60519957A
:100B0000EFE8F1E03197F1F700C00000E091FB055C
:100B1000F091FC05309709F019950E94512A4B017C
:100B20005C0108E010E0ED2CF12C0F2EF3E0CF2E4D
:100B3000F02D0F2EF5E0DF2EF02DE091F105F09174
:100B4000F2051995892B91F077247394710EE09139
:100B5000F705F091F8051995E1E0F0E0EC0FFD1FC5
:100B6000E10FF11D80830150172D07C0E091FF05B3
:100B7000F0910006309709F01995153059F59981D3
:100B800080911307981318C48A81282F2F7730E09B
:100B90002E153F0509F012C488232CF48B8188237D
:100BA00009F43DC0D7C0813158F48F3008F0F4C348
:100BB000813080F0853068F0873008F4EDC30AC0DA
:100BC000873139F08F3F09F4E7C3863119F40D2DD1
:100BD000E4C30B810E94512ADC01CB0188199909D9
:100BE000AA09BB09893C9105A105B10508F427C4F0
:100BF00085E292E00E9449130111E2C3912F82EE37
:100C000022EE2111A7C0953078F1C12ED12C7601AA
:100C1000F2E0EF1AF1081E141F045CF0D6C30F2E89
:100C2000F3E0EF2EF12CF02D0F2EF5E0CF2ED12C8E
:100C3000F02D20E030E08FEF9FEF00E0E1E0F0E00A
:100C4000EC0FFD1FE20FF31F60810E94302A0F5F3F
:100C5000202F30E02E153F058CF3B9C3FE01EC0DBB
:100C6000FD1D80818913BCC38A81853028F48330BF
:100C700030F4813050F46BC0873109F068C03B819B
:100C8000369509F040C080E065C07B81672F66958E
:100C900009F4A8C3FE01359640E050E090E001C0A1
:100CA000982F903470F4DF0111972C91808130E0FF
:100CB000382BDA01AA0FBB1FA657B94F11963C93E8
:100CC0002E9381E0890F4F5F5F4F3296861740F376
:100CD0009093010670FF3DC0803480F401C080E035
:100CE000282F30E0220F331FFE01E20FF31F448153
:100CF00050E0F901E657F94F518340838F5F8093AD
:100D0000010680E027C0FE01359640E050E020E07B
:100D100001C0282F203480F4DF0111978C9190E0DE
:100D2000982F88276081862BDA01AA0FBB1FA65750
:100D3000B94F11969C938E9381E0820F4F5F5F4F66
:100D40003296831730F32093010680E003C080E0E1
:100D500001C080E01092050610920406109203066E
:100D60001092020678C3813009F014C38091EC051B
:100D700089832FEF621306C08FE08A836894CC24A6
:100D8000C1F832C06A8381E06817B8F094E0961722
:100D900018F4A7E16A1311C08091E5059091E6056A
:100DA0009B838C838091E3059091E4059D838E83E2
:100DB0000F2EF6E0CF2EF02D03C06894CC24C1F89E
:100DC000B0E1BD1540F0EFE0DE1670F48BEF8D0D55
:100DD000823000F509C0F6E1DF16E0F027E12D15BD
:100DE00018F48FEFD81216C09091610580916205BA
:100DF000E1E0F0E0EC0FFD1FEC0DF11D808381E0E0
:100E00008C0DE1E0F0E0EC0FFD1FE80FF11DC39445
:100E1000C394908390E1D91609F4ADC09D1558F0A4
:100E2000A6E0DA1661F1BFE0DB1609F441C0E5E0A7
:100E3000DE121EC10DC0F7E1DF1609F49CC02FEFD2
:100E4000D21609F498C086E1D81609F4E1C010C1A1
:100E500090915F0580916005E1E0F0E0EC0FFD1FEF
:100E6000EC0DF11D808381E08C0DE1E0F0E0EC0FF2
:100E7000FD1FE80FF11DC394C3949083F9C0EFEDFB
:100E8000F4E080819181A1E0B0E0AC0FBD1FAC0D1A
:100E9000B11D9C932081318181E08C0DE1E0F0E077
:100EA000EC0FFD1FE80FF11DC394C3942083E0C035
:100EB00080915F0590916005E1E0F0E0EC0FFD1F8F
:100EC000EC0DF11D908322E02C0D31E03C0DE1E0B2
:100ED000F0E0EC0FFD1FE30FF11D8083AC014770C4
:100EE0005527452B49F09695879596958795969524
:100EF000879591E0980F07C0969587959695879569
:100F000096958795982FA3E0CA0EFE01E20FF11D7A
:100F10009183992309F4ACC080E0282F217080FFD1
:100F200003C0213099F023C0E82FE695F0E0EE0FE2
:100F3000FF1FE152FB4F20813181E1E0F0E0EC0F37
:100F4000FD1FEC0DF11D2083C39411C0E82FE69521
:100F5000F0E0EE0FFF1FE152FB4F20813181E1E015
:100F6000F0E0EC0FFD1FEC0DF11D3083C3948F5F9B
:100F70008913D3CF7DC060915F0580916005E1E06A
:100F8000F0E0EC0FFD1FEC0DF11D808381E08C0D76
:100F9000E1E0F0E0EC0FFD1FE80FF11D608373E06E
:100FA0007C0D82E08C0DE1E0F0E0EC0FFD1FE80F1E
:100FB000F11D862F880F8083662309F458C0862F81
:100FC000880F8D5FC80E872F20E030E091E0980FEA
:100FD000F901EE0FFF1FE152FB4F40815181A1E06B
:100FE000B0E0AC0FBD1FA80FB11D5C938E5F4081B8
:100FF0005181E1E0F0E0EC0FFD1FE90FF11D4083AE
:101000002F5F3F4F8C11E2CF660FC62EC70E30C048
:10101000EFEDF4E080819181A1E0B0E0AC0FBD1F65
:10102000AC0DB11D9C938081918191E09C0DA1E05C
:10103000B0E0AC0FBD1FA90FB11D8C9382819381CD
:1010400082E08C0DA1E0B0E0AC0FBD1FA80FB11D78
:101050009C932281338183E08C0DE1E0F0E0EC0F82
:10106000FD1FE80FF11DB4E0CB0E208301C0C72E99
:10107000CC20B9F08E010F5F1F4FEE24EA94EC0CE8
:10108000F12CEFEFEE1AFE0AE00EF11E8FEF9FEF4C
:10109000D8016D918D010E94302A0E151F05C1F7F0
:1010A00002C08FEF9FEFEE24E394EC0CE1E0F0E060
:1010B000EC0FFD1FEC0DF11D8083C394C394E1E0A0
:1010C000F0E0EC0FFD1FEE0DF11D9083E1E0F0E08C
:1010D000EC0FFD1FEC0DF11D1082E091D004F0919A
:1010E000D104199581159140C1F7E091D604F09192
:1010F000D704309709F01995CC20A1F08E010F5F2D
:101100001F4FF12CEFEFEE1AFE0AE00EF11EE091F8
:10111000D204F091D304D8018D918D0119950E154B
:101120001F05A9F7E091C604F091C7041995E7E0FF
:10113000F7E03197F1F700C00000E091D404F0919E
:10114000D504309709F019950E94512A4B015C0192
:1011500008E010E0ED2CF12C0F2EF3E0CF2EF02D57
:101160000F2EF5E0DF2EF02DE091C804F091C904B8
:101170001995892B91F077247394710EE091D00426
:10118000F091D1041995E1E0F0E0EC0FFD1FE10FC3
:10119000F11D80830150172D07C0E091D804F09114
:1011A000D904309709F01995153059F59981809136
:1011B000EC0598132BC18A81282F2F7730E02E154C
:1011C0003F0509F025C188232CF48B81882309F47D
:1011D0003DC0D7C0813158F48F3008F007C181304D
:1011E00080F0853068F0873008F400C10AC087318C
:1011F00039F08F3F09F4FAC0863119F40D2DF7C08C
:101200000B810E94512ADC01CB0188199909AA0996
:10121000BB09893C9105A105B10508F416C18EE30F
:1012200092E00E9449130111F5C0212F82EE92EE47
:101230009111A7C0253078F1C12ED12C7601F2E0B2
:10124000EF1AF1081E141F045CF0E8C00F2EF3E043
:10125000EF2EF12CF02D0F2EF5E0CF2ED12CF02D0E
:1012600020E030E08FEF9FEF00E0E1E0F0E0EC0FF6
:10127000FD1FE20FF31F60810E94302A0F5F202FB5
:1012800030E02E153F058CF3CBC0FE01EC0DFD1DAB
:1012900080818913CEC08A81853028F4833030F470
:1012A000813050F46BC0873109F068C09B819695FE
:1012B00009F040C080E065C06B81762F769509F417
:1012C000BAC0FE01359620E030E090E001C0982FD2
:1012D000903470F4DF0111974C91808150E0582BCD
:1012E000D901AA0FBB1FAD59BA4F11965C934E930B
:1012F00081E0890F2F5F3F4F3296871740F390931D
:10130000DA0460FF3DC0803480F401C080E0282F03
:1013100030E0220F331FFE01E20FF31F448150E043
:10132000F901ED59FA4F518340838F5F8093DA04BE
:1013300080E027C0FE01359640E050E080E001C02B
:10134000822F803480F4DF0111972C9130E0322F0E
:1013500022276081262BDA01AA0FBB1FAD59BA4F95
:1013600011963C932E9321E0280F4F5F5F4F3296EA
:10137000291730F38093DA0480E003C080E001C0D5
:1013800080E01092DE041092DD041092DC041092D2
:10139000DB0461C084EE5FC00C2D0E94512ADC0189
:1013A000CB0188199909AA09BB09893C9105A105B6
:1013B000B10508F4C2CB1CCC80EE03C081EE01C0A5
:1013C00082EE882309F450CCC5CC8FEF9FEFFE014D
:1013D000EE0DFF1D2181281709F440CC83EEBACC15
:1013E00083EEB8CC70FD7BCC80E0B4CC0C2D0E9499
:1013F000512ADC01CB0188199909AA09BB09893C4A
:101400009105A105B10508F4AFCE09CF80EE03C068
:1014100081EE01C082EE8111B4CF3DCF8FEF9FEFFF
:10142000FE01EE0DFF1D2181281709F42ECF83EE5A
:10143000A8CF83EEA6CF60FD69CF80E0A2CF0111D7
:101440007CCB912F80E020E0DCCB01118DCE212FD1
:1014500080E090E0EDCED3950FB6F894DEBF0FBEDE
:10146000CDBFDF91CF911F910F91FF90EF90DF9053
:10147000CF90BF90AF909F908F907F900895FB0189
:101480008111D1C0808180931307818180931207DD
:10149000428153816481758140930E0750930F07F9
:1014A0006093100770931107268137813093FE05F2
:1014B0002093FD05208531853093FC052093FB05A5
:1014C00022853385309300062093FF051092020693
:1014D000109201068130B1F58091C50481113DC1A2
:1014E00081E08093C504CB01BA010E94C5138FE847
:1014F00094E19093F2058093F1058AE394E190934F
:10150000F4058093F3058DE994E19093F6058093BB
:10151000F50580E794E19093F0058093EF058AE16B
:1015200094E19093F8058093F70587E594E1909313
:10153000FA058093F9058EE794E19093EE05809388
:10154000ED0508958230B1F58091C404811105C183
:1015500081E08093C404CB01BA010E94101587ED8D
:1015600095E19093F2058093F10582E895E19093DF
:10157000F4058093F30585EE95E19093F60580934D
:10158000F50588EB95E19093F0058093EF0585E6EE
:1015900095E19093F8058093F7058FE995E1909395
:1015A000FA058093F90586EC95E19093EE0580931A
:1015B000ED050895833009F0D0C08091C3048111F6
:1015C000CCC081E08093C304CB01BA010E945816BD
:1015D0008FE197E19093F2058093F1058AEC96E113
:1015E0009093F4058093F3058DE297E19093F605CF
:1015F0008093F50580E097E19093F0058093EF05E7
:101600008DEA96E19093F8058093F70587EE96E1D1
:101610009093FA058093F9058EE097E19093EE059B
:101620008093ED050895813009F097C08081809303
:10163000EC0581818093EB05428153816481758142
:101640004093E7055093E8056093E9057093EA0538
:10165000268137813093D7042093D60420853185A5
:101660003093D5042093D404228533853093D90454
:101670002093D8041092DB041092DA048130B1F583
:101680008091C504811169C081E08093C504CB01BC
:10169000BA010E94C5138FE894E19093C904809326
:1016A000C8048AE394E19093CF048093CE048DE93B
:1016B00094E19093C7048093C60480E794E19093EB
:1016C000CD048093CC048AE194E19093D10480937B
:1016D000D00487E594E19093D3048093D2048EE7FD
:1016E00094E19093CB048093CA0408958230A9F5C5
:1016F0008091C404811131C081E08093C404CB0186
:10170000BA010E94101587ED95E19093C90480936A
:10171000C80482E895E19093CF048093CE0485EECF
:1017200095E19093C7048093C60488EB95E190936C
:10173000CD048093CC0485E695E19093D104809309
:10174000D0048FE995E19093D3048093D20486EC82
:1017500095E19093CB048093CA04089581110BC046
:101760006034B0F4E62FF0E0EE0FFF1FE657F94FBC
:10177000808191810895813071F4603478F4E62F8E
:10178000F0E0EE0FFF1FED59FA4F8081918108952F
:101790008FEF9FEF08958FEF9FEF08958FEF9FEFEB
:1017A000089581110BC06034B8F4E62FF0E0EE0F1D
:1017B000FF1FEA5FF94F518340830895813071F430
:1017C000603470F4E62FF0E0EE0FFF1FE152FB4FA4
:1017D0005183408380E0089582E0089582E0089577
:1017E00082E0089581110CC070930D0760930C077F
:1017F00050930B0740930A0763E00C948703089506
:10180000813061F47093E6056093E5055093E4053B
:101810004093E30563E00C948703089584EE0895F4
:1018200081110CC0709389066093880650938706D7
:10183000409386066FEF0C9487030895813061F41E
:1018400070936205609361055093600540935F0556
:101850006FEF0C948703089584EE089581110CC0F6
:101860007093890660938806509387064093860696
:1018700060E10C9487030895813061F470936205F0
:10188000609361055093600540935F0560E10C949F
:101890008703089584EE0895CF92DF92EF92FF922E
:1018A0006B017C0120E030E0A9010E94E62A882338
:1018B00009F453C0C092FD10D092FE10E092FF10C8
:1018C000F092001141D3882309F449C081E05AD332
:1018D000C701B6010E94522B7B0119C035D381117B
:1018E00003C050D38AE040C021E0E21AF1088FEF34
:1018F00093E224EF815090402040E1F700C00000C7
:101900008091140781112DC0E114F10491F06091D0
:10191000FD107091FE108091FF10909100112DEC40
:101920003CEC4CEC5DE30E94302C1816BCF2EF2826
:1019300081F46091FD107091FE108091FF109091E4
:1019400000112DEC3CEC4CEC5DE30E94302C1816A1
:1019500054F080E017D380E007C080E005C08AE043
:1019600003C08BE001C087E0FF90EF90DF90CF9045
:10197000089530C20895CF92DF92EF92FF92CF93F5
:10198000CFE0C12CD12C760147D2BC0180E090E0A1
:101990000E947E2B9B01AC01C701B6010E94822AE6
:1019A0006B017C0180E090E00E94BB21C15061F797
:1019B00020E030E040E751E4C701B6010E94EA2A86
:1019C0002BED39EF4EE150E40E94342C20E030E062
:1019D00040E85AE30E94342C20E030E04AE754E427
:1019E0000E94342C23E039E042EF50E40E94EA2ABE
:1019F00020E030E048EC52E40E94EA2A9B01AC016E
:101A000060E070E080E89FE30E94812A23E233EEE9
:101A10004AE156EB0E94342C9B01AC0166E672E26F
:101A200080E897E30E94812A20E030E040E05FE315
:101A30000E94972C22E331E140E85BE30E94812A77
:101A400023E233EE4AE955EB0E94EA2A0E94E32C96
:101A50000E94522BCB01CF91FF90EF90DF90CF905F
:101A6000089587E592E015C6089585E792E011C6CE
:101A7000089586EA92E00DC6089586ED92E009D6B3
:101A800085E190E00C94FE00089565E37DE089E334
:101A90009DE00E94BD2681E39DE00E940A288DE31F
:101AA0009DE00C94FD280895CF93DF931F92CDB74E
:101AB000DEB71982CE0101960E940E018AEF90E0F6
:101AC0000E94BB21FBCFCF93DF931F92CDB7DEB730
:101AD0001982CE0101960E940F288AEF90E00E94A1
:101AE000BB21FBCF81E08BD28FE090E00E94BB2135
:101AF00080E085D28FE090E00E94BB21F3CF8EEE94
:101B000092E0C7D582E190E00E94BB21FBCF8BEF32
:101B100092E0BFD58AEF90E00E94BB21FBCFCF932C
:101B2000DF931F92CDB7DEB719828CE093E0B1D579
:101B3000CE0101960E9402298AEF90E00E94BB210B
:101B4000FBCFCF93DF931F92CDB7DEB71982CE01C3
:101B500001960E944B278AEF90E00E94BB21FBCFA9
:101B6000CF92DF92EF92FF920F93CF938FEF8DB9C9
:101B700060E875E280E090E002D50E942129C1E092
:101B80005AC063E773E186E09AE00E94F9268091EB
:101B90007313909174138230910521F50E94DD2911
:101BA000813009F448C08FE390E00E944F032FEF8B
:101BB00033EB84EC94E02150304080409040D9F7E2
:101BC00000C0000080911C07811107C0C0931B0753
:101BD00089E390E00E944F032EC08BE390E00E94C7
:101BE0004F0329C08330910521F583E00E948729A6
:101BF000813009F18DE390E00E944F032FEF39E52A
:101C000082E692E02150304080409040D9F700C0F9
:101C1000000080911B07811107C0C0931C078AE355
:101C200090E00E944F0307C08BE390E00E944F03B7
:101C300002C0019739F0809173139091741301974A
:101C400009F09FCF82E390E00E944F030F2EFFE147
:101C5000CF2EF3E1DF2EF02D0F2EF8E6EF2EF7E179
:101C6000FF2EF02D02E020E030E044EF51E06AE189
:101C700073E087E89DE00E94351F90932A078093C8
:101C800029070F2EF9E4CF2EF3E1DF2EF02D0F2ED2
:101C9000F4EAEF2EFBE1FF2EF02D20E030E044EFE0
:101CA00051E060E273E081EA9DE00E94351F90936D
:101CB0002807809327070F2EF6E8CF2EF9E1DF2EB5
:101CC000F02D0F2EFFE9EF2EFDE1FF2EF02D20E08D
:101CD00030E044EF51E066E273E08FE89DE00E945F
:101CE000351F90932607809325070F2EF1E0CF2E06
:101CF000F1E1DF2EF02D0F2EF4E7EF2EF5E1FF2EB0
:101D0000F02D20E030E044EF51E06CE273E08FE72B
:101D10009DE00E94351F90932407809323070F2E88
:101D2000FDEBCF2EFFE1DF2EF02D0F2EF0EBEF2E8F
:101D3000F9E1FF2EF02D05E020E030E044EF51E026
:101D400062E373E082E79DE00E94351F90932207D3
:101D5000809321070F2EFCE5CF2EF9E1DF2EF02D29
:101D60000F2EFBE2EF2EF1E1FF2EF02D02E020E03E
:101D700030E044EF51E068E373E083E69DE00E94C9
:101D8000351F9093200780931F070F2EF3E9CF2E66
:101D9000FFE1DF2EF02D0F2EF0E8EF2EF3E1FF2E06
:101DA000F02D20E030E044EF51E06EE373E084E595
:101DB0009DE00E94351F90931E0780931D070E948F
:101DC0002F2080E090E0CF910F91FF90EF90DF9077
:101DD000CF90089590B321E030E0082E02C0220F8A
:101DE000331F0A94E2F72095292320BBECE7F0E0AB
:101DF00090819F7090839081907F90838F70982BBB
:101E000090838FE880937A0078940895EAE7F0E071
:101E10008081806480830895F9DF10922D0780EC23
:101E200092E10197F1F780912E0790912F079093FF
:101E30002C0780932B0708951F920F920FB60F92D5
:101E400011242F938F939F93809178002091790094
:101E500090E0922B90932F0780932E0781E0809340
:101E60002D079F918F912F910F900FBE0F901F9074
:101E70001895EAE0F1E080818F7E808380818F7DFC
:101E8000808380818F7B808380818F7780833C9863
:101E90003D983A988081877F8083099A0A9AE7E083
:101EA000F1E08081806480830E9A0E9A8081806246
:101EB00080838081806880833898089A0B9AE4E058
:101EC000F1E0808184608083549A0E9A3F9A8081E9
:101ED000806480830F9AE1E0F1E080818E7F8083CF
:101EE000808182608083E2E0F1E080818160808394
:101EF0005298539A5A9A0895813041F48091090179
:101F000084FB992790F981E089270895823041F474
:101F10008091090185FB992790F981E0892708952F
:101F2000833041F48091090186FB992790F981E083
:101F3000892708958FEF089590910901892F809541
:101F4000881F8827881F089586B18295817091E047
:101F500089270895813011F4119A0895811101C0E3
:101F600011980895813031F4E8E0F1E080818064D7
:101F700080830895811105C0E8E0F1E080818F7BC6
:101F800080830895813031F4E8E0F1E0808180625F
:101F900080830895811105C0E8E0F1E080818F7DA4
:101FA00080830895813011F4109A0895811101C041
:101FB00010980895882319F0813089F008956130D0
:101FC00031F4E5E0F1E0808184608083089561115F
:101FD0000DC0E5E0F1E080818B7F80830895613062
:101FE00011F45C9A0895611101C05C9808958130E4
:101FF00011F4129A0895811101C012980895813048
:1020000031F4E5E0F1E080818064808308958111FE
:1020100005C0E5E0F1E080818F7B80830895FC01BD
:1020200094819130C1F456985E9A109280008EE0AF
:1020300080938100808191810197909389008093A2
:102040008800AFE6B0E08C9182608C93F093EC1F37
:10205000E093EB1F5FC09330C1F46E98769A1092B4
:1020600090008EE080939100808191810197909300
:10207000990080939800A1E7B0E08C9182608C93E6
:10208000F093E81FE093E71F45C0943001F5A1E00D
:10209000B1E08C918F778C93A2E0B1E08C91806855
:1020A0008C931092A0008EE08093A100808191819A
:1020B00001979093A9008093A800A2E7B0E08C91CB
:1020C00082608C93F093EA1FE093E91F23C0953060
:1020D00021F5AAE0B1E08C918B7F8C93ABE0B1E06D
:1020E0008C9184608C93109220018EE0809321016A
:1020F0008081918101979093290180932801A3E722
:10210000B0E08C9182608C93F093EE1FE093ED1F12
:1021100010922401789481E008958FEF08951F9222
:102120000F920FB60F9211240BB60F922F933F937D
:102130004F935F936F937F938F939F93AF93BF93CF
:10214000EF93FF93CF93DF9300D01F92CDB7DEB70D
:102150000E94512A60934C0770934D0780934E075D
:1021600090934F0780914C0790914D07A0914E0797
:10217000B0914F07409148075091490760914A0735
:1021800070914B07841B950BA60BB70B89839A8321
:10219000AB83BC8380914C0790914D07A0914E0773
:1021A000B0914F078093480790934907A0934A073F
:1021B000B0934B0769817A818B819C81E091EB1F01
:1021C000F091EC1F0280F381E02D19950F900F9094
:1021D0000F900F90DF91CF91FF91EF91BF91AF9151
:1021E0009F918F917F916F915F914F913F912F912F
:1021F0000F900BBE0F900FBE0F901F9018951F925F
:102200000F920FB60F9211240BB60F922F933F939C
:102210004F935F936F937F938F939F93AF93BF93EE
:10222000EF93FF93CF93DF9300D01F92CDB7DEB72C
:102230000E94512A60934407709345078093460794
:10224000909347078091440790914507A0914607D6
:10225000B091470740914007509141076091420774
:1022600070914307841B950BA60BB70B89839A8348
:10227000AB83BC838091440790914507A0914607AA
:10228000B09147078093400790934107A09342077E
:10229000B093430769817A818B819C81E091E71F2C
:1022A000F091E81F0280F381E02D19950F900F90B7
:1022B0000F900F90DF91CF91FF91EF91BF91AF9170
:1022C0009F918F917F916F915F914F913F912F914E
:1022D0000F900BBE0F900FBE0F901F9018951F927E
:1022E0000F920FB60F9211240BB60F922F933F93BC
:1022F0004F935F936F937F938F939F93AF93BF930E
:10230000EF93FF93CF93DF9300D01F92CDB7DEB74B
:102310000E94512A60933C0770933D0780933E07CB
:1023200090933F0780913C0790913D07A0913E0715
:10233000B0913F07409138075091390760913A07B3
:1023400070913B07841B950BA60BB70B89839A836F
:10235000AB83BC8380913C0790913D07A0913E07E1
:10236000B0913F078093380790933907A0933A07BD
:10237000B0933B0769817A818B819C81E091E91F51
:10238000F091EA1F0280F381E02D19950F900F90D4
:102390000F900F90DF91CF91FF91EF91BF91AF918F
:1023A0009F918F917F916F915F914F913F912F916D
:1023B0000F900BBE0F900FBE0F901F9018951F929D
:1023C0000F920FB60F9211240BB60F922F933F93DB
:1023D0004F935F936F937F938F939F93AF93BF932D
:1023E000EF93FF93CF93DF9300D01F92CDB7DEB76B
:1023F0000E94512A60933407709335078093360703
:10240000909337078091340790913507A091360754
:10241000B0913707409130075091310760913207F2
:1024200070913307841B950BA60BB70B89839A8396
:10243000AB83BC838091340790913507A091360718
:10244000B09137078093300790933107A0933207FC
:10245000B09333071092240169817A818B819C812A
:10246000E091ED1FF091EE1F0280F381E02D1995B0
:102470000F900F900F900F90DF91CF91FF91EF9100
:10248000BF91AF919F918F917F916F915F914F918C
:102490003F912F910F900BBE0F900FBE0F901F908A
:1024A00018951F920F920FB60F9211240BB60F9230
:1024B0002F933F934F935F938F939F93EF93FF934C
:1024C0002091C0003091C60028718091650A90E08B
:1024D00001968F7799274091640A50E04817590771
:1024E00039F08093650AFC01E859F54F308301C04B
:1024F00022E02093630AFF91EF919F918F915F916A
:102500004F913F912F910F900BBE0F900FBE0F90E8
:102510001F9018951F920F920FB60F9211240BB6B1
:102520000F928F939F93EF93FF939091670A8091FF
:10253000660A981789F08091660A90E001968F7775
:1025400099278093660AFC01E851F54F80818093BA
:10255000C6001092530708C0E1ECF0E080818F7D47
:10256000808381E080935307FF91EF919F918F913A
:102570000F900BBE0F900FBE0F901F9018950F93EA
:102580001F938B019C01F8941092670A1092660ABF
:102590001092650A1092640A7894DC01CB0180588D
:1025A0009B47A14EBF4F880F991FAA1FBB1F880FC3
:1025B000991FAA1FBB1FBC01CD01660F771F881F83
:1025C000991F000F111F221F331F000F111F221F01
:1025D000331FA9019801220F331F441F551F220FDB
:1025E000331F441F551F0E94372EBA01A9014150C5
:1025F00051096109710957FF06C082E08093C0004C
:102600005F7766277727BB27A72F962F852F809385
:10261000C5004093C40088E98093C10086E08093A0
:10262000C2001F910F9108954091670A50E04F5FDB
:102630005F4F4F7755272091660A30E02417350702
:10264000D1F3FA01E851F54F80834093670AE1EC3A
:10265000F0E080818062808308950F931F93CF9371
:10266000DF936A3071058105910558F02AE030E06A
:1026700040E050E00E94372E062FCA01B901EDDF7D
:10268000602F80E3860FD0DFDF91CF911F910F91F4
:102690000895CF93DF93EC018881882329F0219658
:1026A000C3DF89918111FCCFDF91CF9108951F92F3
:1026B0000F920FB60F9211240BB60F922F933F93E8
:1026C0004F935F938F939F93EF93FF932091C80055
:1026D0003091CE0028718091600990E001968F774B
:1026E000992740915F0950E04817590739F08093C6
:1026F0006009FC01ED59F64F308301C022E02093C0
:102700005E09FF91EF919F918F915F914F913F9162
:102710002F910F900BBE0F900FBE0F901F9018952A
:102720001F920F920FB60F9211240BB60F928F9338
:102730009F93EF93FF93909162098091610998179D
:1027400089F08091610990E001968F7799278093B5
:102750006109FC01ED51F64F80818093CE0010920B
:10276000520708C0E9ECF0E080818F7D808381E032
:1027700080935207FF91EF919F918F910F900BBE25
:102780000F900FBE0F901F9018950F931F938B0102
:102790009C01F894109262091092610910926009EC
:1027A00010925F097894DC01CB0180589B47A14EC1
:1027B000BF4F880F991FAA1FBB1F880F991FAA1F01
:1027C000BB1FBC01CD01660F771F881F991F000F2B
:1027D000111F221F331F000F111F221F331FA901BA
:1027E0009801220F331F441F551F220F331F441F10
:1027F000551F0E94372EBA01A901415051096109A4
:10280000710957FF06C082E08093C8005F77662792
:102810007727BB27A72F962F852F8093CD00409336
:10282000CC0088E98093C90086E08093CA001F919C
:102830000F910895F8949091600980915F09981321
:1028400004C0789480E091E0089580915F0990E061
:1028500001968F77992780935F097894FC01ED5951
:10286000F64F208180915E0990E0982F8827820F93
:10287000911D0895F8949091600980915F099813D3
:1028800004C0789480E091E008957894E0915F0925
:10289000F0E03196EF77FF27ED59F64F20818091D8
:1028A0005E0990E0982F8827820F911D089540912E
:1028B000620950E04F5F5F4F4F77552720916109C4
:1028C00030E024173507D1F3FA01ED51F64F80833C
:1028D00040936209E9ECF0E0808180628083089592
:1028E000CF93DF93EC018881882329F02196DFDFE5
:1028F00089918111FCCFDF91CF910895CF93DF9320
:10290000EC012196FC018491882331F0D0DFFE0197
:10291000849121968111FACFDF91CF910895F89497
:102920008091600920915F09789490E080589F4FD2
:10293000821B91098F7799270895809152078823E8
:10294000E1F308951F920F920FB60F9211240BB668
:102950000F922F933F934F935F938F939F93EF9398
:10296000FF932091D0003091D600287180915B08B0
:1029700090E001968F77992740915A0850E04817C8
:10298000590739F080935B08FC01E25AF74F308316
:1029900001C022E020935908FF91EF919F918F9100
:1029A0005F914F913F912F910F900BBE0F900FBEF3
:1029B0000F901F9018951F920F920FB60F9211242F
:1029C0000BB60F928F939F93EF93FF9390915D08B7
:1029D00080915C08981789F080915C0890E00196DE
:1029E0008F77992780935C08FC01E252F74F808132
:1029F0008093D6001092510708C0E1EDF0E080818D
:102A00008F7D808381E080935107FF91EF919F91AB
:102A10008F910F900BBE0F900FBE0F901F901895C7
:102A20000F931F938B019C01F89410925D081092F4
:102A30005C0810925B0810925A087894DC01CB0174
:102A400080589B47A14EBF4F880F991FAA1FBB1FDD
:102A5000880F991FAA1FBB1FBC01CD01660F771FEE
:102A6000881F991F000F111F221F331F000F111FF6
:102A7000221F331FA9019801220F331F441F551F26
:102A8000220F331F441F551F0E94372EBA01A90180
:102A9000415051096109710957FF06C082E08093D6
:102AA000D0005F7766277727BB27A72F962F852F24
:102AB0008093D5004093D40088E98093D10086E0CC
:102AC0008093D2001F910F91089590915B0880919F
:102AD0005A089817A1F080915A0890E001968F77D4
:102AE000992780935A08FC01E25AF74F2081809180
:102AF000590890E0982F8827820F911D089580E053
:102B000091E00895F89490915B0880915A08981389
:102B100004C0789480E091E008957894E0915A0898
:102B2000F0E03196EF77FF27E25AF74F208180914E
:102B3000590890E0982F8827820F911D08954091A1
:102B40005D0850E04F5F5F4F4F77552720915C083D
:102B500030E024173507D1F3FA01E252F74F8083B2
:102B600040935D08E1EDF0E080818062808308950C
:102B7000CF93DF93EC018881882329F02196DFDF52
:102B800089918111FCCFDF91CF910895CF93DF938D
:102B9000EC012196FC018491882331F0D0DFFE0105
:102BA000849121968111FACFDF91CF910895F89405
:102BB00080915B0820915A08789490E080589F4F4C
:102BC000821B91098F779927089580915107882357
:102BD000E1F308951F920F920FB60F9211240BB6D6
:102BE0000F922F933F934F935F938F939F93EF9306
:102BF000FF93209130013091360128718091560762
:102C000090E001968F7799274091550750E048173B
:102C1000590739F080935607FC01E75AF84F308383
:102C200001C022E020935407FF91EF919F918F9173
:102C30005F914F913F912F910F900BBE0F900FBE60
:102C40000F901F9018951F920F920FB60F9211249C
:102C50000BB60F928F939F93EF93FF93909158072A
:102C600080915707981789F08091570790E0019657
:102C70008F77992780935707FC01E752F84F80819F
:102C8000809336011092500708C0E1E3F1E08081A3
:102C90008F7D808381E080935007FF91EF919F911A
:102CA0008F910F900BBE0F900FBE0F901F90189535
:102CB0000F931F938B019C01F89410925807109268
:102CC000570710925607109255077894DC01CB01F4
:102CD00080589B47A14EBF4F880F991FAA1FBB1F4B
:102CE000880F991FAA1FBB1FBC01CD01660F771F5C
:102CF000881F991F000F111F221F331F000F111F64
:102D0000221F331FA9019801220F331F441F551F93
:102D1000220F331F441F551F0E94372EBA01A901ED
:102D2000415051096109710957FF06C082E0809343
:102D300030015F7766277727BB27A72F962F852F30
:102D4000809335014093340188E98093310186E016
:102D5000809332011F910F910895909156078091B1
:102D600055079817A1F08091550790E001968F774D
:102D7000992780935507FC01E75AF84F20818091ED
:102D8000540790E0982F8827820F911D089580E0C6
:102D900091E00895F8949091560780915507981303
:102DA00004C0789480E091E008957894E09155070C
:102DB000F0E03196EF77FF27E75AF84F20818091B6
:102DC000540790E0982F8827820F911D0895409115
:102DD000580750E04F5F5F4F4F77552720915707B7
:102DE00030E024173507D1F3FA01E752F84F80831A
:102DF00040935807E1E3F1E0808180628083089589
:102E0000CF93DF93EC018881882329F02196DFDFBF
:102E100089918111FCCFDF91CF910895CF93DF93FA
:102E2000EC012196FC018491882331F0D0DFFE0172
:102E3000849121968111FACFDF91CF910895F89472
:102E40008091560720915507789490E080589F4FC5
:102E5000821B91098F7799270895809150078823C5
:102E6000E1F3089508958091680B9091690B08959E
:102E70000F9303E02BE13CE040E050E060E081E0B4
:102E800056D590933B0C80933A0C28EF3BE040E002
:102E900050E060E081E04BD59093180C8093170CC4
:102EA00025ED3BE040E050E060E081E040D59093CC
:102EB000F50B8093F40B22EB3BE040E050E060E048
:102EC00081E035D59093D20B8093D10B2FE83BE076
:102ED00040E050E060E081E02AD59093AF0B809312
:102EE000AE0B2CE63BE040E050E060E081E01FD517
:102EF00090938C0B80938B0B0F91089590931A0CE9
:102F00008093190C20E040E050E060E070E0809198
:102F10003A0C90913B0C20C508959093F70B809349
:102F2000F60B20E040E050E060E070E08091170C8C
:102F30009091180C11C508959093D40B8093D30BE6
:102F400020E040E050E060E070E08091F40B909170
:102F5000F50B02C508959093B10B8093B00B20E060
:102F600040E050E060E070E08091D10B9091D20B96
:102F7000F3C4089590938E0B80938D0B20E040E076
:102F800050E060E070E08091AE0B9091AF0BE4C434
:102F9000089590936B0B80936A0B20E040E050E023
:102FA00060E070E080918B0B90918C0BD5C40895FC
:102FB0000F9303E02FE53CE040E050E060E081E06B
:102FC000B6D490937F0C80937E0C2CE33CE040E0E1
:102FD00050E060E081E0ABD490935C0C80935B0C9C
:102FE0000F91089590935E0C80935D0C20E040E07B
:102FF00050E060E070E080917E0C90917F0CACC45A
:1030000008956FEF7FEF80917E0C90917F0CF7D544
:1030100080915D0C90915E0C089590935E0C80936E
:103020005D0C20E040E050E060E070E080915B0CDF
:1030300090915C0C91C408956FEF7FEF80915B0CD1
:1030400090915C0CDCD580E090E008950BDF10DF00
:1030500003D0AEDF6DC008950F9303E02BEE3CE08C
:1030600040E050E060E081E062D490930B0D8093EB
:103070000A0D28EC3CE040E050E060E081E057D4ED
:103080009093E80C8093E70C25EA3CE040E050E0A8
:1030900060E081E04CD49093C50C8093C40C22E88E
:1030A0003CE040E050E060E081E041D49093A20C2D
:1030B0008093A10C0F9108959093EA0C8093E90CF2
:1030C00020E040E050E060E070E080910A0D9091D7
:1030D0000B0D42C408959093C70C8093C60C20E05A
:1030E00040E050E060E070E08091E70C9091E80CE7
:1030F00033C408959093A40C8093A30C20E040E087
:1031000050E060E070E08091C40C9091C50C24C444
:1031100008959093810C8093800C20E040E050E073
:1031200060E070E08091A10C9091A20C15C408950C
:103130000F9303E022EE3DE040E050E060E081E0EC
:10314000F6D39093020E8093010E2FEB3DE040E00A
:1031500050E060E081E0EBD39093DF0D8093DE0DD3
:103160002CE93DE040E050E060E081E0E0D3909366
:10317000BC0D8093BB0D29E73DE040E050E060E0EE
:1031800081E0D5D39093990D8093980D26E53DE08D
:1031900040E050E060E081E0CAD39093760D8093E8
:1031A000750D23E33DE040E050E060E081E0BFD3F7
:1031B0009093530D8093520D20E13DE040E050E0AC
:1031C00060E081E0B4D39093300D80932F0D0F9188
:1031D00008959093E10D8093E00D20E040E050E0F1
:1031E00060E070E08091010E9091020EB5C30895E9
:1031F0009093BE0D8093BD0D20E040E050E060E074
:1032000070E08091DE0D9091DF0DA6C3089590933C
:103210009B0D80939A0D20E040E050E060E070E06C
:103220008091BB0D9091BC0D97C308959093780D3C
:103230008093770D20E040E050E060E070E0809106
:10324000980D9091990D88C308959093550D809392
:10325000540D20E040E050E060E070E08091750D9A
:103260009091760D79C308959093320D8093310D2E
:1032700020E040E050E060E070E08091520D9091DD
:10328000530D6AC3089590930D0D80930C0D08950E
:1032900080910C0D90910D0D089590930F0D8093DA
:1032A0000E0D20E040E050E060E070E080912F0DD6
:1032B0009091300D51C30895279A2F9A2FEF87EAE6
:1032C00091E6215080409040E1F700C000001F9A35
:1032D000F5CF27ED3EE0FC013183208382E89EE0BC
:1032E000FB019183808385E590E0FA0191838083DF
:1032F000089528E53EE0FC013183208383E09EE0D1
:10330000FB019183808385E590E0FA0191838083BE
:103310000895FC010396928381832FEF3FEF34835E
:103320002383968385839087878310820895FC0189
:10333000118610860895CF93DF939C01FB01DC0179
:103340001196CD91DC911297D383C2838C819D819C
:10335000958384838C819D81DC0113967C936E938D
:1033600012977D836C8331872087F90180818F5F7D
:103370008083DF91CF910895CF93DF93EB01488154
:1033800059814F3F2FEF520721F4FC01A781B085EF
:103390000DC0DC01139601C0DF011296ED91FC9186
:1033A00013972081318142175307B0F71296ED91A0
:1033B000FC911397FB83EA83D583C483BD83AC83DD
:1033C0001396DC93CE93129799878887FC0120810E
:1033D0002F5F2083DF91CF910895CF93DF93FC017E
:1033E000A085B185C281D381848195819D838C83A1
:1033F000C481D581828193819B838A831196CD91EB
:10340000DC911297CE17DF0731F48C819D811296E3
:103410009C938E931197118610868C9181508C937A
:103420008C91DF91CF91089531E1FC013083319788
:1034300022E220833197A3E3A08331976083319701
:1034400070833197108231971082319760E86083E2
:10345000319710823197108231971082319762E054
:103460006083319763E06083319764E060833197D4
:1034700065E06083319766E06083319767E0608341
:10348000319768E06083319769E06083319760E14C
:10349000608331973083319732E13083319733E164
:1034A0003083319734E13083319735E13083319780
:1034B00036E13083319737E13083319738E130831B
:1034C000319739E13083319730E23083319731E2FF
:1034D000308331972083319723E2208331974083D3
:1034E00031975083319726E22083319727E220835A
:1034F000319728E22083319729E22083319720E316
:103500002083319721E3208389970895A89590EC33
:1035100088E10FB6F894A895809360000FBE909351
:103520006000A0915C0FB0915D0FCD91CDBFDD919A
:10353000DEBFFF91EF91DF91CF91BF91AF919F914E
:103540008F917F916F915F914F913F912F911F913B
:103550000F91FF90EF90DF90CF90BF90AF909F9032
:103560008F907F906F905F904F903F902F901F9023
:103570000F900CBE0F900BBE0F900FBE0F900895D2
:1035800081E008950F920FB6F8940F920BB60F9248
:103590000CB60F921F9211242F923F924F925F927E
:1035A0006F927F928F929F92AF92BF92CF92DF9253
:1035B000EF92FF920F931F932F933F934F935F933D
:1035C0006F937F938F939F93AF93BF93CF93DF932B
:1035D000EF93FF93A0915C0FB0915D0F0DB60D922C
:1035E0000EB60D92D8D6A0915C0FB0915D0FCD9123
:1035F000CDBFDD91DEBFFF91EF91DF91CF91BF9104
:10360000AF919F918F917F916F915F914F913F917A
:103610002F911F910F91FF90EF90DF90CF90BF906F
:10362000AF909F908F907F906F905F904F903F9062
:103630002F901F900F900CBE0F900BBE0F900FBEDF
:103640000F9008950F920FB6F8940F920BB60F9249
:103650000CB60F921F9211242F923F924F925F92BD
:103660006F927F928F929F92AF92BF92CF92DF9292
:10367000EF92FF920F931F932F933F934F935F937C
:103680006F937F938F939F93AF93BF93CF93DF936A
:10369000EF93FF93A0915C0FB0915D0F0DB60D926B
:1036A0000EB60D9213BE37D5811175D6A0915C0F61
:1036B000B0915D0FCD91CDBFDD91DEBFFF91EF9158
:1036C000DF91CF91BF91AF919F918F917F916F913A
:1036D0005F914F913F912F911F910F91FF90EF902C
:1036E000DF90CF90BF90AF909F908F907F906F9022
:1036F0005F904F903F902F901F900F900CBE0F90B7
:103700000BBE0F900FBE0F9008959CDF18950FB65B
:10371000F8940F92FC01928D0F900FBE81E09111F1
:1037200080E008950F931F93CF93DF93EC01042F54
:103730001A8D8C8D81110BC088819981892B09F09C
:1037400043C08C819D81D5D71D821C8244C041110C
:1037500018C0482F50E08A819B810E94592E2C8DE1
:103760008A819B81820F911D9B838A832C813D815D
:103770008217930758F1888199819B838A8380E01F
:103780002AC0482F50E08E819F810E94592E8C8D37
:1037900090E09195819591092E813F81280F391FE5
:1037A0003F832E83488159812417350730F42C81BB
:1037B0003D81820F931F9F838E83023049F4112332
:1037C00049F0115080E007C080E005C080E003C0F0
:1037D00080E001C080E01F5F1A8FDF91CF911F91C1
:1037E0000F910895FC01448D4423A9F050E02681F7
:1037F0003781240F351F37832683848195812817CD
:10380000390720F08081918197838683CB0166817F
:1038100077810C94592E0895EF92FF920F931F9386
:10382000CF938C010FB6F8940F92FC01C68D1C1635
:103830009CF48189811106C00FC0F8019189911112
:1038400005C00AC07801F1E1EF0EF11CC7014FD6A7
:103850008111CBD6C15089F78FEFF801868F0F9079
:103860000FBE0FB6F8940F92C58D1C169CF4808580
:10387000811106C00FC0F8019085911105C00AC0E2
:103880007801F8E0EF0EF11CC70131D68111ADD6F9
:10389000C15089F78FEFF801858F0F900FBECF9140
:1038A0001F910F91FF90EF900895CF93DF93EC015C
:1038B0000FB6F8940F92E881F9818B8D2C8D90E0F2
:1038C00030E0829FA001839F500D929F500D1124E4
:1038D0004E0F5F1F5D834C831A8EFB83EA83019733
:1038E000829FA001839F500D929F500D1124CF0104
:1038F000840F951F9F838E838FEF8D8F8E8F611125
:103900000AC08885882369F0CE010896F0D58823FF
:1039100041F038DE06C0CE010896FBDCCE014196B0
:10392000F8DC0F900FBE81E0DF91CF910895CF9327
:10393000DF93E901209761F0611103C03983288387
:1039400002C0598348838B8F6C8F61E0CE01ADDF5D
:10395000CE01DF91CF9108959F92AF92BF92CF9207
:10396000DF92EF92FF920F931F93CF93DF9300D0DC
:103970001F921F92CDB7DEB78C016B015D834C8324
:10398000A22EB12C992493947C0188E0E80EF11CBE
:103990000FB6F8940F92F801328D938D391718F005
:1039A000F2E0AF1215C04A2DB601C801BBDEF80126
:1039B0009189992339F0C801419699D5882321F03E
:1039C000E1DD02C08111DEDD0F900FBE81E045C058
:1039D000EC81FD81EF2B21F40F900FBE80E03DC004
:1039E000B11004C0CE010196CAD5B92C0F900FBEFC
:1039F00082D30FB6F8940F92F801858D8F3F09F4AA
:103A0000158EF801868D8F3F09F4168E0F900FBE2C
:103A1000BE016C5F7F4FCE010196BCD5811119C0EC
:103A20000FB6F8940F92F801928D838D0F900FBE10
:103A300098130BC06C817D81C7012ED5C801ECDEC7
:103A400021D48111A5CF9EDDA3CFC801E5DE1AD414
:103A50009FCFC801E1DE16D480E00F900F900F9049
:103A60000F900F90DF91CF911F910F91FF90EF90EA
:103A7000DF90CF90BF90AF909F900895EF92FF920C
:103A80000F931F93CF93DF938A01FC01528D338DE7
:103A9000531710F02230E1F4422F7801EC011E8D13
:103AA00041DE1F3F79F489898823A1F0CE01419638
:103AB0001ED5882389F0E114F10481F081E0F7013B
:103AC00080830DC0FF24F394F10EFE8E81E007C0C9
:103AD00080E005C081E003C081E001C081E0DF91AA
:103AE000CF911F910F91FF90EF9008959F92AF9209
:103AF000BF92CF92DF92EF92FF920F931F93CF93DB
:103B0000DF9300D01F921F92CDB7DEB78C015B010F
:103B10005D834C83E12C992493946C0181E1C80E60
:103B2000D11C0FB6F8940F92F801F28CFF2091F09F
:103B3000B501C80157DEFA94F801F28E808588231A
:103B400029F0C8010896D3D481111CDD0F900FBE57
:103B500081E044C02C813D81232B21F40F900FBEC6
:103B600080E03CC0E11004C0CE01019608D5E92CEC
:103B70000F900FBEC0D20FB6F8940F92F801858D4A
:103B80008F3F09F4158EF801968D9F3F09F4168E2C
:103B90000F900FBEBE016C5F7F4FCE010196FAD42D
:103BA000811113C0C801B3DD882359F06C817D8178
:103BB000C60172D4C80130DE65D38111B2CFE2DC18
:103BC000B0CFC80129DE5ED3ACCFC80125DE5AD301
:103BD000C8019DDD882309F4A4CF80E00F900F90E9
:103BE0000F900F900F90DF91CF911F910F91FF9049
:103BF000EF90DF90CF90BF90AF909F900895BF92CD
:103C0000CF92DF92EF92FF920F931F93CF93DF93A8
:103C100000D01F921F92CDB7DEB78C017D836C83DD
:103C2000B12CD12CCC24C3947C0181E1E80EF11C91
:103C30000FB6F8940F92D8015A969C915A979923EF
:103C4000D1F091505A969C935A978D919C91892BC3
:103C500021F4DFD5F80195838483D80118968C91DF
:103C6000882329F0C801089642D481118BDC0F907B
:103C70000FBE81E070C02C813D81232B21F40F9079
:103C80000FBE80E068C0D11004C0CE01019677D489
:103C9000DC2C0F900FBE2FD20FB6F8940F92F801C4
:103CA000958D9F3F09F4158ED8015E969C915E9785
:103CB0009F3F11F45E961C920F900FBEBE016C5F89
:103CC0007F4FCE01019666D4811121C0C8011FDD4E
:103CD0008823C9F0F80120813181232B49F40FB6E4
:103CE000F8940F928481958192D4B82E0F900FBED4
:103CF0006C817D81C701D0D3C8018EDDC3D2811113
:103D000097CF40DC95CFC80187DDBCD291CFC801E9
:103D100083DDB8D2C801FBDC882309F489CFBB203E
:103D2000C9F00FB6F8940F92F8018189882339F011
:103D30000688F789E02D808164E0681B01C060E09F
:103D4000D80114968D919C91159713D50F900FBEA5
:103D500080E001C080E00F900F900F900F900F90C7
:103D6000DF91CF911F910F91FF90EF90DF90CF9057
:103D7000BF900895CF93DF93EC010FB6F8940F92A4
:103D80008D8D8F3F09F41D8E8E8D8F3F09F41E8E11
:103D90000F900FBE8A8D811103C0CE0141968ED344
:103DA000CE013ADDDF91CF910895E091360FF09189
:103DB000370F8081811107C08FEF9FEF9093170F0E
:103DC0008093160F0895E091360FF091370F05801C
:103DD000F681E02D0680F781E02D8281938190931A
:103DE000170F8093160F08950F931F93CF93DF93B0
:103DF000EC0100911E0F10911F0F80915C0F9091AC
:103E00005D0F0296EADAC00FD11FE0915C0FF091CE
:103E10005D0FD383C283C017D10760F460915C0F3C
:103E200070915D0F8091340F9091350F6E5F7F4FD1
:103E3000A3DA16C060915C0F70915D0F8091360F10
:103E40009091370F6E5F7F4F97DA8091160F9091A8
:103E5000170FC817D90720F4D093170FC093160F68
:103E6000DF91CF911F910F9108956F927F928F9262
:103E70009F92AF92BF92CF92DF92EF92FF920F93F9
:103E8000CF93DF934C01EB015A013901C114D104E6
:103E900009F4CCC0E114F10409F4CBC0F601F08EB2
:103EA000E78A65EA70E0C7010E94622EF1E0AF1A6E
:103EB000B108F6018789908DA80EB91E8881818F7F
:103EC0008881882389F0D6015A96FE013196AE0189
:103ED000485F5F4FCF0121912D93EC0188818823AA
:103EE00019F0E417F507B1F7F60110A2043008F055
:103EF00003E0E6010E8B09A31AA22296CE0117DA7F
:103F0000C6010C9614DAF601D186C08684E090E0F2
:103F1000801B910995878487D38AC28A14A213A231
:103F200015A216A217A210A611A6A301B401C501DD
:103F30007BDAF601918380830FB6F8940F9280911B
:103F4000200F8F5F8093200F80915C0F90915D0F09
:103F5000892B69F5D0925D0FC0925C0F8091200F84
:103F60008130B1F588E39FE0D4D981E49FE0D1D9D5
:103F70008AE49FE0CED983E59FE0CBD98AE09FE039
:103F8000C8D981E09FE0C5D98BE29FE0C2D982E227
:103F90009FE0BFD98AE09FE09093370F8093360F60
:103FA00081E09FE09093350F8093340F11C0809192
:103FB0001C0F81110DC0E0915C0FF0915D0F96898F
:103FC000F6018689891720F0D0925D0FC0925C0FB0
:103FD0008091180F8F5F8093180FF601868990915A
:103FE0001D0F981710F480931D0F90E09C01220F75
:103FF000331F220F331F220F331F820F931FBE0167
:10400000885C904F98D90F900FBE80911C0F882329
:1040100099F0E0915C0FF0915D0F9689E6018E8931
:10402000981768F4AFDA8C2D9D2D0BC080E090E0DE
:1040300008C080E090E005C08C2D9D2D02C08C2D25
:104040009D2DDF91CF910F91FF90EF90DF90CF905A
:10405000BF90AF909F908F907F906F900895CF9278
:10406000DF92EF92FF920F93CF93DF9300D000D0B7
:10407000CDB7DEB71E821D821C821B82AE014F5F50
:104080005F4FBE016D5F7F4FCE01059622D9CD8077
:10409000DE80EB80FC8049815A8100E020E030E046
:1040A00064E473E083EB90E0E0DE9093150F80937F
:1040B000140F892B91F01CD4813079F4F8948FEF90
:1040C0009FEF9093170F8093160F81E080931C0F42
:1040D00010921F0F10921E0F19DA26960FB6F89441
:1040E000DEBF0FBECDBFDF91CF910F91FF90EF905C
:1040F000DF90CF9008958091130F8F5F8093130FFF
:1041000008950FB6F8940F9280911E0F90911F0F93
:104110000F900FBE0895CF92DF92EF92FF920F9310
:104120001F93CF93DF938091130F811195C0E0907F
:104130001E0FF0901F0F8FEFE81AF80AF0921F0F72
:10414000E0921E0FE114F104B1F48091360F9091CA
:10415000370F2091340F3091350F3093370F209364
:10416000360F9093350F8093340F8091190F8F5F26
:104170008093190F1ADE8091160F9091170FE81691
:10418000F90610F4D12C50C0D12CCC24C394E0916A
:10419000360FF091370F9081911107C08FEF9FEF8D
:1041A0009093170F8093160F3FC0E091360FF09158
:1041B000370F0580F681E02DC681D7812A813B81AA
:1041C000E216F30628F43093170F2093160F2CC035
:1041D0008E010E5F1F4FC80100D98C899D89892BE4
:1041E00019F0CE010C96F9D82E8980911D0F8217F7
:1041F00010F420931D0F30E0C901880F991F880F1C
:10420000991F880F991F820F931FB801885C904FE8
:1042100092D8E0915C0FF0915D0F9E898689981786
:1042200008F4B5CFDC2CB3CFE0915C0FF0915D0FBB
:10423000868990E0FC01EE0FFF1FEE0FFF1FEE0FCF
:10424000FF1F8E0F9F1FFC01E85CF04F80818230C2
:1042500048F0DD24D39406C080911B0F8F5F8093BC
:104260001B0FD12C80911A0F882311F0DD24D394D9
:104270008D2DDF91CF911F910F91FF90EF90DF90E7
:10428000CF900895DF92EF92FF920F931F93CF93F9
:10429000DF930FB6F8940F928091130F81508093A3
:1042A000130F8091130F811159C08091200F81113C
:1042B00030C057C0D7011596ED91FC911697C68175
:1042C000D781CE010C9689D88E010E5F1F4FC80191
:1042D00084D82E8980911D0F821710F420931D0F12
:1042E00030E0C901880F991F880F991F880F991F07
:1042F000820F931FB801885C904F1DD8E0915C0F2E
:10430000F0915D0F9E898689981768F0D0921A0FF8
:104310000AC0C0E0D0E00F2EFBE2EF2EFFE0FF2E40
:10432000F02DDD24D394F70180818111C3CFCD2BF3
:1043300009F03BDDC0911B0FCC2349F0D1E0EBDE4F
:104340008111D0931A0FC150D1F710921B0F809199
:104350001A0F882329F016D981E003C080E001C03C
:1043600080E00F900FBEDF91CF911F910F91FF90D2
:10437000EF90DF900895CF93DF93EC01892B39F014
:10438000BADE60E0CE0130DD7DDF811101C0FAD8F8
:10439000DF91CF9108958091130F882321F081E060
:1043A00080931A0F089510921A0FA0915C0FB0918C
:1043B0005D0FE0915C0FF0915D0F2D913C9187892D
:1043C000908D8217930760F060915C0F70915D0F84
:1043D00080915C0F90915D0F675E7F4F0E945C192A
:1043E00020911D0F822F90E0FC01EE0FFF1FEE0FBA
:1043F000FF1FEE0FFF1FE80FF91FE85CF04F308141
:10440000311111C02150822F90E0FC01EE0FFF1FEF
:10441000EE0FFF1FEE0FFF1FE80FF91FE85CF04FD4
:104420003081332379F3AC01440F551F440F551FDE
:10443000440F551F480F591FDA01A85CB04F119661
:10444000ED91FC9112970280F381E02D1296FC937E
:10445000EE931197455C504FE417F50729F442811C
:104460005381FD0152834183FC01EE0FFF1FEE0FCC
:10447000FF1FEE0FFF1F8E0F9F1FFC01E85CF04F28
:104480000180F281E02D8681978190935D0F80936A
:104490005C0F20931D0F0895CF93DF93EB012091C4
:1044A0005C0F30915D0FB901645F7F4F0E94BC19B2
:1044B00061E0CE0199DCDF91CF9108950F931F93B6
:1044C000CF938B01C42F20915C0F30915D0FB90108
:1044D000645F7F4F0E949B19CC2311F00FEF1FEFF9
:1044E0006C2FC80181DCCF911F910F9108950F931C
:1044F0001F93CF93DF93DC011596ED91FC911697F6
:10450000C681D7818E01045F1F4FC8010E94ED193B
:104510008091130F81111CC00A501109C8010E941B
:10452000ED192E8980911D0F821710F420931D0F15
:1045300030E0C901880F991F880F991F880F991FB4
:10454000820F931FB801885C904F0E949B1905C091
:10455000B8018BE29FE00E949B19E0915C0FF09103
:104560005D0F9E898689891720F481E080931A0F58
:1045700001C080E0DF91CF911F910F9108952091AC
:10458000190FFC01208320911E0F30911F0F3283E1
:10459000218308950FB6F8940F9220911E0F309149
:1045A0001F0FDC0111964D915C911297E091190F4C
:1045B000FC91FE1719F02417350798F4241B350BCE
:1045C000FB01408151812417350738F4421B530BFE
:1045D00051834083D4DF80E005C01182108281E0E6
:1045E00001C081E00F900FBE089581E080931A0F03
:1045F000089580911C0F882331F08091130F882338
:1046000021F080E0089581E0089582E008950F93FD
:104610001F93CF93DF93FC01892B09F464C0268993
:10462000A0915C0FB0915D0F56968C91281708F001
:104630004EC084859585992364F0A0915C0FB0915C
:104640005D0F56963C9184E090E0831B910995871D
:10465000848730E0C901880F991F880F991F880F40
:10466000991F280F391F285C304F82859385821748
:10467000930721F58F01EF012296CE010E94ED19DB
:10468000E0915C0FF0915D0F2689F801268B8091F7
:104690001D0F821710F420931D0F30E0C901880F01
:1046A000991F880F991F880F991F820F931FBE01B2
:1046B000885C904F0E949B1981E016C0A0915C0F0E
:1046C000B0915D0F56968C91868B81E00DC0A091C4
:1046D0005C0FB0915D0F81E021A156969C91291746
:1046E00018F080E001C080E0DF91CF911F910F9121
:1046F00008950F931F93CF93DF93FC01892B79F1DA
:1047000082A1815082A3268991A1291751F181119B
:104710002AC0EF018F010E5F1F4FC8010E94ED19E3
:1047200029A12E8B44E050E0421B51095D874C8744
:1047300080911D0F821710F420931D0F30E0C901E6
:10474000880F991F880F991F880F991F820F931F39
:10475000B801885C904F0E949B1981E005C080E001
:1047600003C080E001C080E0DF91CF911F910F91E5
:1047700008950F931F93CF93DF93FC01892B09F4C6
:1047800043C081A1681708F4682F86898617E1F174
:1047900092A19130C9F5668B24853585332334F099
:1047A00024E030E0261B31093587248790E09C0106
:1047B000220F331F220F331F220F331F820F931F2D
:1047C000885C904F2285338528173907E9F4EF017B
:1047D0008F010E5F1F4FC8010E94ED192E89809135
:1047E0001D0F821710F420931D0F30E0C901880FB0
:1047F000991F880F991F880F991F820F931FB80167
:10480000885C904F0E949B19DF91CF911F910F916F
:10481000089580915C0F90915D0F892B39F0E091A4
:104820005C0FF0915D0F82A18F5F82A380915C0F7E
:1048300090915D0F0895FC01738362839187808757
:104840004617570790F0421B530B848595854817F0
:104850005907E0F4BF016E5F7F4F8091C70F9091C1
:10486000C80F0E94BC1980E008954217530718F43E
:104870006217730768F4BF016E5F7F4F8091C90FA5
:104880009091CA0F0E94BC1980E0089581E00895BC
:1048900081E008950F930FB6F8940F928091C50FA1
:1048A0009091C60F892B01F588EB9FE00E94891932
:1048B0008FEA9FE00E94891988EB9FE09093CA0FCE
:1048C0008093C90F8FEA9FE09093C80F8093C70F22
:1048D00000E02EE53FE04DE75FE065E08AE027D8A5
:1048E0009093C60F8093C50F0F900FBE0F91089540
:1048F000CF92DF92EF92FF920F93CF93DF9300D08E
:1049000000D0CDB7DEB7C6DF8091C50F9091C60F3E
:10491000892B31F11E821D821C821B82AE014F5FEA
:104920005F4FBE016D5F7F4FCE0105960E947919E2
:10493000CD80DE80EB80FC8049815A8103E020E05D
:1049400030E069E473E083E795E28FDA9C019093AD
:10495000C40F8093C30F81E0232B19F480E001C0C2
:1049600080E026960FB6F894DEBF0FBECDBFDF9174
:10497000CF910F91FF90EF90DF90CF9008950F931C
:104980001F93CF93DF9300D01F921F92CDB7DEB756
:10499000E091C50FF091C60F309761F1D90169839D
:1049A0005B834A839D838C836630E4F422DE82300D
:1049B00061F420E0A801BE016F5F7F4F8091C50FB9
:1049C0009091C60F0E94AC1C16C020E040E050E061
:1049D000BE016F5F7F4F8091C50F9091C60F0E94FF
:1049E000AC1C09C020E0AD01BE016F5F7F4FCF015D
:1049F00045D801C080E00F900F900F900F900F905E
:104A0000DF91CF911F910F910895AF92BF92CF92F6
:104A1000DF92EF92FF920F931F93CF93DF936C017E
:104A200070DB7C018091C10F9091C20FE816F906EE
:104A300008F047C02FC00580F681E02DA080B1802E
:104A4000C681D7818E010E5F1F4FC8010E94ED19EC
:104A5000E989FA89CE0119958E858130D9F48C8542
:104A60009D858A0D9B1DA816B90660F49B838A83D9
:104A7000D987C887B8018091C90F9091CA0F0E9449
:104A8000BC1908C000E010E020E030E0A50160E0C3
:104A9000CE0175DFE091C90FF091CA0F908191119D
:104AA000CACF8091C70F9091C80F9093CA0F80937F
:104AB000C90FF093C80FE093C70F81E0F601808320
:104AC00002C0F6011082F092C20FE092C10FC7013E
:104AD000DF91CF911F910F91FF90EF90DF90CF90DA
:104AE000BF90AF900895CF93DF9300D000D0CDB7A3
:104AF000DEB7CE0101964C0155245394E12CF12CE4
:104B0000412CC82ED92CE091C90FF091CA0F808199
:104B1000882369F00580F681E02DA080B180EBDA72
:104B2000C40173DF8C018981882349F056C0E3DA20
:104B3000C4016BDF8C0189818823A9F14EC00A155D
:104B40001B0508F43BC09EDBE091C90FF091CA0F32
:104B50000580F681E02D66807780C30102960E9471
:104B6000ED19D3011E968C911E978130A1F41C96ED
:104B70006D917C911D976A0D7B1D9501A801C30164
:104B80005ADE882341F00E2D1F2D2E2D3F2DA5011D
:104B9000642DC301F4DED3015196ED91FC9152973F
:104BA000C30119956FC0E091C70FF091C80F8081C4
:104BB000452D8111442DAE2CBF2C01C0442DB501D3
:104BC000601B710B8091C50F9091C60FD3D85ADB33
:104BD000811158C00E94C21A55C054DB53C089814C
:104BE00088230CF44FC0AC80BD80F501828593858D
:104BF000892B21F0C50102960E94ED19CE0106967F
:104C000004DFAC019981943089F11CF49330D0F524
:104C100007C09630BCF198301CF0993039F132C0A1
:104C20002A813B81D5011C966D917C911D97620F65
:104C3000731FC50100DE882329F1D5015196ED913E
:104C4000FC915297C5011995F50186858130D1F403
:104C5000448555858A819B81480F591F0E2D1F2D34
:104C60002E2D3F2D642DC5018ADE0CC06A817B810B
:104C7000D5011D967C936E931C97640F751F9A0146
:104C8000C501D9DD4E2D5F2D6C2D7D2D8091C50F79
:104C90009091C60F0E94761D8111A1CF34CF0F9342
:104CA00003E024EA30E140E050E060E081E00E946F
:104CB000971C9093F81F8093F71F20E040E050E08E
:104CC00060E070E00E94AC1C25E830E140E050E07C
:104CD00060E081E00E94971C9093FA1F8093F91F77
:104CE00026E630E140E050E060E081E00E94971C61
:104CF0009093F21F8093F11F27E430E140E050E0F1
:104D000060E081E00E94971C9093FC1F8093FB1F42
:104D100028E230E140E050E060E081E00E94971C32
:104D20009093F01F8093EF1F29E030E140E050E0C6
:104D300060E081E00E94971C9093F41F8093F31F22
:104D40002AEE3FE040E050E060E081E00E94971CE6
:104D50009093FE1F8093FD1F2BEC3FE040E050E05E
:104D600060E081E00E94971C9093F61F8093F51FEE
:104D70000F9108950C94460208959093C810809363
:104D8000C7107093C6106093C51008950F931F93BA
:104D9000CF93DF938C01C6E06FEF7FEF8091F71F19
:104DA0009091F81F0E94FF1DC8010E944F03D82F49
:104DB00020E040E050E060E070E08091F71F9091CB
:104DC000F81F0E94AC1CD23E71F4C15041F4E09136
:104DD000C510F091C610309731F0199504C08CE0E1
:104DE00090E0C9DAD9CF8D2FDF91CF911F910F912C
:104DF0000895EF92FF920F931F93CF93DF938C014F
:104E00007B01FB0111821082C0E0D0E0B701C80134
:104E10000E94DC02823E59F4CF5FC63049F4E09133
:104E2000C710F091C810309789F019950FC0CD2F99
:104E3000FFEF27EA81E6F15020408040E1F700C013
:104E40000000F70180819181892B01F360E070E01F
:104E5000C8010E94F102D82F823EA9F4CF5FC6306C
:104E600041F4E091C510F091C610309761F01995AA
:104E70000AC0FFEF27EA81E6F15020408040E1F7C9
:104E800000C00000E3CF8D2FDF91CF911F910F91D4
:104E9000FF90EF9008950FEF1FE16FEF7FEF80918C
:104EA000F71F9091F81F0E94FF1D41E163E070E23F
:104EB00081E090E00E940203C82F81E593E00E9408
:104EC000491320E040E050E060E070E08091F71F7F
:104ED0009091F81F0E94AC1C88E593E00E94491352
:104EE000C23E89F48091C4108F5F8093C4108530D6
:104EF00009F04DC0E091C710F091C810309709F447
:104F000046C0199544C0C3E0D0E28A859B850E94C3
:104F1000F818888599850E94E9188C859D850E94DE
:104F200007198E859F850E9416198A899B890E9480
:104F30003419888999890E942519888199810E944C
:104F40005C188C819D810E947A188E819F810E94BD
:104F500089188C899D890E947E178E899F890E945D
:104F60009C17888D998D0E94AB178C8D9D8D0E940A
:104F7000BA178E8D9F8D0E94C9178A8D9B8D0E94B6
:104F80008D178A819B810E946B181092C4100E9419
:104F90003317F801938382830E944819F8019183A3
:104FA00080836FEF7FEF8091F71F9091F81F0E9431
:104FB000FF1D81E593E00E94491342E0B80180E0C3
:104FC0009FE00E942A03C82F20E040E050E060E00C
:104FD00070E08091F71F9091F81F0E94AC1C88E54B
:104FE00093E00E944913C23E79F48091C3108F5F11
:104FF0008093C310853051F4E091C510F091C61034
:10500000309721F0199502C01092C3108EE390E002
:10501000B2D943CF9093CA108093C91008958FE5F9
:1050200093E00E9449130E945C03C82F0E948403EE
:10503000D82FC53561F4E091C910F091CA103097AE
:1050400009F019958AEF9FEA0E94F21708C08C2F89
:1050500090E00E94F2178D2F90E00E940D1883E0DF
:1050600090E089D9DCCF8091CF109091D01001963B
:105070009093D0108093CF102091CF103091D0100A
:105080008091CB109091CC1028173907F0F082E76F
:1050900093E00E94491320E040E050E060E070E0BF
:1050A00080912320909124200E94AC1C83EA93E0FD
:1050B0000E9449136091CF107091D01080E090E071
:1050C0000E942D138AE00C94141308958091D1103E
:1050D0009091D21001969093D2108093D11020918C
:1050E000D1103091D2108091CD109091CE10281710
:1050F0003907F0F08AED93E00E94491320E040E088
:1051000050E060E070E080916320909164200E9404
:10511000AC1C83E094E00E9449136091D11070911F
:10512000D21080E090E00E942D138AE00C941413BA
:1051300008950F9363E378E286E698E20E946402A2
:1051400003E024E430E240E050E060E081E00E94CF
:10515000971C909364208093632025E230E240E026
:1051600050E060E081E00E94971C9093242080939F
:1051700023200F9108951092D2101092D110880F11
:10518000991F9093CE108093CD1081E00E94AA0FBA
:105190006FEF7FEF80916320909164200E94FF1D4C
:1051A0008AE394E00E94491380E00E94AA0F80E005
:1051B00008951092D0101092CF10880F991F9093DD
:1051C000CC108093CB1081E00E94F70F81E00E9409
:1051D000D20F6FEF7FEF80912320909124200E94C7
:1051E000FF1D80E794E00E94491380E00E94D20FE7
:1051F00080E00E94F70F80E008959093D410809390
:10520000D310089510E00E94BB0CEC01833391058C
:1052100078F01F5F163038F0E091D310F091D41081
:10522000309709F019958AEF9FEA0E944D1905C041
:105230000E944D19CE010E94431984E090E09BD852
:10524000E2CF0E94390F1ED10E94450D0E94261800
:1052500026DD80E00E94B90C23E040E056E960E0E2
:1052600070E081E00E94A10221E040E052EC61E0A8
:1052700070E083E00E94C4027DDD5BDF80E0089582
:105280008091DB109091DC1001969093DC1080935C
:10529000DB102091DB103091DC108091D7109091C1
:1052A000D8102817390718F081E08093DE10089590
:1052B0008091D9109091DA1001969093DA10809332
:1052C000D9102091D9103091DA108091D510909199
:1052D000D6102817390718F081E08093DD10089563
:1052E0001092DC101092DB10880F991F9093D81049
:1052F0008093D71081E00E94AA0F8091DE1088234E
:10530000F1F380E00E94AA0F1092DE100895CF936F
:10531000C82F81110DC03BC081E00E94AA0F80E020
:105320000E94F70F80E00E94D20F80E00E94B20F2F
:105330000E945C03833080F380E00E94AA0F81E02A
:105340000E94F70F80E00E94B20F2FEF83E294EFEC
:10535000215080409040E1F700C0000081E00E94B1
:10536000D20F0E9484038111FCCF0E945C0388232A
:10537000C1F380E00E94F70F80E00E94AA0F80E056
:105380000E94D20F81E00E94B20FC15089F680E0E6
:10539000CF91089568E579E280E499E20E94640281
:1053A0001092DE101092DD101092DC101092DB10C3
:1053B0001092DA101092D9100895CF92DF92EF92E6
:1053C000FF92E8DF80E00E94F70F80E00E94D20F9A
:1053D00080E00E94B20F80E00E94AA0FC12CD12C65
:1053E000760108C085E090E07BDF85E0C80ED11C27
:1053F000E11CF11C0E945C038823A1F3D0921A07E0
:10540000C0921907C12CD12C760108C085E090E02C
:1054100067DF85E0C80ED11CE11CF11C0E945C0313
:105420008230A0F3D0921807C0921707C12CD12C5C
:10543000760108C085E090E053DF85E0C80ED11CFE
:10544000E11CF11C0E945C038330A0F3D09216078C
:10545000C092150780E0FF90EF90DF90CF90089505
:10546000862728E030E080FF07C09695879541E0C9
:10547000842740EA942702C09695879521503109E8
:1054800091F7089582E08093B00084E08093B100AA
:105490008AEF8093B300E0E7F0E080818260808350
:1054A0000895F8946091652070916620809167203E
:1054B00090916820789408951F920F920FB60F92E2
:1054C00011248F939F93AF93BF9380916520909108
:1054D0006620A0916720B09168200196A11DB11DA2
:1054E0008093652090936620A0936720B0936820F6
:1054F000BF91AF919F918F910F900FBE0F901F9012
:1055000018955058BB27AA270ED070C161D130F032
:1055100066D120F031F49F3F11F41EF456C10EF411
:10552000E095E7FB4CC1E92F72D180F3BA1762070F
:1055300073078407950718F071F49EF58AC10EF47D
:10554000E0950B2EBA2FA02D0B01B90190010C0193
:10555000CA01A0011124FF27591B99F0593F50F4AB
:10556000503E68F11A16F040A22F232F342F442703
:10557000585FF3CF469537952795A795F0405395FB
:10558000C9F77EF41F16BA0B620B730B840BBAF0CB
:105590009150A1F0FF0FBB1F661F771F881FC2F736
:1055A0000EC0BA0F621F731F841F48F4879577954A
:1055B0006795B795F7959E3F08F0B3CF9395880F01
:1055C00008F09927EE0F979587950895D4D008F4A1
:1055D00081E008950CD00AC102D140F0F9D030F03A
:1055E00021F45F3F19F0EBC0511134C1EEC00FD16F
:1055F00098F39923C9F35523B1F3951B550BBB279A
:10560000AA2762177307840738F09F5F5F4F220F46
:10561000331F441FAA1FA9F333D00E2E3AF0E0E83F
:1056200030D091505040E695001CCAF729D0FE2F8B
:1056300027D0660F771F881FBB1F2617370748071D
:10564000AB07B0E809F0BB0B802DBF01FF279358D3
:105650005F4F2AF09E3F510568F0B1C0FBC05F3F2D
:10566000ECF3983EDCF3869577956795B795F795BB
:105670009F5FC9F7880F911D9695879597F90895B3
:10568000E1E0660F771F881FBB1F6217730784074F
:10569000BA0720F0621B730B840BBA0BEE1F88F75E
:1056A000E0950895BCD088F09F5790F0B92F9927C6
:1056B000B751A0F0D1F0660F771F881F991F1AF01D
:1056C000BA95C9F712C0B13081F0C3D0B1E00895E6
:1056D000C0C0672F782F8827B85F39F0B93FCCF367
:1056E000869577956795B395D9F73EF49095809513
:1056F000709561957F4F8F4F9F4F0895E89409C033
:1057000097FB3EF490958095709561957F4F8F4FF4
:105710009F4F9923A9F0F92F96E9BB279395F6950A
:10572000879577956795B795F111F8CFFAF4BB0F88
:1057300011F460FF1BC06F5F7F4F8F4F9F4F16C0EC
:10574000882311F096E911C0772321F09EE8872F76
:10575000762F05C0662371F096E8862F70E060E032
:105760002AF09A95660F771F881FDAF7880F9695AB
:10577000879597F90895990F0008550FAA0BE0E84F
:10578000FEEF16161706E807F907C0F01216130603
:10579000E407F50798F0621B730B840B950B39F443
:1057A0000A2661F0232B242B252B21F408950A26A9
:1057B00009F4A140A6958FEF811D811D089597F9E9
:1057C0009F6780E870E060E008959FEF80EC0895A7
:1057D00000240A94161617061806090608950024D0
:1057E0000A9412161306140605060895092E03944A
:1057F000000C11F4882352F0BB0F40F4BF2B11F4BE
:1058000060FF04C06F5F7F4F8F4F9F4F089557FD1C
:105810009058440F551F59F05F3F71F04795880F1E
:1058200097FB991F61F09F3F79F0879508951216B5
:1058300013061406551FF2CF4695F1DF08C0161661
:1058400017061806991FF1CF869571056105089412
:105850000895E894BB2766277727CB0197F9089529
:105860008ADF08F48FEF08950BD0C0CFB1DF28F0A6
:10587000B6DF18F0952309F0A2CFA7CF1124EACF05
:10588000C6DFA0F3959FD1F3950F50E0551F629F9F
:10589000F001729FBB27F00DB11D639FAA27F00D89
:1058A000B11DAA1F649F6627B00DA11D661F829FB0
:1058B0002227B00DA11D621F739FB00DA11D621F95
:1058C000839FA00D611D221F749F3327A00D611DB2
:1058D000231F849F600D211D822F762F6A2F112494
:1058E0009F5750408AF0E1F088234AF0EE0FFF1FE7
:1058F000BB1F661F771F881F91505040A9F79E3F1E
:10590000510570F05CCFA6CF5F3FECF3983EDCF31F
:10591000869577956795B795F795E7959F5FC1F75A
:10592000FE2B880F911D9695879597F90895FA019A
:10593000EE0FFF1F30962105310599F161157105B4
:1059400061F48038BFE39B0749F168949038810582
:1059500061F08038BFEF9B0741F0992342F5FF3F8C
:10596000E1053105210511F1E8940894E795D90185
:10597000AA2329F4AB2FBE2FF85FD0F310C0FF5F2E
:1059800070F4A695E0F7F73950F019F0FF3A38F4C3
:105990009F779F930CD00F9007FC905808953EF08E
:1059A00014CF60E070E080E89FE308954FE79F77B1
:1059B0005F934F933F932F93E7D02F913F914F9158
:1059C0005F9152DF25C02BDFE0F09E37D8F096398B
:1059D000B8F49E3848F4672F782F8827985FF9CF5E
:1059E00086957795679593959539D0F3B62FB170D5
:1059F0006B0F711D811D20F48795779567959395A1
:105A000033C04DC027CF19F40EF0D9CE22CFDDCE52
:105A100006DFC8F39638C0F707F80F92E8942BE337
:105A20003AEA48EB5FE72EDF0F920F920F924DB7E5
:105A30005EB70F92E9D0E4EEF0E03FD04F915F9176
:105A4000EF91FF91E595EE1FFF1F49F0FE57E068CB
:105A50004427EE0F441FFA95E1F74195550B5BD0B3
:105A60000F9007FE4FC00895882371F4772321F02B
:105A70009850872B762F07C0662311F499270DC005
:105A80009051862B70E060E02AF09A95660F771FA0
:105A9000881FDAF7880F9695879597F908959F3FA5
:105AA00031F0915020F4879577956795B795880FD9
:105AB000911D9695879597F90895DF93CF931F933E
:105AC0000F93FF92EF92DF927B018C01689405C0E7
:105AD000DA2EEF01D5DEFE01E894A59125913591EE
