S0100000626C616E636865722E73726563D5
S1130000DBC00000FAC00000F8C00000F6C0000029
S1130010F4C00000F2C00000F0C00000EEC0000018
S1130020ECC00000EAC00000E8C00000E6C0000028
S11300300C94681A0C948227E0C00000DEC0000013
S1130040DCC000000C943A0FD8C00000D6C00000F9
S1130050D4C00000D2C00000D0C00000CEC0000058
S1130060CCC000000C94FC100C943511C6C00000E8
S1130070C4C000000C94F00DC0C00000BEC000005D
S11300800C94AA0FBAC00000B8C00000B6C00000AB
S11300900C9402120C943B12B0C00000AEC00000DD
S11300A0ACC00000AAC000000C941A10A6C0000046
S11300B0A4C00000A2C00000A0C000000C948A10DC
S11300C09CC000009AC0000098C000000C944D131E
S11300D00C94861392C000000C9495140C94CE14C6
S11300E08CC0000007634236B79BD8A71A396856FC
S11300F018AEBAAB558C1D3CB7CC5763BD6DEDFD46
S1130100753EF6177231BF000000803F0800000002
S1130110BE922449123EABAAAA2ABECDCCCC4C3EF8
S113012000000080BEABAAAAAA3E00000000BF00E7
S11301300000803F0000000000084178D3BB4387E3
S1130140D1133D190E3CC3BD4282AD2B3E68EC82F7
S113015076BED98FE1A93E4C80EFFFBE01C4FF7F7C
S11301603F0000000000C7E0DFE00DE11FE08091E8
S1130170060F8823D1F00FB6F8940F92ED81FE811B
S11301808681978102960E94C4188091050F815040
S11301908093050F8091060F81508093060F0F9076
S11301A00FBE8091060F8111E6CFF8018081823065
S11301B0F0F20E94A519DBCF11241FBECFEFD1E2CC
S11301C0DEBFCDBF00E00CBF14E0A0E0B2E0EAEC7B
S11301D0F6E500E00BBF02C007900D92A839B10705
S11301E0D9F72BE1A8E9B4E001C01D92A531B2070B
S11301F0E1F70E941F0D0C94632B02CF1092E10FC4
S113020011E0C0E0D0E001E09091E10F992379F191
S113021021960E945E1F1027812F0E94A20E802F1C
S11302200E94B20E80E00E94750E80E00E945D0E76
S11302300E94AC25CC3D25E0D20728F080E096D181
S113024080E00E94650E8FEF93EC29E0815090408E
S11302502040E1F700C00000809198048111D4CFC0
S11302608091E10F90E009D200939804CDCF83E010
S113027090E00E94A420C8CFDF92EF92FF920F93E8
S11302801F93CF93DF938C01EB010E9427182091D9
S1130290990430919A0440919B0450919C04241B2E
S11302A0350B820F931FC817D90738F480179107AD
S11302B020F481E080939E046AC08C179D0720F48B
S11302C082E080939E040CC00817190720F483E091
S11302D080939E045CC080919E04823009F04DC0DE
S11302E00F2EF3E0DF2EF02D6894EE24E1F8FF24C6
S11302F0F39439C00E9427182091990430919A04EC
S113030040919B0450919C04241B350B820F931F36
S11303108A3F2FEA920799F1C817D90730F480175A
S1130320910718F4F0929E040BC08C179D0718F4E3
S1130330E0929E0405C00817190710F4D0929E0499
S113034080919D04882329F00E94500E81110BC0D6
S113035018C00E94500E811116C00E94862581305B
S1130360A1F0F0929D0490919E04933019F60E949E
S1130370AC2510929D0480E00BC080E009C08CE0A5
S113038007C088E005C088E003C089E001C080E0C0
S1130390DF91CF911F910F91FF90EF90DF9008951F
S11303A005E117E120C082E092E00E94F4110E946E
S11303B07B17EC010E94CC17BE01681B790B8C0FD4
S11303C09D1F5ADF882359F098EF980F923018F444
S11303D01093E10F04C08C3011F40093E10F8CE012
S11303E090E00E94A4200E94F116892BE1F20F2EC6
S11303F0F5E1FF2EF02D0F2EF7E1EF2EF02D0E94E8
S11304009617EC010E94B1178C010E94E717909394
S11304109A04809399040E94021890939C048093F8
S11304209B040E9427182091990430919A044091CA
S11304309B0450919C04241B350B820F931F8A3F0D
S11304409F4AA9F0BE01601B710BC8018C0F9D1F50
S113045013DF882371F098EF980F923018F4E0922C
S1130460E10F07C08C3029F4F092E10F02C0F09242
S1130470E10F8CE090E00E94A420C1CF6093E20FD2
S11304807093E30F8093E40F9093E50F089540E198
S113049050E065E08EE392E001C00895E6EEFFE0EF
S11304A064835183408393838283CF010C94BA0E77
S11304B00895E091EB0FF091EC0F19950895E091F8
S11304C0ED0FF091EE0F19950895EF92FF920F93AF
S11304D01F93CF93DF937C018B01E4EFFFE0C5E032
S11304E0D0E0D183C08384E0848389E592E0938360
S11304F08283CF010E94BA0EEFEEFFE0D183C08366
S113050083E084838FE592E093838283CF010E940A
S1130510BA0EF092EC0FE092EB0F1093EE0F0093F3
S1130520ED0FDF91CF911F910F91FF90EF90089500
S113053061E081E00C947D0E089560E081E00C940C
S11305407D0E0895EFE9F4E081834283538364834D
S1130550758320838DE992E09187808788E992E012
S113056097838683BF0181E04DC70895811108C038
S113057045E050E060E070E281E00C94D20B089515
S1130580813031F441E050E060E070E20C94D20B31
S1130590089580E090E00C94A420089560E080E049
S11305A00C947D0E089561E080E00C947D0E089516
S11305B0EBEAF4E02083818342835383648375836D
S11305C083ED92E0978386838EEC92E09187808717
S11305D089EC92E093878287BF0180E013C7089576
S11305E0FF920F931F93CF93DF93F62EC72FD42F31
S11305F050E0BC0180E00E94B40B811113C0DD23E4
S113060081F00F2D1C2FC0E06C2F80E00E94700B36
S1130610F801819391938F01CF5FCD13F5CF80E0E3
S113062001C080E0DF91CF911F910F91FF90089559
S1130630EF92FF920F931F93CF93DF937C01D42FFC
S1130640442371F0062F172FC0E0F8014191519116
S11306508F016C2F80E00E94930BCF5FCD13F5CFF9
S11306604D2F50E0B70180E00E94160CDF91CF912E
S11306701F910F91FF90EF900895AC0160E080E02E
S11306800E94930B41E050E063E070E080E00C9442
S1130690F80B08957F928F929F92AF92BF92CF9260
S11306A0DF92EF92FF920F931F93CF93DF93CDB717
S11306B0DEB7DA950FB6F894DEBF0FBECDBFD62EE7
S11306C0811114C38091070789832FEF621306C039
S11306D08FE08A836894CC24C1F832C06A8381E0B5
S11306E06817B8F094E0961718F4A7E16A1311C0DC
S11306F080910007909101079B838C838091FE0673
S11307009091FF069D838E830F2EF6E0CF2EF02D61
S113071003C06894CC24C1F8B0E1BD1540F0EFE00B
S1130720DE1670F48BEF8D0D823000F509C0F6E112
S1130730DF16E0F027E12D1518F48FEFD81216C05C
S113074090917C0680917D06E1E0F0E0EC0FFD1FC6
S1130750EC0DF11D808381E08C0DE1E0F0E0EC0F05
S1130760FD1FE80FF11DC394C394908390E1D91643
S113077009F4ADC09D1558F0A6E0DA1661F1BFE0AA
S1130780DB1609F441C0E5E0DE121EC10DC0F7E13D
S1130790DF1609F49CC02FEFD21609F498C086E145
S11307A0D81609F4E1C010C190917A0680917B06B5
S11307B0E1E0F0E0EC0FFD1FEC0DF11D808381E022
S11307C08C0DE1E0F0E0EC0FFD1FE80FF11DC39488
S11307D0C3949083F9C0EAEFF5E080819181A1E0B0
S11307E0B0E0AC0FBD1FAC0DB11D9C9320813181D5
S11307F081E08C0DE1E0F0E0EC0FFD1FE80FF11D4E
S1130800C394C3942083E0C080917A0690917B06C0
S1130810E1E0F0E0EC0FFD1FEC0DF11D908332E000
S11308203C0D21E02C0DE1E0F0E0EC0FFD1FE20FA8
S1130830F11D8083AC0147705527452B49F09695EF
S11308408795969587959695879521E0280F07C0FB
S1130850969587959695879596958795282F93E0F5
S1130860C90EFE01E30FF11D2183222309F4ACC05C
S113087080E0982F917080FF03C0913099F023C0DD
S1130880E82FE695F0E0EE0FFF1FE650FA4F4081A7
S11308905181E1E0F0E0EC0FFD1FEC0DF11D408310
S11308A0C39411C0E82FE695F0E0EE0FFF1FE65069
S11308B0FA4F40815181E1E0F0E0EC0FFD1FEC0DB7
S11308C0F11D5083C3948F5F8213D3CF7DC0609199
S11308D07A0680917B06E1E0F0E0EC0FFD1FEC0D61
S11308E0F11D808381E08C0DE1E0F0E0EC0FFD1F51
S11308F0E80FF11D608373E07C0D82E08C0DE1E074
S1130900F0E0EC0FFD1FE80FF11D862F880F8083A8
S1130910662309F458C0862F880F8D5FC80E872F71
S113092020E030E091E0980FF901EE0FFF1FE65050
S1130930FA4F40815181A1E0B0E0AC0FBD1FA80F78
S1130940B11D5C938E5F40815181E1E0F0E0EC0FDA
S1130950FD1FE90FF11D40832F5F3F4F8C11E2CF44
S1130960660FC62EC70E30C0EAEFF5E08081918194
S1130970A1E0B0E0AC0FBD1FAC0DB11D9C93808114
S1130980918191E09C0DA1E0B0E0AC0FBD1FA90FD7
S1130990B11D8C938281938182E08C0DA1E0B0E043
S11309A0AC0FBD1FA80FB11D9C932281338183E03E
S11309B08C0DE1E0F0E0EC0FFD1FE80FF11DA4E069
S11309C0CA0E208301C0C72ECC20B9F08E010F5F60
S11309D01F4FEE24EA94EC0CF12CBFEFEB1AFB0A48
S11309E0E00EF11E8FEF9FEFF80161918F010E94DD
S11309F056270E151F05C1F702C08FEF9FEFEE2497
S1130A00E394EC0CE1E0F0E0EC0FFD1FEC0DF11DC4
S1130A108083C394C394E1E0F0E0EC0FFD1FEE0D7E
S1130A20F11D9083E1E0F0E0EC0FFD1FEC0DF11DF2
S1130A301082E091EB05F091EC0519958115914038
S1130A40C1F7E091F105F091F205309709F019959D
S1130A50CC20A1F08E010F5F1F4FF12C2FEFE21A73
S1130A60F20AE00EF11EE091ED05F091EE05D801D9
S1130A708D918D0119950E151F05A9F7E091E905D2
S1130A80F091EA051995EFE8F1E03197F1F700C02C
S1130A900000E091EF05F091F005309709F0199509
S1130AA00E9477274B015C0108E010E0ED2CF12C4B
S1130AB00F2EF3E0CF2EF02D0F2EF5E0DF2EF02DCC
S1130AC0E091E505F091E6051995892B91F07724DD
S1130AD07394710EE091EB05F091EC051995E1E04A
S1130AE0F0E0EC0FFD1FE10FF11D80830150172D85
S1130AF007C0E091F305F091F405309709F01995DA
S1130B00153059F5998180910707981318C48A8183
S1130B10282F2F7730E02E153F0509F012C48823C3
S1130B202CF48B81882309F43DC0D7C0813158F45B
S1130B308F3008F0F4C3813080F0853068F087305E
S1130B4008F4EDC30AC0873139F08F3F09F4E7C3D5
S1130B50863119F40D2DE4C30B810E947727DC0143
S1130B60CB0188199909AA09BB09893C9105A105FA
S1130B70B10508F427C48FE192E00E94F411011139
S1130B80E2C3912F82EE22EE2111A7C0953078F1B5
S1130B90C12ED12C7601F2E0EF1AF1081E141F04C5
S1130BA05CF0D6C30F2EF3E0EF2EF12CF02D0F2EB8
S1130BB0F5E0CF2ED12CF02D20E030E08FEF9FEF29
S1130BC000E0E1E0F0E0EC0FFD1FE20FF31F6081B5
S1130BD00E9456270F5F202F30E02E153F058CF31F
S1130BE0B9C3FE01EC0DFD1D80818913BCC38A814C
S1130BF0853028F4833030F4813050F46BC0873171
S1130C0009F068C03B81369509F040C080E065C0BA
S1130C107B81672F669509F4A8C3FE01359640E0F1
S1130C2050E090E001C0982F903470F4DF011197E8
S1130C302C91808130E0382BDA01AA0FBB1FA25817
S1130C40B94F11963C932E9381E0890F4F5F5F4F0C
S1130C503296861740F39093F50570FF3DC08034BB
S1130C6080F401C080E0282F30E0220F331FFE0102
S1130C70E20FF31F448150E0F901E258F94F518328
S1130C8040838F5F8093F50580E027C0FE01359691
S1130C9040E050E020E001C0282F203480F4DF0140
S1130CA011978C9190E0982F88276081862BDA0128
S1130CB0AA0FBB1FA258B94F11969C938E9381E043
S1130CC0820F4F5F5F4F3296831730F32093F50501
S1130CD080E003C080E001C080E01092F90510922A
S1130CE0F8051092F7051092F60578C3813009F0E3
S1130CF014C38091E00589832FEF621306C08FE04F
S1130D008A836894CC24C1F832C06A8381E068176E
S1130D10B8F094E0961718F4A7E16A1311C0809113
S1130D20D9059091DA059B838C838091D7059091A6
S1130D30D8059D838E830F2EF6E0CF2EF02D03C0B1
S1130D406894CC24C1F8B0E1BD1540F0EFE0DE16A4
S1130D5070F48BEF8D0D823000F509C0F6E1DF16DB
S1130D60E0F027E12D1518F48FEFD81216C09091FA
S1130D70550580915605E1E0F0E0EC0FFD1FEC0D08
S1130D80F11D808381E08C0DE1E0F0E0EC0FFD1FAC
S1130D90E80FF11DC394C394908390E1D91609F42C
S1130DA0ADC09D1558F0A6E0DA1661F1BFE0DB1680
S1130DB009F441C0E5E0DE121EC10DC0F7E1DF1603
S1130DC009F49CC02FEFD21609F498C086E1D81616
S1130DD009F4E1C010C19091530580915405E1E0FC
S1130DE0F0E0EC0FFD1FEC0DF11D808381E08C0D14
S1130DF0E1E0F0E0EC0FFD1FE80FF11DC394C39494
S1130E009083F9C0E3EDF4E080819181A1E0B0E04A
S1130E10AC0FBD1FAC0DB11D9C932081318181E0CD
S1130E208C0DE1E0F0E0EC0FFD1FE80FF11DC39421
S1130E30C3942083E0C08091530590915405E1E070
S1130E40F0E0EC0FFD1FEC0DF11D908322E02C0D62
S1130E5031E03C0DE1E0F0E0EC0FFD1FE30FF11D8C
S1130E608083AC0147705527452B49F096958795AB
S1130E70969587959695879591E0980F07C09695D6
S1130E8087959695879596958795982FA3E0CA0E92
S1130E90FE01E20FF11D9183992309F4ACC080E0B7
S1130EA0282F217080FF03C0213099F023C0E82F40
S1130EB0E695F0E0EE0FFF1FED52FB4F20813181EC
S1130EC0E1E0F0E0EC0FFD1FEC0DF11D2083C39475
S1130ED011C0E82FE695F0E0EE0FFF1FED52FB4F37
S1130EE020813181E1E0F0E0EC0FFD1FEC0DF11DFC
S1130EF03083C3948F5F8913D3CF7DC06091530532
S1130F0080915405E1E0F0E0EC0FFD1FEC0DF11DC4
S1130F10808381E08C0DE1E0F0E0EC0FFD1FE80F31
S1130F20F11D608373E07C0D82E08C0DE1E0F0E064
S1130F30EC0FFD1FE80FF11D862F880F80836623B9
S1130F4009F458C0862F880F8D5FC80E872F20E0C4
S1130F5030E091E0980FF901EE0FFF1FED52FB4FC7
S1130F6040815181A1E0B0E0AC0FBD1FA80FB11DBD
S1130F705C938E5F40815181E1E0F0E0EC0FFD1F56
S1130F80E90FF11D40832F5F3F4F8C11E2CF660FB5
S1130F90C62EC70E30C0E3EDF4E080819181A1E05C
S1130FA0B0E0AC0FBD1FAC0DB11D9C93808191814D
S1130FB091E09C0DA1E0B0E0AC0FBD1FA90FB11DE5
S1130FC08C938281938182E08C0DA1E0B0E0AC0F20
S1130FD0BD1FA80FB11D9C932281338183E08C0D2A
S1130FE0E1E0F0E0EC0FFD1FE80FF11DB4E0CB0EE3
S1130FF0208301C0C72ECC20B9F08E010F5F1F4F94
S1131000EE24EA94EC0CF12CEFEFEE1AFE0AE00E5B
S1131010F11E8FEF9FEFD8016D918D010E9456272D
S11310200E151F05C1F702C08FEF9FEFEE24E39466
S1131030EC0CE1E0F0E0EC0FFD1FEC0DF11D808302
S1131040C394C394E1E0F0E0EC0FFD1FEE0DF11D3D
S11310509083E1E0F0E0EC0FFD1FEC0DF11D108238
S1131060E091C404F091C504199581159140C1F72C
S1131070E091CA04F091CB04309709F01995CC2083
S1131080A1F08E010F5F1F4FF12CEFEFEE1AFE0A55
S1131090E00EF11EE091C604F091C704D8018D91D1
S11310A08D0119950E151F05A9F7E091BA04F09169
S11310B0BB041995E7E0F7E03197F1F700C00000B1
S11310C0E091C804F091C904309709F019950E9481
S11310D077274B015C0108E010E0ED2CF12C0F2E7A
S11310E0F3E0CF2EF02D0F2EF5E0DF2EF02DE09162
S11310F0BC04F091BD041995892B91F07724739465
S1131100710EE091C404F091C5041995E1E0F0E09A
S1131110EC0FFD1FE10FF11D80830150172D07C057
S1131120E091CC04F091CD04309709F01995153075
S113113059F599818091E00598132BC18A81282F54
S11311402F7730E02E153F0509F025C188232CF4B4
S11311508B81882309F43DC0D7C0813158F48F3086
S113116008F007C1813080F0853068F0873008F4DA
S113117000C10AC0873139F08F3F09F4FAC08631C3
S113118019F40D2DF7C00B810E947727DC01CB01E8
S113119088199909AA09BB09893C9105A105B105DA
S11311A008F416C188E392E00E94F4110111F5C01D
S11311B0212F82EE92EE9111A7C0253078F1C12E35
S11311C0D12C7601F2E0EF1AF1081E141F045CF032
S11311D0E8C00F2EF3E0EF2EF12CF02D0F2EF5E0EA
S11311E0CF2ED12CF02D20E030E08FEF9FEF00E0E8
S11311F0E1E0F0E0EC0FFD1FE20FF31F60810E94BD
S113120056270F5F202F30E02E153F058CF3CBC0FF
S1131210FE01EC0DFD1D80818913CEC08A818530CD
S113122028F4833030F4813050F46BC0873109F0F6
S113123068C09B81969509F040C080E065C06B81D1
S1131240762F769509F4BAC0FE01359620E030E099
S113125090E001C0982F903470F4DF0111974C9105
S1131260808150E0582BD901AA0FBB1FA95ABA4F4D
S113127011965C934E9381E0890F2F5F3F4F329616
S1131280871740F39093CE0460FF3DC0803480F410
S113129001C080E0282F30E0220F331FFE01E20F4F
S11312A0F31F448150E0F901E95AFA4F5183408316
S11312B08F5F8093CE0480E027C0FE01359640E026
S11312C050E080E001C0822F803480F4DF01119768
S11312D02C9130E0322F22276081262BDA01AA0FCD
S11312E0BB1FA95ABA4F11963C932E9321E0280FA5
S11312F04F5F5F4F3296291730F38093CE0480E01E
S113130003C080E001C080E01092D2041092D104A6
S11313101092D0041092CF0461C084EE5FC00C2DF3
S11313200E947727DC01CB0188199909AA09BB0916
S1131330893C9105A105B10508F4C2CB1CCC80EE13
S113134003C081EE01C082EE882309F450CCC5CCE1
S11313508FEF9FEFFE01EE0DFF1D2181281709F489
S113136040CC83EEBACC83EEB8CC70FD7BCC80E06D
S1131370B4CC0C2D0E947727DC01CB018819990984
S1131380AA09BB09893C9105A105B10508F4AFCEB2
S113139009CF80EE03C081EE01C082EE8111B4CF8B
S11313A03DCF8FEF9FEFFE01EE0DFF1D218128172A
S11313B009F42ECF83EEA8CF83EEA6CF60FD69CFCC
S11313C080E0A2CF01117CCB912F80E020E0DCCB28
S11313D001118DCE212F80E090E0EDCED3950FB694
S11313E0F894DEBF0FBECDBFDF91CF911F910F9157
S11313F0FF90EF90DF90CF90BF90AF909F908F9031
S11314007F900895FB018111D1C0808180930707EB
S11314108181809306074281538164817581409361
S1131420020750930307609304077093050726810E
S113143037813093F2052093F1052085318530936F
S1131440F0052093EF05228533853093F40520932E
S1131450F3051092F6051092F5058130B1F58091EF
S1131460B90481113CC181E08093B904CB01BA0174
S11314700E9470128AE393E19093E6058093E50558
S113148085EE92E19093E8058093E70588E493E183
S11314909093EA058093E9058BE193E19093E40549
S11314A08093E30585EC92E19093EC058093EB0542
S11314B082E093E19093EE058093ED0589E293E158
S11314C09093E2058093E10508958230B1F580910F
S11314D0B804811104C181E08093B804CB01BA013E
S11314E00E94BB1382E894E19093E6058093E5059E
S11314F08DE294E19093E8058093E70580E994E117
S11315009093EA058093E90583E694E19093E405DA
S11315108093E30580E194E19093EC058093EB05DF
S11315208AE494E19093EE058093ED0581E794E1DC
S11315309093E2058093E1050895833009F0CFC0CC
S11315408091B7048111CBC081E08093B704CB01B3
S1131550BA010E9403158AEC95E19093E605809305
S1131560E50585E795E19093E8058093E70588ED27
S113157095E19093EA058093E9058BEA95E19093D0
S1131580E4058093E30588E595E19093EC05809369
S1131590EB0582E995E19093EE058093ED0589EBE7
S11315A095E19093E2058093E1050895813009F077
S11315B096C080818093E00581818093DF0542811C
S11315C05381648175814093DB055093DC056093FE
S11315D0DD057093DE05268137813093CB0420939B
S11315E0CA04208531853093C9042093C804228518
S11315F033853093CD042093CC041092CF04109201
S1131600CE048130A9F58091B904811168C081E0CC
S11316108093B904CB01BA0163D78AE393E1909331
S1131620BD048093BC0485EE92E19093C30480933F
S1131630C20488E493E19093BB048093BA048BE1E1
S113164093E19093C1048093C00485EC92E190935C
S1131650C5048093C40482E093E19093C70480930B
S1131660C60489E293E19093BF048093BE04089575
S11316708230A9F58091B804811131C081E0809352
S1131680B804CB01BA010E94BB1382E894E19093A1
S1131690BD048093BC048DE294E19093C3048093D1
S11316A0C20480E994E19093BB048093BA0483E676
S11316B094E19093C1048093C00480E194E19093F9
S11316C0C5048093C4048AE494E19093C70480938E
S11316D0C60481E794E19093BF048093BE04089507
S11316E081110BC06034B0F4E62FF0E0EE0FFF1F61
S11316F0E258F94F808191810895813071F460340A
S113170078F4E62FF0E0EE0FFF1FE95AFA4F8081DC
S1131710918108958FEF9FEF08958FEF9FEF0895C4
S11317208FEF9FEF089581110BC06034B8F4E62F5A
S1131730F0E0EE0FFF1FE650FA4F51834083089507
S1131740813071F4603470F4E62FF0E0EE0FFF1F87
S1131750ED52FB4F5183408380E0089582E0089569
S113176082E0089582E0089581110CC0709301070E
S1131770609300075093FF064093FE0663E00C94C9
S11317804A030895813061F47093DA056093D905B2
S11317905093D8054093D70563E00C944A03089509
S11317A084EE0895811110C070937D0660937C06C9
S11317B010927B0610927A065093FB054093FA052B
S11317C066E00C944A030895813081F470935605C1
S11317D06093550510925405109253055093D40408
S11317E04093D30466E00C944A03089584EE08956C
S11317F081110CC070937D0660937C0650937B0628
S113180040937A066FEF0C944A030895813061F493
S113181070935605609355055093540540935305B2
S11318206FEF0C944A03089584EE089581110CC05F
S113183070937D0660937C0650937B0640937A06F2
S113184060E10C944A030895813061F47093560565
S113185060935505509354054093530560E10C94EF
S11318604A03089584EE089589C10895CF92DF92C2
S1131870EF92FF92CF93CFE0C12CD12C7601A0D16F
S1131880BC0180E090E00E94A0289B01AC01C7014C
S1131890B6010E94A8276B017C0180E090E00E94C1
S11318A0A420C15061F720E030E040E751E4C701D3
S11318B0B6010E940C282BED39EF4EE150E40E9452
S11318C02E2920E030E040E85AE30E942E2920E04F
S11318D030E04AE754E40E942E2923E039E042EF45
S11318E050E40E940C2820E030E048EC52E40E94CE
S11318F00C289B01AC0160E070E080E89FE30E944B
S1131900A72723E233EE4AE156EB0E942E299B01DE
S1131910AC0166E672E280E897E30E94A72720E024
S113192030E040E05FE30E94912922E331E140E8A6
S11319305BE30E94A72723E233EE4AE955EB0E94BA
S11319400C280E94DD290E947428CB01CF91FF90BE
S1131950EF90DF90CF90089581E592E045D585E141
S11319608093E10F089589E692E03EC5089587E8E3
S113197092E03AC5089588EB92E036C5089567EB86
S11319807CE08BEB9CE00E94BE2583EB9CE00E94F4
S113199086268CEA9CE00C941327089581E0D2D12A
S11319A08FE090E00E94A42080E0CCD18FE090E012
S11319B00E94A420F3CFCF93DF931F92CDB7DEB75D
S11319C0198288EE92E010D5CE0101960E94FE00A5
S11319D082E190E00E94A420FBCFCF93DF931F927B
S11319E0CDB7DEB7198285EF92E0FED4CE01019621
S11319F00E9418270F90DF91CF910895CF93DF9322
S1131A001F92CDB7DEB71982CE0101960E94C72579
S1131A108AEF90E00E94A420FBCFCF93DF931F9224
S1131A20CDB7DEB7198283E093E0DED4CE01019610
S1131A300E94D0018CE090E00E94A420FBCFCF92C2
S1131A40DF92EF92FF920F938FEF8DB960E875E20A
S1131A5080E090E03FD40E94372784E193E0C4D42F
S1131A600F2EF3E2CF2EF0E1DF2EF02D0F2EF6E74E
S1131A70EF2EF2E1FF2EF02D02E020E030E044EF03
S1131A8051E06CE173E08DE09DE00E94181E90939C
S1131A901107809310070F2EFDE4CF2EF0E1DF2E07
S1131AA0F02D0F2EF8E8EF2EF6E1FF2EF02D20E0BA
S1131AB030E044EF51E062E273E08EEF9CE00E947C
S1131AC0181E90930F0780930E070F2EFAE6CF2E61
S1131AD0F4E1DF2EF02D0F2EF3E8EF2EF8E1FF2EC8
S1131AE0F02D20E030E044EF51E068E273E08DEE49
S1131AF09CE00E94181E90930D0780930C070F2EF4
S1131B00F9EFCF2EFFE0DF2EF02D0F2EF2E8EF2EAF
S1131B10F0E1FF2EF02D20E030E044EF51E06EE2E2
S1131B2073E08BED9CE00E94181E90930B0780934A
S1131B300A070F2EF7E7CF2EFAE1DF2EF02D0F2E36
S1131B40F4E9EF2EF4E1FF2EF02D05E020E030E083
S1131B5044EF51E064E373E08EEC9CE00E94181EB5
S1131B6090930907809308070E94121F80E090E079
S1131B700F91FF90EF90DF90CF90089590B321E004
S1131B8030E0082E02C0220F331F0A94E2F720959A
S1131B90292320BBECE7F0E090819F709083908133
S1131BA0907F90838F70982B90838FE880937A0036
S1131BB078940895EAE7F0E0808180648083089552
S1131BC0F9DF1092140780EC92E10197F1F780910C
S1131BD015079091160790931307809312070895A1
S1131BE01F920F920FB60F9211242F938F939F93EE
S1131BF0809178002091790090E0922B90931607C1
S1131C008093150781E0809314079F918F912F9102
S1131C100F900FBE0F901F901895EAE0F1E08081BD
S1131C208F7E808380818F7D808380818F7B808382
S1131C3080818F7780833C983D983A988081877F14
S1131C408083099A0A9AE7E0F1E0808180648083C6
S1131C500E9A0E9A8081806280838081806880835E
S1131C603898089A0B9AE4E0F1E0808184608083DC
S1131C70549A0E9A3F9A8081806480830F9AE1E09F
S1131C80F1E080818E7F8083808182608083E2E0C6
S1131C90F1E08081816080835298539A5A9A089522
S1131CA086B182FB882780F90895813011F4169A51
S1131CB00895811101C016980895813011F4159A80
S1131CC00895811101C015980895813031F4E8E038
S1131CD0F1E08081806880830895811105C0E8E087
S1131CE0F1E080818F7780830895813011F4139A15
S1131CF00895811101C013980895882319F0813043
S1131D0089F00895613031F4E5E0F1E08081846088
S1131D108083089561110DC0E5E0F1E080818B7F3F
S1131D2080830895613011F45C9A0895611101C0B3
S1131D305C980895813011F4169A0895811101C0B8
S1131D4016980895813031F4E5E0F1E080818064F3
S1131D5080830895811105C0E5E0F1E080818F7BE7
S1131D6080830895813011F4179A0895811101C078
S1131D7017980895FC0194819130C1F456985E9AA5
S1131D80109280008EE08093810080819181019780
S1131D909093890080938800AFE6B0E08C918260D4
S1131DA08C93F093A61AE093A51A5FC09330C1F404
S1131DB06E98769A109290008EE0809391008081C4
S1131DC0918101979093990080939800A1E7B0E0E6
S1131DD08C9182608C93F093A21AE093A11A45C06F
S1131DE0943001F5A1E0B1E08C918F778C93A2E05F
S1131DF0B1E08C9180688C931092A0008EE0809367
S1131E00A1008081918101979093A9008093A800FB
S1131E10A2E7B0E08C9182608C93F093A41AE093D3
S1131E20A31A23C0953021F5AAE0B1E08C918B7FF1
S1131E308C93ABE0B1E08C9184608C931092200180
S1131E408EE08093210180819181019790932901F3
S1131E5080932801A3E7B0E08C9182608C93F09387
S1131E60A81AE093A71A10922401789481E00895A7
S1131E708FEF08951F920F920FB60F9211240BB695
S1131E800F922F933F934F935F936F937F938F930F
S1131E909F93AF93BF93EF93FF93CF93DF9300D0C0
S1131EA01F92CDB7DEB70E947727609333077093F4
S1131EB034078093350790933607809133079091C8
S1131EC03407A0913507B091360740912F07509100
S1131ED030076091310770913207841B950BA60B74
S1131EE0B70B89839A83AB83BC838091330790912A
S1131EF03407A0913507B091360780932F0790934C
S1131F003007A0933107B093320769817A818B81BE
S1131F109C81E091A51AF091A61A0280F381E02D2C
S1131F2019950F900F900F900F90DF91CF91FF9123
S1131F30EF91BF91AF919F918F917F916F915F913D
S1131F404F913F912F910F900BBE0F900FBE0F90AA
S1131F501F9018951F920F920FB60F9211240BB673
S1131F600F922F933F934F935F936F937F938F932E
S1131F709F93AF93BF93EF93FF93CF93DF9300D0DF
S1131F801F92CDB7DEB70E94772760932B0770931B
S1131F902C0780932D0790932E0780912B07909107
S1131FA02C07A0912D07B0912E074091270750913F
S1131FB028076091290770912A07841B950BA60BAB
S1131FC0B70B89839A83AB83BC8380912B07909151
S1131FD02C07A0912D07B0912E078093270790938B
S1131FE02807A0932907B0932A0769817A818B81F6
S1131FF09C81E091A11AF091A21A0280F381E02D54
S113200019950F900F900F900F90DF91CF91FF9142
S1132010EF91BF91AF919F918F917F916F915F915C
S11320204F913F912F910F900BBE0F900FBE0F90C9
S11320301F9018951F920F920FB60F9211240BB692
S11320400F922F933F934F935F936F937F938F934D
S11320509F93AF93BF93EF93FF93CF93DF9300D0FE
S11320601F92CDB7DEB70E94772760932307709342
S11320702407809325079093260780912307909146
S11320802407A0912507B091260740911F0750917E
S113209020076091210770912207841B950BA60BE2
S11320A0B70B89839A83AB83BC8380912307909178
S11320B02407A0912507B091260780931F079093CA
S11320C02007A0932107B093220769817A818B812D
S11320D09C81E091A31AF091A41A0280F381E02D6F
S11320E019950F900F900F900F90DF91CF91FF9162
S11320F0EF91BF91AF919F918F917F916F915F917C
S11321004F913F912F910F900BBE0F900FBE0F90E8
S11321101F9018951F920F920FB60F9211240BB6B1
S11321200F922F933F934F935F936F937F938F936C
S11321309F93AF93BF93EF93FF93CF93DF9300D01D
S11321401F92CDB7DEB70E94772760931B07709369
S11321501C0780931D0790931E0780911B07909185
S11321601C07A0911D07B0911E07409117075091BD
S113217018076091190770911A07841B950BA60B19
S1132180B70B89839A83AB83BC8380911B0790919F
S11321901C07A0911D07B0911E0780931707909309
S11321A01807A0931907B0931A07109224016981A4
S11321B07A818B819C81E091A71AF091A81A028000
S11321C0F381E02D19950F900F900F900F90DF91F0
S11321D0CF91FF91EF91BF91AF919F918F917F919B
S11321E06F915F914F913F912F910F900BBE0F9084
S11321F00FBE0F901F9018951F920F920FB60F925B
S113220011240BB60F922F933F934F935F938F93A9
S11322109F93EF93FF932091C0003091C6002871E3
S113222080914C0A90E001968F77992740914B0A50
S113223050E04817590739F080934C0AFC01E15BE0
S1132240F54F308301C022E020934A0AFF91EF91B9
S11322509F918F915F914F913F912F910F900BBE62
S11322600F900FBE0F901F9018951F920F920FB6EC
S11322700F9211240BB60F928F939F93EF93FF93BA
S113228090914E0A80914D0A981789F080914D0AD9
S113229090E001968F77992780934D0AFC01E153D2
S11322A0F54F80818093C60010923A0708C0E1EC94
S11322B0F0E080818F7D808381E080933A07FF91F5
S11322C0EF919F918F910F900BBE0F900FBE0F90C7
S11322D01F9018950F931F938B019C01F8941092F3
S11322E04E0A10924D0A10924C0A10924B0A78949E
S11322F0DC01CB0180589B47A14EBF4F880F991F2B
S1132300AA1FBB1F880F991FAA1FBB1FBC01CD01A9
S1132310660F771F881F991F000F111F221F331F7D
S1132320000F111F221F331FA9019801220F331F11
S1132330441F551F220F331F441F551F0E94312B6A
S1132340BA01A901415051096109710957FF06C039
S113235082E08093C0005F7766277727BB27A72F8B
S1132360962F852F8093C5004093C40088E98093FD
S1132370C10086E08093C2001F910F91089540919F
S11323804E0A50E04F5F5F4F4F77552720914D0A1B
S113239030E024173507D1F3FA01E153F54F808378
S11323A040934E0AE1ECF0E08081806280830895DE
S11323B00F931F93CF93DF936A30710581059105C5
S11323C058F02AE030E040E050E00E94312B062F24
S11323D0CA01B901EDDF602F80E3860FD0DFDF9102
S11323E0CF911F910F910895CF93DF93EC018881D2
S11323F0882329F02196C3DF89918111FCCFDF91D5
S1132400CF9108951F920F920FB60F9211240BB61D
S11324100F922F933F934F935F938F939F93EF93D9
S1132420FF932091C8003091CE0028718091470914
S113243090E001968F7799274091460950E048171C
S1132440590739F080934709FC01E65BF64F308366
S113245001C022E020934509FF91EF919F918F9154
S11324605F914F913F912F910F900BBE0F900FBE34
S11324700F901F9018951F920F920FB60F92112470
S11324800BB60F928F939F93EF93FF93909149090B
S113249080914809981789F08091480990E0019645
S11324A08F77992780934809FC01E653F64F808182
S11324B08093CE001092390708C0E9ECF0E08081E7
S11324C08F7D808381E080933907FF91EF919F9105
S11324D08F910F900BBE0F900FBE0F901F90189509
S11324E00F931F938B019C01F89410924909109249
S11324F0480910924709109246097894DC01CB01EF
S113250080589B47A14EBF4F880F991FAA1FBB1F1E
S1132510880F991FAA1FBB1FBC01CD01660F771F2F
S1132520881F991F000F111F221F331F000F111F37
S1132530221F331FA9019801220F331F441F551F67
S1132540220F331F441F551F0E94312BBA01A901CA
S1132550415051096109710957FF06C082E0809317
S1132560C8005F7766277727BB27A72F962F852F6D
S11325708093CD004093CC0088E98093C90086E025
S11325808093CA001F910F910895F8949091470980
S113259080914609981304C0789480E091E00895EE
S11325A08091460990E001968F7799278093460998
S11325B07894FC01E65BF64F20818091450990E018
S11325C0982F8827820F911D0895F89490914709B8
S11325D080914609981304C0789480E091E00895AE
S11325E07894E0914609F0E03196EF77FF27E65BB7
S11325F0F64F20818091450990E0982F8827820F1B
S1132600911D08954091490950E04F5F5F4F4F7706
S113261055272091480930E024173507D1F3FA01F2
S1132620E653F64F808340934909E9ECF0E080815A
S1132630806280830895CF93DF93EC01888188239F
S113264029F02196DFDF89918111FCCFDF91CF91B1
S11326500895CF93DF93EC012196FC0184918823A4
S113266031F0D0DFFE01849121968111FACFDF9100
S1132670CF910895F8948091470920914609789460
S113268090E080589F4F821B91098F779927089576
S1132690809139078823E1F308951F920F920FB6B2
S11326A00F9211240BB60F922F933F934F935F9386
S11326B08F939F93EF93FF932091D0003091D60096
S11326C028718091420890E001968F779927409174
S11326D0410850E04817590739F080934208FC013B
S11326E0EB5BF74F308301C022E020934008FF9159
S11326F0EF919F918F915F914F913F912F910F9007
S11327000BBE0F900FBE0F901F9018951F920F9243
S11327100FB60F9211240BB60F928F939F93EF93E2
S1132720FF939091440880914308981789F0809111
S1132730430890E001968F77992780934308FC0122
S1132740EB53F74F80818093D6001092380708C06E
S1132750E1EDF0E080818F7D808381E08093380714
S1132760FF91EF919F918F910F900BBE0F900FBE31
S11327700F901F9018950F931F938B019C01F89451
S11327801092440810924308109242081092410893
S11327907894DC01CB0180589B47A14EBF4F880F32
S11327A0991FAA1FBB1F880F991FAA1FBB1FBC011B
S11327B0CD01660F771F881F991F000F111F221F5D
S11327C0331F000F111F221F331FA9019801220F6D
S11327D0331F441F551F220F331F441F551F0E94D0
S11327E0312BBA01A901415051096109710957FFFF
S11327F006C082E08093D0005F7766277727BB27E7
S1132800A72F962F852F8093D5004093D40088E975
S11328108093D10086E08093D2001F910F91089598
S113282090914208809141089817A1F08091410845
S113283090E001968F77992780934108FC01EB5B28
S1132840F74F20818091400890E0982F8827820FCD
S1132850911D089580E091E00895F89490914208C4
S113286080914108981304C0789480E091E0089521
S11328707894E0914108F0E03196EF77FF27EB5B25
S1132880F74F20818091400890E0982F8827820F8D
S1132890911D08954091440850E04F5F5F4F4F777A
S11328A055272091430830E024173507D1F3FA0166
S11328B0EB53F74F808340934408E1EDF0E08081CF
S11328C0806280830895CF93DF93EC01888188230D
S11328D029F02196DFDF89918111FCCFDF91CF911F
S11328E00895CF93DF93EC012196FC018491882312
S11328F031F0D0DFFE01849121968111FACFDF916E
S1132900CF910895F89480914208209141087894D9
S113291090E080589F4F821B91098F7799270895E3
S1132920809138078823E1F308951F920F920FB620
S11329300F9211240BB60F922F933F934F935F93F3
S11329408F939F93EF93FF93209130013091360141
S1132950287180913D0790E001968F7799274091E7
S11329603C0750E04817590739F080933D07FC01B4
S1132970E05CF84F308301C022E020933B07FF91D5
S1132980EF919F918F915F914F913F912F910F9074
S11329900BBE0F900FBE0F901F9018951F920F92B1
S11329A00FB60F9211240BB60F928F939F93EF9350
S11329B0FF9390913F0780913E07981789F080918B
S11329C03E0790E001968F77992780933E07FC019C
S11329D0E054F84F8081809336011092370708C085
S11329E0E1E3F1E080818F7D808381E0809337078C
S11329F0FF91EF919F918F910F900BBE0F900FBE9F
S1132A000F901F9018950F931F938B019C01F894BE
S1132A1010923F0710923E0710923D0710923C0718
S1132A207894DC01CB0180589B47A14EBF4F880F9F
S1132A30991FAA1FBB1F880F991FAA1FBB1FBC0188
S1132A40CD01660F771F881F991F000F111F221FCA
S1132A50331F000F111F221F331FA9019801220FDA
S1132A60331F441F551F220F331F441F551F0E943D
S1132A70312BBA01A901415051096109710957FF6C
S1132A8006C082E0809330015F7766277727BB27F3
S1132A90A72F962F852F809335014093340188E921
S1132AA08093310186E0809332011F910F91089544
S1132AB090913D0780913C079817A1F080913C07C5
S1132AC090E001968F77992780933C07FC01E05CA6
S1132AD0F84F208180913B0790E0982F8827820F40
S1132AE0911D089580E091E00895F89490913D0738
S1132AF080913C07981304C0789480E091E0089595
S1132B007894E0913C07F0E03196EF77FF27E05CA2
S1132B10F84F208180913B0790E0982F8827820FFF
S1132B20911D089540913F0750E04F5F5F4F4F77ED
S1132B30552720913E0730E024173507D1F3FA01D9
S1132B40E054F84F808340933F07E1E3F1E0808154
S1132B50806280830895CF93DF93EC01888188237A
S1132B6029F02196DFDF89918111FCCFDF91CF918C
S1132B700895CF93DF93EC012196FC01849188237F
S1132B8031F0D0DFFE01849121968111FACFDF91DB
S1132B90CF910895F89480913D0720913C07789453
S1132BA090E080589F4F821B91098F779927089551
S1132BB0809137078823E1F30895089580914F0B9E
S1132BC09091500B08950F9303E022E03CE040E025
S1132BD050E060E081E08ED59093220C8093210C2C
S1132BE02FED3BE040E050E060E081E083D590933E
S1132BF0FF0B8093FE0B2CEB3BE040E050E060E0E9
S1132C0081E078D59093DC0B8093DB0B29E93BE0E2
S1132C1040E050E060E081E06DD59093B90B809383
S1132C20B80B26E73BE040E050E060E081E062D58D
S1132C309093960B8093950B23E53BE040E050E0A6
S1132C4060E081E057D59093730B8093720B0F91E2
S1132C5008959093010C8093000C20E040E050E034
S1132C6060E070E08091210C9091220C58C5089589
S1132C709093DE0B8093DD0B20E040E050E060E0B9
S1132C8070E08091FE0B9091FF0B49C508959093DD
S1132C90BB0B8093BA0B20E040E050E060E070E0B2
S1132CA08091DB0B9091DC0B3AC508959093980BBF
S1132CB08093970B20E040E050E060E070E080916A
S1132CC0B80B9091B90B2BC508959093750B809315
S1132CD0740B20E040E050E060E070E08091950BE0
S1132CE09091960B1CC508959093520B8093510BB1
S1132CF020E040E050E060E070E08091720B909141
S1132D00730B0DC508950F9303E024E43CE040E009
S1132D1050E060E081E0EED49093640C8093630C07
S1132D2023E23CE040E050E060E081E0E3D49093B3
S1132D30430C8093420C0F9108953FDF44DF03D08E
S1132D40E2DF79C008950F9303E020ED3CE040E01A
S1132D5050E060E081E0CED49093F00C8093EF0CCF
S1132D602DEA3CE040E050E060E081E0C3D4909381
S1132D70CD0C8093CC0C2AE83CE040E050E060E0CD
S1132D8081E0B8D49093AA0C8093A90C27E63CE088
S1132D9040E050E060E081E0ADD49093870C8093F4
S1132DA0860C0F9108959093CF0C8093CE0C20E065
S1132DB040E050E060E070E08091EF0C9091F00C06
S1132DC0AEC408959093AC0C8093AB0C20E040E02B
S1132DD050E060E070E08091CC0C9091CD0C9FC4E9
S1132DE008956FEF7FEF8091CC0C9091CD0CEAD5D4
S1132DF08091AB0C9091AC0C08959093890C8093C6
S1132E00880C20E040E050E060E070E08091A90C84
S1132E109091AA0C84C408959093660C8093650CD9
S1132E2020E040E050E060E070E08091860C9091FA
S1132E30870C75C408950F9303E027EC3DE040E050
S1132E4050E060E081E056D49093E70D8093E60D66
S1132E5024EA3DE040E050E060E081E04BD4909310
S1132E60C40D8093C30D21E83DE040E050E060E0F4
S1132E7081E040D49093A10D8093A00D2EE53DE018
S1132E8040E050E060E081E035D490937E0D809383
S1132E907D0D2BE33DE040E050E060E081E02AD48A
S1132EA090935B0D80935A0D28E13DE040E050E0A3
S1132EB060E081E01FD49093380D8093370D25EFA7
S1132EC03CE040E050E060E081E014D49093150DC4
S1132ED08093140D0F9108959093C60D8093C50DA2
S1132EE020E040E050E060E070E08091E60D9091D9
S1132EF0E70D15C408956FEF7FEF8091E60D909173
S1132F00E70D60D58091C50D9091C60D08959093FD
S1132F10A30D8093A20D20E040E050E060E070E05B
S1132F208091C30D9091C40DFAC308956FEF7FEFA4
S1132F308091C30D9091C40D45D58091A20D9091BF
S1132F40A30D08959093800D80937F0D20E040E0C1
S1132F5050E060E070E08091A00D9091A10DDFC37E
S1132F6008956FEF7FEF8091A00D9091A10D2AD568
S1132F7080917F0D9091800D089590935D0D8093C5
S1132F805C0D20E040E050E060E070E080917D0D59
S1132F9090917E0DC4C308956FEF7FEF80917D0DF6
S1132FA090917E0D0FD580915C0D90915D0D0895EB
S1132FB090933A0D8093390D20E040E050E060E0BA
S1132FC070E080915A0D90915B0DA9C308956FEF45
S1132FD07FEF80915A0D90915B0DF4D48091390D5F
S1132FE090913A0D08959093170D8093160D20E05B
S1132FF040E050E060E070E08091370D9091380D32
S11330008EC308956FEF7FEF8091370D9091380D47
S1133010D9D48091160D9091170D08959093F20CC8
S11330208093F10C08958091F10C9091F20C089525
S11330309093F40C8093F30C20E040E050E060E0C7
S113304070E08091140D9091150D69C308956FEF90
S11330507FEF8091140D9091150DB4D48091F30CF1
S11330609091F40C0895279A2F9A2FEF87EA91E60E
S1133070215080409040E1F700C000001F9AF5CF36
S11330802CEB3EE0FC013183208387E69EE0FB01CC
S11330909183808385E590E0FA019183808308958C
S11330A02DE33EE0FC013183208388EE9DE0FB01AB
S11330B09183808385E590E0FA019183808308956C
S11330C0FC010396928381832FEF3FEF34832383A4
S11330D0968385839087878310820895FC011186E7
S11330E010860895CF93DF939C01FB01DC011196B8
S11330F0CD91DC911297D383C2838C819D8195837A
S113310084838C819D81DC0113967C936E9312974A
S11331107D836C8331872087F90180818F5F808371
S1133120DF91CF910895CF93DF93EB0148815981CB
S11331304F3F2FEF520721F4FC01A781B0850DC04A
S1133140DC01139601C0DF011296ED91FC911397F7
S11331502081318142175307B0F71296ED91FC910B
S11331601397FB83EA83D583C483BD83AC8313960F
S1133170DC93CE93129799878887FC0120812F5F77
S11331802083DF91CF910895CF93DF93FC01A08535
S1133190B185C281D381848195819D838C83C481CF
S11331A0D581828193819B838A831196CD91DC9111
S11331B01297CE17DF0731F48C819D8112969C9370
S11331C08E931197118610868C9181508C938C91DB
S11331D0DF91CF91089531E1FC013083319722E2F0
S11331E020833197A3E3A083319760833197708361
S11331F03197108231971082319760E8608331975C
S113320010823197108231971082319762E0608387
S1133210319763E06083319764E06083319765E0C0
S11332206083319766E06083319767E0608331970C
S113323068E06083319769E06083319760E160837F
S113324031973083319732E13083319733E13083E2
S1133250319734E13083319735E13083319736E16A
S11332603083319737E13083319738E130833197B8
S113327039E13083319730E23083319731E2308362
S113328031972083319723E220833197408331970C
S11332905083319726E22083319727E220833197A8
S11332A028E22083319729E22083319720E3208389
S11332B0319721E3208389970895A89590EC88E1BC
S11332C00FB6F894A895809360000FBE90936000A9
S11332D0A091410FB091420FCD91CDBFDD91DEBFE2
S11332E0FF91EF91DF91CF91BF91AF919F918F911A
S11332F07F916F915F914F913F912F911F910F910A
S1133300FF90EF90DF90CF90BF90AF909F908F9001
S11333107F906F905F904F903F902F901F900F90F1
S11333200CBE0F900BBE0F900FBE0F90089581E05E
S113333008950FB6F894A8958091600088618093F1
S11333406000109260000FBE08950F920FB6F894BB
S11333500F920BB60F920CB60F921F9211242F925C
S11333603F924F925F926F927F928F929F92AF9211
S1133370BF92CF92DF92EF92FF920F931F932F93FE
S11333803F934F935F936F937F938F939F93AF93E9
S1133390BF93CF93DF93EF93FF93A091410FB0912D
S11333A0420F0DB60D920EB60D92DED6A091410FCE
S11333B0B091420FCD91CDBFDD91DEBFFF91EF9172
S11333C0DF91CF91BF91AF919F918F917F916F9139
S11333D05F914F913F912F911F910F91FF90EF902B
S11333E0DF90CF90BF90AF909F908F907F906F9021
S11333F05F904F903F902F901F900F900CBE0F90B6
S11334000BBE0F900FBE0F9008950F920FB6F89455
S11334100F920BB60F920CB60F921F9211242F929B
S11334203F924F925F926F927F928F929F92AF9250
S1133430BF92CF92DF92EF92FF920F931F932F933D
S11334403F934F935F936F937F938F939F93AF9328
S1133450BF93CF93DF93EF93FF93A091410FB0916C
S1133460420F0DB60D920EB60D9213BE3DD58111CD
S11334707BD6A091410FB091420FCD91CDBFDD918C
S1133480DEBFFF91EF91DF91CF91BF91AF919F91FB
S11334908F917F916F915F914F913F912F911F91E8
S11334A00F91FF90EF90DF90CF90BF90AF909F90DF
S11334B08F907F906F905F904F903F902F901F90D0
S11334C00F900CBE0F900BBE0F900FBE0F9008957F
S11334D09CDF18950FB6F8940F92FC01928D0F9013
S11334E00FBE81E0911180E008950F931F93CF9355
S11334F0DF93EC01042F1A8D8C8D81110BC0888110
S11335009981892B09F043C08C819D81DBD71D8271
S11335101C8244C0411118C0482F50E08A819B810D
S11335200E94532B2C8D8A819B81820F911D9B833A
S11335308A832C813D818217930758F18881998170
S11335409B838A8380E02AC0482F50E08E819F812C
S11335500E94532B8C8D90E09195819591092E8139
S11335603F81280F391F3F832E83488159812417B7
S1133570350730F42C813D81820F931F9F838E8306
S1133580023049F4112349F0115080E007C080E073
S113359005C080E003C080E001C080E01F5F1A8F97
S11335A0DF91CF911F910F910895FC01448D442325
S11335B0A9F050E026813781240F351F37832683F5
S11335C0848195812817390720F080819181978320
S11335D08683CB01668177810C94532B0895EF92F7
S11335E0FF920F931F93CF938C010FB6F8940F9211
S11335F0FC01C68D1C169CF48189811106C00FC084
S1133600F8019189911105C00AC07801F1E1EF0E2A
S1133610F11CC70155D68111D1D6C15089F78FEF5E
S1133620F801868F0F900FBE0FB6F8940F92C58DD8
S11336301C169CF48085811106C00FC0F80190858A
S1133640911105C00AC07801F8E0EF0EF11CC70122
S113365037D68111B3D6C15089F78FEFF801858F22
S11336600F900FBECF911F910F91FF90EF9008958F
S1133670CF93DF93EC010FB6F8940F92E881F981B0
S11336808B8D2C8D90E030E0829FA001839F500DA4
S1133690929F500D11244E0F5F1F5D834C831A8E31
S11336A0FB83EA830197829FA001839F500D929F21
S11336B0500D1124CF01840F951F9F838E838FEFAC
S11336C08D8F8E8F61110AC08885882369F0CE01A1
S11336D00896F6D5882341F038DE06C0CE01089658
S11336E0EFDCCE014196ECDC0F900FBE81E0DF9160
S11336F0CF910895CF93DF93E901209761F0611191
S113370003C03983288302C0598348838B8F6C8F0D
S113371061E0CE01ADDFCE01DF91CF9108959F929C
S1133720AF92BF92CF92DF92EF92FF920F931F93CB
S1133730CF93DF9300D01F921F92CDB7DEB78C01D9
S11337406B015D834C83A22EB12C992493947C014C
S113375088E0E80EF11C0FB6F8940F92F801328D50
S1133760938D391718F0F2E0AF1215C04A2DB60147
S1133770C801BBDEF8019189992339F0C80141964B
S11337809FD5882321F0E1DD02C08111DEDD0F9099
S11337900FBE81E045C0EC81FD81EF2B21F40F9039
S11337A00FBE80E03DC0B11004C0CE010196D0D55B
S11337B0B92C0F900FBE88D30FB6F8940F92F8016E
S11337C0858D8F3F09F4158EF801868D8F3F09F49E
S11337D0168E0F900FBEBE016C5F7F4FCE01019617
S11337E0C2D5811119C00FB6F8940F92F801928DC9
S11337F0838D0F900FBE98130BC06C817D81C70120
S113380034D5C801ECDE27D48111A5CF9EDDA3CF2A
S1133810C801E5DE20D49FCFC801E1DE1CD480E0DE
S11338200F900F900F900F900F90DF91CF911F91F9
S11338300F91FF90EF90DF90CF90BF90AF909F904B
S11338400895EF92FF920F931F93CF93DF938A0112
S1133850FC01528D338D531710F02230E1F4422FC6
S11338607801EC011E8D41DE1F3F79F4898988239C
S1133870A1F0CE01419624D5882389F0E114F10406
S113388081F081E0F70180830DC0FF24F394F10EF1
S1133890FE8E81E007C080E005C081E003C081E0C6
S11338A001C081E0DF91CF911F910F91FF90EF90C4
S11338B008959F92AF92BF92CF92DF92EF92FF92C0
S11338C00F931F93CF93DF9300D01F921F92CDB716
S11338D0DEB78C015B015D834C83E12C99249394C6
S11338E06C0181E1C80ED11C0FB6F8940F92F80157
S11338F0F28CFF2091F0B501C80157DEFA94F8016B
S1133900F28E8085882329F0C8010896D9D48111C4
S11339101CDD0F900FBE81E044C02C813D81232B20
S113392021F40F900FBE80E03CC0E11004C0CE0132
S113393001960ED5E92C0F900FBEC6D20FB6F8949F
S11339400F92F801858D8F3F09F4158EF801968D3D
S11339509F3F09F4168E0F900FBEBE016C5F7F4F20
S1133960CE01019600D5811113C0C801B3DD8823AF
S113397059F06C817D81C60178D4C80130DE6BD3E7
S11339808111B2CFE2DCB0CFC80129DE64D3ACCF61
S1133990C80125DE60D3C8019DDD882309F4A4CFC6
S11339A080E00F900F900F900F900F90DF91CF91C8
S11339B01F910F91FF90EF90DF90CF90BF90AF9049
S11339C09F900895BF92CF92DF92EF92FF920F9350
S11339D01F93CF93DF9300D01F921F92CDB7DEB712
S11339E08C017D836C83B12CD12CCC24C3947C01B9
S11339F081E1E80EF11C0FB6F8940F92D8015A96A3
S1133A009C915A979923D1F091505A969C935A9726
S1133A108D919C91892B21F4E5D5F80195838483BC
S1133A20D80118968C91882329F0C801089648D4A7
S1133A3081118BDC0F900FBE81E070C02C813D8121
S1133A40232B21F40F900FBE80E068C0D11004C076
S1133A50CE0101967DD4DC2C0F900FBE35D20FB66B
S1133A60F8940F92F801958D9F3F09F4158ED801B3
S1133A705E969C915E979F3F11F45E961C920F9008
S1133A800FBEBE016C5F7F4FCE0101966CD48111D5
S1133A9021C0C8011FDD8823C9F0F80120813181CC
S1133AA0232B49F40FB6F8940F928481958198D40E
S1133AB0B82E0F900FBE6C817D81C701D6D3C8018B
S1133AC08EDDC9D2811197CF40DC95CFC80187DD47
S1133AD0C2D291CFC80183DDBED2C801FBDC8823EA
S1133AE009F489CFBB20C9F00FB6F8940F92F801FE
S1133AF08189882339F00688F789E02D808164E084
S1133B00681B01C060E0D80114968D919C911597B3
S1133B1019D50F900FBE80E001C080E00F900F9088
S1133B200F900F900F90DF91CF911F910F91FF9005
S1133B30EF90DF90CF90BF900895CF93DF93EC0187
S1133B400FB6F8940F928D8D8F3F09F41D8E8E8DD4
S1133B508F3F09F41E8E0F900FBE8A8D811103C012
S1133B60CE01419694D3CE013ADDDF91CF910895F1
S1133B70E0911B0FF0911C0F8081811107C08FEF22
S1133B809FEF9093FC0E8093FB0E0895E0911B0F22
S1133B90F0911C0F0580F681E02D0680F781E02D61
S1133BA0828193819093FC0E8093FB0E08950F9372
S1133BB01F93CF93DF93EC010091030F1091040F37
S1133BC08091410F9091420F0296DEDAC00FD11F0F
S1133BD0E091410FF091420FD383C283C017D10704
S1133BE060F46091410F7091420F8091190F909190
S1133BF01A0F6E5F7F4F97DA16C06091410F709174
S1133C00420F80911B0F90911C0F6E5F7F4F8BDAD8
S1133C108091FB0E9091FC0EC817D90720F4D09325
S1133C20FC0EC093FB0EDF91CF911F910F9108956D
S1133C306F927F928F929F92AF92BF92CF92DF92B8
S1133C40EF92FF920F93CF93DF934C01EB015A0154
S1133C503901C114D10409F4CCC0E114F10409F40C
S1133C60CBC0F601F08EE78A65EA70E0C7010E94D6
S1133C705C2BF1E0AF1AB108F6018789908DA80E8C
S1133C80B91E8881818F8881882389F0D6015A964C
S1133C90FE013196AE01485F5F4FCF0121912D9314
S1133CA0EC018881882319F0E417F507B1F7F601D0
S1133CB010A2043008F003E0E6010E8B09A31AA257
S1133CC02296CE010BDAC6010C9608DAF601D186EB
S1133CD0C08684E090E0801B910995878487D38A0D
S1133CE0C28A14A213A215A216A217A210A611A684
S1133CF0A301B401C5016FDAF601918380830FB685
S1133D00F8940F928091050F8F5F8093050F809137
S1133D10410F9091420F892B69F5D092420FC092C6
S1133D20410F8091050F8130B1F58DE19FE0C8D935
S1133D3086E29FE0C5D98FE29FE0C2D988E39FE085
S1133D40BFD98FEE9EE0BCD986EE9EE0B9D980E162
S1133D509FE0B6D987E09FE0B3D98FEE9EE09093C1
S1133D601C0F80931B0F86EE9EE090931A0F809396
S1133D70190F11C08091010F81110DC0E091410F05
S1133D80F091420F9689F6018689891720F0D09226
S1133D90420FC092410F8091FD0E8F5F8093FD0E04
S1133DA0F60186899091020F981710F48093020F00
S1133DB090E09C01220F331F220F331F220F331F69
S1133DC0820F931FBE01835E904F8CD90F900FBE5C
S1133DD08091010F882399F0E091410FF091420FF7
S1133DE09689E6018E89981768F4AFDA8C2D9D2D9B
S1133DF00BC080E090E008C080E090E005C08C2D0E
S1133E009D2D02C08C2D9D2DDF91CF910F91FF90A0
S1133E10EF90DF90CF90BF90AF909F908F907F9066
S1133E206F900895CF92DF92EF92FF920F93CF930A
S1133E30DF9300D000D0CDB7DEB71E821D821C8276
S1133E401B82AE014F5F5F4FBE016D5F7F4FCE019E
S1133E50059616D9CD80DE80EB80FC8049815A819D
S1133E6000E020E030E06AE373E083EB90E0E0DE22
S1133E709093FA0E8093F90E892B91F022D481301D
S1133E8079F4F8948FEF9FEF9093FC0E8093FB0EE0
S1133E9081E08093010F1092040F1092030F0DDA4A
S1133EA026960FB6F894DEBF0FBECDBFDF91CF913B
S1133EB00F91FF90EF90DF90CF900895F8941092B7
S1133EC0010F37DA789408958091F80E8F5F80930C
S1133ED0F80E08950FB6F8940F928091030F909105
S1133EE0040F0F900FBE0895CF92DF92EF92FF92CE
S1133EF00F931F93CF93DF938091F80E811195C098
S1133F00E090030FF090040F8FEFE81AF80AF09294
S1133F10040FE092030FE114F104B1F480911B0F3C
S1133F2090911C0F2091190F30911A0F30931C0F90
S1133F3020931B0F90931A0F8093190F8091FE0EFC
S1133F408F5F8093FE0E14DE8091FB0E9091FC0E29
S1133F50E816F90610F4D12C50C0D12CCC24C3940B
S1133F60E0911B0FF0911C0F9081911107C08FEF0E
S1133F709FEF9093FC0E8093FB0E3FC0E0911B0FCC
S1133F80F0911C0F0580F681E02DC681D7812A812E
S1133F903B81E216F30628F43093FC0E2093FB0ECB
S1133FA02CC08E010E5F1F4FC801EED88C899D89ED
S1133FB0892B19F0CE010C96E7D82E898091020F37
S1133FC0821710F42093020F30E0C901880F991F63
S1133FD0880F991F880F991F820F931FB801835E62
S1133FE0904F80D8E091410FF091420F9E898689CD
S1133FF0981708F4B5CFDC2CB3CFE091410FF091C2
S1134000420F868990E0FC01EE0FFF1FEE0FFF1FA9
S1134010EE0FFF1F8E0F9F1FFC01E35EF04F8081A8
S1134020823048F0DD24D39406C08091000F8F5F66
S11340308093000FD12C8091FF0E882311F0DD2492
S1134040D3948D2DDF91CF911F910F91FF90EF901D
S1134050DF90CF900895DF92EF92FF920F931F931A
S1134060CF93DF930FB6F8940F928091F80E81509E
S11340708093F80E8091F80E811159C08091050F3C
S1134080811130C057C0D7011596ED91FC91169758
S1134090C681D781CE010C9677D88E010E5F1F4F53
S11340A0C80172D82E898091020F821710F42093D0
S11340B0020F30E0C901880F991F880F991F880FDC
S11340C0991F820F931FB801835E904F0BD8E09124
S11340D0410FF091420F9E898689981768F0D0921B
S11340E0FF0E0AC0C0E0D0E00F2EF0E1EF2EFFE09B
S11340F0FF2EF02DDD24D394F70180818111C3CFED
S1134100CD2B09F035DDC091000FCC2349F0D1E06F
S1134110EBDE8111D093FF0EC150D1F71092000F46
S11341208091FF0E882329F010D981E003C080E03C
S113413001C080E00F900FBEDF91CF911F910F91CE
S1134140FF90EF90DF900895CF93DF93EC01892BDC
S113415039F0BADE60E0CE012ADD7DDF811101C0D5
S1134160F4D8DF91CF9108958091F80E882321F03F
S113417081E08093FF0E08951092FF0EA091410FED
S1134180B091420FE091410FF091420F2D913C917B
S11341908789908D8217930760F06091410F709129
S11341A0420F8091410F9091420F675E7F4F0E94B2
S11341B033182091020F822F90E0FC01EE0FFF1FB5
S11341C0EE0FFF1FEE0FFF1FE80FF91FE35EF04F26
S11341D03081311111C02150822F90E0FC01EE0F8B
S11341E0FF1FEE0FFF1FEE0FFF1FE80FF91FE35E27
S11341F0F04F3081332379F3AC01440F551F440F42
S1134200551F440F551F480F591FDA01A35EB04FC5
S11342101196ED91FC9112970280F381E02D129694
S1134220FC93EE931197405E504FE417F50729F481
S113423042815381FD0152834183FC01EE0FFF1F34
S1134240EE0FFF1FEE0FFF1F8E0F9F1FFC01E35E9B
S1134250F04F0180F281E02D868197819093420F87
S11342608093410F2093020F0895CF93DF93EB01C6
S11342702091410F3091420FB901645F7F4F0E943A
S1134280931861E0CE0193DCDF91CF9108950F93F1
S11342901F93CF938B01C42F2091410F3091420F74
S11342A0B901645F7F4F0E947218CC2311F00FEFA5
S11342B01FEF6C2FC8017BDCCF911F910F910895E4
S11342C00F931F93CF93DF93DC011596ED91FC912F
S11342D01697C681D7818E01045F1F4FC8010E94C3
S11342E0C4188091F80E81111CC00A501109C8012C
S11342F00E94C4182E898091020F821710F4209313
S1134300020F30E0C901880F991F880F991F880F89
S1134310991F820F931FB801835E904F0E947218F9
S113432005C0B80180E19FE00E947218E091410F3E
S1134330F091420F9E898689891720F481E0809349
S1134340FF0E01C080E0DF91CF911F910F9108957E
S11343502091FE0EFC0120832091030F3091040F65
S11343603283218308950FB6F8940F922091030F9E
S11343703091040FDC0111964D915C911297E091FC
S1134380FE0EFC91FE1719F02417350798F4241B30
S1134390350BFB01408151812417350738F4421B4A
S11343A0530B51834083D4DF80E005C01182108217
S11343B081E001C081E00F900FBE089581E08093F9
S11343C0FF0E08958091010F882331F08091F80E3B
S11343D0882321F080E0089581E0089582E0089523
S11343E00F931F93CF93DF93FC01892B09F464C0CF
S11343F02689A091410FB091420F56968C912817AF
S113440008F04EC084859585992364F0A091410FEE
S1134410B091420F56963C9184E090E0831B910941
S11344209587848730E0C901880F991F880F991FE9
S1134430880F991F280F391F235E304F828593857B
S11344408217930721F58F01EF012296CE010E9476
S1134450C418E091410FF091420F2689F801268B90
S11344608091020F821710F42093020F30E0C901EB
S1134470880F991F880F991F880F991F820F931F08
S1134480BE01835E904F0E94721881E016C0A09115
S1134490410FB091420F56968C91868B81E00DC0EE
S11344A0A091410FB091420F81E021A156969C91B9
S11344B0291718F080E001C080E0DF91CF911F91AF
S11344C00F9108950F931F93CF93DF93FC01892BD2
S11344D079F182A1815082A3268991A1291751F1F2
S11344E081112AC0EF018F010E5F1F4FC8010E9486
S11344F0C41829A12E8B44E050E0421B51095D876A
S11345004C878091020F821710F42093020F30E041
S1134510C901880F991F880F991F880F991F820F4F
S1134520931FB801835E904F0E94721881E005C00A
S113453080E003C080E001C080E0DF91CF911F9153
S11345400F9108950F931F93CF93DF93FC01892B51
S113455009F443C081A1681708F4682F8689861777
S1134560E1F192A19130C9F5668B24853585332319
S113457034F024E030E0261B31093587248790E0AD
S11345809C01220F331F220F331F220F331F820F70
S1134590931F835E904F2285338528173907E9F4EA
S11345A0EF018F010E5F1F4FC8010E94C4182E89AE
S11345B08091020F821710F42093020F30E0C9019A
S11345C0880F991F880F991F880F991F820F931FB7
S11345D0B801835E904F0E947218DF91CF911F91B2
S11345E00F9108958091410F9091420F892B39F0DA
S11345F0E091410FF091420F82A18F5F82A38091DD
S1134600410F9091420F0895FC0173836283918757
S113461080874617570790F0421B530B8485958576
S113462048175907E0F4BF016E5F7F4F8091AC0FCC
S11346309091AD0F0E94931880E00895421753079C
S113464018F46217730768F4BF016E5F7F4F80919F
S1134650AE0F9091AF0F0E94931880E0089581E00F
S1134660089581E008950F930FB6F8940F92809106
S1134670AA0F9091AB0F892B01F58DE99FE00E9461
S1134680601884E99FE00E9460188DE99FE0909390
S1134690AF0F8093AE0F84E99FE09093AD0F8093AA
S11346A0AC0F00E023E43FE042E65FE065E08AE02F
S11346B021D89093AB0F8093AA0F0F900FBE0F9148
S11346C00895CF92DF92EF92FF920F93CF93DF93EF
S11346D000D000D0CDB7DEB7C6DF8091AA0F90918D
S11346E0AB0F892B31F11E821D821C821B82AE010D
S11346F04F5F5F4FBE016D5F7F4FCE0105960E94F5
S11347005018CD80DE80EB80FC8049815A8103E023
S113471020E030E06FE373E08CE594E289DA9C01F9
S11347209093A90F8093A80F81E0232B19F480E0C4
S113473001C080E026960FB6F894DEBF0FBECDBF51
S1134740DF91CF910F91FF90EF90DF90CF9008957C
S11347500F931F93CF93DF9300D01F921F92CDB777
S1134760DEB7E091AA0FF091AB0F309761F1D90158
S113477069835B834A839D838C836630E4F422DE01
S1134780823061F420E0A801BE016F5F7F4F809109
S1134790AA0F9091AB0F0E948F1B16C020E040E03F
S11347A050E0BE016F5F7F4F8091AA0F9091AB0FD5
S11347B00E948F1B09C020E0AD01BE016F5F7F4FD7
S11347C0CF013FD801C080E00F900F900F900F9061
S11347D00F90DF91CF911F910F910895AF92BF92E7
S11347E0CF92DF92EF92FF920F931F93CF93DF93B9
S11347F06C0170DB7C018091A60F9091A70FE816E5
S1134800F90608F047C02FC00580F681E02DA0808E
S1134810B180C681D7818E010E5F1F4FC8010E94EF
S1134820C418E989FA89CE0119958E858130D9F4A5
S11348308C859D858A0D9B1DA816B90660F49B8303
S11348408A83D987C887B8018091AE0F9091AF0F42
S11348500E94931808C000E010E020E030E0A501B9
S113486060E0CE0175DFE091AE0FF091AF0F908163
S11348709111CACF8091AC0F9091AD0F9093AF0F6F
S11348808093AE0FF093AD0FE093AC0F81E0F6018F
S1134890808302C0F6011082F092A70FE092A60F67
S11348A0C701DF91CF911F910F91FF90EF90DF909F
S11348B0CF90BF90AF900895CF93DF9300D000D0F6
S11348C0CDB7DEB7CE0101964C0155245394E12CAB
S11348D0F12C412CC82ED92CE091AE0FF091AF0FE2
S11348E08081882369F00580F681E02DA080B18065
S11348F0EBDAC40173DF8C018981882349F056C047
S1134900E3DAC4016BDF8C0189818823A9F14EC0ED
S11349100A151B0508F43BC09EDBE091AE0FF09135
S1134920AF0F0580F681E02D66807780C301029683
S11349300E94C418D3011E968C911E978130A1F455
S11349401C966D917C911D976A0D7B1D9501A801A4
S1134950C3015ADE882341F00E2D1F2D2E2D3F2D2D
S1134960A501642DC301F4DED3015196ED91FC91B0
S11349705297C30119956FC0E091AC0FF091AD0F40
S11349808081452D8111442DAE2CBF2C01C0442DB6
S1134990B501601B710B8091AA0F9091AB0FCDD81C
S11349A05ADB811158C00E94A51955C054DB53C06D
S11349B0898188230CF44FC0AC80BD80F5018285C9
S11349C09385892B21F0C50102960E94C418CE015B
S11349D0069604DFAC019981943089F11CF493307C
S11349E0D0F507C09630BCF198301CF0993039F1FD
S11349F032C02A813B81D5011C966D917C911D9713
S1134A00620F731FC50100DE882329F1D501519679
S1134A10ED91FC915297C5011995F5018685813078
S1134A20D1F4448555858A819B81480F591F0E2DE9
S1134A301F2D2E2D3F2D642DC5018ADE0CC06A81E9
S1134A407B81D5011D967C936E931C97640F751F13
S1134A509A01C501D9DD4E2D5F2D6C2D7D2D8091E0
S1134A60AA0F9091AB0F0E94591C8111A1CF34CF92
S1134A700F9303E020EB3FE040E050E060E081E092
S1134A800E947A1B9093AA1A8093A91A20E040E00E
S1134A9050E060E070E00E948F1B0F9108950C9429
S1134AA047020895CF93DF93C2E0D0E081E00E94F3
S1134AB0750E81E00E94550E8AEF90E045DB0E945E
S1134AC0500E8823A1F080E00E94750E87E493E0E5
S1134AD00E94F4110E94500E682F70E080E090E074
S1134AE00E94D8118AE00E94BF1180E00CC080E0CF
S1134AF00E94750E80E00E94550E8AEF90E024DB40
S1134B002197A1F681E0DF91CF9108958091000271
S1134B10909101028130910511F4C4CF0895029758
S1134B2029F481E00E949A0E80E0089581E00895BE
S1134B3080E00E94550E2FEF83ED90E321508040DA
S1134B409040E1F700C000000E94500E91E08111F6
S1134B5001C090E0892F0895809100029091010294
S1134B608130910511F4E4CF0895029729F480E08F
S1134B700E949A0E80E0089581E008959093D40FE6
S1134B808093D30F7093D20F6093D10F08950BEAE3
S1134B901AE16FEF7FEF8091A91A9091AA1A0E94EF
S1134BA0E21C41E16FEA7AE181E090E00E94F002C8
S1134BB0C82F85E593E00E94F41120E040E050E026
S1134BC060E070E08091A91A9091AA1A0E948F1B4C
S1134BD08CE593E00E94F411C23E89F48091D00FD9
S1134BE08F5F8093D00F853009F04DC0E091D30FD3
S1134BF0F091D40F309709F446C0199544C0CFEA18
S1134C00DAE18A859B850E948717888599850E94A9
S1134C106C178C859D850E94A2178E859F850E94A6
S1134C20BD178A899B890E94F317888999890E94F4
S1134C30D817888199810E94D3168C819D810E9406
S1134C40FD168E819F810E940C178C899D890E947C
S1134C5029168E899F890E944716888D998D0E94F6
S1134C6056168C8D9D8D0E9465168E8D9F8D0E948B
S1134C7074168A8D9B8D0E9438168A819B810E94AE
S1134C80E2161092D00F0E94DE15F80193838283FE
S1134C900E941318F801918380836FEF7FEF809156
S1134CA0A91A9091AA1A0E94E21C85E593E00E9439
S1134CB0F41142E0B80180E09FE00E941803C82F7D
S1134CC020E040E050E060E070E08091A91A90910B
S1134CD0AA1A0E948F1B8CE593E00E94F411C23E35
S1134CE079F48091CF0F8F5F8093CF0F853051F48B
S1134CF0E091D10FF091D20F309721F0199502C0B5
S1134D001092CF0F8EE390E01FDA43CF9093D60F2B
S1134D108093D50F08958091DB0F9091DC0F01965D
S1134D209093DC0F8093DB0F2091DB0F3091DC0F2D
S1134D308091D70F9091D80F28173907F0F083E6A8
S1134D4093E00E94F41120E040E050E060E070E065
S1134D508091CF1A9091D01A0E948F1B84E993E01E
S1134D600E94F4116091DB0F7091DC0F80E090E001
S1134D700E94D8118AE00C94BF1108958091DD0F30
S1134D809091DE0F01969093DE0F8093DD0F2091BA
S1134D90DD0F3091DE0F8091D90F9091DA0F281733
S1134DA03907F0F08BEC93E00E94F41120E040E02E
S1134DB050E060E070E080910F1B9091101B0E9406
S1134DC08F1B84EF93E00E94F4116091DD0F7091CA
S1134DD0DE0F80E090E00E94D8118AE00C94BF11AD
S1134DE008950F936BE876E28EEB96E20E946502DB
S1134DF003E020EF3AE140E050E060E081E00E940F
S1134E007A1B9093101B80930F1B21ED3AE140E035
S1134E1050E060E081E00E947A1B9093D01A809366
S1134E20CF1A0F9108959093E00F8093DF0F0895A8
S1134E3010E00E94360CEC018333910578F01F5F7B
S1134E40163038F0E091DF0FF091E00F309709F061
S1134E5019958AEF9FEA0E94181805C00E94181835
S1134E60CE010E940E1883E090E06ED9E2CF0E943A
S1134E700D0E2ED00E94BF0C0E949D16F9DD80E01D
S1134E800E94340C23E040E056E960E070E081E0E9
S1134E900E94A20221E040E052EC61E070E083E075
S1134EA00E94D802FCDD9DDF80E00895862728E07B
S1134EB030E080FF07C09695879541E0842740EA5B
S1134EC0942702C0969587952150310991F708954A
S1134ED082E08093B00084E08093B1008AEF8093F5
S1134EE0B300E0E7F0E08081826080830895F89465
S1134EF06091111B7091121B8091131B9091141BD4
S1134F00789408951F920F920FB60F9211248F93E5
S1134F109F93AF93BF938091111B9091121BA0910B
S1134F20131BB091141B0196A11DB11D8093111B7D
S1134F309093121BA093131BB093141BBF91AF91BA
S1134F409F918F910F900FBE0F901F9018955058FE
S1134F50BB27AA270ED048C139D130F03ED120F06A
S1134F6031F49F3F11F41EF42EC10EF4E095E7FBDB
S1134F7024C1E92F4AD180F3BA1762077307840763
S1134F80950718F071F49EF562C10EF4E0950B2EAE
S1134F90BA2FA02D0B01B90190010C01CA01A00187
S1134FA01124FF27591B99F0593F50F4503E68F1E2
S1134FB01A16F040A22F232F342F4427585FF3CF23
S1134FC0469537952795A795F0405395C9F77EF4F4
S1134FD01F16BA0B620B730B840BBAF09150A1F03D
S1134FE0FF0FBB1F661F771F881FC2F70EC0BA0FC3
S1134FF0621F731F841F48F4879577956795B7954B
S1135000F7959E3F08F0B3CF9395880F08F0992742
S1135010EE0F9795879508950CD0E6C0DED040F04A
S1135020D5D030F021F45F3F19F0C7C0511110C141
S1135030CAC0EBD098F39923C9F35523B1F3951B58
S1135040550BBB27AA2762177307840738F09F5FA5
S11350505F4F220F331F441FAA1FA9F333D00E2E14
S11350603AF0E0E830D091505040E695001CCAF781
S113507029D0FE2F27D0660F771F881FBB1F261746
S113508037074807AB07B0E809F0BB0B802DBF0119
S1135090FF2793585F4F2AF09E3F510568F08DC05B
S11350A0D7C05F3FECF3983EDCF386957795679520
S11350B0B795F7959F5FC9F7880F911D96958795CA
S11350C097F90895E1E0660F771F881FBB1F6217E9
S11350D073078407BA0720F0621B730B840BBA0BA7
S11350E0EE1F88F7E095089598D088F09F5790F0C8
S11350F0B92F9927B751A0F0D1F0660F771F881FF9
S1135100991F1AF0BA95C9F712C0B13081F09FD037
S1135110B1E008959CC0672F782F8827B85F39F0D5
S1135120B93FCCF3869577956795B395D9F73EF457
S113513090958095709561957F4F8F4F9F4F0895FF
S1135140E89409C097FB3EF490958095709561951D
S11351507F4F8F4F9F4F9923A9F0F92F96E9BB27D3
S11351609395F695879577956795B795F111F8CF4F
S1135170FAF4BB0F11F460FF1BC06F5F7F4F8F4FBA
S11351809F4F16C0882311F096E911C0772321F0B0
S11351909EE8872F762F05C0662371F096E8862F48
S11351A070E060E02AF09A95660F771F881FDAF79F
S11351B0880F9695879597F9089597F99F6780E8E2
S11351C070E060E008959FEF80EC089500240A9455
S11351D01616170618060906089500240A941216CE
S11351E01306140605060895092E0394000C11F401
S11351F0882352F0BB0F40F4BF2B11F460FF04C0AE
S11352006F5F7F4F8F4F9F4F089557FD9058440F06
S1135210551F59F05F3F71F04795880F97FB991F11
S113522061F09F3F79F087950895121613061406CE
S1135230551FF2CF4695F1DF08C01616170618065B
S1135240991FF1CF86957105610508940895E89436
S1135250BB2766277727CB0197F908950BD0C4CFD6
S1135260B5DF28F0BADF18F0952309F0A6CFABCF4D
S11352701124EECFCADFA0F3959FD1F3950F50E030
S1135280551F629FF001729FBB27F00DB11D639FF4
S1135290AA27F00DB11DAA1F649F6627B00DA11D9A
S11352A0661F829F2227B00DA11D621F739FB00D40
S11352B0A11D621F839FA00D611D221F749F3327B0
S11352C0A00D611D231F849F600D211D822F762F49
S11352D06A2F11249F5750408AF0E1F088234AF046
S11352E0EE0FFF1FBB1F661F771F881F9150504092
S11352F0A9F79E3F510570F060CFAACF5F3FECF352
S1135300983EDCF3869577956795B795F795E7957D
S11353109F5FC1F7FE2B880F911D9695879597F98E
S11353200895FA01EE0FFF1F30962105310599F11A
S11353306115710561F48038BFE39B0749F16894F6
S11353409038810561F08038BFEF9B0741F09923C5
S113535042F5FF3FE1053105210511F1E894089478
S1135360E795D901AA2329F4AB2FBE2FF85FD0F318
S113537010C0FF5F70F4A695E0F7F73950F019F00C
S1135380FF3A38F49F779F930CD00F9007FC905806
S113539008953EF018CF60E070E080E89FE3089540
S11353A04FE79F775F934F933F932F93E7D02F91CE
S11353B03F914F915F9152DF25C02FDFE0F09E3780
S11353C0D8F09639B8F49E3848F4672F782F882798
S11353D0985FF9CF86957795679593959539D0F32E
S11353E0B62FB1706B0F711D811D20F487957795D1
S11353F06795939533C04DC02BCF19F40EF0DDCED5
S113540026CFE1CE0ADFC8F39638C0F707F80F922B
S1135410E8942BE33AEA48EB5FE72EDF0F920F9212
S11354200F924DB75EB70F92E9D0E4EEF0E03FD0B3
S11354304F915F91EF91FF91E595EE1FFF1F49F0AA
S1135440FE57E0684427EE0F441FFA95E1F74195B3
S1135450550B5BD00F9007FE4FC00895882371F45D
S1135460772321F09850872B762F07C0662311F4F9
S113547099270DC09051862B70E060E02AF09A9530
S1135480660F771F881FDAF7880F9695879597F927
S113549008959F3F31F0915020F487957795679553
S11354A0B795880F911D9695879597F90895DF9381
S11354B0CF931F930F93FF92EF92DF927B018C01A6
S11354C0689405C0DA2EEF01D5DEFE01E894A591BB
S11354D02591359145915591AEF3EF014ADDFE01D9
S11354E09701A801DA9479F7DF90EF90FF900F917C
S11354F01F91CF91DF9108959B01AC0160E070E0B2
S113550080E89FE389CD59CEC4CF87DEE8F39923A1
S1135510D9F3940F511DBBF39150504094F059F0BE
S1135520882332F0660F771F881F91505040C1F7CF
S11355309E3F510544F7880F911D9695879597F9DD
S113554008955F3FACF0983E9CF0BB278695779515
S11355506795B79508F4B1609395C1F7BB0F58F7F9
S113556011F460FFE8CF6F5F7F4F8F4F9F4FE3CF02
S11355706FCE0EF08ECF27CE68941FCE4EDEC8F3CA
S11355809923D1F3C6F3DF93CF931F930F93FF9225
S1135590C92FDD2788232AF02197660F771F881FDC
S11355A0DAF720E030E040E85FEB9FE3883920F051
S11355B0803E30F021968F77CBDCECE0F1E003C045
S11355C0C7DCE9E3F1E073DF8B01BE01EC01FB2EE4
S11355D06F5771097595771F880B990BB3DD28E117
S11355E032E741E35FE346DEAF2D9801AE01FF9061
S11355F00F911F91CF91DF91BCDCF6CDFA01DC0154
S1135600AA0FBB1F9B01AC01BF5728F422273327E5
S1135610442750781FC0B75188F4AB2F0024469517
S113562037952795011CA395D2F3002069F0220F2A
S1135630331F441FB395DAF30DD089CC6130710563
S1135640A0E88A07B94630F49B01AC0166277727A6
S113565088279078309621F02083318342835383C6
S11356600895A1E21A2EAA1BBB1BFD010DC0AA1F9F
S1135670BB1FEE1FFF1FA217B307E407F50720F0B7
S1135680A21BB30BE40BF50B661F771F881F991F32
S11356901A9469F760957095809590959B01AC017B
S11356A0BD01CF010895FB01DC0102C001900D9200
S11356B041505040D8F70895DC0101C06D9341502A
S10D56C05040E0F70895F894FFCF7E
S11356CA010073746172742068656174696E67207D
S11356DA746F20736C6565702074656D7020004D5D
S11356EA4F443020524553504F4E43455F54494D21
S11356FA45445F4F55540A004D6F64312052455357
S113570A504F4E43455F54494D45445F4F55540AE3
S113571A0054656D70657261747572655F6F766544
S113572A725F74656D70200A004C6576656C5F73F0
S113573A656E736F725F6572726F725F63616C6CB0
S113574A6261636B200A004C43445F5752495445D3
S113575A5F54494D454F5554202B2B2B2B2B2B2B68
S113576A2B2B2B2B2B2B2B2B2B2B2B2B2B2B2B2B7B
S113577A2B2B2B2B2B200A004C43445F52454144CC
S113578A5F54494D454F5554202D2D2D2D2D2D2D2A
S113579A2D2D2D2D2D2D2D2D2D2D2D2D2D2D2D2D2B
S11357AA2D2D2D2D2D200A00456E7465722054610D
S11357BA736B340A004C4556454C205461736B3361
S11357CA200A0053657175656E6365205461736BB5
S11357DA31200A007374617274200A005461736B75
S11357EA31005461736B32005461736B330054613A
S11357FA736B34005461736B350049444C4500544F
S113580A6D7220537663006C6967687420737461DF
S113581A74757320004C2054204D0A004C205220E9
S113582A4D0A006265666F727272726565656565B6
S113583A65204F574F574F574F574F4F574F574F53
S113584A574F574F574F4F574F574F574F574F4F22
S113585A574F5700675F6F75745F6C69746572732D
S113586A5F636F756E746572204F574F574F574F6A
S113587A574F4F574F574F574F574F574F4F574FF2
S113588A574F574F574F4F574F57004245464F525E
S113589A525252524520465746574657465746573C
S11358AA4657465746574657465746574657465702
S11358BA46574600675F66656564696E675F6C692B
S11358CA746572735F636F756E74657220465746AA
S11358DA57465746574657465746574657465746D2
S11358EA57465746574657465746005353535353FA
S11358FA535353535353535353535353535353536A
S113590A5353535353535353535353535353535359
S113591A5353535353535353535353535353535349
S113592A0047474747474747474747474747474740
S113593A47474747474747474747474747474747E9
S113594A47474747474747474747474747474747D9
S10B595A474747474747000097
S9030000FC
