:10000000DBC00000FAC00000F8C00000F6C000002D
:10001000F4C00000F2C00000F0C00000EEC000001C
:10002000ECC00000EAC00000E8C00000E6C000002C
:100030000C94C3160C946921E0C00000DEC00000DF
:10004000DCC000000C94970CD8C00000D6C00000A3
:10005000D4C00000D2C00000D0C00000CEC000005C
:10006000CCC000000C94590E0C94920EC6C0000037
:10007000C4C000000C949F0BC0C00000BEC00000B4
:100080000C94070DBAC00000B8C00000B6C0000054
:100090000C945F0F0C94980FB0C00000AEC000002D
:1000A000ACC00000AAC000000C94770DA6C00000F0
:1000B000A4C00000A2C00000A0C000000C94E70D86
:1000C0009CC000009AC0000098C000000C946E1004
:1000D0000C94A71092C000000C947A110C94B311E8
:1000E0008CC0000007634236B79BD8A71A39685600
:1000F00018AEBAAB558C1D3CB7CC5763BD6DEDFD4A
:10010000753EF6177231BF000000803F0800000006
:10011000BE922449123EABAAAA2ABECDCCCC4C3EFC
:1001200000000080BEABAAAAAA3E00000000BF00EB
:100130000000803F0000000000084178D3BB4387E7
:10014000D1133D190E3CC3BD4282AD2B3E68EC82FB
:1001500076BED98FE1A93E4C80EFFFBE01C4FF7F80
:100160003F0000000000C4EADDE00AEB1DE08091E2
:10017000A30D8823D1F00FB6F8940F92ED81FE8184
:100180008681978102960E942B158091A20D815045
:100190008093A20D8091A30D81508093A30D0F90A9
:1001A0000FBE8091A30D8111E6CFF80180818230CE
:1001B000F0F20E940016DBCF11241FBECFEFD1E278
:1001C000DEBFCDBF00E00CBF13E0A0E0B2E0E8E985
:1001D000FAE400E00BBF02C007900D92AA35B10708
:1001E000D9F727E1AAE5B3E001C01D92A237B20713
:1001F000E1F70E94EF0A0C944A2502CF60935F0E4C
:100200007093600E8093610E9093620E089540E1AA
:1002100050E065E08EEF90E001C00895E3E6FEE077
:1002200064835183408393838283CF010C942F0C8A
:100230000895E091680EF091690E19950895E09186
:100240006A0EF0916B0E19950895CF92DF92EF929E
:10025000FF920F931F93CF93DF936A017901C1E758
:10026000DEE000EF10E01983088381E08C8389E1F0
:1002700091E09B838A83CE010E942F0C198308830F
:1002800083E08C838FE191E09B838A838CE69EE000
:100290000E942F0CD092690EC092680EF0926B0EE5
:1002A000E0926A0E0E94BC0BDF91CF911F910F91DB
:1002B000FF90EF90DF90CF90089561E081E00C9483
:1002C000120C089560E081E00C94120C0895EAE5A8
:1002D000F3E081834283538364837583208382E6C2
:1002E00091E0918780878DE591E097838683BF01B8
:1002F00081E02BC7089580E090E00C94371C0895AE
:1003000060E080E00C94120C089561E080E00C94B1
:10031000120C0895E6E6F3E0208381834283538341
:100320006483758385E891E09783868380E891E014
:10033000918780878BE791E093878287BF0180E078
:1003400004C70895FF920F931F93CF93DF93F62E68
:10035000C72FD42F50E0BC0180E00E94DC0981113E
:1003600012C0DD2379F00F2D1C2FC0E06C2F80E030
:10037000DFD7F801819391938F01CF5FDC13F6CF24
:1003800080E001C080E0DF91CF911F910F91FF903D
:100390000895EF92FF920F931F93CF93DF937C0109
:1003A000D42F442369F0062F172FC0E0F8014191A4
:1003B00051918F016C2F80E0DED7CF5FDC13F6CF39
:1003C0004D2F50E0B70180E00E94F809DF91CF91F6
:1003D0001F910F91FF90EF900895CF93DF9381E0ED
:1003E0000E94EE0BC82F82E00E94EE0BD82F83E014
:1003F0000E94EE0BDD0F24E0829FC00111248D2BA3
:100400008C2B823051F09CEF980F933040F083306A
:1004100041F0873039F483E005C085E503C085E508
:1004200001C082E0DF91CF9108950C940D0C0895E6
:100430008F929F92AF92BF92DF92EF92FF920F93B3
:100440001F93CF93DF93CDB7DEB7DA950FB6F8944D
:10045000DEBF0FBECDBFD62E8111F5C28091A8059B
:1004600089832FEF621306C08FE08A836894BB24D0
:10047000B1F832C06A8381E06817B8F094E096174B
:1004800018F4A7E16A1311C08091A6059091A70501
:100490009B838C838091A4059091A5059D838E8379
:1004A0000F2EF6E0BF2EF02D03C06894BB24B1F8E8
:1004B000B0E1BD1540F0EFE0DE1670F48BEF8D0D6E
:1004C000823000F509C0F6E1DF16E0F027E12D15D6
:1004D00018F48FEFD81216C0909122058091230551
:1004E000E1E0F0E0EC0FFD1FEB0DF11D808381E0FA
:1004F0008B0DE1E0F0E0EC0FFD1FE80FF11DB39470
:10050000B394908390E1D91609F4ADC09D1558F0CD
:10051000A6E0DA1661F1BFE0DB1609F441C0E5E0C0
:10052000DE121AC10DC0F7E1DF1609F49CC02FEFEF
:10053000D21609F498C086E1D81609F4DFC00CC1C0
:100540009091200580912105E1E0F0E0EC0FFD1F86
:10055000EB0DF11D808381E08B0DE1E0F0E0EC0F0D
:10056000FD1FE80FF11DB394B3949083F5C0E0EA4A
:10057000F4E080819181A1E0B0E0AC0FBD1FAB0D34
:10058000B11D9C932081318181E08B0DE1E0F0E091
:10059000EC0FFD1FE80FF11DB394B3942083DCC072
:1005A0008091200590912105E1E0F0E0EC0FFD1F26
:1005B000EB0DF11D908332E03B0D21E02B0DE1E0CE
:1005C000F0E0EC0FFD1FE20FF11D8083AC014770DE
:1005D0005527452B49F0969587959695879596953D
:1005E000879521E0280F07C0969587959695879562
:1005F00096958795282F93E0B90EFE01E30FF11D24
:100600002183222309F4A8C080E0982F917080FFF5
:1006100003C0913099F023C0E82FE695F0E0EE0F8B
:10062000FF1FE056FB4F40815181E1E0F0E0EC0F0D
:10063000FD1FEB0DF11D4083B39411C0E82FE6952B
:10064000F0E0EE0FFF1FE056FB4F40815181E1E0EB
:10065000F0E0EC0FFD1FEB0DF11D5083B3948F5FA5
:100660002813D3CF79C06091200570912105E1E076
:10067000F0E0EC0FFD1FEB0DF11D708381E08B0DA1
:10068000E1E0F0E0EC0FFD1FE80FF11D608382E078
:100690008B0DE1E0F0E0EC0FFD1FE80FF11DA3E092
:1006A000BA0E862F880F80837727161617060CF050
:1006B00053C080E090E020E0880F991FFC01E056D5
:1006C000FB4F80819181A1E0B0E0AC0FBD1FAB0D6D
:1006D000B11D9C934081518181E08B0DE1E0F0E000
:1006E000EC0FFD1FE80FF11DB394B39440832F5F0F
:1006F000822F90E086179707FCF22EC0E0EAF4E024
:1007000080819181A1E0B0E0AC0FBD1FAB0DB11DA8
:100710009C938081918191E09B0DA1E0B0E0AC0FB2
:10072000BD1FA90FB11D8C938281938182E08B0D37
:10073000A1E0B0E0AC0FBD1FA80FB11D9C932281BA
:10074000338183E08B0DE1E0F0E0EC0FFD1FE80F5B
:10075000F11DB4E0BB0E2083BB20B9F08E010F5F0A
:100760001F4FEE24EA94EB0CF12CEFEFEE1AFE0A89
:10077000E00EF11E8FEF9FEFD8016D918D010E9469
:100780003D210E151F05C1F702C08FEF9FEFEE242C
:10079000E394EB0CE1E0F0E0EC0FFD1FEB0DF11D3D
:1007A0008083B394B394E1E0F0E0EC0FFD1FEE0D15
:1007B000F11D9083E1E0F0E0EC0FFD1FEB0DF11D6A
:1007C0001082E0919304F091940419958115914061
:1007D000C1F7E0919904F0919A04309709F01995C6
:1007E000BB20A1F08E010F5F1F4FF12CEFEFEE1A2F
:1007F000FE0AE00EF11EE0919504F0919604D801F6
:100800008D918D0119950E151F05A9F7E0919104A1
:10081000F09192041995EFE8F1E03197F1F700C0FB
:100820000000E0919704F0919804309709F0199531
:100830000E945E214B015C0108E010E0ED2CF12CE0
:10084000E0918F04F09190041995892B91F0DD24AB
:10085000D394D10EE0919304F09194041995E1E0C2
:10086000F0E0EC0FFD1FE10FF11D808301501D2D05
:1008700007C0E0919B04F0919C04309709F0199512
:10088000153051F599818091A805981340C48A814B
:10089000282F2F7730E02E153F0509F03AC4882322
:1008A00024F48B818823E1F1C9C0813158F48F3061
:1008B00008F0BFC3813080F0853068F0873008F4DD
:1008C000B8C30AC0873139F08F3F09F4B2C386310B
:1008D00019F405E0AFC30B810E945E21DC01CB015E
:1008E00088199909AA09BB09893C9105A105B10597
:1008F00008F405C480E092E00E94510F01110BC47E
:1009000082EE81119BC0153008F4B4C3A12EB12C26
:100910007501F2E0EF1AF1081E141F045CF099C390
:100920000F2EF3E0EF2EF12CF02D0F2EF5E0AF2E71
:10093000B12CF02D20E030E08FEF9FEF10E0E1E0F0
:10094000F0E0EC0FFD1FE20FF31F60810E943D21DC
:100950001F5F212F30E02E153F058CF37CC3892FBC
:100960009927FE01EA0DFB1D208130E082179307D5
:1009700009F07EC37FC39B819695E9F580E05EC058
:100980007B81972F969509F483C3FE01319640E051
:1009900050E080E0803470F4248130E0322F222750
:1009A0006381262BDA01AA0FBB1FAC5DBA4F1196EB
:1009B0003C932E938F5F4F5F5F4F32968913EACF40
:1009C0008FEF890F80939D0470FF35C0903470F4D1
:1009D000292F30E0220F331FFE01E20FF31F448165
:1009E00050E0F901EC5DFA4F518340839F5F909393
:1009F0009D0480E023C0FE01319640E050E080E09D
:100A0000803470F4238130E0322F22276481262B3A
:100A1000DA01AA0FBB1FAC5DBA4F11963C932E931F
:100A20008F5F4F5F5F4F32968913EACF915090935B
:100A30009D0480E003C080E001C080E010929F042C
:100A400010929E0470C3813009F0F1C280918E042F
:100A500089832FEF621306C08FE08A836894BB24DA
:100A6000B1F832C06A8381E06817B8F094E0961755
:100A700018F4A7E16A1311C080918C0490918D0441
:100A80009B838C8380918A0490918B049D838E83B9
:100A90000F2EF6E0BF2EF02D03C06894BB24B1F8F2
:100AA000B0E1BD1540F0EFE0DE1670F48BEF8D0D78
:100AB000823000F509C0F6E1DF16E0F027E12D15E0
:100AC00018F48FEFD81216C0909108048091090491
:100AD000E1E0F0E0EC0FFD1FEB0DF11D808381E004
:100AE0008B0DE1E0F0E0EC0FFD1FE80FF11DB3947A
:100AF000B394908390E1D91609F4ADC09D1558F0D8
:100B0000A6E0DA1661F1BFE0DB1609F441C0E5E0CA
:100B1000DE121BC10DC0F7E1DF1609F49CC02FEFF8
:100B2000D21609F498C086E1D81609F4E0C00DC1C8
:100B30009091060480910704E1E0F0E0EC0FFD1FC6
:100B4000EB0DF11D808381E08B0DE1E0F0E0EC0F17
:100B5000FD1FE80FF11DB394B3949083F6C0E6E84F
:100B6000F3E080819181A1E0B0E0AC0FBD1FAB0D3F
:100B7000B11D9C932081318181E08B0DE1E0F0E09B
:100B8000EC0FFD1FE80FF11DB394B3942083DDC07B
:100B90008091060490910704E1E0F0E0EC0FFD1F66
:100BA000EB0DF11D908322E02B0D31E03B0DE1E0D8
:100BB000F0E0EC0FFD1FE30FF11D8083AC014770E7
:100BC0005527452B49F09695879596958795969547
:100BD000879591E0980F07C096958795969587958C
:100BE00096958795982FA3E0BA0EFE01E20FF11DAE
:100BF0009183992309F4A9C080E0282F217080FFF8
:100C000003C0213099F023C0E82FE695F0E0EE0F05
:100C1000FF1FEA57FC4F20813181E1E0F0E0EC0F4B
:100C2000FD1FEB0DF11D2083B39411C0E82FE69555
:100C3000F0E0EE0FFF1FEA57FC4F20813181E1E029
:100C4000F0E0EC0FFD1FEB0DF11D3083B3948F5FCF
:100C50009813D3CF7AC08091060490910704E1E005
:100C6000F0E0EC0FFD1FEB0DF11D908321E02B0D4B
:100C7000E1E0F0E0EC0FFD1FE20FF11D808322E0C8
:100C80002B0DE1E0F0E0EC0FFD1FE20FF11DB3E0F2
:100C9000BB0E282F220F2083AC01552714161506F2
:100CA0000CF053C080E090E020E0880F991FFC0119
:100CB000EA57FC4F80819181A1E0B0E0AC0FBD1FED
:100CC000AB0DB11D9C936081718181E08B0DE1E0E2
:100CD000F0E0EC0FFD1FE80FF11DB394B3946083B7
:100CE0002F5F822F90E084179507FCF22EC0E6E874
:100CF000F3E080819181A1E0B0E0AC0FBD1FAB0DAE
:100D0000B11D9C938081918191E09B0DA1E0B0E0A9
:100D1000AC0FBD1FA90FB11D8C938281938182E01E
:100D20008B0DA1E0B0E0AC0FBD1FA80FB11D9C93CF
:100D30002281338183E08B0DE1E0F0E0EC0FFD1FB9
:100D4000E80FF11D84E0B80E2083BB20B9F08E01BE
:100D50000F5F1F4FEE24EA94EB0CF12C9FEFE91A82
:100D6000F90AE00EF11E8FEF9FEFD8016D918D0112
:100D70000E943D210E151F05C1F702C08FEF9FEFA6
:100D8000EE24E394EB0CE1E0F0E0EC0FFD1FEB0D43
:100D9000F11D8083B394B394E1E0F0E0EC0FFD1F0C
:100DA000EE0DF11D9083E1E0F0E0EC0FFD1FEB0D87
:100DB000F11D1082E0917903F0917A031995811564
:100DC0009140C1F7E0917F03F0918003309709F0E3
:100DD0001995BB20A1F08E010F5F1F4FF12CEFEF93
:100DE000EE1AFE0AE00EF11EE0917B03F0917C0307
:100DF000D8018D918D011995E016F106A9F7E091C2
:100E00007503F09176031995E7E0F7E03197F1F774
:100E100000C00000E0917D03F0917E03309709F05F
:100E200019950E945E214B015C0108E010E0ED2C59
:100E3000F12CE0917703F09178031995892B91F0CB
:100E4000DD24D394D10EE0917903F0917A031995C2
:100E5000E1E0F0E0EC0FFD1FE10FF11D8083015098
:100E60001D2D07C0E0918103F0918203309709F0B6
:100E70001995153051F5998180918E0498134DC1C3
:100E80008A81282F2F7730E02E153F0509F047C1C2
:100E9000882324F48B818823D9F1C4C0813158F48C
:100EA0008F3008F0F9C0813080F0853068F08730ED
:100EB00008F4F2C00AC0873139F08F3F09F4ECC062
:100EC000863119F405E0E9C00B810E945E21DC0146
:100ED000CB0188199909AA09BB09893C9105A1058B
:100EE000B10508F410C180E092E0DBD7011119C10F
:100EF00082EE811197C0153008F4EFC0012F10E089
:100F00007801F2E0EF1AF1081E141F0444F0D4C077
:100F10000F2EF3E0EF2EF12CF02D05E010E020E095
:100F200030E08FEF9FEFD12CE1E0F0E0EC0FFD1F00
:100F3000E20FF31F60810E943D21D3942D2D30E0FC
:100F40002E153F058CF3BAC0892F9927FE01E00FBB
:100F5000F11F208130E08217930709F0BCC0BDC0AB
:100F60008B818695E1F55EC06B81862F869509F4AD
:100F7000C2C0FE01319640E050E090E0903470F441
:100F8000248130E0322F22277381272BDA01AA0F28
:100F9000BB1FA65FBB4F11963C932E939F5F4F5F85
:100FA0005F4F32969813EACF9FEF980F9093830389
:100FB00060FF35C0803470F4282F30E0220F331FDB
:100FC000FE01E20FF31F448150E0F901E65FFB4FA1
:100FD000518340838F5F8093830380E023C0FE01B1
:100FE000319640E050E090E0903470F4238130E09E
:100FF000322F22276481262BDA01AA0FBB1FA65F9E
:10100000BB4F11963C932E939F5F4F5F5F4F32967D
:101010009813EACF81508093830380E003C080E07F
:1010200001C080E010928503109284037CC084EE9E
:101030007AC003E00E945E21DC01CB018819990986
:10104000AA09BB09893C9105A105B10508F4F8CBB3
:1010500051CC8FEF9FEFFE01EE0DFF1D218130E09F
:10106000AC0155274217530709F479CC83EEE6CC3F
:1010700083EEE4CC8A81853038F4833008F07BCC71
:10108000813008F07DCCD9CC873109F474CCD5CC33
:1010900070FD9ECC80E0D2CC03E00E945E21DC019A
:1010A000CB0188199909AA09BB09893C9105A105B9
:1010B000B10508F4BECE17CF8FEF9FEFFE01EE0D06
:1010C000FF1D218130E0AC0155274217530709F479
:1010D0003BCF83EEA7CF83EEA5CF8A81853038F44E
:1010E000833008F03DCF813008F03ECF9ACF873172
:1010F00009F436CF96CF60FD5FCF80E093CF01112A
:101100009FCB80E0FECB011194CE80E0F2CE80EE4A
:1011100095CC81EE93CC82EE91CC80EE83CF81EEA4
:1011200081CF82EE7FCFD3950FB6F894DEBF0FBE8E
:10113000CDBFDF91CF911F910F91FF90EF90DF9086
:10114000BF90AF909F908F900895FB01811189C04F
:1011500080818093A805418162817381848195811A
:101160002681378130939A04209399042085318514
:1011700030939804209397042285338530939C0400
:1011800020939B0410929E0410929D04413009F517
:10119000209174032111CBC021E020937403FDD66C
:1011A0008BE590E19093900480938F0489E690E121
:1011B000909392048093910482E290E1909394043E
:1011C0008093930482E490E1909396048093950435
:1011D0000895423009F5209173032111A8C021E040
:1011E00020937303E9D787E691E19093900480936D
:1011F0008F0485E791E1909392048093910481E3B9
:1012000091E190939404809393048EE491E1909300
:101210009604809395040895433009F088C0209186
:101220007203211184C021E0209372030E94E8110F
:1012300083E792E19093900480938F0481E892E198
:1012400090939204809391048DE392E1909394049F
:10125000809393048AE592E1909396048093950499
:101260000895813009F063C0808180938E044181AC
:1012700062817381848195812681378130938003D7
:1012800020937F032085318530937E0320937D0357
:101290002285338530938203209381031092840347
:1012A00010928303413009F52091740321113FC04E
:1012B00021E02093740371D68BE590E1909378033D
:1012C0008093770389E690E190937603809375038A
:1012D00082E290E190937A038093790382E490E133
:1012E00090937C0380937B030895423001F5209115
:1012F000730321111CC021E0209373035DD787E69F
:1013000091E1909378038093770385E791E190933F
:1013100076038093750381E391E190937A03809340
:1013200079038EE491E190937C0380937B0308958D
:1013300081110BC06034B0F4E62FF0E0EE0FFF1F18
:10134000EC5DFA4F808191810895813071F46034B1
:1013500078F4E62FF0E0EE0FFF1FE65FFB4F808191
:10136000918108958FEF9FEF08958FEF9FEF08957C
:101370008FEF9FEF089581110BC06034B8F4E62F12
:10138000F0E0EE0FFF1FE056FB4F518340830895BE
:10139000813071F4603470F4E62FF0E0EE0FFF1F3F
:1013A000EA57FC4F5183408380E0089582E008951E
:1013B00082E0089582E0089581110BC07093A70523
:1013C0006093A6055093A5054093A40563E030C83B
:1013D0000895813059F470938D0460938C04509378
:1013E0008B0440938A0463E023C8089584EE089533
:1013F00081110BC070932305609322055093210542
:101400004093200560E114C80895813059F4709329
:10141000090460930804509307044093060460E1B4
:1014200007C8089584EE08955CC10895CF92DF92B5
:10143000EF92FF92CF93CFE0C12CD12C760173D1E4
:10144000BC0180E090E00E9487229B01AC01C701B3
:10145000B6010E948F216B017C0180E090E00E9428
:10146000371CC15061F720E030E040E751E4C7018C
:10147000B6010E94F3212BED39EF4EE150E40E94BA
:10148000152320E030E040E85AE30E94152320E0D5
:1014900030E04AE754E40E94152323E039E042EFAC
:1014A00050E40E94F32120E030E048EC52E40E9436
:1014B000F3219B01AC0160E070E080E89FE30E94B3
:1014C0008E2123E233EE4AE156EB0E9415239B0165
:1014D000AC0166E672E280E897E30E948E2120E08C
:1014E00030E040E05FE30E94782322E331E140E80E
:1014F0005BE30E948E2123E233EE4AE955EB0E9422
:10150000F3210E94C4230E945B22CB01CF91FF9064
:10151000EF90DF90CF90089584E192E0C2C40895E7
:101520008CE292E0BEC408958AE492E0BAC40895C1
:101530008BE792E0B6C4089564E97AE088E99AE01E
:101540000E94EF1F80E99AE00E948B208CE89AE0CD
:101550000C940D2108958BEA92E0A3D488EB92E0DD
:10156000A0D42FEF83ED90E3215080409040E1F72D
:1015700000C000008FE190E00E94371CEFCFCF93B6
:10158000DF931F92CDB7DEB7198286EC92E089D443
:10159000CE0101960E9412210F90DF91CF91089504
:1015A000CF93DF931F92CDB7DEB71982CE0101969C
:1015B0000E94F81F0F90DF91CF910895CF93DF9392
:1015C0001F92CDB7DEB7198284ED92E06AD4CE01C6
:1015D00001960E9490200F90DF91CF9108958FEF98
:1015E0008DB960E875E280E090E0D1D30E943321AC
:1015F0000E94042182EE92E054D423E040E056E9B8
:1016000060E070E081E00E9467010F2EF0EACF2ECB
:10161000FEE0DF2EF02D0F2EF3EFEF2EF0E1FF2E88
:10162000F02D02E020E030E044EF51E06AEE72E09D
:101630008EED9AE00E94B6199093B0058093AF05A5
:101640000F2EFAECCF2EFEE0DF2EF02D0F2EF1E163
:10165000EF2EF3E1FF2EF02D20E030E044EF51E0DB
:1016600060EF72E080ED9AE00E94B6199093AE05AB
:101670008093AD050F2EF7EECF2EF2E1DF2EF02D89
:101680000F2EFCE0EF2EF5E1FF2EF02D20E030E0F4
:1016900044EF51E066EF72E08FEB9AE00E94B619DA
:1016A0009093AC058093AB050F2EF6E7CF2EFEE0AE
:1016B000DF2EF02D0F2EFFEFEF2EFEE0FF2EF02D90
:1016C00020E030E044EF51E06CEF72E08BEA9AE00A
:1016D0000E94B6199093AA058093A9050E94AF1A9B
:1016E000FFCF90B321E030E0082E02C0220F331F5D
:1016F0000A94E2F72095292320BBECE7F0E09081E3
:101700009F7090839081907F90838F70982B9083AF
:101710008FE880937A0078940895EAE7F0E080817A
:10172000806480830895F9DF1092B10580EC92E126
:101730000197F1F78091B2059091B30508951F923A
:101740000F920FB60F9211242F938F939F93809136
:1017500078002091790090E0922B9093B3058093CC
:10176000B20581E08093B1059F918F912F910F90E9
:101770000FBE0F901F901895EAE0F1E080818F7EF8
:10178000808380818F7D808380818F7B808353984D
:1017900020983A9854983C9A3F9A3D9A399A399AA7
:1017A000579A389A3898569A3B9AE4E0F1E080814B
:1017B00084608083549A3F9A3F9AE1E0F1E080810F
:1017C0008E7F8083808182608083E2E0F1E080818F
:1017D000816080835298539A5A9A0895813039F4DF
:1017E000809109018295817091E089270895823066
:1017F00041F48091090185FB992790F981E08927BF
:101800000895833041F48091090186FB992790F96E
:1018100081E0892708958FEF089589B183FB882798
:1018200080F90895882319F0813089F00895613096
:1018300031F4E5E0F1E080818460808308956111F6
:101840000DC0E5E0F1E080818B7F808308956130F9
:1018500011F45C9A0895611101C05C980895FC012F
:1018600094819130B1F4109280008EE080938100D9
:101870008081918101979093890080938800AFE6E1
:10188000B0E08C9182608C93F0930517E09304177D
:1018900049C09330B1F4109290008EE08093910093
:1018A0008081918101979093990080939800A1E79E
:1018B000B0E08C9182608C93F0930117E093001755
:1018C00031C09430B1F41092A0008EE08093A1005A
:1018D0008081918101979093A9008093A800A3E74C
:1018E000B0E08C9182608C93F0930317E093021721
:1018F00019C09530D1F4109220018EE0809321011F
:101900008081918101979093290180932801A3E719
:10191000B0E08C9182608C93F0930717E0930617E8
:1019200010922401789481E008958FEF08951F921A
:101930000F920FB60F9211240BB60F922F933F9375
:101940004F935F936F937F938F939F93AF93BF93C7
:10195000EF93FF93CF93DF9300D01F92CDB7DEB705
:101960000E945E216093D0057093D1058093D205CB
:101970009093D3058091D0059091D105A091D20587
:10198000B091D3054091CC055091CD056091CE0525
:101990007091CF05841B950BA60BB70B89839A8397
:1019A000AB83BC838091D0059091D105A091D205E5
:1019B000B091D3058093CC059093CD05A093CE052F
:1019C000B093CF0569817A818B819C81E091041766
:1019D000F09105170280F381E02D19950F900F907B
:1019E0000F900F90DF91CF91FF91EF91BF91AF9149
:1019F0009F918F917F916F915F914F913F912F9127
:101A00000F900BBE0F900FBE0F901F9018951F9256
:101A10000F920FB60F9211240BB60F922F933F9394
:101A20004F935F936F937F938F939F93AF93BF93E6
:101A3000EF93FF93CF93DF9300D01F92CDB7DEB724
:101A40000E945E216093C8057093C9058093CA0502
:101A50009093CB058091C8059091C905A091CA05C6
:101A6000B091CB054091C4055091C5056091C60564
:101A70007091C705841B950BA60BB70B89839A83BE
:101A8000AB83BC838091C8059091C905A091CA051C
:101A9000B091CB058093C4059093C505A093C6056E
:101AA000B093C70569817A818B819C81E091001791
:101AB000F09101170280F381E02D19950F900F909E
:101AC0000F900F90DF91CF91FF91EF91BF91AF9168
:101AD0009F918F917F916F915F914F913F912F9146
:101AE0000F900BBE0F900FBE0F901F9018951F9276
:101AF0000F920FB60F9211240BB60F922F933F93B4
:101B00004F935F936F937F938F939F93AF93BF9305
:101B1000EF93FF93CF93DF9300D01F92CDB7DEB743
:101B20000E945E216093C0057093C1058093C20539
:101B30009093C3058091C0059091C105A091C20505
:101B4000B091C3054091BC055091BD056091BE05A3
:101B50007091BF05841B950BA60BB70B89839A83E5
:101B6000AB83BC838091C0059091C105A091C20553
:101B7000B091C3058093BC059093BD05A093BE05AD
:101B8000B093BF0569817A818B819C81E0910217B6
:101B9000F09103170280F381E02D19950F900F90BB
:101BA0000F900F90DF91CF91FF91EF91BF91AF9187
:101BB0009F918F917F916F915F914F913F912F9165
:101BC0000F900BBE0F900FBE0F901F9018951F9295
:101BD0000F920FB60F9211240BB60F922F933F93D3
:101BE0004F935F936F937F938F939F93AF93BF9325
:101BF000EF93FF93CF93DF9300D01F92CDB7DEB763
:101C00000E945E216093B8057093B9058093BA0570
:101C10009093BB058091B8059091B905A091BA0544
:101C2000B091BB054091B4055091B5056091B605E2
:101C30007091B705841B950BA60BB70B89839A830C
:101C4000AB83BC838091B8059091B905A091BA058A
:101C5000B091BB058093B4059093B505A093B605EC
:101C6000B093B7051092240169817A818B819C81A0
:101C7000E0910617F09107170280F381E02D199586
:101C80000F900F900F900F90DF91CF91FF91EF91F8
:101C9000BF91AF919F918F917F916F915F914F9184
:101CA0003F912F910F900BBE0F900FBE0F901F9082
:101CB00018951F920F920FB60F9211240BB60F9228
:101CC0002F933F934F935F938F939F93EF93FF9344
:101CD0002091C0003091C60028718091E90890E001
:101CE00001968F7799274091E80850E0841795076F
:101CF00039F08093E908FC01E451F74F308301C0CB
:101D000022E02093E708FF91EF919F918F915F91DF
:101D10004F913F912F910F900BBE0F900FBE0F90E0
:101D20001F9018951F920F920FB60F9211240BB6A9
:101D30000F928F939F93EF93FF939091EB08809175
:101D4000EA08981789F08091EA0890E001968F7769
:101D500099278093EA08FC01E459F64F808180932B
:101D6000C6001092D70508C0E1ECF0E080818F7DBD
:101D7000808381E08093D705FF91EF919F918F91B0
:101D80000F900BBE0F900FBE0F901F9018950F93E2
:101D90001F938B019C01F8941092EB081092EA08B3
:101DA0001092E9081092E8087894DC01CB01805881
:101DB0009B47A14EBF4F880F991FAA1FBB1F880FBB
:101DC000991FAA1FBB1FBC01CD01660F771F881F7B
:101DD000991F000F111F221F331F000F111F221FF9
:101DE000331FA9019801220F331F441F551F220FD3
:101DF000331F441F551F0E941825BA01A9014150E5
:101E000051096109710957FF06C082E08093C00043
:101E10005F7766277727BB27A72F962F852F80937D
:101E2000C5004093C40088E98093C10086E0809398
:101E3000C2001F910F9108954091EB0850E04F5F51
:101E40005F4F4F7755272091EA0830E0421753073C
:101E5000D1F3FA01E459F64F80834093EB08E1ECAB
:101E6000F0E080818062808308950F931F93CF9369
:101E7000DF936A3071058105910558F02AE030E062
:101E800040E050E00E941825062FCA01B901EDDF9D
:101E9000602F80E3860FD0DFDF91CF911F910F91EC
:101EA0000895CF93DF93EC018881882329F0219650
:101EB000C3DF89918111FCCFDF91CF9108951F92EB
:101EC0000F920FB60F9211240BB60F922F933F93E0
:101ED0004F935F938F939F93EF93FF932091C8004D
:101EE0003091CE0028718091E40790E001968F77C1
:101EF00099274091E30750E08417950739F08093C4
:101F0000E407FC01E951F84F308301C022E020933F
:101F1000E207FF91EF919F918F915F914F913F91D8
:101F20002F910F900BBE0F900FBE0F901F90189522
:101F30001F920F920FB60F9211240BB60F928F9330
:101F40009F93EF93FF939091E6078091E507981791
:101F500089F08091E50790E001968F77992780932B
:101F6000E507FC01E959F74F80818093CE0010927C
:101F7000D60508C0E9ECF0E080818F7D808381E0A8
:101F80008093D605FF91EF919F918F910F900BBE9B
:101F90000F900FBE0F901F9018950F931F938B01FA
:101FA0009C01F8941092E6071092E5071092E4075E
:101FB0001092E3077894DC01CB0180589B47A14E37
:101FC000BF4F880F991FAA1FBB1F880F991FAA1FF9
:101FD000BB1FBC01CD01660F771F881F991F000F23
:101FE000111F221F331F000F111F221F331FA901B2
:101FF0009801220F331F441F551F220F331F441F08
:10200000551F0E941825BA01A901415051096109C3
:10201000710957FF06C082E08093C8005F7766278A
:102020007727BB27A72F962F852F8093CD0040932E
:10203000CC0088E98093C90086E08093CA001F9194
:102040000F910895F8949091E4078091E307981315
:1020500004C0789480E091E008958091E30790E0D7
:1020600001968F7799278093E3077894FC01E951D3
:10207000F84F20818091E20790E0982F8827820F07
:10208000911D08954091E60750E04F5F5F4F4F77F5
:1020900055272091E50730E042175307D1F3FA01A5
:1020A000E959F74F80834093E607E9ECF0E080813F
:1020B000806280830895F8948091E4072091E3077B
:1020C000789490E080589F4F821B91098F779927D1
:1020D00008958091D6058823E1F308951F920F9209
:1020E0000FB60F9211240BB60F922F933F934F937D
:1020F0005F938F939F93EF93FF932091D000309144
:10210000D60028718091DF0690E001968F7799279D
:102110004091DE0650E08417950739F08093DF0682
:10212000FC01EE51F94F308301C022E02093DD061F
:10213000FF91EF919F918F915F914F913F912F91DF
:102140000F900BBE0F900FBE0F901F9018951F920F
:102150000F920FB60F9211240BB60F928F939F938D
:10216000EF93FF939091E1068091E006981789F034
:102170008091E00690E001968F7799278093E006A2
:10218000FC01EE59F84F80818093D6001092D5055E
:1021900008C0E1EDF0E080818F7D808381E0809355
:1021A000D505FF91EF919F918F910F900BBE0F90EE
:1021B0000FBE0F901F9018950F931F938B019C01DA
:1021C000F8941092E1061092E0061092DF06109249
:1021D000DE067894DC01CB0180589B47A14EBF4FAF
:1021E000880F991FAA1FBB1F880F991FAA1FBB1F0B
:1021F000BC01CD01660F771F881F991F000F111FAB
:10220000221F331F000F111F221F331FA901980126
:10221000220F331F441F551F220F331F441F551F0A
:102220000E941825BA01A90141505109610971099B
:1022300057FF06C082E08093D0005F77662777273C
:10224000BB27A72F962F852F8093D5004093D400CE
:1022500088E98093D10086E08093D2001F910F918E
:1022600008959091DF068091DE069817A1F0809185
:10227000DE0690E001968F7799278093DE06FC01B9
:10228000EE51F94F20818091DD0690E0982F88274C
:10229000820F911D089580E091E008954091E1063C
:1022A00050E04F5F5F4F4F7755272091E00630E0B9
:1022B00042175307D1F3FA01EE59F84F8083409348
:1022C000E106E1EDF0E08081806280830895F8947A
:1022D0008091DF062091DE06789490E080589F4F31
:1022E000821B91098F77992708958091D5058823BE
:1022F000E1F308951F920F920FB60F9211240BB6BF
:102300000F922F933F934F935F938F939F93EF93EE
:10231000FF93209130013091360128718091DA05C8
:1023200090E001968F7799274091D90550E0841766
:10233000950739F08093DA05FC01E352FA4F3083B8
:1023400001C022E02093D805FF91EF919F918F91DA
:102350005F914F913F912F910F900BBE0F900FBE49
:102360000F901F9018951F920F920FB60F92112485
:102370000BB60F928F939F93EF93FF939091DC0591
:102380008091DB05981789F08091DB0590E001963C
:102390008F7799278093DB05FC01E35AF94F808101
:1023A000809336011092D40508C0E1E3F1E080810A
:1023B0008F7D808381E08093D405FF91EF919F9181
:1023C0008F910F900BBE0F900FBE0F901F9018951E
:1023D0000F931F938B019C01F8941092DC051092CF
:1023E000DB051092DA051092D9057894DC01CB0157
:1023F00080589B47A14EBF4F880F991FAA1FBB1F34
:10240000880F991FAA1FBB1FBC01CD01660F771F44
:10241000881F991F000F111F221F331F000F111F4C
:10242000221F331FA9019801220F331F441F551F7C
:10243000220F331F441F551F0E941825BA01A901FE
:10244000415051096109710957FF06C082E080932C
:1024500030015F7766277727BB27A72F962F852F19
:10246000809335014093340188E98093310186E0FF
:10247000809332011F910F9108959091DA05809118
:10248000D9059817A1F08091D90590E001968F7732
:1024900099278093D905FC01E352FA4F208180915E
:1024A000D80590E0982F8827820F911D089580E02D
:1024B00091E008954091DC0550E04F5F5F4F4F770A
:1024C00055272091DB0530E042175307D1F3FA017D
:1024D000E35AF94F80834093DC05E1E3F1E080812A
:1024E000806280830895F8948091DA052091D9055F
:1024F000789490E080589F4F821B91098F7799279D
:1025000008958091D4058823E1F30895089580917A
:10251000EC099091ED0908950F9303E02FE93AE05B
:1025200040E050E060E081E03ED59093BF0A8093A8
:10253000BE0A2CE73AE040E050E060E081E033D5AD
:1025400090939C0A80939B0A29E53AE040E050E092
:1025500060E081E028D59093790A8093780A26E399
:102560003AE040E050E060E081E01DD59093560AEB
:102570008093550A23E13AE040E050E060E081E0DA
:1025800012D59093330A8093320A20EF39E040E06D
:1025900050E060E081E007D59093100A80930F0A25
:1025A0000F91089590939E0A80939D0A20E040E049
:1025B00050E060E070E08091BE0A9091BF0A08C5CB
:1025C000089590937B0A80937A0A20E040E050E0DF
:1025D00060E070E080919B0A90919C0AF9C4089594
:1025E0009093580A8093570A20E040E050E060E062
:1025F00070E08091780A9091790AEAC408959093E6
:10260000350A8093340A20E040E050E060E070E05A
:102610008091550A9091560ADBC408959093120A4E
:102620008093110A20E040E050E060E070E080918B
:10263000320A9091330ACCC408959093EF098093A5
:10264000EE0920E040E050E060E070E080910F0A89
:102650009091100ABDC408950F9303E023EE3AE071
:1026600040E050E060E081E09ED49093030B8093C3
:10267000020B20EC3AE040E050E060E081E093D4CF
:102680009093E00A8093DF0A0F9108959093E20AF5
:102690008093E10A20E040E050E060E070E080914B
:1026A000020B9091030B94C408959093E20A8093D7
:1026B000E10A20E040E050E060E070E08091DF0A55
:1026C0009091E00A85C4089521DF26DF03D0C4DF9E
:1026D0006DC008950F9303E02FE63BE040E050E02B
:1026E00060E081E060D490938F0B80938E0B2CE49C
:1026F0003BE040E050E060E081E055D490936C0B0B
:1027000080936B0B29E23BE040E050E060E081E029
:102710004AD49093490B8093480B26E03BE040E07D
:1027200050E060E081E03FD49093260B8093250B2E
:102730000F91089590936E0B80936D0B20E040E015
:1027400050E060E070E080918E0B90918F0B40C460
:10275000089590934B0B80934A0B20E040E050E0AB
:1027600060E070E080916B0B90916C0B31C4089528
:102770009093280B8093270B20E040E050E060E02E
:1027800070E08091480B9091490B22C4089590937A
:10279000050B8093040B20E040E050E060E070E027
:1027A0008091250B9091260B13C408950F9303E09D
:1027B00026E63CE040E050E060E081E0F4D3909316
:1027C000860C8093850C23E43CE040E050E060E020
:1027D00081E0E9D39093630C8093620C20E23CE0AB
:1027E00040E050E060E081E0DED39093400C8093C5
:1027F0003F0C2DEF3BE040E050E060E081E0D3D3C0
:1028000090931D0C80931C0C2AED3BE040E050E0BF
:1028100060E081E0C8D39093FA0B8093F90B27EB2B
:102820003BE040E050E060E081E0BDD39093D70B07
:102830008093D60B24E93BE040E050E060E081E08B
:10284000B2D39093B40B8093B30B0F9108959093F0
:10285000650C8093640C20E040E050E060E070E0A4
:102860008091850C9091860CB3C308959093420C8F
:102870008093410C20E040E050E060E070E0809107
:10288000620C9091630CA4C3089590931F0C8093E5
:102890001E0C20E040E050E060E070E080913F0CD2
:1028A0009091400C95C308959093FC0B8093FB0B83
:1028B00020E040E050E060E070E080911C0C9091DE
:1028C0001D0C86C308959093D90B8093D80B20E0FC
:1028D00040E050E060E070E08091F90B9091FA0BDD
:1028E00077C308959093B60B8093B50B20E040E03A
:1028F00050E060E070E08091D60B9091D70B68C3F8
:1029000008959093910B8093900B08958091900B74
:102910009091910B08959093930B8093920B20E0EC
:1029200040E050E060E070E08091B30B9091B40B18
:102930004FC30895279A2F9A2FEF87EA91E62150E7
:1029400080409040E1F700C000001F9AF5CF2BE5D2
:102950003DE0FC013183208386E09DE0FB01918313
:10296000808385E590E0FA019183808308952CEDC2
:102970003CE0FC013183208387E89CE0FB019183EC
:10298000808385E590E0FA01918380830895FC01BE
:102990000396928381832FEF3FEF348323839683C3
:1029A00085839087878310820895FC0111861086A5
:1029B0000895CF93DF939C01FB01DC011196CD912B
:1029C000DC911297D383C2838C819D81958384830C
:1029D0008C819D81DC0113967C936E9312977D838D
:1029E0006C8331872087F90180818F5F8083DF913D
:1029F000CF910895CF93DF93EB01488159814F3FE9
:102A00002FEF520721F4FC01A781B0850DC0DC0136
:102A1000139601C0DF011296ED91FC91139720816E
:102A2000318142175307B0F71296ED91FC9113973D
:102A3000FB83EA83D583C483BD83AC831396DC9385
:102A4000CE93129799878887FC0120812F5F20837E
:102A5000DF91CF910895CF93DF93FC01A085B185DD
:102A6000C281D381848195819D838C83C481D581EA
:102A7000828193819B838A8311968D919C91129779
:102A8000E817F90731F48481958112969C938E930F
:102A90001197118610868C9181508C938C91DF91C7
:102AA000CF91089531E1FC013083319722E22083F8
:102AB0003197A3E3A0833197608331977083319777
:102AC000108231971082319760E8608331971082CD
:102AD0003197108231971082319762E0608331978D
:102AE00063E06083319764E06083319765E06083E1
:102AF000319766E06083319767E06083319768E0E3
:102B00006083319769E06083319760E1608331973A
:102B10003083319732E13083319733E1308331971D
:102B200034E13083319735E13083319736E13083BA
:102B3000319737E13083319738E13083319739E18C
:102B40003083319730E23083319731E230833197EF
:102B50002083319723E2208331974083319750833C
:102B6000319726E22083319727E22083319728E2AC
:102B70002083319729E22083319720E32083319706
:102B800021E3208389970895A89590EC88E10FB6FA
:102B9000F894A895809360000FBE90936000A09178
:102BA000DE0DB091DF0DCD91CDBFDD91DEBFFF9188
:102BB000EF91DF91CF91BF91AF919F918F917F91D5
:102BC0006F915F914F913F912F911F910F91FF90C6
:102BD000EF90DF90CF90BF90AF909F908F907F90BD
:102BE0006F905F904F903F902F901F900F900CBE72
:102BF0000F900BBE0F900FBE0F90089581E00895C7
:102C00000F920FB6F8940F920BB60F920CB60F926C
:102C10001F9211242F923F924F925F926F927F9258
:102C20008F929F92AF92BF92CF92DF92EF92FF92DC
:102C30000F931F932F933F934F935F936F937F93C4
:102C40008F939F93AF93BF93CF93DF93EF93FF93B4
:102C5000A091DE0DB091DF0D0DB60D920EB60D9266
:102C600016D6A091DE0DB091DF0DCD91CDBFDD91D7
:102C7000DEBFFF91EF91DF91CF91BF91AF919F9117
:102C80008F917F916F915F914F913F912F911F9104
:102C90000F91FF90EF90DF90CF90BF90AF909F90FB
:102CA0008F907F906F905F904F903F902F901F90EC
:102CB0000F900CBE0F900BBE0F900FBE0F9008959B
:102CC0000F920FB6F8940F920BB60F920CB60F92AC
:102CD0001F9211242F923F924F925F926F927F9298
:102CE0008F929F92AF92BF92CF92DF92EF92FF921C
:102CF0000F931F932F933F934F935F936F937F9304
:102D00008F939F93AF93BF93CF93DF93EF93FF93F3
:102D1000A091DE0DB091DF0D0DB60D920EB60D92A5
:102D200013BE75D48111B3D5A091DE0DB091DF0D26
:102D3000CD91CDBFDD91DEBFFF91EF91DF91CF91BE
:102D4000BF91AF919F918F917F916F915F914F91C3
:102D50003F912F911F910F91FF90EF90DF90CF90B7
:102D6000BF90AF909F908F907F906F905F904F90AB
:102D70003F902F901F900F900CBE0F900BBE0F90A6
:102D80000FBE0F9008959CDF18950FB6F8940F9220
:102D9000FC01928D0F900FBE81E0911180E00895AB
:102DA0000F931F93CF93DF93EC01042F1A8D4C8D5B
:102DB00041110BC088819981892B09F041C08C8118
:102DC0009D819BD61D821C8242C0011117C050E01C
:102DD0008A819B810E943A252C8D8A819B81820F5A
:102DE000911D9B838A832C813D818217930750F12B
:102DF000888199819B838A8380E029C050E08E81FD
:102E00009F810E943A258C8D90E091958195910942
:102E10002E813F81280F391F3F832E83488159819E
:102E20002417350730F42C813D81820F931F9F8337
:102E30008E83023049F4112349F0115080E007C01D
:102E400080E005C080E003C080E001C080E01F5F3B
:102E50001A8FDF91CF911F910F910895FC01448D3E
:102E60004423A9F050E026813781240F351F378392
:102E70002683848195812817390720F080819181EC
:102E800097838683CB01668177810C943A250895D8
:102E9000EF92FF920F931F93CF938C010FB6F8948C
:102EA0000F92FC01C68D1C169CF48189811106C00D
:102EB0000FC0F8018189811105C00AC07801F1E1D4
:102EC000EF0EF11CC7018BD5811105D6C15089F7D2
:102ED0008FEFF801868F0F900FBE0FB6F8940F9208
:102EE000C58D1C169CF48085811106C00FC0F801A9
:102EF0008085811105C00AC07801F8E0EF0EF11C51
:102F0000C7016DD58111E7D5C15089F78FEFF80161
:102F1000858F0F900FBECF911F910F91FF90EF9073
:102F20000895CF93DF93EC010FB6F8940F92E881E8
:102F3000F9818B8D2C8D90E030E0829FA001839FE2
:102F4000500D929F500D11244E0F5F1F5D834C83D7
:102F50001A8EFB83EA830197829FA001839F500D05
:102F6000929F500D1124CF01840F951F9F838E8354
:102F70008FEF8D8F8E8F61110AC08885882369F04D
:102F8000CE0108962CD5882341F03ADE06C0CE014A
:102F90000896FDDCCE014196FADC0F900FBE81E071
:102FA000DF91CF910895CF93DF93E901209761F0EE
:102FB000611103C03983288302C0598348838B8FF2
:102FC0006C8F61E0CE01ADDFCE01DF91CF9108952E
:102FD0009F92AF92BF92CF92DF92EF92FF920F93A8
:102FE0001F93CF93DF9300D01F921F92CDB7DEB710
:102FF0008C016B015D834C83A22EB12C9924939498
:103000007C0188E0E80EF11C0FB6F8940F92F801ED
:10301000928D838D981718F0F2E0AF1215C04A2DEB
:10302000B601C801BDDEF8019189992339F0C801C4
:103030004196D5D4882321F0E3DD02C08111E0DD83
:103040000F900FBE81E045C08C819D81892B21F4BA
:103050000F900FBE80E03DC0B11004C0CE010196BC
:1030600004D5B92C0F900FBEC2D20FB6F8940F92B0
:10307000F801858D8F3F09F4158EF801868D8F3FFD
:1030800009F4168E0F900FBEBE016C5F7F4FCE010C
:103090000196F6D4811119C00FB6F8940F92F80179
:1030A000928D838D0F900FBE98130BC06C817D8124
:1030B000C7016DD4C801ECDE61D38111A5CFA0DDBD
:1030C000A3CFC801E5DE5AD39FCFC801E1DE56D3B6
:1030D00080E00F900F900F900F900F90DF91CF91A5
:1030E0001F910F91FF90EF90DF90CF90BF90AF9026
:1030F0009F900895EF92FF920F931F93CF93DF93CA
:103100008A01FC01528D338D531710F02230E1F407
:10311000422F7801EC011E8D43DE1F3F79F489892F
:103120008823A1F0CE0141965AD4882389F0E11476
:10313000F10481F081E0F70180830DC0FF24F39456
:10314000F10EFE8E81E007C080E005C081E003C083
:1031500081E001C081E0DF91CF911F910F91FF903D
:10316000EF9008959F92AF92BF92CF92DF92EF922D
:10317000FF920F931F93CF93DF9300D01F921F9264
:10318000CDB7DEB78C015B015D834C83E12C9924C4
:1031900093946C0181E1C80ED11C0FB6F8940F9284
:1031A000F801F28CFF2091F0B501C80157DEFA94C6
:1031B000F801F28E8085882329F0C80108960FD483
:1031C00081111EDD0F900FBE81E044C08C819D8176
:1031D000892B21F40F900FBE80E03CC0E11004C0A9
:1031E000CE01019642D4E92C0F900FBE00D20FB64B
:1031F000F8940F92F801858D8F3F09F4158EF80130
:10320000868D8F3F09F4168E0F900FBEBE016C5F46
:103210007F4FCE01019634D4811113C0C801B5DDB2
:10322000882359F06C817D81C601B1D3C80130DE9D
:10323000A5D28111B2CFE4DCB0CFC80129DE9ED285
:10324000ACCFC80125DE9AD2C8019FDD882309F4DE
:10325000A4CF80E00F900F900F900F900F90DF9110
:10326000CF911F910F91FF90EF90DF90CF90BF9083
:10327000AF909F900895CF93DF93EC010FB6F89431
:103280000F928D8D8F3F09F41D8E8E8D8F3F09F427
:103290001E8E0F900FBE8A8D811103C0CE01419604
:1032A00086D3CE01F5DDDF91CF910895E091B80D81
:1032B000F091B90D8081811107C08FEF9FEF90933E
:1032C000990D8093980D0895E091B80DF091B90D86
:1032D0000580F681E02D0680F781E02D82819381C3
:1032E0009093990D8093980D08950F931F93CF930A
:1032F000DF93EC010091A00D1091A10D8091DE0DE6
:103300009091DF0D0296A7DBC00FD11FE091DE0D7B
:10331000F091DF0DD383C283C017D10760F46091B1
:10332000DE0D7091DF0D8091B60D9091B70D6E5F3F
:103330007F4F60DB16C06091DE0D7091DF0D8091D4
:10334000B80D9091B90D6E5F7F4F54DB8091980D51
:103350009091990DC817D90720F4D093990DC09377
:10336000980DDF91CF911F910F9108956F927F92E9
:103370008F929F92AF92BF92CF92DF92EF92FF9285
:103380000F93CF93DF93C114D10409F4CFC0E1149C
:10339000F10409F4CEC0E60159013A014B016C0178
:1033A000F88EEF8A65EA70E0C7010E94432581E04C
:1033B000681A7108EF88F88CE60CF71CD4018C9120
:1033C000898F8C918823A1F0AE01465E5F4FF40196
:1033D0003196B8E08B0E911CCF012191DA012D932B
:1033E000AD01DC018C91882319F0E815F905A1F7EE
:1033F00018A2043008F003E00E8B09A31AA24E01B4
:10340000B2E08B0E911CC401D0DACE010C96CDDA5D
:10341000D987C88784E090E0801B91099D878C87BD
:10342000DB8BCA8B1CA21BA21DA21EA21FA218A668
:1034300019A6A501B601C70135DB998388830FB6AC
:10344000F8940F928091A20D8F5F8093A20D8091CE
:10345000DE0D9091DF0D892B69F5D093DF0DC093C0
:10346000DE0D8091A20D8130A9F58AEB9DE08FDA07
:1034700083EC9DE08CDA8CEC9DE089DA85ED9DE0B3
:1034800086DA8EE89DE083DA85E89DE080DA8DEAD1
:103490009DE07DDA84EA9DE07ADA8EE89DE0909303
:1034A000B90D8093B80D85E89DE09093B70D80939A
:1034B000B60D10C080919E0D81110CC0E091DE0D03
:1034C000F091DF0D96898E89891720F0D093DF0D5A
:1034D000C093DE0D80919A0D8F5F80939A0D8E8937
:1034E00090919F0D981710F480939F0D90E09C0190
:1034F000220F331F220F331F220F331F820F931F00
:10350000B4018654924F55DA0F900FBE80919E0DF4
:10351000882391F0E091DE0DF091DF0D96898E8980
:10352000981768F46DDB8C2F9D2F0BC080E090E026
:1035300008C080E090E005C08C2F9D2F02C08C2F2A
:103540009D2FDF91CF910F91FF90EF90DF90CF9063
:10355000BF90AF909F908F907F906F900895CF9283
:10356000DF92EF92FF920F93CF93DF9300D000D0C2
:10357000CDB7DEB71E821D821C821B82AE014F5F5B
:103580005F4FBE016D5F7F4FCE010596E0D9CD80C4
:10359000DE80EB80FC8049815A8100E020E030E051
:1035A00062E073E083EB90E0E1DE892B91F042D39F
:1035B000813079F4F8948FEF9FEF9093990D809379
:1035C000980D81E080939E0D1092A10D1092A00D98
:1035D000DBDA26960FB6F894DEBF0FBECDBFDF91C3
:1035E000CF910F91FF90EF90DF90CF900895809151
:1035F000970D8F5F8093970D08950FB6F8940F92F3
:103600008091A00D9091A10D0F900FBE0895CF92C3
:10361000DF92EF92FF920F931F93CF93DF938091EE
:10362000970D811195C0E090A00DF090A10D8FEF46
:10363000E81AF80AF092A10DE092A00DE114F1044D
:10364000B1F48091B80D9091B90D2091B60D3091E3
:10365000B70D3093B90D2093B80D9093B70D8093AB
:10366000B60D80919B0D8F5F80939B0D1FDE809127
:10367000980D9091990DE816F90610F4D12C50C0D0
:10368000D12CCC24C394E091B80DF091B90D808178
:10369000811107C08FEF9FEF9093990D8093980D44
:1036A0003FC0E091B80DF091B90D0580F681E02D95
:1036B000C681D7818A819B81E816F90628F4909308
:1036C000990D8093980D2CC08E010E5F1F4FC8017D
:1036D000C2D98C899D89892B19F0CE010C96BBD952
:1036E0008E8990919F0D981710F480939F0D90E014
:1036F0009C01220F331F220F331F220F331F820F13
:10370000931FB8018654924F54D9E091DE0DF09189
:10371000DF0D9E898689981708F4B5CFDC2CB3CFCE
:10372000E091DE0DF091DF0D868990E0FC01EE0F57
:10373000FF1FEE0FFF1FEE0FFF1F8E0F9F1FFC01DD
:10374000E654F24F8081823048F0DD24D39406C0E5
:1037500080919D0D8F5F80939D0DD12C80919C0D4C
:10376000882311F0DD24D3948D2DDF91CF911F910B
:103770000F91FF90EF90DF90CF900895DF92EF923E
:10378000FF920F931F93CF93DF930FB6F8940F928E
:103790008091970D81508093970D8091970D8111A5
:1037A00059C08091A20D811130C057C0D701159624
:1037B000ED91FC911697C681D781CE010C964BD91D
:1037C0008E010E5F1F4FC80146D98E8990919F0DC3
:1037D000981710F480939F0D90E09C01220F331FE7
:1037E000220F331F220F331F820F931FB8018654FD
:1037F000924FDFD8E091DE0DF091DF0D9E89868932
:10380000981768F0D0929C0D0AC0C0E0D0E00F2E4F
:10381000FDEAEF2EFDE0FF2EF02DDD24D394F7011D
:1038200080818111C3CFCD2B09F040DDC0919D0D6A
:10383000CC2349F0D1E0EBDE8111D0939C0DC15037
:10384000D1F710929D0D80919C0D882329F0D8D935
:1038500081E003C080E001C080E00F900FBEDF91E7
:10386000CF911F910F91FF90EF90DF900895CF932C
:10387000DF93EC01892B39F0BADE60E0CE0135DD53
:103880007DDF811101C0BCD9DF91CF910895809176
:10389000970D882321F081E080939C0D089510926C
:1038A0009C0DA091DE0DB091DF0DE091DE0DF09149
:1038B000DF0D2D913C918789908D8217930758F0E9
:1038C0006091DE0D7091DF0D8091DE0D9091DF0D26
:1038D000675E7F4F2FD820919F0D822F90E0FC01D3
:1038E000EE0FFF1FEE0FFF1FEE0FFF1FE80FF91F78
:1038F000E654F24F3081311111C02150822F90E0F7
:10390000FC01EE0FFF1FEE0FFF1FEE0FFF1FE80F72
:10391000F91FE654F24F3081332379F3AC01440FA1
:10392000551F440F551F440F551F480F591FDA01EB
:10393000A654B24F1196ED91FC9112970280F3813B
:10394000E02D1296FC93EE9311974354524FE417D7
:10395000F50729F442815381FD0152834183FC0123
:10396000EE0FFF1FEE0FFF1FEE0FFF1F8E0F9F1FAB
:10397000FC01E654F24F0180F281E02D86819781AF
:103980009093DF0D8093DE0D20939F0D0895CF93CC
:10399000DF93EB016091DE0D7091DF0D645F7F4F6F
:1039A00029D861E0CE01A1DCDF91CF9108950F937A
:1039B0001F93CF938B01C42F6091DE0D7091DF0DAB
:1039C000645F7F4F0E94D914CC2311F00FEF1FEFDB
:1039D0006C2FC8018ADCCF911F910F9108950F932E
:1039E0001F93CF93DF93DC011596ED91FC91169711
:1039F000C681D7818E01045F1F4FC8012CD88091EA
:103A0000970D81111BC00A501109C80124D88E8955
:103A100090919F0D981710F480939F0D90E09C015A
:103A2000220F331F220F331F220F331F820F931FCA
:103A3000B8018654924F0E94D91405C0B8018DEA8E
:103A40009DE00E94D914E091DE0DF091DF0D9E897A
:103A50008689891720F481E080939C0D01C080E065
:103A6000DF91CF911F910F91089520919B0DFC0143
:103A700020832091A00D3091A10D328321830895E0
:103A80000FB6F8940F922091A00D3091A10DDC019A
:103A900011964D915C911297E0919B0DFC91FE1750
:103AA00019F02417350798F4241B350BFB014081CE
:103AB00051812417350738F4421B530B518340833F
:103AC000D4DF80E005C01182108281E001C081E076
:103AD0000F900FBE089581E080939C0D0895809112
:103AE0009E0D882331F08091970D882321F080E08E
:103AF000089581E0089582E008950F931F93CF9376
:103B0000DF93FC01892B79F182A1815082A3268960
:103B100091A1291751F181112AC0EF018F010E5F88
:103B20001F4FC8010E942B1589A18E8B24E030E025
:103B3000281B31093D872C8790919F0D981710F411
:103B400080939F0D90E09C01220F331F220F331FA3
:103B5000220F331F820F931FB8018654924F0E9489
:103B6000D91481E005C080E003C080E001C080E09E
:103B7000DF91CF911F910F910895FC0173836283B0
:103B8000918780874617570790F0421B530B848517
:103B9000958548175907E0F4BF016E5F7F4F80910C
:103BA000490E90914A0E0E94FA1480E0089542173F
:103BB000530718F46217730768F4BF016E5F7F4FF5
:103BC00080914B0E90914C0E0E94FA1480E0089563
:103BD00081E0089581E008950F930FB6F8940F9255
:103BE0008091470E9091480E892B01F58AE39EE063
:103BF0000E94C71481E39EE00E94C7148AE39EE0FE
:103C000090934C0E80934B0E81E39EE090934A0E6E
:103C10008093490E00E020EE3DE04FEF5DE065E06F
:103C20008AE0C1D99093480E8093470E0F900FBE43
:103C30000F910895CF92DF92EF92FF920F93CF935F
:103C4000DF9300D000D0CDB7DEB7C6DF8091470E3E
:103C50009091480E892B31F11E821D821C821B829D
:103C6000AE014F5F5F4FBE016D5F7F4FCE01059686
:103C70000E94B714CD80DE80EB80FC8049815A81A0
:103C800003E020E030E067E073E083E19FE16EDB7A
:103C90009C019093460E8093450E81E0232B19F4EE
:103CA00080E001C080E026960FB6F894DEBF0FBE1C
:103CB000CDBFDF91CF910F91FF90EF90DF90CF902C
:103CC00008950F931F93CF93DF9300D01F921F92FD
:103CD000CDB7DEB7E091470EF091480E309751F125
:103CE000D90169835B834A839D838C836630D4F4D6
:103CF000F6DE823059F420E0A801BE016F5F7F4FED
:103D00008091470E9091480E63D915C020E040E0A5
:103D100050E0BE016F5F7F4F8091470E9091480E3B
:103D200057D909C020E0AD01BE016F5F7F4FCF01C1
:103D3000E1D901C080E00F900F900F900F900F908D
:103D4000DF91CF911F910F910895AF92BF92CF92C3
:103D5000DF92EF92FF920F931F93CF93DF936C014B
:103D60004CDC7C018091430E9091440EE816F906DC
:103D700008F047C02FC00580F681E02DA080B180FB
:103D8000C681D7818E010E5F1F4FC8010E942B157F
:103D9000E989FA89CE0119958E858130D9F48C850F
:103DA0009D858A0D9B1DA816B90660F49B838A83A6
:103DB000D987C887B80180914B0E90914C0E0E9414
:103DC000FA1408C000E010E020E030E0A50160E057
:103DD000CE0177DFE0914B0EF0914C0E8081811186
:103DE000CACF8091490E90914A0E90934C0E8093C9
:103DF0004B0EF0934A0EE093490E81E0F60180836A
:103E000002C0F6011082F092440EE092430EC70108
:103E1000DF91CF911F910F91FF90EF90DF90CF90A6
:103E2000BF90AF900895CF93DF9300D000D0CDB76F
:103E3000DEB7CE0101964C0144244394E12CF12CD1
:103E4000512CC82ED92CE0914B0EF0914C0E808154
:103E5000882309F4AFC00580F681E02DA080B180F1
:103E6000C6DBC40172DF8C018981811142C00A1551
:103E70001B0580F183DCE0914B0EF0914C0E058028
:103E8000F681E02D66807780C30102960E942B1593
:103E9000D3011E968C911E978130A1F41C966D91D2
:103EA0007C911D976A0D7B1D9501A801C30165DEFC
:103EB000882341F00E2D1F2D2E2D3F2DA501652DA0
:103EC000C301FFDED3015196ED91FC915297C301DE
:103ED000199564C0452DB501601B710B8091470E8B
:103EE0009091480EC8D94ADC811158C00E94001632
:103EF00055C044DC53C0898188230CF44FC0AC808A
:103F0000BD80F50182859385892B21F0C50102963C
:103F10000E942B15CE01069618DFAC0199819430D2
:103F200089F11CF49330D0F507C09630BCF198307D
:103F30001CF0993039F132C02A813B81D5011C96A1
:103F40006D917C911D97620F731FC50116DE88234A
:103F500029F1D5015196ED91FC915297C501199522
:103F6000F50186858130D1F44A815B818485958510
:103F7000480F591F0E2D1F2D2E2D3F2D652DC501CC
:103F8000A0DE0CC06A817B81D5011D967C936E9367
:103F90001C97640F751F9A01C501EFDD4E2D5F2D33
:103FA0006C2D7D2D8091470E9091480EDBD88111AC
:103FB000A2CF49CF1CDBC401C8DE8C0189818111ED
:103FC00098CFE091490EF0914A0E8081442D8111E5
:103FD000452DAE2CBF2C7FCF0C94070108959093F4
:103FE000520E8093510E7093500E60934F0E0895B1
:103FF00021E040E052EC61E070E083E00E948A0141
:1040000008E017E18FE093E00E94510F41E16CE07E
:1040100077E181E090E00E94A201823E89F48091E4
:104020004E0E8F5F80934E0E853009F04DC0E091AB
:10403000510EF091520E309709F446C0199544C0C4
:10404000CCE0D7E18A859B850E94361488859985C6
:104050000E9427148C859D850E9445148E859F851E
:104060000E9454148A899B890E94721488899989B4
:104070000E946314888199810E949A138C819D818A
:104080000E94B8138E819F810E94C7138C899D89DD
:104090000E94D2128E899F890E94F012888D998D7C
:1040A0000E94FF128C8D9D8D0E940E138E8D9F8D10
:1040B0000E941D138A8D9B8D0E94E1128A819B8133
:1040C0000E94A91310924E0E0E948712F80193834A
:1040D00082830E948614F8019183808342E0B801B4
:1040E00080E09FE00E94C901823E79F480914D0EEC
:1040F0008F5F80934D0E853051F4E0914F0EF0911B
:10410000500E309721F0199502C010924D0E8CE0A0
:1041100090E0ADDB77CF9093540E8093530E0895CB
:1041200080E293E00E94510F0E94ED01C82F0E948F
:104130001502D82FC53561F4E091530EF091540E5D
:10414000309709F019958AEF9FEA0E94461315C02F
:104150008C2F90E00E94461383E393E00E94510F5E
:104160006C2F70E080E090E00E94350F8AE00E94A2
:104170001C0F8D2F90E00E94551383E090E077DBB9
:10418000CFCF2ADF41C008958091590E90915A0EE9
:10419000019690935A0E8093590E2091590E3091AA
:1041A0005A0E8091550E9091560E2817390758F0E7
:1041B00020E040E050E060E070E080912C179091AA
:1041C0002D170C94E817089580915B0E90915C0E6A
:1041D000019690935C0E80935B0E20915B0E309164
:1041E0005C0E8091570E9091580E2817390758F0A1
:1041F00020E040E050E060E070E080916C1790912A
:104200006D170C94E817089524EC30E244EE50E268
:1042100063E081E00C942501089590935E0E8093F5
:104220005D0E089580E00E94140A10E089E493E096
:104230000E94510F0E94160AEC01CD9750F01F5FAB
:10424000163038F0E0915D0EF0915E0E309709F077
:104250001995CE010E948114CE010E948B1483E037
:1042600090E005DBE3CF0E94BC0B19D00E949C0AB2
:1042700088DF0E94641380E00895862728E030E0FC
:1042800080FF07C09695879541E0842740EA9427F0
:1042900002C0969587952150310991F7089582E0E3
:1042A0008093B00084E08093B1008AEF8093B300E4
:1042B000E0E7F0E08081826080830895F894609167
:1042C0006E1770916F178091701790917117789495
:1042D00008951F920F920FB60F9211248F939F9300
:1042E000AF93BF9380916E1790916F17A091701745
:1042F000B09171170196A11DB11D80936E17909317
:104300006F17A0937017B0937117BF91AF919F91E2
:104310008F910F900FBE0F901F9018955058BB278C
:10432000AA270ED048C139D130F03ED120F031F467
:104330009F3F11F41EF42EC10EF4E095E7FB24C15B
:10434000E92F4AD180F3BA176207730784079507EC
:1043500018F071F49EF562C10EF4E0950B2EBA2FA1
:10436000A02D0B01B90190010C01CA01A00111247B
:10437000FF27591B99F0593F50F4503E68F11A1627
:10438000F040A22F232F342F4427585FF3CF4695B8
:1043900037952795A795F0405395C9F77EF41F16DA
:1043A000BA0B620B730B840BBAF09150A1F0FF0FA4
:1043B000BB1F661F771F881FC2F70EC0BA0F621F90
:1043C000731F841F48F4879577956795B795F79580
:1043D0009E3F08F0B3CF9395880F08F09927EE0F12
:1043E0009795879508950CD0E6C0DED040F0D5D0E3
:1043F00030F021F45F3F19F0C7C0511110C1CAC09D
:10440000EBD098F39923C9F35523B1F3951B550BC2
:10441000BB27AA2762177307840738F09F5F5F4F97
:10442000220F331F441FAA1FA9F333D00E2E3AF0D8
:10443000E0E830D091505040E695001CCAF729D0F2
:10444000FE2F27D0660F771F881FBB1F2617370741
:104450004807AB07B0E809F0BB0B802DBF01FF2771
:1044600093585F4F2AF09E3F510568F08DC0D7C02A
:104470005F3FECF3983EDCF3869577956795B795AB
:10448000F7959F5FC9F7880F911D9695879597F9C6
:104490000895E1E0660F771F881FBB1F621773073F
:1044A0008407BA0720F0621B730B840BBA0BEE1F54
:1044B00088F7E095089598D088F09F5790F0B92F2D
:1044C0009927B751A0F0D1F0660F771F881F991F69
:1044D0001AF0BA95C9F712C0B13081F09FD0B1E09F
:1044E00008959CC0672F782F8827B85F39F0B93FAF
:1044F000CCF3869577956795B395D9F73EF490956B
:104500008095709561957F4F8F4F9F4F0895E894E8
:1045100009C097FB3EF490958095709561957F4F0B
:104520008F4F9F4F9923A9F0F92F96E9BB279395B9
:10453000F695879577956795B795F111F8CFFAF4C9
:10454000BB0F11F460FF1BC06F5F7F4F8F4F9F4FFA
:1045500016C0882311F096E911C0772321F09EE858
:10456000872F762F05C0662371F096E8862F70E0BE
:1045700060E02AF09A95660F771F881FDAF7880F98
:104580009695879597F9089597F99F6780E870E069
:1045900060E008959FEF80EC089500240A941616B9
:1045A000170618060906089500240A941216130621
:1045B000140605060895092E0394000C11F48823AF
:1045C00052F0BB0F40F4BF2B11F460FF04C06F5FCB
:1045D0007F4F8F4F9F4F089557FD9058440F551FA1
:1045E00059F05F3F71F04795880F97FB991F61F075
:1045F0009F3F79F087950895121613061406551FEC
:10460000F2CF4695F1DF08C0161617061806991F57
:10461000F1CF86957105610508940895E894BB274C
:1046200066277727CB0197F908950BD0C4CFB5DF64
:1046300028F0BADF18F0952309F0A6CFABCF1124EC
:10464000EECFCADFA0F3959FD1F3950F50E0551F31
:10465000629FF001729FBB27F00DB11D639FAA27D7
:10466000F00DB11DAA1F649F6627B00DA11D661F26
:10467000829F2227B00DA11D621F739FB00DA11D47
:10468000621F839FA00D611D221F749F3327A00D01
:10469000611D231F849F600D211D822F762F6A2F9D
:1046A00011249F5750408AF0E1F088234AF0EE0F22
:1046B000FF1FBB1F661F771F881F91505040A9F72F
:1046C0009E3F510570F060CFAACF5F3FECF3983E5C
:1046D000DCF3869577956795B795F795E7959F5F96
:1046E000C1F7FE2B880F911D9695879597F9089530
:1046F000FA01EE0FFF1F30962105310599F1611582
:10470000710561F48038BFE39B0749F168949038E4
:10471000810561F08038BFEF9B0741F0992342F596
:10472000FF3FE1053105210511F1E8940894E79573
:10473000D901AA2329F4AB2FBE2FF85FD0F310C004
:10474000FF5F70F4A695E0F7F73950F019F0FF3AE3
:1047500038F49F779F930CD00F9007FC90580895E2
:104760003EF018CF60E070E080E89FE308954FE7E7
:104770009F775F934F933F932F93E7D02F913F9174
:104780004F915F9152DF25C02FDFE0F09E37D8F0C8
:104790009639B8F49E3848F4672F782F8827985FA9
:1047A000F9CF86957795679593959539D0F3B62F80
:1047B000B1706B0F711D811D20F4879577956795FA
:1047C000939533C04DC02BCF19F40EF0DDCE26CF1C
:1047D000E1CE0ADFC8F39638C0F707F80F92E894E5
:1047E0002BE33AEA48EB5FE72EDF0F920F920F922E
:1047F0004DB75EB70F92E9D0E4EEF0E03FD04F91B5
:104800005F91EF91FF91E595EE1FFF1F49F0FE5775
:10481000E0684427EE0F441FFA95E1F74195550BE8
:104820005BD00F9007FE4FC00895882371F4772363
:1048300021F09850872B762F07C0662311F4992713
:104840000DC09051862B70E060E02AF09A95660FBB
:10485000771F881FDAF7880F9695879597F908953F
:104860009F3F31F0915020F4879577956795B795E4
:10487000880F911D9695879597F90895DF93CF93AB
:104880001F930F93FF92EF92DF927B018C0168944C
:1048900005C0DA2EEF01D5DEFE01E894A591259141
:1048A000359145915591AEF3EF014ADDFE01970137
:1048B000A801DA9479F7DF90EF90FF900F911F91A4
:1048C000CF91DF9108959B01AC0160E070E080E83A
:1048D0009FE389CD59CEC4CF87DEE8F39923D9F37E
:1048E000940F511DBBF39150504094F059F0882320
:1048F00032F0660F771F881F91505040C1F79E3FDE
:10490000510544F7880F911D9695879597F908955D
:104910005F3FACF0983E9CF0BB27869577956795F6
:10492000B79508F4B1609395C1F7BB0F58F711F430
:1049300060FFE8CF6F5F7F4F8F4F9F4FE3CF6FCE0A
:104940000EF08ECF27CE68941FCE4EDEC8F399238B
:10495000D1F3C6F3DF93CF931F930F93FF92C92F29
:10496000DD2788232AF02197660F771F881FDAF743
:1049700020E030E040E85FEB9FE3883920F0803EA4
:1049800030F021968F77CBDCECE0F1E003C0C7DCA0
:10499000E9E3F1E073DF8B01BE01EC01FB2E6F5701
:1049A00071097595771F880B990BB3DD28E132E704
:1049B00041E35FE346DEAF2D9801AE01FF900F911A
:1049C0001F91CF91DF91BCDCF6CDFA01DC01AA0F7B
:1049D000BB1F9B01AC01BF5728F422273327442774
:1049E00050781FC0B75188F4AB2F002446953795F7
:1049F0002795011CA395D2F3002069F0220F331FE5
:104A0000441FB395DAF30DD089CC61307105A0E86D
:104A10008A07B94630F49B01AC01662777278827BF
:104A20009078309621F02083318342835383089518
:104A3000A1E21A2EAA1BBB1BFD010DC0AA1FBB1FA2
:104A4000EE1FFF1FA217B307E407F50720F0A21B14
:104A5000B30BE40BF50B661F771F881F991F1A9481
:104A600069F760957095809590959B01AC01BD01AB
:104A7000CF010895FB01DC0102C001900D9241506D
:104A80005040D8F70895DC0101C06D93415050406B
:084A9000E0F70895F894FFCF50
:104A9800524553504F4E43455F54494D45445F4F2F
:104AA80055540A0054656D70657261747572655F5E
:104AB8006F7665725F74656D70200A004C65766567
:104AC8006C5F73656E736F725F6572726F725F632E
:104AD800616C6C6261636B200A004C43445F5752FF
:104AE8004954455F54494D454F5554202B2B2B2B8A
:104AF8002B2B2B2B2B2B2B2B2B2B2B2B2B2B2B2BFE
:104B08002B2B2B2B2B2B2B2B200A004C43445F5297
:104B18004541445F54494D454F5554202D2D2D2D69
:104B28002D2D2D2D2D2D2D2D2D2D2D2D2D2D2D2DAD
:104B38002D2D2D2D2D2D2D2D200A00456E746572DD
:104B4800205461736B340A00765461736B342045CA
:104B5800786973740A004C4556454C205461736B50
:104B680033200A004C6576656C205461736B3120E4
:104B78000A0048454C4C4F200A005461736B3100C1
:104B88005461736B32005461736B33005461736BFF
:104B9800340049444C4500546D7220537663004CF0
:104BA800434420616C697665207461736B200A0048
:104BB8004C6576656C207461736B20616C697665F1
:104BC800200A0054414E4B206C6576656C203D20D0
:104BD80020202020202020200054656D7020746142
:0A4BE800736B20616C6976650A00AA
:00000001FF
