:1000000098C00000B6C00000B4C00000B2C000003C
:10001000B0C00000AEC00000ACC00000AAC000002C
:10002000A8C00000A6C00000A4C00000A2C000003C
:100030002FC700000C9439149CC000009AC0000027
:1000400098C0000097C0000094C0000092C000005B
:1000500090C000008EC000008CC000008AC000006C
:1000600088C00000FEC2000035C3000082C000004E
:1000700080C00000D9C200007CC000007AC000002F
:10008000DFC0000076C0000074C0000072C0000035
:10009000EEC3000025C400006CC000006AC0000070
:1000A00068C0000066C0000031C1000062C00000EE
:1000B00060C000005EC000005CC000008DC1000098
:1000C00058C0000056C0000054C000003EC40000EC
:1000D0007FC400004EC000004CC000004AC00000B9
:1000E00048C00000C6E1D7E00CE217E08091150798
:1000F0008823C9F00FB6F8940F92ED81FE818681B6
:10010000978102962BD580910B07815080930B0726
:10011000809115078150809315070F900FBE809135
:1001200015078111E7CFF80180818230F8F2EBD515
:10013000DDCF11241FBECFEFD1E2DEBFCDBF00E087
:100140000CBF12E0A0E0B2E0E4E2F9E200E00BBF95
:1001500002C007900D92AA37B107D9F729E0AAE7A4
:10016000B2E001C01D92A23FB207E1F718D20C9491
:10017000901446CF1F920F920FB60F9211240BB618
:100180000F92CF92DF92EF92FF920F931F932F93D4
:100190003F934F935F936F937F938F939F93AF930F
:1001A000BF93EF93FF930E942E148B019C016093E9
:1001B000E5077093E6078093E7079093E80740917F
:1001C000C5075091C6076091C7077091C8076801BD
:1001D0007901C41AD50AE60AF70AC701B601C09226
:1001E000CD07D092CE07E092CF07F092D0070093D0
:1001F000C5071093C6072093C7073093C807E0913F
:10020000DF07F091E0070280F381E02D1995FF915F
:10021000EF91BF91AF919F918F917F916F915F917E
:100220004F913F912F911F910F91FF90EF90DF9091
:10023000CF900F900BBE0F900FBE0F901F90189590
:100240001F920F920FB60F9211240BB60F92CF92FE
:10025000DF92EF92FF920F931F932F933F934F9351
:100260005F936F937F938F939F93AF93BF93EF931E
:10027000FF930E942E148B019C016093DB07709307
:10028000DC078093DD079093DE074091BF07509114
:10029000C0076091C1077091C20768017901C41A53
:1002A000D50AE60AF70AC701B601C092CD07D09277
:1002B000CE07E092CF07F092D0070093BF071093CC
:1002C000C0072093C1073093C207E091C307F091A4
:1002D000C4070280F381E02D1995FF91EF91BF9142
:1002E000AF919F918F917F916F915F914F913F91CE
:1002F0002F911F910F91FF90EF90DF90CF900F9073
:100300000BBE0F900FBE0F901F9018951F920F926B
:100310000FB60F9211240BB60F92CF92DF92EF928D
:10032000FF920F931F932F933F934F935F936F937E
:100330007F938F939F93AF93BF93EF93FF930E940D
:100340002E148B019C016093D1077093D207809388
:10035000D3079093D4074091E1075091E207609151
:10036000E3077091E40768017901C41AD50AE60A27
:10037000F70AC701B601C092CD07D092CE07E0922E
:10038000CF07F092D0070093E1071093E207209384
:10039000E3073093E407E091D507F091D607028098
:1003A000F381E02D1995FF91EF91BF91AF919F914E
:1003B0008F917F916F915F914F913F912F911F91FD
:1003C0000F91FF90EF90DF90CF900F900BBE0F90AA
:1003D0000FBE0F901F9018951F920F920FB60F929D
:1003E00011240BB60F92CF92DF92EF92FF920F93F0
:1003F0001F932F933F934F935F936F937F938F93AD
:100400009F93AF93BF93EF93FF9395B181E08927BB
:1004100085B90E942E148B019C016093D7077093BD
:10042000D8078093D9079093DA074091C907509174
:10043000CA076091CB077091CC0768017901C41A93
:10044000D50AE60AF70AC701B601C092CD07D092D5
:10045000CE07E092CF07F092D0070093C907109320
:10046000CA072093CB073093CC07E091E907F091BE
:10047000EA070280F381E02D199510922401FF9183
:10048000EF91BF91AF919F918F917F916F915F910C
:100490004F913F912F911F910F91FF90EF90DF901F
:1004A000CF900F900BBE0F900FBE0F901F9018951E
:1004B000CF93DF9300D01F92CDB7DEB77E0185E0EA
:1004C000E80EF11C80E092E0C4D126E030E044E088
:1004D00050E0BE016F5F7F4F809113089091140828
:1004E0000E94A20B892B21F486E192E0B2D1EACFDF
:1004F0008FE192E0AED18E010F5F1F4FF801619145
:100500008F0170E080E090E088D18CE26DD10E1513
:100510001F05A1F78AE068D1D5CFCF93DF9300D034
:100520001F92CDB7DEB785E0898386E08A8389E0B4
:100530008B8381E08C837E0185E0E80EF11C8E01C7
:100540000F5F1F4FF80180818F5F8193EE15FF05CC
:10055000D1F785E392E07DD1F80161918F0170E0E0
:1005600080E090E05AD18CE23FD10E151F05A1F733
:100570008AE03AD120E030E044E050E0BE016F5F15
:100580007F4F80911308909114080E940A0B88E411
:1005900092E05FD18AEF90E00E943A0FD0CF8FEFC8
:1005A0008DB960E875E280E090E0C9D00F2EFBEED7
:1005B000CF2EF7E0DF2EF02D0F2EF8E4EF2EF8E02F
:1005C000FF2EF02D02E020E030E048EC50E060E645
:1005D00072E08DE892E00E94AF0C0F2EF5E1CF2E75
:1005E000F8E0DF2EF02D0F2EFFE1EF2EF9E0FF2EC9
:1005F000F02D20E030E048EC50E066E672E088E55F
:1006000092E00E94AF0C00E119E02AE732E041E0FD
:1006100060E070E084E690E0BCD79093140880938B
:1006200013080E94AA0DFFCF1F920F920FB60F92D0
:1006300011242F938F939F938091780020917900BC
:1006400090E0922B9093E0028093DF0281E0809310
:10065000DE029F918F912F910F900FBE0F901F90F0
:1006600018951F920F920FB60F9211240BB60F928E
:100670002F933F934F935F938F939F93EF93FF93AA
:100680002091C0003091C60028718091F10490E063
:1006900001968F7799274091F00450E084179507D1
:1006A00039F08093F104FC01EC50FB4F308301C022
:1006B00022E02093EF04FF91EF919F918F915F9142
:1006C0004F913F912F910F900BBE0F900FBE0F9047
:1006D0001F9018951F920F920FB60F9211240BB610
:1006E0000F928F939F93EF93FF939091F3048091D8
:1006F000F204981789F08091F20490E001968F77C8
:1007000099278093F204FC01EC58FA4F8081809382
:10071000C6001092E40208C0E1ECF0E080818F7D19
:10072000808381E08093E402FF91EF919F918F910C
:100730000F900BBE0F900FBE0F901F9018950F9348
:100740001F938B019C01F8941092F3041092F20411
:100750001092F1041092F0047894DC01CB018058DF
:100760009B47A14EBF4F880F991FAA1FBB1F880F21
:10077000991FAA1FBB1FBC01CD01660F771F881FE1
:10078000991F000F111F221F331F000F111F221F5F
:10079000331FA9019801220F331F441F551F220F39
:1007A000331F441F551F0E945E14BA01A901415016
:1007B00051096109710957FF06C082E08093C000AA
:1007C0005F7766277727BB27A72F962F852F8093E4
:1007D000C5004093C40088E98093C10086E08093FF
:1007E000C2001F910F9108954091F30450E04F5FB4
:1007F0005F4F4F7755272091F20430E0421753079F
:10080000D1F3FA01EC58FA4F80834093F304E1EC02
:10081000F0E080818062808308950F931F93CF93CF
:10082000DF936A3071058105910558F02AE030E0C8
:1008300040E050E00E945E14062FCA01B901EDDFCE
:10084000602F80E3860FD0DFDF91CF911F910F9152
:100850000895CF93DF93EC018881882329F02196B6
:10086000C3DF89918111FCCFDF91CF9108951F9251
:100870000F920FB60F9211240BB60F922F933F9346
:100880004F935F938F939F93EF93FF932091C800B3
:100890003091CE0028718091EC0390E001968F7723
:1008A00099274091EB0350E08417950739F0809326
:1008B000EC03FC01E151FC4F308301C022E02093A6
:1008C000EA03FF91EF919F918F915F914F913F913B
:1008D0002F910F900BBE0F900FBE0F901F90189589
:1008E0001F920F920FB60F9211240BB60F928F9397
:1008F0009F93EF93FF939091EE038091ED039817F0
:1009000089F08091ED0390E001968F77992780938D
:10091000ED03FC01E159FB4F80818093CE001092E2
:10092000E30208C0E9ECF0E080818F7D808381E004
:100930008093E302FF91EF919F918F910F900BBEF7
:100940000F900FBE0F901F9018951F920F920FB629
:100950000F9211240BB60F922F933F934F935F93F7
:100960008F939F93EF93FF932091D0003091D60007
:100970008091E102E82FF0E0E951F64F30838F5F7C
:100980008093E10228718091E70290E001968F77D1
:1009900099274091E60250E08417950739F080933B
:1009A000E702FC01E651FD4F308301C022E02093B5
:1009B000E502FF91EF919F918F915F914F913F9150
:1009C0002F910F900BBE0F900FBE0F901F90189598
:1009D0001F920F920FB60F9211240BB60F928F93A6
:1009E0009F93EF93FF939091E9028091E80298170B
:1009F00089F08091E80290E001968F7799278093A3
:100A0000E802FC01E659FC4F80818093D6001092E9
:100A1000E20208C0E1EDF0E080818F7D808381E01B
:100A20008093E202FF91EF919F918F910F900BBE07
:100A30000F900FBE0F901F901895279A2F9A2FE7AF
:100A40008AE196E0215080409040E1F700C000002C
:100A50001F9AF5CF26EC36E0FC013183208381E735
:100A600096E0FB019183808385E590E0FA01918314
:100A70008083089529E436E0FC013183208384EFEC
:100A800095E0FB019183808385E590E0FA019183F5
:100A900080830895FC010396928381832FEF3FEFBB
:100AA0003483238396838583908787831082089578
:100AB000FC01118610860895CF93DF939C01FB0102
:100AC000DC011196CD91DC911297D383C2838C8186
:100AD0009D81958384838C819D81DC0113967C9319
:100AE0006E9312977D836C8331872087F901808113
:100AF0008F5F8083DF91CF910895CF93DF93EB01D8
:100B0000488159814F3F2FEF520721F4FC01A78103
:100B1000B0850DC0DC01139601C0DF011296ED9186
:100B2000FC9113972081318142175307B0F7129639
:100B3000ED91FC911397FB83EA83D583C483BD8336
:100B4000AC831396DC93CE93129799878887FC0128
:100B500020812F5F2083DF91CF910895CF93DF9382
:100B6000FC01A085B185C281D381848195819D835B
:100B70008C83C481D581828193819B838A831196E2
:100B80008D919C911297E817F90731F48481958132
:100B900012969C938E931197118610868C9181509A
:100BA0008C938C91DF91CF91089531E1FC013083DA
:100BB000319722E220833197A3E3A08331976083AA
:100BC000319770833197108231971082319760E8A6
:100BD000608331971082319710823197108231975C
:100BE00062E06083319763E06083319764E0608303
:100BF000319765E06083319766E06083319767E005
:100C00006083319768E06083319769E06083319752
:100C100060E1608331973083319732E130833197DF
:100C200033E13083319734E13083319735E13083DC
:100C3000319736E13083319737E13083319738E1AE
:100C40003083319739E13083319730E23083319707
:100C500031E2308331972083319723E2208331972B
:100C6000408331975083319726E22083319727E2E2
:100C70002083319728E22083319729E2208331971E
:100C800020E32083319721E3208389970895A89555
:100C900090EC88E10FB6F894A895809360000FBEA1
:100CA00090936000A0915007B0915107CD91CDBFB6
:100CB000DD91DEBFFF91EF91DF91CF91BF91AF91B9
:100CC0009F918F917F916F915F914F913F912F9164
:100CD0001F910F91FF90EF90DF90CF90BF90AF905A
:100CE0009F908F907F906F905F904F903F902F904C
:100CF0001F900F900CBE0F900BBE0F900FBE0F9069
:100D0000089581E008950F920FB6F8940F920BB6F4
:100D10000F920CB60F921F9211242F923F924F9276
:100D20005F926F927F928F929F92AF92BF92CF927B
:100D3000DF92EF92FF920F931F932F933F934F9366
:100D40005F936F937F938F939F93AF93BF93CF9353
:100D5000DF93EF93FF93A0915007B09151070DB629
:100D60000D920EB60D920E944B0FA0915007B091BC
:100D70005107CD91CDBFDD91DEBFFF91EF91DF91A6
:100D8000CF91BF91AF919F918F917F916F915F9123
:100D90004F913F912F911F910F91FF90EF90DF9016
:100DA000CF90BF90AF909F908F907F906F905F900B
:100DB0004F903F902F901F900F900CBE0F900BBE46
:100DC0000F900FBE0F9008950F920FB6F8940F92E8
:100DD0000BB60F920CB60F921F9211242F923F92D6
:100DE0004F925F926F927F928F929F92AF92BF923B
:100DF000CF92DF92EF92FF920F931F932F933F9327
:100E00004F935F936F937F938F939F93AF93BF9312
:100E1000CF93DF93EF93FF93A0915007B0915107C9
:100E20000DB60D920EB60D9213BEEDD681110E9435
:100E30004B0FA0915007B0915107CD91CDBFDD91DF
:100E4000DEBFFF91EF91DF91CF91BF91AF919F9165
:100E50008F917F916F915F914F913F912F911F9152
:100E60000F91FF90EF90DF90CF90BF90AF909F9049
:100E70008F907F906F905F904F903F902F901F903A
:100E80000F900CBE0F900BBE0F900FBE0F900895E9
:100E90009BDF18950FB6F8940F92FC01928D0F907E
:100EA0000FBE81E0911180E008950F931F93CF93BF
:100EB000DF93EC01042F1A8D4C8D41110CC08881F9
:100EC0009981892B09F042C08C819D810E94A410D8
:100ED0001D821C8242C0011117C050E08A819B8193
:100EE0000E9480142C8D8A819B81820F911D9B838F
:100EF0008A832C813D818217930750F188819981E3
:100F00009B838A8380E029C050E08E819F810E946C
:100F100080148C8D90E09195819591092E813F816F
:100F2000280F391F3F832E834881598124173507A5
:100F300030F42C813D81820F931F9F838E8302307A
:100F400049F4112349F0115080E007C080E005C04A
:100F500080E003C080E001C080E01F5F1A8FDF9156
:100F6000CF911F910F910895FC01448D4423A9F066
:100F700050E026813781240F351F378326838481F3
:100F800095812817390720F0808191819783868386
:100F9000CB01668177810C9480140895EF92FF92C3
:100FA0000F931F93CF938C010FB6F8940F92FC010F
:100FB000C68D1C16ACF48189811106C011C0F801E0
:100FC0008189811105C00CC07801F1E1EF0EF11C9F
:100FD000C7010E94F50F81110E948D10C15079F751
:100FE0008FEFF801868F0F900FBE0FB6F8940F9217
:100FF000C58D1C16A4F48085811106C010C0F801AF
:101000008085811105C00BC07801F8E0EF0EF11C5E
:10101000C701EBD781110E948D10C15081F78FEF6E
:10102000F801858F0F900FBECF911F910F91FF9008
:10103000EF900895CF93DF93EC010FB6F8940F92E1
:10104000E881F9818B8D2C8D90E030E0829FA001AA
:10105000839F500D929F500D11244E0F5F1F5D8393
:101060004C831A8EFB83EA830197829FA001839FA2
:10107000500D929F500D1124CF01840F951F9F8317
:101080008E838FEF8D8F8E8F61110AC088858823A4
:1010900069F0CE010896A9D7882341F034DE06C056
:1010A000CE010896F7DCCE014196F4DC0F900FBE1E
:1010B00081E0DF91CF910895CF93DF93E9012097ED
:1010C00061F0611103C03983288302C059834883CA
:1010D0008B8F6C8F61E0CE01ADDFCE01DF91CF91C0
:1010E00008959F92AF92BF92CF92DF92EF92FF92BC
:1010F0000F931F93CF93DF9300D01F921F92CDB712
:10110000DEB78C016B015D834C83A22EB12C992438
:1011100093947C0188E0E80EF11C0FB6F8940F92CE
:10112000F801928D838D981718F0F2E0AF1215C078
:101130004A2DB601C801B9DEF8019189992339F029
:10114000C801419652D7882321F0DDDD02C081110C
:10115000DADD0F900FBE81E045C08C819D81892B27
:1011600021F40F900FBE80E03DC0B11004C0CE014D
:10117000019693D7B92C0F900FBE35D50FB6F894C2
:101180000F92F801858D8F3F09F4158EF801868D39
:101190008F3F09F4168E0F900FBEBE016C5F7F4F1C
:1011A000CE01019685D7811119C00FB6F8940F9220
:1011B000F801928D838D0F900FBE98130BC06C8138
:1011C0007D81C701E9D6C801E9DED7D58111A5CF58
:1011D0009ADDA3CFC801E2DED0D59FCFC801DEDE05
:1011E000CCD580E00F900F900F900F900F90DF9173
:1011F000CF911F910F91FF90EF90DF90CF90BF9014
:10120000AF909F900895EF92FF920F931F93CF930B
:10121000DF938A01FC01528D338D531710F0223079
:10122000E1F4422F7801EC011E8D3FDE1F3F79F47F
:1012300089898823A1F0CE014196D7D6882389F0E9
:10124000E114F10481F081E0F70180830DC0FF24F7
:10125000F394F10EFE8E81E007C080E005C081E0CE
:1012600003C081E001C081E0DF91CF911F910F9118
:10127000FF90EF9008959F92AF92BF92CF92DF922E
:10128000EF92FF920F931F93CF93DF9300D01F92A3
:101290001F92CDB7DEB78C015B015D834C83E12CDF
:1012A000992493946C0181E1C80ED11C0FB6F89477
:1012B0000F92F801F28CFF2091F0B501C80154DEC5
:1012C000FA94F801F28E8085882329F0C8010896E7
:1012D0008CD6811118DD0F900FBE81E044C08C8147
:1012E0009D81892B21F40F900FBE80E03CC0E1105E
:1012F00004C0CE010196D1D6E92C0F900FBE73D455
:101300000FB6F8940F92F801858D8F3F09F4158E72
:10131000F801868D8F3F09F4168E0F900FBEBE0127
:101320006C5F7F4FCE010196C3D6811113C0C801F7
:10133000B1DD882359F06C817D81C6012DD6C801AD
:101340002DDE1BD58111B2CFDEDCB0CFC80126DE89
:1013500014D5ACCFC80122DE10D5C8019BDD88238F
:1013600009F4A4CF80E00F900F900F900F900F9092
:10137000DF91CF911F910F91FF90EF90DF90CF9071
:10138000BF90AF909F900895CF93DF93EC010FB67D
:10139000F8940F928D8D8F3F09F41D8E8E8D8F3FA7
:1013A00009F41E8E0F900FBE8A8D811103C0CE01ED
:1013B000419603D6CE01F2DDDF91CF910895FC0175
:1013C0004481558122813381240F351F8081918191
:1013D000B901681B790BCB016417750710F0841BEA
:1013E000950B0895AF92BF92CF92DF92EF92FF924A
:1013F0000F931F93CF93DF936C015B017A01FC0184
:10140000C281D381048115810C1B1D0B401751072C
:1014100008F48A01F60184859585A801B5018C0F31
:101420009D1F0E9480140E151F0558F4A701401B34
:10143000510BB501600F711FF601848595850E94DF
:101440008014CE018E0D9F1DF601248135818217F7
:10145000930710F0821B930BF60193838283C701DD
:10146000DF91CF911F910F91FF90EF90DF90CF9080
:10147000BF90AF900895CF92DF92EF92FF920F93BB
:101480001F93CF93DF931F921F92CDB7DEB75A837E
:10149000498321153105C9F06B017C01FC0186856A
:1014A00080FD08C0CA012417350708F4C9019A83D2
:1014B000898311C02017310758F042E050E0BE0187
:1014C0006F5F7F4FC7018EDF06C080E090E008C0ED
:1014D00080E090E005C049815A81B601C70182DFF2
:1014E0000F900F90DF91CF911F910F91FF90EF9090
:1014F000DF90CF900895AF92BF92CF92DF92EF929C
:10150000FF920F931F93CF93DF937C015B01E9015F
:101510004217530708F4EA01209779F1F701008197
:101520001181C480D580C01AD10ACC15DD0508F41C
:101530006E01F70164857585600F711FA601C501F5
:101540000E948014CC16DD0658F4AE014C195D09DA
:10155000F70164857585C5018C0D9D1D0E94801461
:101560000C0F1D1FF701848195810817190710F0D2
:10157000081B190BF70111830083CE01DF91CF9176
:101580001F910F91FF90EF90DF90CF90BF90AF90A1
:1015900008950F931F93CF93DF93DC01F80161153A
:1015A000710511F461E070E0411102C092E001C0E8
:1015B00093E02115310591F0309799F08FE0EF011C
:1015C00019928A95E9F735872487B583A4837783B1
:1015D0006683926096878E2F9F2F05C080E090E0F3
:1015E00002C08E2F9F2FDF91CF911F910F910895F1
:1015F000FC01248135818081918142815381820F58
:10160000931F0197841B950B8217930710F0821B81
:10161000930B08954F925F926F927F928F929F9259
:10162000AF92BF92CF92DF92EF92FF920F931F93F0
:10163000CF93DF9300D01F921F92CDB7DEB76C011E
:101640002B013A013D832C83FC01868580FF05C078
:101650004A01F2E08F0E911C01C04A018C819D81EC
:10166000892B09F431C0CE01019607D50FB6F89445
:101670000F92C601BDDF5C018815990500F580E079
:1016800090E0A3D64ED5F601938782870F900FBEC8
:10169000EC80FD8000E010E020E030E0A90160E097
:1016A00070E0CB0191D5F60113861286BE016C5F06
:1016B0007F4FCE010196FCD48823C1F202C00F9067
:1016C0000FBEA114B10419F4C60192DF5C018401BC
:1016D0009501A301B201C601CEDE7C01892BD9F0B0
:1016E000C6016DDEF601268137818217930798F0D7
:1016F0007AD2F60180859185892B61F0808591856C
:1017000000E010E020E040E050E0BA01E0D5F60152
:101710001186108632D3C7010F900F900F900F9053
:101720000F90DF91CF911F910F91FF90EF90DF907D
:10173000CF90BF90AF909F908F907F906F905F9071
:101740004F9008956F927F928F929F92AF92BF9227
:10175000CF92DF92EF92FF920F931F93CF93DF937D
:101760001F921F92CDB7DEB76C013B014A01790190
:10177000FC01868580FD03C0A12CB12C04C06894B7
:10178000AA24A1F8B12CE114F10429F10FB6F894C0
:101790000F92C60114DE8C01A816B90638F080E05D
:1017A00090E013D6BED4F601918780870F900FBECC
:1017B000A016B106B0F000E010E020E030E0A90192
:1017C00060E070E0CB0100D5F60111861086C601FD
:1017D000F6DD8C0103C0C601F2DD8C01A016B10656
:1017E000B8F5A114B104C1F0F601E080F1809801D0
:1017F000A501BE016F5F7F4FC6017DDE89819A81A1
:101800000A191B098816990630F4F601F182E08264
:10181000812C912C01C04C019801A401B301C60197
:101820006ADE7C01892BB1F0DED1F60182859385D9
:10183000892B61F08285938500E010E020E040E094
:1018400050E0BA0144D5F6011386128696D202C042
:10185000E12CF12CC7010F900F90DF91CF911F91D8
:101860000F91FF90EF90DF90CF90BF90AF909F903F
:101870008F907F906F900895E0912A07F0912B0749
:101880008081811107C08FEF9FEF909302078093B3
:1018900001070895E0912A07F0912B070580F68152
:1018A000E02D0680F781E02D8281938190930207DD
:1018B000809301070895FF920F931F93CF93DF93B7
:1018C000EC01F62E0091090710910A07809150074C
:1018D00090915107029642D9CF3F8FEFD80761F41C
:1018E000FF2051F060915007709151076E5F7F4F5C
:1018F0008CE097E0E1D82DC0C00FD11FE0915007D8
:10190000F0915107D383C283C017D10760F460916F
:1019100050077091510780912807909129076E5FB9
:101920007F4FEBD816C0609150077091510780919E
:101930002A0790912B076E5F7F4FDFD880910107B8
:1019400090910207C817D90720F4D0930207C093DB
:101950000107DF91CF911F910F91FF9008956F9232
:101960007F928F929F92AF92BF92CF92DF92EF922F
:10197000FF920F93CF93DF93C114D10409F4D1C028
:10198000E114F10409F4D0C0E60159013A014B0118
:101990006C01F88EEF8A65EA70E0C701BAD781E082
:1019A000681A7108EF88F88CE60CF71CD4018C914A
:1019B000898F8C918823A1F0AE01465E5F4FF401C0
:1019C0003196B8E08B0E911CCF012191DA012D9355
:1019D000AD01DC018C91882319F0E815F905A1F718
:1019E00018A2043008F003E00E8B09A31AA24E01DE
:1019F000B2E08B0E911CC4015BD8CE010C9658D876
:101A0000D987C88784E090E0801B91099D878C87E7
:101A1000DB8BCA8B1BA21CA21DA21EA21FA2A501AA
:101A2000B601C701C2D8998388830FB6F8940F9284
:101A300080910B078F5F80930B07809150079091E7
:101A40005107892B89F5D0935107C0935007809196
:101A50000B07813009F038C08CE297E01BD885E392
:101A600097E018D88EE397E015D887E497E012D86E
:101A700087EF96E00FD88EEE96E00CD88FE197E0D6
:101A800009D886E197E006D88CE097E003D887EF85
:101A900096E090932B0780932A078EEE96E0909322
:101AA00029078093280710C08091070781110CC077
:101AB000E0915007F091510796898E89891720F09F
:101AC000D0935107C0935007809103078F5F809395
:101AD00003078E8990910807981710F480930807E0
:101AE00090E09C01220F331F220F331F220F331F60
:101AF000820F931FB401845D984F0E945C050F9084
:101B00000FBE80910707882391F0E0915007F09174
:101B1000510796898E89981768F4F5D88C2F9D2FD8
:101B20000BC080E090E008C080E090E005C08C2F02
:101B30009D2F02C08C2F9D2FDF91CF910F91FF9091
:101B4000EF90DF90CF90BF90AF909F908F907F905D
:101B50006F900895CF92DF92EF92FF920F93CF9301
:101B6000DF9300D000D0CDB7DEB71E821D821C826D
:101B70001B82AE014F5F5F4FBE016D5F7F4FCE0195
:101B800005960E942A05CD80DE80EB80FC8049818D
:101B90005A8100E020E030E06CE672E082E790E0FD
:101BA000DEDE892B91F083D4813079F4F8948FEFC5
:101BB0009FEF909302078093010781E080930707CE
:101BC00010920A071092090762D826960FB6F89469
:101BD000DEBF0FBECDBFDF91CF910F91FF90EF9091
:101BE000DF90CF900895809100078F5F809300076A
:101BF00008950FB6F8940F928091090790910A0703
:101C00000F900FBE0895CF92DF92EF92FF920F9345
:101C10001F93CF93DF9380910007811198C0E090CC
:101C20000907F0900A078FEFE81AF80AF0920A07FE
:101C3000E0920907E114F104B1F480912A07909130
:101C40002B07209128073091290730932B072093E9
:101C50002A079093290780932807809104078F5FB4
:101C60008093040709DE8091010790910207E8162E
:101C7000F90610F4D12C53C0D12CCC24C394E0919C
:101C80002A07F0912B078081811107C08FEF9FEF0A
:101C9000909302078093010742C0E0912A07F091D8
:101CA0002B070580F681E02DC681D7818A819B8133
:101CB000E816F90628F490930207809301072FC0D5
:101CC0008E010E5F1F4FC8010E94AE058C899D8951
:101CD000892B21F0CE010C960E94AE058E89909141
:101CE0000807981710F48093080790E09C01220FD2
:101CF000331F220F331F220F331F820F931FB80190
:101D0000845D984F0E945C05E0915007F091510767
:101D10009E898689981708F4B2CFDC2CB0CFE09169
:101D20005007F0915107868990E0FC01EE0FFF1FEC
:101D3000EE0FFF1FEE0FFF1F8E0F9F1FFC01E45DD4
:101D4000F84F8081823048F0DD24D39406C0809122
:101D500006078F5F80930607D12C809105078823A3
:101D600011F0DD24D3948D2DDF91CF911F910F9130
:101D7000FF90EF90DF90CF900895DF92EF92FF9267
:101D80000F931F93CF93DF930FB6F8940F92809128
:101D900000078150809300078091000781115DC08A
:101DA00080910B07811133C05BC0D7011596ED916F
:101DB000FC911697C681D781CE010C960E94AE0584
:101DC0008E010E5F1F4FC8010E94AE058E89909153
:101DD0000807981710F48093080790E09C01220FE1
:101DE000331F220F331F220F331F820F931FB8019F
:101DF000845D984F0E945C05E0915007F091510777
:101E00009E898689981768F0D09205070AC0C0E0BD
:101E1000D0E00F2EFFE1EF2EF7E0FF2EF02DDD24B6
:101E2000D394F70180818111C0CFCD2B09F024DD3F
:101E3000C0910607CC2349F0D1E0E5DE8111D093B3
:101E40000507C150D1F71092060780910507882336
:101E500031F00E94830681E003C080E001C080E091
:101E60000F900FBEDF91CF911F910F91FF90EF90D8
:101E7000DF900895CF93DF93EC01892B39F0B3DE27
:101E800060E0CE0118DD79DF811102C00E94830677
:101E9000DF91CF91089580910007882321F081E0A0
:101EA00080930507089510920507A0915007B091FF
:101EB0005107E0915007F09151072D913C9187898E
:101EC000908D8217930760F06091500770915107D1
:101ED0008091500790915107675E7F4F0E941D05CA
:101EE00020910807822F90E0FC01EE0FFF1FEE0FFC
:101EF000FF1FEE0FFF1FE80FF91FE45DF84F308161
:101F0000311111C02150822F90E0FC01EE0FFF1F14
:101F1000EE0FFF1FEE0FFF1FE80FF91FE45DF84FF4
:101F20003081332379F3AC01440F551F440F551F03
:101F3000440F551F480F591FDA01A45DB84F119681
:101F4000ED91FC9112970280F381E02D1296FC93A3
:101F5000EE931197415D584FE417F50729F442813C
:101F60005381FD0152834183FC01EE0FFF1FEE0FF1
:101F7000FF1FEE0FFF1F8E0F9F1FFC01E45DF84F48
:101F80000180F281E02D86819781909351078093A3
:101F90005007209308070895CF93DF93EB016091DA
:101FA000500770915107645F7F4F0E947D0561E08B
:101FB000CE0181DCDF91CF9108950F931F93CF93D2
:101FC0008B01C42F6091500770915107645F7F4F60
:101FD0000E945C05CC2311F00FEF1FEF6C2FC8019E
:101FE0006ADCCF911F910F9108950F931F93CF93A8
:101FF000DF93DC011596ED91FC911697C681D78190
:102000008E01045F1F4FC8010E94AE05809100073A
:1020100081111CC00A501109C8010E94AE058E89A9
:1020200090910807981710F48093080790E09C019E
:10203000220F331F220F331F220F331F820F931FD4
:10204000B801845D984F0E945C0505C0B8018FE11E
:1020500097E00E945C05E0915007F09151079E893E
:102060008689891720F481E08093050701C080E00C
:10207000DF91CF911F910F9108950FB6F8940F92B1
:1020800020910407FC0120832091090730910A0761
:10209000328321830F900FBE089520910407FC0125
:1020A00020832091090730910A0732832183089504
:1020B000CF93DF930FB6F8940F92209109073091D8
:1020C0000A07DB014D915C914F3FBFEF5B07E9F0E1
:1020D000EC01E981FA81A0910407B881BA1719F0DF
:1020E0002E173F07A0F42E1B3F0B2417350740F493
:1020F000FB01421B530B51834083CFDF80E008C0BC
:10210000FB011182108281E003C080E001C081E008
:102110000F900FBEDF91CF91089581E08093050766
:102120000895809150079091510708958091070775
:10213000882331F080910007882321F080E0089502
:1021400081E0089582E008950F931F93CF93DF936A
:10215000FC01892B79F182A1815082A3268991A16A
:10216000291751F181112AC0EF018F010E5F1F4F16
:10217000C8010E94AE0589A18E8B24E030E0281BA7
:1021800031093D872C8790910807981710F48093A8
:10219000080790E09C01220F331F220F331F220FEC
:1021A000331F820F931FB801845D984F0E945C0516
:1021B00081E005C080E003C080E001C080E0DF91E5
:1021C000CF911F910F9108954F925F926F927F92DE
:1021D0008F929F92AF92BF92EF92FF920F931F93B5
:1021E00049015A010FB6F8940F92E0915007F0910F
:1021F000510727A1223021F1E0915007F0915107BA
:1022000043A054A065A076A0DC01CB0180959095F9
:10221000A095B09584219521A621B72183A394A3ED
:10222000A5A3B6A3E0915007F091510781E087A3E1
:10223000E114F10429F061E0C7013DDB0E9483064F
:102240000F900FBE0FB6F8940F920115110569F0AB
:10225000E0915007F091510783A194A1A5A1B6A1E7
:10226000F80180839183A283B383E0915007F091BA
:10227000510787A18230B1F4E0915007F0915107E6
:1022800083A194A1A5A1B6A180949094A094B094A8
:1022900088229922AA22BB2283A294A2A5A2B6A236
:1022A00081E001C080E0E0915007F091510717A252
:1022B0000F900FBE1F910F91FF90EF90BF90AF90C6
:1022C0009F908F907F906F905F904F9008950F93A5
:1022D0001F93CF93DF93FC010FB6F8940F92011573
:1022E000110549F083A194A1A5A1B6A1E8018883B5
:1022F0009983AA83BB8387A192E097A32230B1F090
:1023000018F4213031F02AC02330E9F0243001F1F3
:1023100025C003A114A125A136A1402B512B622B6E
:10232000732B43A354A365A376A318C043A154A160
:1023300065A176A14F5F5F4F6F4F7F4F43A354A3BB
:1023400065A376A30BC043A354A365A376A306C0DD
:10235000823079F143A354A365A376A3813059F564
:10236000EF018F010E5F1F4FC8010E94AE058E89DD
:1023700090910807981710F48093080790E09C014B
:10238000220F331F220F331F220F331F820F931F81
:10239000B801845D984F0E945C05E0915007F09170
:1023A00051079E898689891740F40E94830681E03F
:1023B00005C080E003C081E001C081E00F900FBE46
:1023C000DF91CF911F910F910895009721F4809193
:1023D0005007909151070FB6F8940F92FC0127A176
:1023E000223019F417A281E001C080E00F900FBEE7
:1023F0000895FC017383628391878087461757078E
:1024000090F0421B530B8485958548175907E0F4DB
:10241000BF016E5F7F4F8091BB079091BC070E9408
:102420007D0580E008954217530718F4621773077B
:1024300068F4BF016E5F7F4F8091BD079091BE072A
:102440000E947D0580E0089581E0089581E008956F
:102450000F930FB6F8940F928091B9079091BA0735
:10246000892B09F58CEA97E00E944A0583EA97E0F8
:102470000E944A058CEA97E09093BE078093BD07BF
:1024800083EA97E09093BC078093BB0700E022E5C6
:1024900037E041E757E065E08AE00E945C089093EE
:1024A000BA078093B9070F900FBE0F910895CF928E
:1024B000DF92EF92FF920F93CF93DF9300D000D083
:1024C000CDB7DEB7C5DF8091B9079091BA07892BE8
:1024D00031F11E821D821C821B82AE014F5F5F4F55
:1024E000BE016D5F7F4FCE0105960E943A05CD80FB
:1024F000DE80EB80FC8049815A8103E020E030E0FF
:1025000061E772E083E593E12ADA9C019093B807D2
:102510008093B70781E0232B19F480E001C080E0AD
:1025200026960FB6F894DEBF0FBECDBFDF91CF91D8
:102530000F91FF90EF90DF90CF9008950F931F932E
:10254000CF93DF9300D01F921F92CDB7DEB7E091FB
:10255000B907F091BA07309769F1D90169835B83B4
:102560004A839D838C836630E4F4E0DD823061F43D
:1025700020E0A801BE016F5F7F4F8091B907909165
:10258000BA070E94710817C020E040E050E0BE0189
:102590006F5F7F4F8091B9079091BA070E947108D1
:1025A0000AC020E0AD01BE016F5F7F4FCF010E94E6
:1025B000030901C080E00F900F900F900F900F90D3
:1025C000DF91CF911F910F910895AF92BF92CF925B
:1025D000DF92EF92FF920F931F93CF93DF936C01E3
:1025E00008DB7C018091B5079091B607E816F906E3
:1025F00008F047C02FC00580F681E02DA080B18093
:10260000C681D7818E010E5F1F4FC8010E94AE05A3
:10261000E989FA89CE0119958E858130D9F48C85A6
:102620009D858A0D9B1DA816B90660F49B838A833D
:10263000D987C887B8018091BD079091BE070E94D5
:102640007D0508C000E010E020E030E0A50160E07A
:10265000CE0174DFE091BD07F091BE07808181114A
:10266000CACF8091BB079091BC079093BE0780931F
:10267000BD07F093BC07E093BB0781E0F6018083C0
:1026800002C0F6011082F092B607E092B507C701CA
:10269000DF91CF911F910F91FF90EF90DF90CF903E
:1026A000BF90AF900895CF93DF9300D000D0CDB707
:1026B000DEB7CE0101964C0144244394E12CF12C69
:1026C000512CC82ED92CE091BD07F091BE07808116
:1026D000882309F4B1C00580F681E02DA080B18087
:1026E00082DAC40172DF8C018981811143C00A152D
:1026F0001B0580F142DBE091BD07F091BE0705802C
:10270000F681E02D66807780C30102960E94AE05B7
:10271000D3011E968C911E978130A1F41C966D9169
:102720007C911D976A0D7B1D9501A801C30161DE97
:10273000882341F00E2D1F2D2E2D3F2DA501652D37
:10274000C301FCDED3015196ED91FC915297C30178
:10275000199565C0452DB501601B710B8091B907B6
:102760009091BA070E94C40908DB811158C00E94E9
:10277000830655C002DB53C0898188230CF44FC007
:10278000AC80BD80F50182859385892B21F0C50140
:1027900002960E94AE05CE01069617DFAC01998124
:1027A000943089F11CF49330D0F507C09630BCF119
:1027B00098301CF0993039F132C02A813B81D50123
:1027C0001C966D917C911D97620F731FC50111DEE0
:1027D000882329F1D5015196ED91FC915297C501BD
:1027E0001995F50186858130D1F44A815B81848514
:1027F0009585480F591F0E2D1F2D2E2D3F2D652D10
:10280000C5019CDE0CC06A817B81D5011D967C933D
:102810006E931C97640F751F9A01C501EADD4E2D5A
:102820005F2D6C2D7D2D8091B9079091BA070E9484
:102830003B098111A1CF47CFD6D9C401C6DE8C0197
:102840008981811197CFE091BB07F091BC0780810E
:10285000442D8111452DAE2CBF2C7DCFF894609175
:10286000EE097091EF098091F0099091F109789447
:1028700008951F920F920FB60F9211248F939F937A
:10288000AF93BF938091EE099091EF09A091F00969
:10289000B091F1090196A11DB11D8093EE099093AD
:1028A000EF09A093F009B093F109BF91AF919F9107
:1028B0008F910F900FBE0F901F901895A1E21A2EC6
:1028C000AA1BBB1BFD010DC0AA1FBB1FEE1FFF1FD4
:1028D000A217B307E407F50720F0A21BB30BE40B24
:1028E000F50B661F771F881F991F1A9469F760956B
:1028F0007095809590959B01AC01BD01CF01089525
:10290000FB01DC0102C001900D9241505040D8F70C
:102910000895DC0101C06D9341505040E0F70895E7
:04292000F894FFCF59
:10292400567461736B3220726571756972657320B8
:10293400646174610A004E4F20646174610A005638
:102944007461736B322072656365697665732064A4
:102954006174610A00567461736B312073656E642F
:102964007320646174610A00567461736B3120735F
:10297400656E745F5F5F5F5F5220646174610A001B
:102984005461736B31005461736B320049444C459C
:0A29940000546D72205376630000BA
:00000001FF
